{"abi":[{"inputs":[{"internalType":"uint256","name":"minimum","type":"uint256"}],"name":"createCampaign","outputs":[],"stateMutability":"nonpayable","type":"function"},{"inputs":[],"name":"getDeployedCampaigns","outputs":[{"internalType":"address[]","name":"","type":"address[]"}],"stateMutability":"view","type":"function"}],"devdoc":{"kind":"dev","methods":{},"version":1},"evm":{"assembly":"    /* \"Campaign.sol\":58:414  contract CampaignFactory {... */\n  mstore(0x40, 0x80)\n  callvalue\n  dup1\n  iszero\n  tag_1\n  jumpi\n  0x00\n  dup1\n  revert\ntag_1:\n  pop\n  dataSize(sub_0)\n  dup1\n  dataOffset(sub_0)\n  0x00\n  codecopy\n  0x00\n  return\nstop\n\nsub_0: assembly {\n        /* \"Campaign.sol\":58:414  contract CampaignFactory {... */\n      mstore(0x40, 0x80)\n      callvalue\n      dup1\n      iszero\n      tag_1\n      jumpi\n      0x00\n      dup1\n      revert\n    tag_1:\n      pop\n      jumpi(tag_2, lt(calldatasize, 0x04))\n      shr(0xe0, calldataload(0x00))\n      dup1\n      0x4acb9d4f\n      eq\n      tag_3\n      jumpi\n      dup1\n      0xa3303a75\n      eq\n      tag_4\n      jumpi\n    tag_2:\n      0x00\n      dup1\n      revert\n        /* \"Campaign.sol\":301:411  function getDeployedCampaigns() public view returns(address[] memory){... */\n    tag_3:\n      tag_5\n      tag_6\n      jump\t// in\n    tag_5:\n      mload(0x40)\n      tag_7\n      swap2\n      swap1\n      tag_8\n      jump\t// in\n    tag_7:\n      mload(0x40)\n      dup1\n      swap2\n      sub\n      swap1\n      return\n        /* \"Campaign.sol\":123:295  function createCampaign(uint minimum) public {... */\n    tag_4:\n      tag_9\n      0x04\n      dup1\n      calldatasize\n      sub\n      dup2\n      add\n      swap1\n      tag_10\n      swap2\n      swap1\n      tag_11\n      jump\t// in\n    tag_10:\n      tag_12\n      jump\t// in\n    tag_9:\n      stop\n        /* \"Campaign.sol\":301:411  function getDeployedCampaigns() public view returns(address[] memory){... */\n    tag_6:\n        /* \"Campaign.sol\":353:369  address[] memory */\n      0x60\n        /* \"Campaign.sol\":387:404  deployedCampaigns */\n      0x00\n        /* \"Campaign.sol\":380:404  return deployedCampaigns */\n      dup1\n      sload\n      dup1\n      0x20\n      mul\n      0x20\n      add\n      mload(0x40)\n      swap1\n      dup2\n      add\n      0x40\n      mstore\n      dup1\n      swap3\n      swap2\n      swap1\n      dup2\n      dup2\n      mstore\n      0x20\n      add\n      dup3\n      dup1\n      sload\n      dup1\n      iszero\n      tag_14\n      jumpi\n      0x20\n      mul\n      dup3\n      add\n      swap2\n      swap1\n      0x00\n      mstore\n      keccak256(0x00, 0x20)\n      swap1\n    tag_15:\n      dup2\n      0x00\n      swap1\n      sload\n      swap1\n      0x0100\n      exp\n      swap1\n      div\n      0xffffffffffffffffffffffffffffffffffffffff\n      and\n      0xffffffffffffffffffffffffffffffffffffffff\n      and\n      dup2\n      mstore\n      0x20\n      add\n      swap1\n      0x01\n      add\n      swap1\n      dup1\n      dup4\n      gt\n      tag_15\n      jumpi\n    tag_14:\n      pop\n      pop\n      pop\n      pop\n      pop\n      swap1\n      pop\n        /* \"Campaign.sol\":301:411  function getDeployedCampaigns() public view returns(address[] memory){... */\n      swap1\n      jump\t// out\n        /* \"Campaign.sol\":123:295  function createCampaign(uint minimum) public {... */\n    tag_12:\n        /* \"Campaign.sol\":178:198  Campaign newCampaign */\n      0x00\n        /* \"Campaign.sol\":214:221  minimum */\n      dup2\n        /* \"Campaign.sol\":223:233  msg.sender */\n      caller\n        /* \"Campaign.sol\":201:234  new Campaign(minimum, msg.sender) */\n      mload(0x40)\n      tag_17\n      swap1\n      tag_18\n      jump\t// in\n    tag_17:\n      tag_19\n      swap3\n      swap2\n      swap1\n      tag_20\n      jump\t// in\n    tag_19:\n      mload(0x40)\n      dup1\n      swap2\n      sub\n      swap1\n      0x00\n      create\n      dup1\n      iszero\n      dup1\n      iszero\n      tag_21\n      jumpi\n      returndatasize\n      0x00\n      dup1\n      returndatacopy\n      revert(0x00, returndatasize)\n    tag_21:\n      pop\n        /* \"Campaign.sol\":178:234  Campaign newCampaign = new Campaign(minimum, msg.sender) */\n      swap1\n      pop\n        /* \"Campaign.sol\":244:261  deployedCampaigns */\n      0x00\n        /* \"Campaign.sol\":275:286  newCampaign */\n      dup2\n        /* \"Campaign.sol\":244:288  deployedCampaigns.push(address(newCampaign)) */\n      swap1\n      dup1\n      0x01\n      dup2\n      sload\n      add\n      dup1\n      dup3\n      sstore\n      dup1\n      swap2\n      pop\n      pop\n      0x01\n      swap1\n      sub\n      swap1\n      0x00\n      mstore\n      keccak256(0x00, 0x20)\n      add\n      0x00\n      swap1\n      swap2\n      swap1\n      swap2\n      swap1\n      swap2\n      0x0100\n      exp\n      dup2\n      sload\n      dup2\n      0xffffffffffffffffffffffffffffffffffffffff\n      mul\n      not\n      and\n      swap1\n      dup4\n      0xffffffffffffffffffffffffffffffffffffffff\n      and\n      mul\n      or\n      swap1\n      sstore\n      pop\n        /* \"Campaign.sol\":168:295  {... */\n      pop\n        /* \"Campaign.sol\":123:295  function createCampaign(uint minimum) public {... */\n      pop\n      jump\t// out\n    tag_18:\n      dataSize(sub_0)\n      dup1\n      dataOffset(sub_0)\n      dup4\n      codecopy\n      add\n      swap1\n      jump\t// out\n        /* \"#utility.yul\":7:121   */\n    tag_23:\n        /* \"#utility.yul\":74:80   */\n      0x00\n        /* \"#utility.yul\":108:113   */\n      dup2\n        /* \"#utility.yul\":102:114   */\n      mload\n        /* \"#utility.yul\":92:114   */\n      swap1\n      pop\n        /* \"#utility.yul\":7:121   */\n      swap2\n      swap1\n      pop\n      jump\t// out\n        /* \"#utility.yul\":127:311   */\n    tag_24:\n        /* \"#utility.yul\":226:237   */\n      0x00\n        /* \"#utility.yul\":260:266   */\n      dup3\n        /* \"#utility.yul\":255:258   */\n      dup3\n        /* \"#utility.yul\":248:267   */\n      mstore\n        /* \"#utility.yul\":300:304   */\n      0x20\n        /* \"#utility.yul\":295:298   */\n      dup3\n        /* \"#utility.yul\":291:305   */\n      add\n        /* \"#utility.yul\":276:305   */\n      swap1\n      pop\n        /* \"#utility.yul\":127:311   */\n      swap3\n      swap2\n      pop\n      pop\n      jump\t// out\n        /* \"#utility.yul\":317:449   */\n    tag_25:\n        /* \"#utility.yul\":384:388   */\n      0x00\n        /* \"#utility.yul\":407:410   */\n      dup2\n        /* \"#utility.yul\":399:410   */\n      swap1\n      pop\n        /* \"#utility.yul\":437:441   */\n      0x20\n        /* \"#utility.yul\":432:435   */\n      dup3\n        /* \"#utility.yul\":428:442   */\n      add\n        /* \"#utility.yul\":420:442   */\n      swap1\n      pop\n        /* \"#utility.yul\":317:449   */\n      swap2\n      swap1\n      pop\n      jump\t// out\n        /* \"#utility.yul\":455:581   */\n    tag_26:\n        /* \"#utility.yul\":492:499   */\n      0x00\n        /* \"#utility.yul\":532:574   */\n      0xffffffffffffffffffffffffffffffffffffffff\n        /* \"#utility.yul\":525:530   */\n      dup3\n        /* \"#utility.yul\":521:575   */\n      and\n        /* \"#utility.yul\":510:575   */\n      swap1\n      pop\n        /* \"#utility.yul\":455:581   */\n      swap2\n      swap1\n      pop\n      jump\t// out\n        /* \"#utility.yul\":587:683   */\n    tag_27:\n        /* \"#utility.yul\":624:631   */\n      0x00\n        /* \"#utility.yul\":653:677   */\n      tag_46\n        /* \"#utility.yul\":671:676   */\n      dup3\n        /* \"#utility.yul\":653:677   */\n      tag_26\n      jump\t// in\n    tag_46:\n        /* \"#utility.yul\":642:677   */\n      swap1\n      pop\n        /* \"#utility.yul\":587:683   */\n      swap2\n      swap1\n      pop\n      jump\t// out\n        /* \"#utility.yul\":689:797   */\n    tag_28:\n        /* \"#utility.yul\":766:790   */\n      tag_48\n        /* \"#utility.yul\":784:789   */\n      dup2\n        /* \"#utility.yul\":766:790   */\n      tag_27\n      jump\t// in\n    tag_48:\n        /* \"#utility.yul\":761:764   */\n      dup3\n        /* \"#utility.yul\":754:791   */\n      mstore\n        /* \"#utility.yul\":689:797   */\n      pop\n      pop\n      jump\t// out\n        /* \"#utility.yul\":803:982   */\n    tag_29:\n        /* \"#utility.yul\":872:882   */\n      0x00\n        /* \"#utility.yul\":893:939   */\n      tag_50\n        /* \"#utility.yul\":935:938   */\n      dup4\n        /* \"#utility.yul\":927:933   */\n      dup4\n        /* \"#utility.yul\":893:939   */\n      tag_28\n      jump\t// in\n    tag_50:\n        /* \"#utility.yul\":971:975   */\n      0x20\n        /* \"#utility.yul\":966:969   */\n      dup4\n        /* \"#utility.yul\":962:976   */\n      add\n        /* \"#utility.yul\":948:976   */\n      swap1\n      pop\n        /* \"#utility.yul\":803:982   */\n      swap3\n      swap2\n      pop\n      pop\n      jump\t// out\n        /* \"#utility.yul\":988:1101   */\n    tag_30:\n        /* \"#utility.yul\":1058:1062   */\n      0x00\n        /* \"#utility.yul\":1090:1094   */\n      0x20\n        /* \"#utility.yul\":1085:1088   */\n      dup3\n        /* \"#utility.yul\":1081:1095   */\n      add\n        /* \"#utility.yul\":1073:1095   */\n      swap1\n      pop\n        /* \"#utility.yul\":988:1101   */\n      swap2\n      swap1\n      pop\n      jump\t// out\n        /* \"#utility.yul\":1137:1869   */\n    tag_31:\n        /* \"#utility.yul\":1256:1259   */\n      0x00\n        /* \"#utility.yul\":1285:1339   */\n      tag_53\n        /* \"#utility.yul\":1333:1338   */\n      dup3\n        /* \"#utility.yul\":1285:1339   */\n      tag_23\n      jump\t// in\n    tag_53:\n        /* \"#utility.yul\":1355:1441   */\n      tag_54\n        /* \"#utility.yul\":1434:1440   */\n      dup2\n        /* \"#utility.yul\":1429:1432   */\n      dup6\n        /* \"#utility.yul\":1355:1441   */\n      tag_24\n      jump\t// in\n    tag_54:\n        /* \"#utility.yul\":1348:1441   */\n      swap4\n      pop\n        /* \"#utility.yul\":1465:1521   */\n      tag_55\n        /* \"#utility.yul\":1515:1520   */\n      dup4\n        /* \"#utility.yul\":1465:1521   */\n      tag_25\n      jump\t// in\n    tag_55:\n        /* \"#utility.yul\":1544:1551   */\n      dup1\n        /* \"#utility.yul\":1575:1576   */\n      0x00\n        /* \"#utility.yul\":1560:1844   */\n    tag_56:\n        /* \"#utility.yul\":1585:1591   */\n      dup4\n        /* \"#utility.yul\":1582:1583   */\n      dup2\n        /* \"#utility.yul\":1579:1592   */\n      lt\n        /* \"#utility.yul\":1560:1844   */\n      iszero\n      tag_58\n      jumpi\n        /* \"#utility.yul\":1661:1667   */\n      dup2\n        /* \"#utility.yul\":1655:1668   */\n      mload\n        /* \"#utility.yul\":1688:1751   */\n      tag_59\n        /* \"#utility.yul\":1747:1750   */\n      dup9\n        /* \"#utility.yul\":1732:1745   */\n      dup3\n        /* \"#utility.yul\":1688:1751   */\n      tag_29\n      jump\t// in\n    tag_59:\n        /* \"#utility.yul\":1681:1751   */\n      swap8\n      pop\n        /* \"#utility.yul\":1774:1834   */\n      tag_60\n        /* \"#utility.yul\":1827:1833   */\n      dup4\n        /* \"#utility.yul\":1774:1834   */\n      tag_30\n      jump\t// in\n    tag_60:\n        /* \"#utility.yul\":1764:1834   */\n      swap3\n      pop\n        /* \"#utility.yul\":1620:1844   */\n      pop\n        /* \"#utility.yul\":1607:1608   */\n      0x01\n        /* \"#utility.yul\":1604:1605   */\n      dup2\n        /* \"#utility.yul\":1600:1609   */\n      add\n        /* \"#utility.yul\":1595:1609   */\n      swap1\n      pop\n        /* \"#utility.yul\":1560:1844   */\n      jump(tag_56)\n    tag_58:\n        /* \"#utility.yul\":1564:1578   */\n      pop\n        /* \"#utility.yul\":1860:1863   */\n      dup6\n        /* \"#utility.yul\":1853:1863   */\n      swap4\n      pop\n        /* \"#utility.yul\":1261:1869   */\n      pop\n      pop\n      pop\n        /* \"#utility.yul\":1137:1869   */\n      swap3\n      swap2\n      pop\n      pop\n      jump\t// out\n        /* \"#utility.yul\":1875:2248   */\n    tag_8:\n        /* \"#utility.yul\":2018:2022   */\n      0x00\n        /* \"#utility.yul\":2056:2058   */\n      0x20\n        /* \"#utility.yul\":2045:2054   */\n      dup3\n        /* \"#utility.yul\":2041:2059   */\n      add\n        /* \"#utility.yul\":2033:2059   */\n      swap1\n      pop\n        /* \"#utility.yul\":2105:2114   */\n      dup2\n        /* \"#utility.yul\":2099:2103   */\n      dup2\n        /* \"#utility.yul\":2095:2115   */\n      sub\n        /* \"#utility.yul\":2091:2092   */\n      0x00\n        /* \"#utility.yul\":2080:2089   */\n      dup4\n        /* \"#utility.yul\":2076:2093   */\n      add\n        /* \"#utility.yul\":2069:2116   */\n      mstore\n        /* \"#utility.yul\":2133:2241   */\n      tag_62\n        /* \"#utility.yul\":2236:2240   */\n      dup2\n        /* \"#utility.yul\":2227:2233   */\n      dup5\n        /* \"#utility.yul\":2133:2241   */\n      tag_31\n      jump\t// in\n    tag_62:\n        /* \"#utility.yul\":2125:2241   */\n      swap1\n      pop\n        /* \"#utility.yul\":1875:2248   */\n      swap3\n      swap2\n      pop\n      pop\n      jump\t// out\n        /* \"#utility.yul\":2335:2452   */\n    tag_33:\n        /* \"#utility.yul\":2444:2445   */\n      0x00\n        /* \"#utility.yul\":2441:2442   */\n      dup1\n        /* \"#utility.yul\":2434:2446   */\n      revert\n        /* \"#utility.yul\":2581:2658   */\n    tag_35:\n        /* \"#utility.yul\":2618:2625   */\n      0x00\n        /* \"#utility.yul\":2647:2652   */\n      dup2\n        /* \"#utility.yul\":2636:2652   */\n      swap1\n      pop\n        /* \"#utility.yul\":2581:2658   */\n      swap2\n      swap1\n      pop\n      jump\t// out\n        /* \"#utility.yul\":2664:2786   */\n    tag_36:\n        /* \"#utility.yul\":2737:2761   */\n      tag_68\n        /* \"#utility.yul\":2755:2760   */\n      dup2\n        /* \"#utility.yul\":2737:2761   */\n      tag_35\n      jump\t// in\n    tag_68:\n        /* \"#utility.yul\":2730:2735   */\n      dup2\n        /* \"#utility.yul\":2727:2762   */\n      eq\n        /* \"#utility.yul\":2717:2780   */\n      tag_69\n      jumpi\n        /* \"#utility.yul\":2776:2777   */\n      0x00\n        /* \"#utility.yul\":2773:2774   */\n      dup1\n        /* \"#utility.yul\":2766:2778   */\n      revert\n        /* \"#utility.yul\":2717:2780   */\n    tag_69:\n        /* \"#utility.yul\":2664:2786   */\n      pop\n      jump\t// out\n        /* \"#utility.yul\":2792:2931   */\n    tag_37:\n        /* \"#utility.yul\":2838:2843   */\n      0x00\n        /* \"#utility.yul\":2876:2882   */\n      dup2\n        /* \"#utility.yul\":2863:2883   */\n      calldataload\n        /* \"#utility.yul\":2854:2883   */\n      swap1\n      pop\n        /* \"#utility.yul\":2892:2925   */\n      tag_71\n        /* \"#utility.yul\":2919:2924   */\n      dup2\n        /* \"#utility.yul\":2892:2925   */\n      tag_36\n      jump\t// in\n    tag_71:\n        /* \"#utility.yul\":2792:2931   */\n      swap3\n      swap2\n      pop\n      pop\n      jump\t// out\n        /* \"#utility.yul\":2937:3266   */\n    tag_11:\n        /* \"#utility.yul\":2996:3002   */\n      0x00\n        /* \"#utility.yul\":3045:3047   */\n      0x20\n        /* \"#utility.yul\":3033:3042   */\n      dup3\n        /* \"#utility.yul\":3024:3031   */\n      dup5\n        /* \"#utility.yul\":3020:3043   */\n      sub\n        /* \"#utility.yul\":3016:3048   */\n      slt\n        /* \"#utility.yul\":3013:3132   */\n      iszero\n      tag_73\n      jumpi\n        /* \"#utility.yul\":3051:3130   */\n      tag_74\n      tag_33\n      jump\t// in\n    tag_74:\n        /* \"#utility.yul\":3013:3132   */\n    tag_73:\n        /* \"#utility.yul\":3171:3172   */\n      0x00\n        /* \"#utility.yul\":3196:3249   */\n      tag_75\n        /* \"#utility.yul\":3241:3248   */\n      dup5\n        /* \"#utility.yul\":3232:3238   */\n      dup3\n        /* \"#utility.yul\":3221:3230   */\n      dup6\n        /* \"#utility.yul\":3217:3239   */\n      add\n        /* \"#utility.yul\":3196:3249   */\n      tag_37\n      jump\t// in\n    tag_75:\n        /* \"#utility.yul\":3186:3249   */\n      swap2\n      pop\n        /* \"#utility.yul\":3142:3259   */\n      pop\n        /* \"#utility.yul\":2937:3266   */\n      swap3\n      swap2\n      pop\n      pop\n      jump\t// out\n        /* \"#utility.yul\":3272:3390   */\n    tag_38:\n        /* \"#utility.yul\":3359:3383   */\n      tag_77\n        /* \"#utility.yul\":3377:3382   */\n      dup2\n        /* \"#utility.yul\":3359:3383   */\n      tag_35\n      jump\t// in\n    tag_77:\n        /* \"#utility.yul\":3354:3357   */\n      dup3\n        /* \"#utility.yul\":3347:3384   */\n      mstore\n        /* \"#utility.yul\":3272:3390   */\n      pop\n      pop\n      jump\t// out\n        /* \"#utility.yul\":3396:3514   */\n    tag_39:\n        /* \"#utility.yul\":3483:3507   */\n      tag_79\n        /* \"#utility.yul\":3501:3506   */\n      dup2\n        /* \"#utility.yul\":3483:3507   */\n      tag_27\n      jump\t// in\n    tag_79:\n        /* \"#utility.yul\":3478:3481   */\n      dup3\n        /* \"#utility.yul\":3471:3508   */\n      mstore\n        /* \"#utility.yul\":3396:3514   */\n      pop\n      pop\n      jump\t// out\n        /* \"#utility.yul\":3520:3852   */\n    tag_20:\n        /* \"#utility.yul\":3641:3645   */\n      0x00\n        /* \"#utility.yul\":3679:3681   */\n      0x40\n        /* \"#utility.yul\":3668:3677   */\n      dup3\n        /* \"#utility.yul\":3664:3682   */\n      add\n        /* \"#utility.yul\":3656:3682   */\n      swap1\n      pop\n        /* \"#utility.yul\":3692:3763   */\n      tag_81\n        /* \"#utility.yul\":3760:3761   */\n      0x00\n        /* \"#utility.yul\":3749:3758   */\n      dup4\n        /* \"#utility.yul\":3745:3762   */\n      add\n        /* \"#utility.yul\":3736:3742   */\n      dup6\n        /* \"#utility.yul\":3692:3763   */\n      tag_38\n      jump\t// in\n    tag_81:\n        /* \"#utility.yul\":3773:3845   */\n      tag_82\n        /* \"#utility.yul\":3841:3843   */\n      0x20\n        /* \"#utility.yul\":3830:3839   */\n      dup4\n        /* \"#utility.yul\":3826:3844   */\n      add\n        /* \"#utility.yul\":3817:3823   */\n      dup5\n        /* \"#utility.yul\":3773:3845   */\n      tag_39\n      jump\t// in\n    tag_82:\n        /* \"#utility.yul\":3520:3852   */\n      swap4\n      swap3\n      pop\n      pop\n      pop\n      jump\t// out\n    stop\n\n    sub_0: assembly {\n            /* \"Campaign.sol\":416:2261  contract Campaign {... */\n          mstore(0x40, 0x80)\n            /* \"Campaign.sol\":1011:1123  constructor(uint minimum, address creator) {... */\n          callvalue\n          dup1\n          iszero\n          tag_1\n          jumpi\n          0x00\n          dup1\n          revert\n        tag_1:\n          pop\n          mload(0x40)\n          sub(codesize, bytecodeSize)\n          dup1\n          bytecodeSize\n          dup4\n          codecopy\n          dup2\n          dup2\n          add\n          0x40\n          mstore\n          dup2\n          add\n          swap1\n          tag_2\n          swap2\n          swap1\n          tag_3\n          jump\t// in\n        tag_2:\n            /* \"Campaign.sol\":1074:1081  creator */\n          dup1\n            /* \"Campaign.sol\":1064:1071  manager */\n          0x00\n          dup1\n            /* \"Campaign.sol\":1064:1081  manager = creator */\n          0x0100\n          exp\n          dup2\n          sload\n          dup2\n          0xffffffffffffffffffffffffffffffffffffffff\n          mul\n          not\n          and\n          swap1\n          dup4\n          0xffffffffffffffffffffffffffffffffffffffff\n          and\n          mul\n          or\n          swap1\n          sstore\n          pop\n            /* \"Campaign.sol\":1109:1116  minimum */\n          dup2\n            /* \"Campaign.sol\":1091:1106  minContribution */\n          0x01\n            /* \"Campaign.sol\":1091:1116  minContribution = minimum */\n          dup2\n          swap1\n          sstore\n          pop\n            /* \"Campaign.sol\":1011:1123  constructor(uint minimum, address creator) {... */\n          pop\n          pop\n            /* \"Campaign.sol\":416:2261  contract Campaign {... */\n          jump(tag_6)\n            /* \"#utility.yul\":88:205   */\n        tag_8:\n            /* \"#utility.yul\":197:198   */\n          0x00\n            /* \"#utility.yul\":194:195   */\n          dup1\n            /* \"#utility.yul\":187:199   */\n          revert\n            /* \"#utility.yul\":334:411   */\n        tag_10:\n            /* \"#utility.yul\":371:378   */\n          0x00\n            /* \"#utility.yul\":400:405   */\n          dup2\n            /* \"#utility.yul\":389:405   */\n          swap1\n          pop\n            /* \"#utility.yul\":334:411   */\n          swap2\n          swap1\n          pop\n          jump\t// out\n            /* \"#utility.yul\":417:539   */\n        tag_11:\n            /* \"#utility.yul\":490:514   */\n          tag_23\n            /* \"#utility.yul\":508:513   */\n          dup2\n            /* \"#utility.yul\":490:514   */\n          tag_10\n          jump\t// in\n        tag_23:\n            /* \"#utility.yul\":483:488   */\n          dup2\n            /* \"#utility.yul\":480:515   */\n          eq\n            /* \"#utility.yul\":470:533   */\n          tag_24\n          jumpi\n            /* \"#utility.yul\":529:530   */\n          0x00\n            /* \"#utility.yul\":526:527   */\n          dup1\n            /* \"#utility.yul\":519:531   */\n          revert\n            /* \"#utility.yul\":470:533   */\n        tag_24:\n            /* \"#utility.yul\":417:539   */\n          pop\n          jump\t// out\n            /* \"#utility.yul\":545:688   */\n        tag_12:\n            /* \"#utility.yul\":602:607   */\n          0x00\n            /* \"#utility.yul\":633:639   */\n          dup2\n            /* \"#utility.yul\":627:640   */\n          mload\n            /* \"#utility.yul\":618:640   */\n          swap1\n          pop\n            /* \"#utility.yul\":649:682   */\n          tag_26\n            /* \"#utility.yul\":676:681   */\n          dup2\n            /* \"#utility.yul\":649:682   */\n          tag_11\n          jump\t// in\n        tag_26:\n            /* \"#utility.yul\":545:688   */\n          swap3\n          swap2\n          pop\n          pop\n          jump\t// out\n            /* \"#utility.yul\":694:820   */\n        tag_13:\n            /* \"#utility.yul\":731:738   */\n          0x00\n            /* \"#utility.yul\":771:813   */\n          0xffffffffffffffffffffffffffffffffffffffff\n            /* \"#utility.yul\":764:769   */\n          dup3\n            /* \"#utility.yul\":760:814   */\n          and\n            /* \"#utility.yul\":749:814   */\n          swap1\n          pop\n            /* \"#utility.yul\":694:820   */\n          swap2\n          swap1\n          pop\n          jump\t// out\n            /* \"#utility.yul\":826:922   */\n        tag_14:\n            /* \"#utility.yul\":863:870   */\n          0x00\n            /* \"#utility.yul\":892:916   */\n          tag_29\n            /* \"#utility.yul\":910:915   */\n          dup3\n            /* \"#utility.yul\":892:916   */\n          tag_13\n          jump\t// in\n        tag_29:\n            /* \"#utility.yul\":881:916   */\n          swap1\n          pop\n            /* \"#utility.yul\":826:922   */\n          swap2\n          swap1\n          pop\n          jump\t// out\n            /* \"#utility.yul\":928:1050   */\n        tag_15:\n            /* \"#utility.yul\":1001:1025   */\n          tag_31\n            /* \"#utility.yul\":1019:1024   */\n          dup2\n            /* \"#utility.yul\":1001:1025   */\n          tag_14\n          jump\t// in\n        tag_31:\n            /* \"#utility.yul\":994:999   */\n          dup2\n            /* \"#utility.yul\":991:1026   */\n          eq\n            /* \"#utility.yul\":981:1044   */\n          tag_32\n          jumpi\n            /* \"#utility.yul\":1040:1041   */\n          0x00\n            /* \"#utility.yul\":1037:1038   */\n          dup1\n            /* \"#utility.yul\":1030:1042   */\n          revert\n            /* \"#utility.yul\":981:1044   */\n        tag_32:\n            /* \"#utility.yul\":928:1050   */\n          pop\n          jump\t// out\n            /* \"#utility.yul\":1056:1199   */\n        tag_16:\n            /* \"#utility.yul\":1113:1118   */\n          0x00\n            /* \"#utility.yul\":1144:1150   */\n          dup2\n            /* \"#utility.yul\":1138:1151   */\n          mload\n            /* \"#utility.yul\":1129:1151   */\n          swap1\n          pop\n            /* \"#utility.yul\":1160:1193   */\n          tag_34\n            /* \"#utility.yul\":1187:1192   */\n          dup2\n            /* \"#utility.yul\":1160:1193   */\n          tag_15\n          jump\t// in\n        tag_34:\n            /* \"#utility.yul\":1056:1199   */\n          swap3\n          swap2\n          pop\n          pop\n          jump\t// out\n            /* \"#utility.yul\":1205:1712   */\n        tag_3:\n            /* \"#utility.yul\":1284:1290   */\n          0x00\n            /* \"#utility.yul\":1292:1298   */\n          dup1\n            /* \"#utility.yul\":1341:1343   */\n          0x40\n            /* \"#utility.yul\":1329:1338   */\n          dup4\n            /* \"#utility.yul\":1320:1327   */\n          dup6\n            /* \"#utility.yul\":1316:1339   */\n          sub\n            /* \"#utility.yul\":1312:1344   */\n          slt\n            /* \"#utility.yul\":1309:1428   */\n          iszero\n          tag_36\n          jumpi\n            /* \"#utility.yul\":1347:1426   */\n          tag_37\n          tag_8\n          jump\t// in\n        tag_37:\n            /* \"#utility.yul\":1309:1428   */\n        tag_36:\n            /* \"#utility.yul\":1467:1468   */\n          0x00\n            /* \"#utility.yul\":1492:1556   */\n          tag_38\n            /* \"#utility.yul\":1548:1555   */\n          dup6\n            /* \"#utility.yul\":1539:1545   */\n          dup3\n            /* \"#utility.yul\":1528:1537   */\n          dup7\n            /* \"#utility.yul\":1524:1546   */\n          add\n            /* \"#utility.yul\":1492:1556   */\n          tag_12\n          jump\t// in\n        tag_38:\n            /* \"#utility.yul\":1482:1556   */\n          swap3\n          pop\n            /* \"#utility.yul\":1438:1566   */\n          pop\n            /* \"#utility.yul\":1605:1607   */\n          0x20\n            /* \"#utility.yul\":1631:1695   */\n          tag_39\n            /* \"#utility.yul\":1687:1694   */\n          dup6\n            /* \"#utility.yul\":1678:1684   */\n          dup3\n            /* \"#utility.yul\":1667:1676   */\n          dup7\n            /* \"#utility.yul\":1663:1685   */\n          add\n            /* \"#utility.yul\":1631:1695   */\n          tag_16\n          jump\t// in\n        tag_39:\n            /* \"#utility.yul\":1621:1695   */\n          swap2\n          pop\n            /* \"#utility.yul\":1576:1705   */\n          pop\n            /* \"#utility.yul\":1205:1712   */\n          swap3\n          pop\n          swap3\n          swap1\n          pop\n          jump\t// out\n            /* \"Campaign.sol\":416:2261  contract Campaign {... */\n        tag_6:\n          dataSize(sub_0)\n          dup1\n          dataOffset(sub_0)\n          0x00\n          codecopy\n          0x00\n          return\n        stop\n\n        sub_0: assembly {\n                /* \"Campaign.sol\":416:2261  contract Campaign {... */\n              mstore(0x40, 0x80)\n              jumpi(tag_1, lt(calldatasize, 0x04))\n              shr(0xe0, calldataload(0x00))\n              dup1\n              0x8a9cfd55\n              gt\n              tag_11\n              jumpi\n              dup1\n              0x8a9cfd55\n              eq\n              tag_6\n              jumpi\n              dup1\n              0xaaffadf3\n              eq\n              tag_7\n              jumpi\n              dup1\n              0xd7bb99ba\n              eq\n              tag_8\n              jumpi\n              dup1\n              0xd7d1bbdb\n              eq\n              tag_9\n              jumpi\n              dup1\n              0xe7b668b4\n              eq\n              tag_10\n              jumpi\n              jump(tag_1)\n            tag_11:\n              dup1\n              0x0a144391\n              eq\n              tag_2\n              jumpi\n              dup1\n              0x481c6a75\n              eq\n              tag_3\n              jumpi\n              dup1\n              0x81d12c58\n              eq\n              tag_4\n              jumpi\n              dup1\n              0x82fde093\n              eq\n              tag_5\n              jumpi\n            tag_1:\n              0x00\n              dup1\n              revert\n                /* \"Campaign.sol\":741:782  mapping(address => bool) public approvers */\n            tag_2:\n              callvalue\n              dup1\n              iszero\n              tag_12\n              jumpi\n              0x00\n              dup1\n              revert\n            tag_12:\n              pop\n              tag_13\n              0x04\n              dup1\n              calldatasize\n              sub\n              dup2\n              add\n              swap1\n              tag_14\n              swap2\n              swap1\n              tag_15\n              jump\t// in\n            tag_14:\n              tag_16\n              jump\t// in\n            tag_13:\n              mload(0x40)\n              tag_17\n              swap2\n              swap1\n              tag_18\n              jump\t// in\n            tag_17:\n              mload(0x40)\n              dup1\n              swap2\n              sub\n              swap1\n              return\n                /* \"Campaign.sol\":680:702  address public manager */\n            tag_3:\n              callvalue\n              dup1\n              iszero\n              tag_19\n              jumpi\n              0x00\n              dup1\n              revert\n            tag_19:\n              pop\n              tag_20\n              tag_21\n              jump\t// in\n            tag_20:\n              mload(0x40)\n              tag_22\n              swap2\n              swap1\n              tag_23\n              jump\t// in\n            tag_22:\n              mload(0x40)\n              dup1\n              swap2\n              sub\n              swap1\n              return\n                /* \"Campaign.sol\":820:845  Request[] public requests */\n            tag_4:\n              callvalue\n              dup1\n              iszero\n              tag_24\n              jumpi\n              0x00\n              dup1\n              revert\n            tag_24:\n              pop\n              tag_25\n              0x04\n              dup1\n              calldatasize\n              sub\n              dup2\n              add\n              swap1\n              tag_26\n              swap2\n              swap1\n              tag_27\n              jump\t// in\n            tag_26:\n              tag_28\n              jump\t// in\n            tag_25:\n              mload(0x40)\n              tag_29\n              swap6\n              swap5\n              swap4\n              swap3\n              swap2\n              swap1\n              tag_30\n              jump\t// in\n            tag_29:\n              mload(0x40)\n              dup1\n              swap2\n              sub\n              swap1\n              return\n                /* \"Campaign.sol\":788:814  uint public approversCount */\n            tag_5:\n              callvalue\n              dup1\n              iszero\n              tag_31\n              jumpi\n              0x00\n              dup1\n              revert\n            tag_31:\n              pop\n              tag_32\n              tag_33\n              jump\t// in\n            tag_32:\n              mload(0x40)\n              tag_34\n              swap2\n              swap1\n              tag_35\n              jump\t// in\n            tag_34:\n              mload(0x40)\n              dup1\n              swap2\n              sub\n              swap1\n              return\n                /* \"Campaign.sol\":1289:1687  function createRequest(string memory description, uint value, address payable recipient)... */\n            tag_6:\n              callvalue\n              dup1\n              iszero\n              tag_36\n              jumpi\n              0x00\n              dup1\n              revert\n            tag_36:\n              pop\n              tag_37\n              0x04\n              dup1\n              calldatasize\n              sub\n              dup2\n              add\n              swap1\n              tag_38\n              swap2\n              swap1\n              tag_39\n              jump\t// in\n            tag_38:\n              tag_40\n              jump\t// in\n            tag_37:\n              stop\n                /* \"Campaign.sol\":708:735  uint public minContribution */\n            tag_7:\n              callvalue\n              dup1\n              iszero\n              tag_41\n              jumpi\n              0x00\n              dup1\n              revert\n            tag_41:\n              pop\n              tag_42\n              tag_43\n              jump\t// in\n            tag_42:\n              mload(0x40)\n              tag_44\n              swap2\n              swap1\n              tag_35\n              jump\t// in\n            tag_44:\n              mload(0x40)\n              dup1\n              swap2\n              sub\n              swap1\n              return\n                /* \"Campaign.sol\":1129:1283  function contribute() public payable {... */\n            tag_8:\n              tag_45\n              tag_46\n              jump\t// in\n            tag_45:\n              stop\n                /* \"Campaign.sol\":1693:1955  function approveRequest(uint index) public {... */\n            tag_9:\n              callvalue\n              dup1\n              iszero\n              tag_47\n              jumpi\n              0x00\n              dup1\n              revert\n            tag_47:\n              pop\n              tag_48\n              0x04\n              dup1\n              calldatasize\n              sub\n              dup2\n              add\n              swap1\n              tag_49\n              swap2\n              swap1\n              tag_27\n              jump\t// in\n            tag_49:\n              tag_50\n              jump\t// in\n            tag_48:\n              stop\n                /* \"Campaign.sol\":1961:2258  function finaliseRequest(uint index) public restricted {... */\n            tag_10:\n              callvalue\n              dup1\n              iszero\n              tag_51\n              jumpi\n              0x00\n              dup1\n              revert\n            tag_51:\n              pop\n              tag_52\n              0x04\n              dup1\n              calldatasize\n              sub\n              dup2\n              add\n              swap1\n              tag_53\n              swap2\n              swap1\n              tag_27\n              jump\t// in\n            tag_53:\n              tag_54\n              jump\t// in\n            tag_52:\n              stop\n                /* \"Campaign.sol\":741:782  mapping(address => bool) public approvers */\n            tag_16:\n              mstore(0x20, 0x02)\n              dup1\n              0x00\n              mstore\n              keccak256(0x00, 0x40)\n              0x00\n              swap2\n              pop\n              sload\n              swap1\n              0x0100\n              exp\n              swap1\n              div\n              0xff\n              and\n              dup2\n              jump\t// out\n                /* \"Campaign.sol\":680:702  address public manager */\n            tag_21:\n              0x00\n              dup1\n              sload\n              swap1\n              0x0100\n              exp\n              swap1\n              div\n              0xffffffffffffffffffffffffffffffffffffffff\n              and\n              dup2\n              jump\t// out\n                /* \"Campaign.sol\":820:845  Request[] public requests */\n            tag_28:\n              0x04\n              dup2\n              dup2\n              sload\n              dup2\n              lt\n              tag_55\n              jumpi\n              0x00\n              dup1\n              revert\n            tag_55:\n              swap1\n              0x00\n              mstore\n              keccak256(0x00, 0x20)\n              swap1\n              0x05\n              mul\n              add\n              0x00\n              swap2\n              pop\n              swap1\n              pop\n              dup1\n              0x00\n              add\n              dup1\n              sload\n              tag_57\n              swap1\n              tag_58\n              jump\t// in\n            tag_57:\n              dup1\n              0x1f\n              add\n              0x20\n              dup1\n              swap2\n              div\n              mul\n              0x20\n              add\n              mload(0x40)\n              swap1\n              dup2\n              add\n              0x40\n              mstore\n              dup1\n              swap3\n              swap2\n              swap1\n              dup2\n              dup2\n              mstore\n              0x20\n              add\n              dup3\n              dup1\n              sload\n              tag_59\n              swap1\n              tag_58\n              jump\t// in\n            tag_59:\n              dup1\n              iszero\n              tag_60\n              jumpi\n              dup1\n              0x1f\n              lt\n              tag_61\n              jumpi\n              0x0100\n              dup1\n              dup4\n              sload\n              div\n              mul\n              dup4\n              mstore\n              swap2\n              0x20\n              add\n              swap2\n              jump(tag_60)\n            tag_61:\n              dup3\n              add\n              swap2\n              swap1\n              0x00\n              mstore\n              keccak256(0x00, 0x20)\n              swap1\n            tag_62:\n              dup2\n              sload\n              dup2\n              mstore\n              swap1\n              0x01\n              add\n              swap1\n              0x20\n              add\n              dup1\n              dup4\n              gt\n              tag_62\n              jumpi\n              dup3\n              swap1\n              sub\n              0x1f\n              and\n              dup3\n              add\n              swap2\n            tag_60:\n              pop\n              pop\n              pop\n              pop\n              pop\n              swap1\n              dup1\n              0x01\n              add\n              sload\n              swap1\n              dup1\n              0x02\n              add\n              0x00\n              swap1\n              sload\n              swap1\n              0x0100\n              exp\n              swap1\n              div\n              0xffffffffffffffffffffffffffffffffffffffff\n              and\n              swap1\n              dup1\n              0x02\n              add\n              0x14\n              swap1\n              sload\n              swap1\n              0x0100\n              exp\n              swap1\n              div\n              0xff\n              and\n              swap1\n              dup1\n              0x03\n              add\n              sload\n              swap1\n              pop\n              dup6\n              jump\t// out\n                /* \"Campaign.sol\":788:814  uint public approversCount */\n            tag_33:\n              sload(0x03)\n              dup2\n              jump\t// out\n                /* \"Campaign.sol\":1289:1687  function createRequest(string memory description, uint value, address payable recipient)... */\n            tag_40:\n                /* \"Campaign.sol\":975:982  manager */\n              0x00\n              dup1\n              sload\n              swap1\n              0x0100\n              exp\n              swap1\n              div\n              0xffffffffffffffffffffffffffffffffffffffff\n              and\n                /* \"Campaign.sol\":961:982  msg.sender == manager */\n              0xffffffffffffffffffffffffffffffffffffffff\n              and\n                /* \"Campaign.sol\":961:971  msg.sender */\n              caller\n                /* \"Campaign.sol\":961:982  msg.sender == manager */\n              0xffffffffffffffffffffffffffffffffffffffff\n              and\n              eq\n                /* \"Campaign.sol\":953:983  require(msg.sender == manager) */\n              tag_64\n              jumpi\n              0x00\n              dup1\n              revert\n            tag_64:\n                /* \"Campaign.sol\":1418:1444  Request storage newRequest */\n              0x00\n                /* \"Campaign.sol\":1447:1455  requests */\n              0x04\n                /* \"Campaign.sol\":1447:1462  requests.push() */\n              0x01\n              dup2\n              0x01\n              dup2\n              sload\n              add\n              dup1\n              dup3\n              sstore\n              dup1\n              swap2\n              pop\n              pop\n              sub\n              swap1\n              0x00\n              mstore\n              keccak256(0x00, 0x20)\n              swap1\n              0x05\n              mul\n              add\n                /* \"Campaign.sol\":1418:1462  Request storage newRequest = requests.push() */\n              swap1\n              pop\n                /* \"Campaign.sol\":1502:1513  description */\n              dup4\n                /* \"Campaign.sol\":1477:1487  newRequest */\n              dup2\n                /* \"Campaign.sol\":1477:1499  newRequest.description */\n              0x00\n              add\n                /* \"Campaign.sol\":1477:1513  newRequest.description = description */\n              swap1\n              dup2\n              tag_67\n              swap2\n              swap1\n              tag_68\n              jump\t// in\n            tag_67:\n              pop\n                /* \"Campaign.sol\":1546:1551  value */\n              dup3\n                /* \"Campaign.sol\":1527:1537  newRequest */\n              dup2\n                /* \"Campaign.sol\":1527:1543  newRequest.value */\n              0x01\n              add\n                /* \"Campaign.sol\":1527:1551  newRequest.value = value */\n              dup2\n              swap1\n              sstore\n              pop\n                /* \"Campaign.sol\":1588:1597  recipient */\n              dup2\n                /* \"Campaign.sol\":1565:1575  newRequest */\n              dup2\n                /* \"Campaign.sol\":1565:1585  newRequest.recipient */\n              0x02\n              add\n              0x00\n                /* \"Campaign.sol\":1565:1597  newRequest.recipient = recipient */\n              0x0100\n              exp\n              dup2\n              sload\n              dup2\n              0xffffffffffffffffffffffffffffffffffffffff\n              mul\n              not\n              and\n              swap1\n              dup4\n              0xffffffffffffffffffffffffffffffffffffffff\n              and\n              mul\n              or\n              swap1\n              sstore\n              pop\n                /* \"Campaign.sol\":1633:1638  false */\n              0x00\n                /* \"Campaign.sol\":1611:1621  newRequest */\n              dup2\n                /* \"Campaign.sol\":1611:1630  newRequest.complete */\n              0x02\n              add\n              0x14\n                /* \"Campaign.sol\":1611:1638  newRequest.complete = false */\n              0x0100\n              exp\n              dup2\n              sload\n              dup2\n              0xff\n              mul\n              not\n              and\n              swap1\n              dup4\n              iszero\n              iszero\n              mul\n              or\n              swap1\n              sstore\n              pop\n                /* \"Campaign.sol\":1679:1680  0 */\n              0x00\n                /* \"Campaign.sol\":1652:1662  newRequest */\n              dup2\n                /* \"Campaign.sol\":1652:1676  newRequest.approvalCount */\n              0x03\n              add\n                /* \"Campaign.sol\":1652:1680  newRequest.approvalCount = 0 */\n              dup2\n              swap1\n              sstore\n              pop\n                /* \"Campaign.sol\":1404:1687  {... */\n              pop\n                /* \"Campaign.sol\":1289:1687  function createRequest(string memory description, uint value, address payable recipient)... */\n              pop\n              pop\n              pop\n              jump\t// out\n                /* \"Campaign.sol\":708:735  uint public minContribution */\n            tag_43:\n              sload(0x01)\n              dup2\n              jump\t// out\n                /* \"Campaign.sol\":1129:1283  function contribute() public payable {... */\n            tag_46:\n                /* \"Campaign.sol\":1196:1211  minContribution */\n              sload(0x01)\n                /* \"Campaign.sol\":1184:1193  msg.value */\n              callvalue\n                /* \"Campaign.sol\":1184:1211  msg.value > minContribution */\n              gt\n                /* \"Campaign.sol\":1176:1212  require(msg.value > minContribution) */\n              tag_70\n              jumpi\n              0x00\n              dup1\n              revert\n            tag_70:\n                /* \"Campaign.sol\":1246:1250  true */\n              0x01\n                /* \"Campaign.sol\":1222:1231  approvers */\n              0x02\n                /* \"Campaign.sol\":1222:1243  approvers[msg.sender] */\n              0x00\n                /* \"Campaign.sol\":1232:1242  msg.sender */\n              caller\n                /* \"Campaign.sol\":1222:1243  approvers[msg.sender] */\n              0xffffffffffffffffffffffffffffffffffffffff\n              and\n              0xffffffffffffffffffffffffffffffffffffffff\n              and\n              dup2\n              mstore\n              0x20\n              add\n              swap1\n              dup2\n              mstore\n              0x20\n              add\n              0x00\n              keccak256\n              0x00\n                /* \"Campaign.sol\":1222:1250  approvers[msg.sender] = true */\n              0x0100\n              exp\n              dup2\n              sload\n              dup2\n              0xff\n              mul\n              not\n              and\n              swap1\n              dup4\n              iszero\n              iszero\n              mul\n              or\n              swap1\n              sstore\n              pop\n                /* \"Campaign.sol\":1260:1274  approversCount */\n              0x03\n              0x00\n                /* \"Campaign.sol\":1260:1276  approversCount++ */\n              dup2\n              sload\n              dup1\n              swap3\n              swap2\n              swap1\n              tag_71\n              swap1\n              tag_72\n              jump\t// in\n            tag_71:\n              swap2\n              swap1\n              pop\n              sstore\n              pop\n                /* \"Campaign.sol\":1129:1283  function contribute() public payable {... */\n              jump\t// out\n                /* \"Campaign.sol\":1693:1955  function approveRequest(uint index) public {... */\n            tag_50:\n                /* \"Campaign.sol\":1746:1769  Request storage request */\n              0x00\n                /* \"Campaign.sol\":1772:1780  requests */\n              0x04\n                /* \"Campaign.sol\":1781:1786  index */\n              dup3\n                /* \"Campaign.sol\":1772:1787  requests[index] */\n              dup2\n              sload\n              dup2\n              lt\n              tag_74\n              jumpi\n              tag_75\n              tag_76\n              jump\t// in\n            tag_75:\n            tag_74:\n              swap1\n              0x00\n              mstore\n              keccak256(0x00, 0x20)\n              swap1\n              0x05\n              mul\n              add\n                /* \"Campaign.sol\":1746:1787  Request storage request = requests[index] */\n              swap1\n              pop\n                /* \"Campaign.sol\":1805:1814  approvers */\n              0x02\n                /* \"Campaign.sol\":1805:1826  approvers[msg.sender] */\n              0x00\n                /* \"Campaign.sol\":1815:1825  msg.sender */\n              caller\n                /* \"Campaign.sol\":1805:1826  approvers[msg.sender] */\n              0xffffffffffffffffffffffffffffffffffffffff\n              and\n              0xffffffffffffffffffffffffffffffffffffffff\n              and\n              dup2\n              mstore\n              0x20\n              add\n              swap1\n              dup2\n              mstore\n              0x20\n              add\n              0x00\n              keccak256\n              0x00\n              swap1\n              sload\n              swap1\n              0x0100\n              exp\n              swap1\n              div\n              0xff\n              and\n                /* \"Campaign.sol\":1797:1827  require(approvers[msg.sender]) */\n              tag_78\n              jumpi\n              0x00\n              dup1\n              revert\n            tag_78:\n                /* \"Campaign.sol\":1846:1853  request */\n              dup1\n                /* \"Campaign.sol\":1846:1859  request.voted */\n              0x04\n              add\n                /* \"Campaign.sol\":1846:1871  request.voted[msg.sender] */\n              0x00\n                /* \"Campaign.sol\":1860:1870  msg.sender */\n              caller\n                /* \"Campaign.sol\":1846:1871  request.voted[msg.sender] */\n              0xffffffffffffffffffffffffffffffffffffffff\n              and\n              0xffffffffffffffffffffffffffffffffffffffff\n              and\n              dup2\n              mstore\n              0x20\n              add\n              swap1\n              dup2\n              mstore\n              0x20\n              add\n              0x00\n              keccak256\n              0x00\n              swap1\n              sload\n              swap1\n              0x0100\n              exp\n              swap1\n              div\n              0xff\n              and\n                /* \"Campaign.sol\":1845:1871  !request.voted[msg.sender] */\n              iszero\n                /* \"Campaign.sol\":1837:1872  require(!request.voted[msg.sender]) */\n              tag_79\n              jumpi\n              0x00\n              dup1\n              revert\n            tag_79:\n                /* \"Campaign.sol\":1911:1915  true */\n              0x01\n                /* \"Campaign.sol\":1883:1890  request */\n              dup2\n                /* \"Campaign.sol\":1883:1896  request.voted */\n              0x04\n              add\n                /* \"Campaign.sol\":1883:1908  request.voted[msg.sender] */\n              0x00\n                /* \"Campaign.sol\":1897:1907  msg.sender */\n              caller\n                /* \"Campaign.sol\":1883:1908  request.voted[msg.sender] */\n              0xffffffffffffffffffffffffffffffffffffffff\n              and\n              0xffffffffffffffffffffffffffffffffffffffff\n              and\n              dup2\n              mstore\n              0x20\n              add\n              swap1\n              dup2\n              mstore\n              0x20\n              add\n              0x00\n              keccak256\n              0x00\n                /* \"Campaign.sol\":1883:1915  request.voted[msg.sender] = true */\n              0x0100\n              exp\n              dup2\n              sload\n              dup2\n              0xff\n              mul\n              not\n              and\n              swap1\n              dup4\n              iszero\n              iszero\n              mul\n              or\n              swap1\n              sstore\n              pop\n                /* \"Campaign.sol\":1925:1932  request */\n              dup1\n                /* \"Campaign.sol\":1925:1946  request.approvalCount */\n              0x03\n              add\n              0x00\n                /* \"Campaign.sol\":1925:1948  request.approvalCount++ */\n              dup2\n              sload\n              dup1\n              swap3\n              swap2\n              swap1\n              tag_80\n              swap1\n              tag_72\n              jump\t// in\n            tag_80:\n              swap2\n              swap1\n              pop\n              sstore\n              pop\n                /* \"Campaign.sol\":1736:1955  {... */\n              pop\n                /* \"Campaign.sol\":1693:1955  function approveRequest(uint index) public {... */\n              pop\n              jump\t// out\n                /* \"Campaign.sol\":1961:2258  function finaliseRequest(uint index) public restricted {... */\n            tag_54:\n                /* \"Campaign.sol\":975:982  manager */\n              0x00\n              dup1\n              sload\n              swap1\n              0x0100\n              exp\n              swap1\n              div\n              0xffffffffffffffffffffffffffffffffffffffff\n              and\n                /* \"Campaign.sol\":961:982  msg.sender == manager */\n              0xffffffffffffffffffffffffffffffffffffffff\n              and\n                /* \"Campaign.sol\":961:971  msg.sender */\n              caller\n                /* \"Campaign.sol\":961:982  msg.sender == manager */\n              0xffffffffffffffffffffffffffffffffffffffff\n              and\n              eq\n                /* \"Campaign.sol\":953:983  require(msg.sender == manager) */\n              tag_82\n              jumpi\n              0x00\n              dup1\n              revert\n            tag_82:\n                /* \"Campaign.sol\":2026:2049  Request storage request */\n              0x00\n                /* \"Campaign.sol\":2052:2060  requests */\n              0x04\n                /* \"Campaign.sol\":2061:2066  index */\n              dup3\n                /* \"Campaign.sol\":2052:2067  requests[index] */\n              dup2\n              sload\n              dup2\n              lt\n              tag_84\n              jumpi\n              tag_85\n              tag_76\n              jump\t// in\n            tag_85:\n            tag_84:\n              swap1\n              0x00\n              mstore\n              keccak256(0x00, 0x20)\n              swap1\n              0x05\n              mul\n              add\n                /* \"Campaign.sol\":2026:2067  Request storage request = requests[index] */\n              swap1\n              pop\n                /* \"Campaign.sol\":2086:2093  request */\n              dup1\n                /* \"Campaign.sol\":2086:2102  request.complete */\n              0x02\n              add\n              0x14\n              swap1\n              sload\n              swap1\n              0x0100\n              exp\n              swap1\n              div\n              0xff\n              and\n                /* \"Campaign.sol\":2085:2102  !request.complete */\n              iszero\n                /* \"Campaign.sol\":2077:2103  require(!request.complete) */\n              tag_87\n              jumpi\n              0x00\n              dup1\n              revert\n            tag_87:\n                /* \"Campaign.sol\":2163:2164  2 */\n              0x02\n                /* \"Campaign.sol\":2146:2160  approversCount */\n              sload(0x03)\n                /* \"Campaign.sol\":2146:2164  approversCount / 2 */\n              tag_88\n              swap2\n              swap1\n              tag_89\n              jump\t// in\n            tag_88:\n                /* \"Campaign.sol\":2121:2128  request */\n              dup2\n                /* \"Campaign.sol\":2121:2142  request.approvalCount */\n              0x03\n              add\n              sload\n                /* \"Campaign.sol\":2121:2165  request.approvalCount > (approversCount / 2) */\n              gt\n                /* \"Campaign.sol\":2113:2166  require(request.approvalCount > (approversCount / 2)) */\n              tag_90\n              jumpi\n              0x00\n              dup1\n              revert\n            tag_90:\n                /* \"Campaign.sol\":2177:2184  request */\n              dup1\n                /* \"Campaign.sol\":2177:2194  request.recipient */\n              0x02\n              add\n              0x00\n              swap1\n              sload\n              swap1\n              0x0100\n              exp\n              swap1\n              div\n              0xffffffffffffffffffffffffffffffffffffffff\n              and\n                /* \"Campaign.sol\":2177:2203  request.recipient.transfer */\n              0xffffffffffffffffffffffffffffffffffffffff\n              and\n                /* \"Campaign.sol\":2177:2218  request.recipient.transfer(request.value) */\n              0x08fc\n                /* \"Campaign.sol\":2204:2211  request */\n              dup3\n                /* \"Campaign.sol\":2204:2217  request.value */\n              0x01\n              add\n              sload\n                /* \"Campaign.sol\":2177:2218  request.recipient.transfer(request.value) */\n              swap1\n              dup2\n              iszero\n              mul\n              swap1\n              mload(0x40)\n              0x00\n              mload(0x40)\n              dup1\n              dup4\n              sub\n              dup2\n              dup6\n              dup9\n              dup9\n              call\n              swap4\n              pop\n              pop\n              pop\n              pop\n              iszero\n              dup1\n              iszero\n              tag_92\n              jumpi\n              returndatasize\n              0x00\n              dup1\n              returndatacopy\n              revert(0x00, returndatasize)\n            tag_92:\n              pop\n                /* \"Campaign.sol\":2247:2251  true */\n              0x01\n                /* \"Campaign.sol\":2228:2235  request */\n              dup2\n                /* \"Campaign.sol\":2228:2244  request.complete */\n              0x02\n              add\n              0x14\n                /* \"Campaign.sol\":2228:2251  request.complete = true */\n              0x0100\n              exp\n              dup2\n              sload\n              dup2\n              0xff\n              mul\n              not\n              and\n              swap1\n              dup4\n              iszero\n              iszero\n              mul\n              or\n              swap1\n              sstore\n              pop\n                /* \"Campaign.sol\":2016:2258  {... */\n              pop\n                /* \"Campaign.sol\":1961:2258  function finaliseRequest(uint index) public restricted {... */\n              pop\n              jump\t// out\n                /* \"#utility.yul\":7:82   */\n            tag_93:\n                /* \"#utility.yul\":40:46   */\n              0x00\n                /* \"#utility.yul\":73:75   */\n              0x40\n                /* \"#utility.yul\":67:76   */\n              mload\n                /* \"#utility.yul\":57:76   */\n              swap1\n              pop\n                /* \"#utility.yul\":7:82   */\n              swap1\n              jump\t// out\n                /* \"#utility.yul\":88:205   */\n            tag_94:\n                /* \"#utility.yul\":197:198   */\n              0x00\n                /* \"#utility.yul\":194:195   */\n              dup1\n                /* \"#utility.yul\":187:199   */\n              revert\n                /* \"#utility.yul\":211:328   */\n            tag_95:\n                /* \"#utility.yul\":320:321   */\n              0x00\n                /* \"#utility.yul\":317:318   */\n              dup1\n                /* \"#utility.yul\":310:322   */\n              revert\n                /* \"#utility.yul\":334:460   */\n            tag_96:\n                /* \"#utility.yul\":371:378   */\n              0x00\n                /* \"#utility.yul\":411:453   */\n              0xffffffffffffffffffffffffffffffffffffffff\n                /* \"#utility.yul\":404:409   */\n              dup3\n                /* \"#utility.yul\":400:454   */\n              and\n                /* \"#utility.yul\":389:454   */\n              swap1\n              pop\n                /* \"#utility.yul\":334:460   */\n              swap2\n              swap1\n              pop\n              jump\t// out\n                /* \"#utility.yul\":466:562   */\n            tag_97:\n                /* \"#utility.yul\":503:510   */\n              0x00\n                /* \"#utility.yul\":532:556   */\n              tag_149\n                /* \"#utility.yul\":550:555   */\n              dup3\n                /* \"#utility.yul\":532:556   */\n              tag_96\n              jump\t// in\n            tag_149:\n                /* \"#utility.yul\":521:556   */\n              swap1\n              pop\n                /* \"#utility.yul\":466:562   */\n              swap2\n              swap1\n              pop\n              jump\t// out\n                /* \"#utility.yul\":568:690   */\n            tag_98:\n                /* \"#utility.yul\":641:665   */\n              tag_151\n                /* \"#utility.yul\":659:664   */\n              dup2\n                /* \"#utility.yul\":641:665   */\n              tag_97\n              jump\t// in\n            tag_151:\n                /* \"#utility.yul\":634:639   */\n              dup2\n                /* \"#utility.yul\":631:666   */\n              eq\n                /* \"#utility.yul\":621:684   */\n              tag_152\n              jumpi\n                /* \"#utility.yul\":680:681   */\n              0x00\n                /* \"#utility.yul\":677:678   */\n              dup1\n                /* \"#utility.yul\":670:682   */\n              revert\n                /* \"#utility.yul\":621:684   */\n            tag_152:\n                /* \"#utility.yul\":568:690   */\n              pop\n              jump\t// out\n                /* \"#utility.yul\":696:835   */\n            tag_99:\n                /* \"#utility.yul\":742:747   */\n              0x00\n                /* \"#utility.yul\":780:786   */\n              dup2\n                /* \"#utility.yul\":767:787   */\n              calldataload\n                /* \"#utility.yul\":758:787   */\n              swap1\n              pop\n                /* \"#utility.yul\":796:829   */\n              tag_154\n                /* \"#utility.yul\":823:828   */\n              dup2\n                /* \"#utility.yul\":796:829   */\n              tag_98\n              jump\t// in\n            tag_154:\n                /* \"#utility.yul\":696:835   */\n              swap3\n              swap2\n              pop\n              pop\n              jump\t// out\n                /* \"#utility.yul\":841:1170   */\n            tag_15:\n                /* \"#utility.yul\":900:906   */\n              0x00\n                /* \"#utility.yul\":949:951   */\n              0x20\n                /* \"#utility.yul\":937:946   */\n              dup3\n                /* \"#utility.yul\":928:935   */\n              dup5\n                /* \"#utility.yul\":924:947   */\n              sub\n                /* \"#utility.yul\":920:952   */\n              slt\n                /* \"#utility.yul\":917:1036   */\n              iszero\n              tag_156\n              jumpi\n                /* \"#utility.yul\":955:1034   */\n              tag_157\n              tag_94\n              jump\t// in\n            tag_157:\n                /* \"#utility.yul\":917:1036   */\n            tag_156:\n                /* \"#utility.yul\":1075:1076   */\n              0x00\n                /* \"#utility.yul\":1100:1153   */\n              tag_158\n                /* \"#utility.yul\":1145:1152   */\n              dup5\n                /* \"#utility.yul\":1136:1142   */\n              dup3\n                /* \"#utility.yul\":1125:1134   */\n              dup6\n                /* \"#utility.yul\":1121:1143   */\n              add\n                /* \"#utility.yul\":1100:1153   */\n              tag_99\n              jump\t// in\n            tag_158:\n                /* \"#utility.yul\":1090:1153   */\n              swap2\n              pop\n                /* \"#utility.yul\":1046:1163   */\n              pop\n                /* \"#utility.yul\":841:1170   */\n              swap3\n              swap2\n              pop\n              pop\n              jump\t// out\n                /* \"#utility.yul\":1176:1266   */\n            tag_100:\n                /* \"#utility.yul\":1210:1217   */\n              0x00\n                /* \"#utility.yul\":1253:1258   */\n              dup2\n                /* \"#utility.yul\":1246:1259   */\n              iszero\n                /* \"#utility.yul\":1239:1260   */\n              iszero\n                /* \"#utility.yul\":1228:1260   */\n              swap1\n              pop\n                /* \"#utility.yul\":1176:1266   */\n              swap2\n              swap1\n              pop\n              jump\t// out\n                /* \"#utility.yul\":1272:1381   */\n            tag_101:\n                /* \"#utility.yul\":1353:1374   */\n              tag_161\n                /* \"#utility.yul\":1368:1373   */\n              dup2\n                /* \"#utility.yul\":1353:1374   */\n              tag_100\n              jump\t// in\n            tag_161:\n                /* \"#utility.yul\":1348:1351   */\n              dup3\n                /* \"#utility.yul\":1341:1375   */\n              mstore\n                /* \"#utility.yul\":1272:1381   */\n              pop\n              pop\n              jump\t// out\n                /* \"#utility.yul\":1387:1597   */\n            tag_18:\n                /* \"#utility.yul\":1474:1478   */\n              0x00\n                /* \"#utility.yul\":1512:1514   */\n              0x20\n                /* \"#utility.yul\":1501:1510   */\n              dup3\n                /* \"#utility.yul\":1497:1515   */\n              add\n                /* \"#utility.yul\":1489:1515   */\n              swap1\n              pop\n                /* \"#utility.yul\":1525:1590   */\n              tag_163\n                /* \"#utility.yul\":1587:1588   */\n              0x00\n                /* \"#utility.yul\":1576:1585   */\n              dup4\n                /* \"#utility.yul\":1572:1589   */\n              add\n                /* \"#utility.yul\":1563:1569   */\n              dup5\n                /* \"#utility.yul\":1525:1590   */\n              tag_101\n              jump\t// in\n            tag_163:\n                /* \"#utility.yul\":1387:1597   */\n              swap3\n              swap2\n              pop\n              pop\n              jump\t// out\n                /* \"#utility.yul\":1603:1721   */\n            tag_102:\n                /* \"#utility.yul\":1690:1714   */\n              tag_165\n                /* \"#utility.yul\":1708:1713   */\n              dup2\n                /* \"#utility.yul\":1690:1714   */\n              tag_97\n              jump\t// in\n            tag_165:\n                /* \"#utility.yul\":1685:1688   */\n              dup3\n                /* \"#utility.yul\":1678:1715   */\n              mstore\n                /* \"#utility.yul\":1603:1721   */\n              pop\n              pop\n              jump\t// out\n                /* \"#utility.yul\":1727:1949   */\n            tag_23:\n                /* \"#utility.yul\":1820:1824   */\n              0x00\n                /* \"#utility.yul\":1858:1860   */\n              0x20\n                /* \"#utility.yul\":1847:1856   */\n              dup3\n                /* \"#utility.yul\":1843:1861   */\n              add\n                /* \"#utility.yul\":1835:1861   */\n              swap1\n              pop\n                /* \"#utility.yul\":1871:1942   */\n              tag_167\n                /* \"#utility.yul\":1939:1940   */\n              0x00\n                /* \"#utility.yul\":1928:1937   */\n              dup4\n                /* \"#utility.yul\":1924:1941   */\n              add\n                /* \"#utility.yul\":1915:1921   */\n              dup5\n                /* \"#utility.yul\":1871:1942   */\n              tag_102\n              jump\t// in\n            tag_167:\n                /* \"#utility.yul\":1727:1949   */\n              swap3\n              swap2\n              pop\n              pop\n              jump\t// out\n                /* \"#utility.yul\":1955:2032   */\n            tag_103:\n                /* \"#utility.yul\":1992:1999   */\n              0x00\n                /* \"#utility.yul\":2021:2026   */\n              dup2\n                /* \"#utility.yul\":2010:2026   */\n              swap1\n              pop\n                /* \"#utility.yul\":1955:2032   */\n              swap2\n              swap1\n              pop\n              jump\t// out\n                /* \"#utility.yul\":2038:2160   */\n            tag_104:\n                /* \"#utility.yul\":2111:2135   */\n              tag_170\n                /* \"#utility.yul\":2129:2134   */\n              dup2\n                /* \"#utility.yul\":2111:2135   */\n              tag_103\n              jump\t// in\n            tag_170:\n                /* \"#utility.yul\":2104:2109   */\n              dup2\n                /* \"#utility.yul\":2101:2136   */\n              eq\n                /* \"#utility.yul\":2091:2154   */\n              tag_171\n              jumpi\n                /* \"#utility.yul\":2150:2151   */\n              0x00\n                /* \"#utility.yul\":2147:2148   */\n              dup1\n                /* \"#utility.yul\":2140:2152   */\n              revert\n                /* \"#utility.yul\":2091:2154   */\n            tag_171:\n                /* \"#utility.yul\":2038:2160   */\n              pop\n              jump\t// out\n                /* \"#utility.yul\":2166:2305   */\n            tag_105:\n                /* \"#utility.yul\":2212:2217   */\n              0x00\n                /* \"#utility.yul\":2250:2256   */\n              dup2\n                /* \"#utility.yul\":2237:2257   */\n              calldataload\n                /* \"#utility.yul\":2228:2257   */\n              swap1\n              pop\n                /* \"#utility.yul\":2266:2299   */\n              tag_173\n                /* \"#utility.yul\":2293:2298   */\n              dup2\n                /* \"#utility.yul\":2266:2299   */\n              tag_104\n              jump\t// in\n            tag_173:\n                /* \"#utility.yul\":2166:2305   */\n              swap3\n              swap2\n              pop\n              pop\n              jump\t// out\n                /* \"#utility.yul\":2311:2640   */\n            tag_27:\n                /* \"#utility.yul\":2370:2376   */\n              0x00\n                /* \"#utility.yul\":2419:2421   */\n              0x20\n                /* \"#utility.yul\":2407:2416   */\n              dup3\n                /* \"#utility.yul\":2398:2405   */\n              dup5\n                /* \"#utility.yul\":2394:2417   */\n              sub\n                /* \"#utility.yul\":2390:2422   */\n              slt\n                /* \"#utility.yul\":2387:2506   */\n              iszero\n              tag_175\n              jumpi\n                /* \"#utility.yul\":2425:2504   */\n              tag_176\n              tag_94\n              jump\t// in\n            tag_176:\n                /* \"#utility.yul\":2387:2506   */\n            tag_175:\n                /* \"#utility.yul\":2545:2546   */\n              0x00\n                /* \"#utility.yul\":2570:2623   */\n              tag_177\n                /* \"#utility.yul\":2615:2622   */\n              dup5\n                /* \"#utility.yul\":2606:2612   */\n              dup3\n                /* \"#utility.yul\":2595:2604   */\n              dup6\n                /* \"#utility.yul\":2591:2613   */\n              add\n                /* \"#utility.yul\":2570:2623   */\n              tag_105\n              jump\t// in\n            tag_177:\n                /* \"#utility.yul\":2560:2623   */\n              swap2\n              pop\n                /* \"#utility.yul\":2516:2633   */\n              pop\n                /* \"#utility.yul\":2311:2640   */\n              swap3\n              swap2\n              pop\n              pop\n              jump\t// out\n                /* \"#utility.yul\":2646:2745   */\n            tag_106:\n                /* \"#utility.yul\":2698:2704   */\n              0x00\n                /* \"#utility.yul\":2732:2737   */\n              dup2\n                /* \"#utility.yul\":2726:2738   */\n              mload\n                /* \"#utility.yul\":2716:2738   */\n              swap1\n              pop\n                /* \"#utility.yul\":2646:2745   */\n              swap2\n              swap1\n              pop\n              jump\t// out\n                /* \"#utility.yul\":2751:2920   */\n            tag_107:\n                /* \"#utility.yul\":2835:2846   */\n              0x00\n                /* \"#utility.yul\":2869:2875   */\n              dup3\n                /* \"#utility.yul\":2864:2867   */\n              dup3\n                /* \"#utility.yul\":2857:2876   */\n              mstore\n                /* \"#utility.yul\":2909:2913   */\n              0x20\n                /* \"#utility.yul\":2904:2907   */\n              dup3\n                /* \"#utility.yul\":2900:2914   */\n              add\n                /* \"#utility.yul\":2885:2914   */\n              swap1\n              pop\n                /* \"#utility.yul\":2751:2920   */\n              swap3\n              swap2\n              pop\n              pop\n              jump\t// out\n                /* \"#utility.yul\":2926:3172   */\n            tag_108:\n                /* \"#utility.yul\":3007:3008   */\n              0x00\n                /* \"#utility.yul\":3017:3130   */\n            tag_181:\n                /* \"#utility.yul\":3031:3037   */\n              dup4\n                /* \"#utility.yul\":3028:3029   */\n              dup2\n                /* \"#utility.yul\":3025:3038   */\n              lt\n                /* \"#utility.yul\":3017:3130   */\n              iszero\n              tag_183\n              jumpi\n                /* \"#utility.yul\":3116:3117   */\n              dup1\n                /* \"#utility.yul\":3111:3114   */\n              dup3\n                /* \"#utility.yul\":3107:3118   */\n              add\n                /* \"#utility.yul\":3101:3119   */\n              mload\n                /* \"#utility.yul\":3097:3098   */\n              dup2\n                /* \"#utility.yul\":3092:3095   */\n              dup5\n                /* \"#utility.yul\":3088:3099   */\n              add\n                /* \"#utility.yul\":3081:3120   */\n              mstore\n                /* \"#utility.yul\":3053:3055   */\n              0x20\n                /* \"#utility.yul\":3050:3051   */\n              dup2\n                /* \"#utility.yul\":3046:3056   */\n              add\n                /* \"#utility.yul\":3041:3056   */\n              swap1\n              pop\n                /* \"#utility.yul\":3017:3130   */\n              jump(tag_181)\n            tag_183:\n                /* \"#utility.yul\":3164:3165   */\n              0x00\n                /* \"#utility.yul\":3155:3161   */\n              dup5\n                /* \"#utility.yul\":3150:3153   */\n              dup5\n                /* \"#utility.yul\":3146:3162   */\n              add\n                /* \"#utility.yul\":3139:3166   */\n              mstore\n                /* \"#utility.yul\":2988:3172   */\n              pop\n                /* \"#utility.yul\":2926:3172   */\n              pop\n              pop\n              pop\n              jump\t// out\n                /* \"#utility.yul\":3178:3280   */\n            tag_109:\n                /* \"#utility.yul\":3219:3225   */\n              0x00\n                /* \"#utility.yul\":3270:3272   */\n              0x1f\n                /* \"#utility.yul\":3266:3273   */\n              not\n                /* \"#utility.yul\":3261:3263   */\n              0x1f\n                /* \"#utility.yul\":3254:3259   */\n              dup4\n                /* \"#utility.yul\":3250:3264   */\n              add\n                /* \"#utility.yul\":3246:3274   */\n              and\n                /* \"#utility.yul\":3236:3274   */\n              swap1\n              pop\n                /* \"#utility.yul\":3178:3280   */\n              swap2\n              swap1\n              pop\n              jump\t// out\n                /* \"#utility.yul\":3286:3663   */\n            tag_110:\n                /* \"#utility.yul\":3374:3377   */\n              0x00\n                /* \"#utility.yul\":3402:3441   */\n              tag_186\n                /* \"#utility.yul\":3435:3440   */\n              dup3\n                /* \"#utility.yul\":3402:3441   */\n              tag_106\n              jump\t// in\n            tag_186:\n                /* \"#utility.yul\":3457:3528   */\n              tag_187\n                /* \"#utility.yul\":3521:3527   */\n              dup2\n                /* \"#utility.yul\":3516:3519   */\n              dup6\n                /* \"#utility.yul\":3457:3528   */\n              tag_107\n              jump\t// in\n            tag_187:\n                /* \"#utility.yul\":3450:3528   */\n              swap4\n              pop\n                /* \"#utility.yul\":3537:3602   */\n              tag_188\n                /* \"#utility.yul\":3595:3601   */\n              dup2\n                /* \"#utility.yul\":3590:3593   */\n              dup6\n                /* \"#utility.yul\":3583:3587   */\n              0x20\n                /* \"#utility.yul\":3576:3581   */\n              dup7\n                /* \"#utility.yul\":3572:3588   */\n              add\n                /* \"#utility.yul\":3537:3602   */\n              tag_108\n              jump\t// in\n            tag_188:\n                /* \"#utility.yul\":3627:3656   */\n              tag_189\n                /* \"#utility.yul\":3649:3655   */\n              dup2\n                /* \"#utility.yul\":3627:3656   */\n              tag_109\n              jump\t// in\n            tag_189:\n                /* \"#utility.yul\":3622:3625   */\n              dup5\n                /* \"#utility.yul\":3618:3657   */\n              add\n                /* \"#utility.yul\":3611:3657   */\n              swap2\n              pop\n                /* \"#utility.yul\":3378:3663   */\n              pop\n                /* \"#utility.yul\":3286:3663   */\n              swap3\n              swap2\n              pop\n              pop\n              jump\t// out\n                /* \"#utility.yul\":3669:3787   */\n            tag_111:\n                /* \"#utility.yul\":3756:3780   */\n              tag_191\n                /* \"#utility.yul\":3774:3779   */\n              dup2\n                /* \"#utility.yul\":3756:3780   */\n              tag_103\n              jump\t// in\n            tag_191:\n                /* \"#utility.yul\":3751:3754   */\n              dup3\n                /* \"#utility.yul\":3744:3781   */\n              mstore\n                /* \"#utility.yul\":3669:3787   */\n              pop\n              pop\n              jump\t// out\n                /* \"#utility.yul\":3793:3897   */\n            tag_112:\n                /* \"#utility.yul\":3838:3845   */\n              0x00\n                /* \"#utility.yul\":3867:3891   */\n              tag_193\n                /* \"#utility.yul\":3885:3890   */\n              dup3\n                /* \"#utility.yul\":3867:3891   */\n              tag_96\n              jump\t// in\n            tag_193:\n                /* \"#utility.yul\":3856:3891   */\n              swap1\n              pop\n                /* \"#utility.yul\":3793:3897   */\n              swap2\n              swap1\n              pop\n              jump\t// out\n                /* \"#utility.yul\":3903:4045   */\n            tag_113:\n                /* \"#utility.yul\":4006:4038   */\n              tag_195\n                /* \"#utility.yul\":4032:4037   */\n              dup2\n                /* \"#utility.yul\":4006:4038   */\n              tag_112\n              jump\t// in\n            tag_195:\n                /* \"#utility.yul\":4001:4004   */\n              dup3\n                /* \"#utility.yul\":3994:4039   */\n              mstore\n                /* \"#utility.yul\":3903:4045   */\n              pop\n              pop\n              jump\t// out\n                /* \"#utility.yul\":4051:4826   */\n            tag_30:\n                /* \"#utility.yul\":4286:4290   */\n              0x00\n                /* \"#utility.yul\":4324:4327   */\n              0xa0\n                /* \"#utility.yul\":4313:4322   */\n              dup3\n                /* \"#utility.yul\":4309:4328   */\n              add\n                /* \"#utility.yul\":4301:4328   */\n              swap1\n              pop\n                /* \"#utility.yul\":4374:4383   */\n              dup2\n                /* \"#utility.yul\":4368:4372   */\n              dup2\n                /* \"#utility.yul\":4364:4384   */\n              sub\n                /* \"#utility.yul\":4360:4361   */\n              0x00\n                /* \"#utility.yul\":4349:4358   */\n              dup4\n                /* \"#utility.yul\":4345:4362   */\n              add\n                /* \"#utility.yul\":4338:4385   */\n              mstore\n                /* \"#utility.yul\":4402:4480   */\n              tag_197\n                /* \"#utility.yul\":4475:4479   */\n              dup2\n                /* \"#utility.yul\":4466:4472   */\n              dup9\n                /* \"#utility.yul\":4402:4480   */\n              tag_110\n              jump\t// in\n            tag_197:\n                /* \"#utility.yul\":4394:4480   */\n              swap1\n              pop\n                /* \"#utility.yul\":4490:4562   */\n              tag_198\n                /* \"#utility.yul\":4558:4560   */\n              0x20\n                /* \"#utility.yul\":4547:4556   */\n              dup4\n                /* \"#utility.yul\":4543:4561   */\n              add\n                /* \"#utility.yul\":4534:4540   */\n              dup8\n                /* \"#utility.yul\":4490:4562   */\n              tag_111\n              jump\t// in\n            tag_198:\n                /* \"#utility.yul\":4572:4660   */\n              tag_199\n                /* \"#utility.yul\":4656:4658   */\n              0x40\n                /* \"#utility.yul\":4645:4654   */\n              dup4\n                /* \"#utility.yul\":4641:4659   */\n              add\n                /* \"#utility.yul\":4632:4638   */\n              dup7\n                /* \"#utility.yul\":4572:4660   */\n              tag_113\n              jump\t// in\n            tag_199:\n                /* \"#utility.yul\":4670:4736   */\n              tag_200\n                /* \"#utility.yul\":4732:4734   */\n              0x60\n                /* \"#utility.yul\":4721:4730   */\n              dup4\n                /* \"#utility.yul\":4717:4735   */\n              add\n                /* \"#utility.yul\":4708:4714   */\n              dup6\n                /* \"#utility.yul\":4670:4736   */\n              tag_101\n              jump\t// in\n            tag_200:\n                /* \"#utility.yul\":4746:4819   */\n              tag_201\n                /* \"#utility.yul\":4814:4817   */\n              0x80\n                /* \"#utility.yul\":4803:4812   */\n              dup4\n                /* \"#utility.yul\":4799:4818   */\n              add\n                /* \"#utility.yul\":4790:4796   */\n              dup5\n                /* \"#utility.yul\":4746:4819   */\n              tag_111\n              jump\t// in\n            tag_201:\n                /* \"#utility.yul\":4051:4826   */\n              swap7\n              swap6\n              pop\n              pop\n              pop\n              pop\n              pop\n              pop\n              jump\t// out\n                /* \"#utility.yul\":4832:5054   */\n            tag_35:\n                /* \"#utility.yul\":4925:4929   */\n              0x00\n                /* \"#utility.yul\":4963:4965   */\n              0x20\n                /* \"#utility.yul\":4952:4961   */\n              dup3\n                /* \"#utility.yul\":4948:4966   */\n              add\n                /* \"#utility.yul\":4940:4966   */\n              swap1\n              pop\n                /* \"#utility.yul\":4976:5047   */\n              tag_203\n                /* \"#utility.yul\":5044:5045   */\n              0x00\n                /* \"#utility.yul\":5033:5042   */\n              dup4\n                /* \"#utility.yul\":5029:5046   */\n              add\n                /* \"#utility.yul\":5020:5026   */\n              dup5\n                /* \"#utility.yul\":4976:5047   */\n              tag_111\n              jump\t// in\n            tag_203:\n                /* \"#utility.yul\":4832:5054   */\n              swap3\n              swap2\n              pop\n              pop\n              jump\t// out\n                /* \"#utility.yul\":5060:5177   */\n            tag_114:\n                /* \"#utility.yul\":5169:5170   */\n              0x00\n                /* \"#utility.yul\":5166:5167   */\n              dup1\n                /* \"#utility.yul\":5159:5171   */\n              revert\n                /* \"#utility.yul\":5183:5300   */\n            tag_115:\n                /* \"#utility.yul\":5292:5293   */\n              0x00\n                /* \"#utility.yul\":5289:5290   */\n              dup1\n                /* \"#utility.yul\":5282:5294   */\n              revert\n                /* \"#utility.yul\":5306:5486   */\n            tag_116:\n                /* \"#utility.yul\":5354:5431   */\n              0x4e487b7100000000000000000000000000000000000000000000000000000000\n                /* \"#utility.yul\":5351:5352   */\n              0x00\n                /* \"#utility.yul\":5344:5432   */\n              mstore\n                /* \"#utility.yul\":5451:5455   */\n              0x41\n                /* \"#utility.yul\":5448:5449   */\n              0x04\n                /* \"#utility.yul\":5441:5456   */\n              mstore\n                /* \"#utility.yul\":5475:5479   */\n              0x24\n                /* \"#utility.yul\":5472:5473   */\n              0x00\n                /* \"#utility.yul\":5465:5480   */\n              revert\n                /* \"#utility.yul\":5492:5773   */\n            tag_117:\n                /* \"#utility.yul\":5575:5602   */\n              tag_208\n                /* \"#utility.yul\":5597:5601   */\n              dup3\n                /* \"#utility.yul\":5575:5602   */\n              tag_109\n              jump\t// in\n            tag_208:\n                /* \"#utility.yul\":5567:5573   */\n              dup2\n                /* \"#utility.yul\":5563:5603   */\n              add\n                /* \"#utility.yul\":5705:5711   */\n              dup2\n                /* \"#utility.yul\":5693:5703   */\n              dup2\n                /* \"#utility.yul\":5690:5712   */\n              lt\n                /* \"#utility.yul\":5669:5687   */\n              0xffffffffffffffff\n                /* \"#utility.yul\":5657:5667   */\n              dup3\n                /* \"#utility.yul\":5654:5688   */\n              gt\n                /* \"#utility.yul\":5651:5713   */\n              or\n                /* \"#utility.yul\":5648:5736   */\n              iszero\n              tag_209\n              jumpi\n                /* \"#utility.yul\":5716:5734   */\n              tag_210\n              tag_116\n              jump\t// in\n            tag_210:\n                /* \"#utility.yul\":5648:5736   */\n            tag_209:\n                /* \"#utility.yul\":5756:5766   */\n              dup1\n                /* \"#utility.yul\":5752:5754   */\n              0x40\n                /* \"#utility.yul\":5745:5767   */\n              mstore\n                /* \"#utility.yul\":5535:5773   */\n              pop\n                /* \"#utility.yul\":5492:5773   */\n              pop\n              pop\n              jump\t// out\n                /* \"#utility.yul\":5779:5908   */\n            tag_118:\n                /* \"#utility.yul\":5813:5819   */\n              0x00\n                /* \"#utility.yul\":5840:5860   */\n              tag_212\n              tag_93\n              jump\t// in\n            tag_212:\n                /* \"#utility.yul\":5830:5860   */\n              swap1\n              pop\n                /* \"#utility.yul\":5869:5902   */\n              tag_213\n                /* \"#utility.yul\":5897:5901   */\n              dup3\n                /* \"#utility.yul\":5889:5895   */\n              dup3\n                /* \"#utility.yul\":5869:5902   */\n              tag_117\n              jump\t// in\n            tag_213:\n                /* \"#utility.yul\":5779:5908   */\n              swap2\n              swap1\n              pop\n              jump\t// out\n                /* \"#utility.yul\":5914:6222   */\n            tag_119:\n                /* \"#utility.yul\":5976:5980   */\n              0x00\n                /* \"#utility.yul\":6066:6084   */\n              0xffffffffffffffff\n                /* \"#utility.yul\":6058:6064   */\n              dup3\n                /* \"#utility.yul\":6055:6085   */\n              gt\n                /* \"#utility.yul\":6052:6108   */\n              iszero\n              tag_215\n              jumpi\n                /* \"#utility.yul\":6088:6106   */\n              tag_216\n              tag_116\n              jump\t// in\n            tag_216:\n                /* \"#utility.yul\":6052:6108   */\n            tag_215:\n                /* \"#utility.yul\":6126:6155   */\n              tag_217\n                /* \"#utility.yul\":6148:6154   */\n              dup3\n                /* \"#utility.yul\":6126:6155   */\n              tag_109\n              jump\t// in\n            tag_217:\n                /* \"#utility.yul\":6118:6155   */\n              swap1\n              pop\n                /* \"#utility.yul\":6210:6214   */\n              0x20\n                /* \"#utility.yul\":6204:6208   */\n              dup2\n                /* \"#utility.yul\":6200:6215   */\n              add\n                /* \"#utility.yul\":6192:6215   */\n              swap1\n              pop\n                /* \"#utility.yul\":5914:6222   */\n              swap2\n              swap1\n              pop\n              jump\t// out\n                /* \"#utility.yul\":6228:6374   */\n            tag_120:\n                /* \"#utility.yul\":6325:6331   */\n              dup3\n                /* \"#utility.yul\":6320:6323   */\n              dup2\n                /* \"#utility.yul\":6315:6318   */\n              dup4\n                /* \"#utility.yul\":6302:6332   */\n              calldatacopy\n                /* \"#utility.yul\":6366:6367   */\n              0x00\n                /* \"#utility.yul\":6357:6363   */\n              dup4\n                /* \"#utility.yul\":6352:6355   */\n              dup4\n                /* \"#utility.yul\":6348:6364   */\n              add\n                /* \"#utility.yul\":6341:6368   */\n              mstore\n                /* \"#utility.yul\":6228:6374   */\n              pop\n              pop\n              pop\n              jump\t// out\n                /* \"#utility.yul\":6380:6805   */\n            tag_121:\n                /* \"#utility.yul\":6458:6463   */\n              0x00\n                /* \"#utility.yul\":6483:6549   */\n              tag_220\n                /* \"#utility.yul\":6499:6548   */\n              tag_221\n                /* \"#utility.yul\":6541:6547   */\n              dup5\n                /* \"#utility.yul\":6499:6548   */\n              tag_119\n              jump\t// in\n            tag_221:\n                /* \"#utility.yul\":6483:6549   */\n              tag_118\n              jump\t// in\n            tag_220:\n                /* \"#utility.yul\":6474:6549   */\n              swap1\n              pop\n                /* \"#utility.yul\":6572:6578   */\n              dup3\n                /* \"#utility.yul\":6565:6570   */\n              dup2\n                /* \"#utility.yul\":6558:6579   */\n              mstore\n                /* \"#utility.yul\":6610:6614   */\n              0x20\n                /* \"#utility.yul\":6603:6608   */\n              dup2\n                /* \"#utility.yul\":6599:6615   */\n              add\n                /* \"#utility.yul\":6648:6651   */\n              dup5\n                /* \"#utility.yul\":6639:6645   */\n              dup5\n                /* \"#utility.yul\":6634:6637   */\n              dup5\n                /* \"#utility.yul\":6630:6646   */\n              add\n                /* \"#utility.yul\":6627:6652   */\n              gt\n                /* \"#utility.yul\":6624:6736   */\n              iszero\n              tag_222\n              jumpi\n                /* \"#utility.yul\":6655:6734   */\n              tag_223\n              tag_115\n              jump\t// in\n            tag_223:\n                /* \"#utility.yul\":6624:6736   */\n            tag_222:\n                /* \"#utility.yul\":6745:6799   */\n              tag_224\n                /* \"#utility.yul\":6792:6798   */\n              dup5\n                /* \"#utility.yul\":6787:6790   */\n              dup3\n                /* \"#utility.yul\":6782:6785   */\n              dup6\n                /* \"#utility.yul\":6745:6799   */\n              tag_120\n              jump\t// in\n            tag_224:\n                /* \"#utility.yul\":6464:6805   */\n              pop\n                /* \"#utility.yul\":6380:6805   */\n              swap4\n              swap3\n              pop\n              pop\n              pop\n              jump\t// out\n                /* \"#utility.yul\":6825:7165   */\n            tag_122:\n                /* \"#utility.yul\":6881:6886   */\n              0x00\n                /* \"#utility.yul\":6930:6933   */\n              dup3\n                /* \"#utility.yul\":6923:6927   */\n              0x1f\n                /* \"#utility.yul\":6915:6921   */\n              dup4\n                /* \"#utility.yul\":6911:6928   */\n              add\n                /* \"#utility.yul\":6907:6934   */\n              slt\n                /* \"#utility.yul\":6897:7019   */\n              tag_226\n              jumpi\n                /* \"#utility.yul\":6938:7017   */\n              tag_227\n              tag_114\n              jump\t// in\n            tag_227:\n                /* \"#utility.yul\":6897:7019   */\n            tag_226:\n                /* \"#utility.yul\":7055:7061   */\n              dup2\n                /* \"#utility.yul\":7042:7062   */\n              calldataload\n                /* \"#utility.yul\":7080:7159   */\n              tag_228\n                /* \"#utility.yul\":7155:7158   */\n              dup5\n                /* \"#utility.yul\":7147:7153   */\n              dup3\n                /* \"#utility.yul\":7140:7144   */\n              0x20\n                /* \"#utility.yul\":7132:7138   */\n              dup7\n                /* \"#utility.yul\":7128:7145   */\n              add\n                /* \"#utility.yul\":7080:7159   */\n              tag_121\n              jump\t// in\n            tag_228:\n                /* \"#utility.yul\":7071:7159   */\n              swap2\n              pop\n                /* \"#utility.yul\":6887:7165   */\n              pop\n                /* \"#utility.yul\":6825:7165   */\n              swap3\n              swap2\n              pop\n              pop\n              jump\t// out\n                /* \"#utility.yul\":7171:7309   */\n            tag_123:\n                /* \"#utility.yul\":7252:7284   */\n              tag_230\n                /* \"#utility.yul\":7278:7283   */\n              dup2\n                /* \"#utility.yul\":7252:7284   */\n              tag_112\n              jump\t// in\n            tag_230:\n                /* \"#utility.yul\":7245:7250   */\n              dup2\n                /* \"#utility.yul\":7242:7285   */\n              eq\n                /* \"#utility.yul\":7232:7303   */\n              tag_231\n              jumpi\n                /* \"#utility.yul\":7299:7300   */\n              0x00\n                /* \"#utility.yul\":7296:7297   */\n              dup1\n                /* \"#utility.yul\":7289:7301   */\n              revert\n                /* \"#utility.yul\":7232:7303   */\n            tag_231:\n                /* \"#utility.yul\":7171:7309   */\n              pop\n              jump\t// out\n                /* \"#utility.yul\":7315:7470   */\n            tag_124:\n                /* \"#utility.yul\":7369:7374   */\n              0x00\n                /* \"#utility.yul\":7407:7413   */\n              dup2\n                /* \"#utility.yul\":7394:7414   */\n              calldataload\n                /* \"#utility.yul\":7385:7414   */\n              swap1\n              pop\n                /* \"#utility.yul\":7423:7464   */\n              tag_233\n                /* \"#utility.yul\":7458:7463   */\n              dup2\n                /* \"#utility.yul\":7423:7464   */\n              tag_123\n              jump\t// in\n            tag_233:\n                /* \"#utility.yul\":7315:7470   */\n              swap3\n              swap2\n              pop\n              pop\n              jump\t// out\n                /* \"#utility.yul\":7476:8291   */\n            tag_39:\n                /* \"#utility.yul\":7571:7577   */\n              0x00\n                /* \"#utility.yul\":7579:7585   */\n              dup1\n                /* \"#utility.yul\":7587:7593   */\n              0x00\n                /* \"#utility.yul\":7636:7638   */\n              0x60\n                /* \"#utility.yul\":7624:7633   */\n              dup5\n                /* \"#utility.yul\":7615:7622   */\n              dup7\n                /* \"#utility.yul\":7611:7634   */\n              sub\n                /* \"#utility.yul\":7607:7639   */\n              slt\n                /* \"#utility.yul\":7604:7723   */\n              iszero\n              tag_235\n              jumpi\n                /* \"#utility.yul\":7642:7721   */\n              tag_236\n              tag_94\n              jump\t// in\n            tag_236:\n                /* \"#utility.yul\":7604:7723   */\n            tag_235:\n                /* \"#utility.yul\":7790:7791   */\n              0x00\n                /* \"#utility.yul\":7779:7788   */\n              dup5\n                /* \"#utility.yul\":7775:7792   */\n              add\n                /* \"#utility.yul\":7762:7793   */\n              calldataload\n                /* \"#utility.yul\":7820:7838   */\n              0xffffffffffffffff\n                /* \"#utility.yul\":7812:7818   */\n              dup2\n                /* \"#utility.yul\":7809:7839   */\n              gt\n                /* \"#utility.yul\":7806:7923   */\n              iszero\n              tag_237\n              jumpi\n                /* \"#utility.yul\":7842:7921   */\n              tag_238\n              tag_95\n              jump\t// in\n            tag_238:\n                /* \"#utility.yul\":7806:7923   */\n            tag_237:\n                /* \"#utility.yul\":7947:8010   */\n              tag_239\n                /* \"#utility.yul\":8002:8009   */\n              dup7\n                /* \"#utility.yul\":7993:7999   */\n              dup3\n                /* \"#utility.yul\":7982:7991   */\n              dup8\n                /* \"#utility.yul\":7978:8000   */\n              add\n                /* \"#utility.yul\":7947:8010   */\n              tag_122\n              jump\t// in\n            tag_239:\n                /* \"#utility.yul\":7937:8010   */\n              swap4\n              pop\n                /* \"#utility.yul\":7733:8020   */\n              pop\n                /* \"#utility.yul\":8059:8061   */\n              0x20\n                /* \"#utility.yul\":8085:8138   */\n              tag_240\n                /* \"#utility.yul\":8130:8137   */\n              dup7\n                /* \"#utility.yul\":8121:8127   */\n              dup3\n                /* \"#utility.yul\":8110:8119   */\n              dup8\n                /* \"#utility.yul\":8106:8128   */\n              add\n                /* \"#utility.yul\":8085:8138   */\n              tag_105\n              jump\t// in\n            tag_240:\n                /* \"#utility.yul\":8075:8138   */\n              swap3\n              pop\n                /* \"#utility.yul\":8030:8148   */\n              pop\n                /* \"#utility.yul\":8187:8189   */\n              0x40\n                /* \"#utility.yul\":8213:8274   */\n              tag_241\n                /* \"#utility.yul\":8266:8273   */\n              dup7\n                /* \"#utility.yul\":8257:8263   */\n              dup3\n                /* \"#utility.yul\":8246:8255   */\n              dup8\n                /* \"#utility.yul\":8242:8264   */\n              add\n                /* \"#utility.yul\":8213:8274   */\n              tag_124\n              jump\t// in\n            tag_241:\n                /* \"#utility.yul\":8203:8274   */\n              swap2\n              pop\n                /* \"#utility.yul\":8158:8284   */\n              pop\n                /* \"#utility.yul\":7476:8291   */\n              swap3\n              pop\n              swap3\n              pop\n              swap3\n              jump\t// out\n                /* \"#utility.yul\":8297:8477   */\n            tag_125:\n                /* \"#utility.yul\":8345:8422   */\n              0x4e487b7100000000000000000000000000000000000000000000000000000000\n                /* \"#utility.yul\":8342:8343   */\n              0x00\n                /* \"#utility.yul\":8335:8423   */\n              mstore\n                /* \"#utility.yul\":8442:8446   */\n              0x22\n                /* \"#utility.yul\":8439:8440   */\n              0x04\n                /* \"#utility.yul\":8432:8447   */\n              mstore\n                /* \"#utility.yul\":8466:8470   */\n              0x24\n                /* \"#utility.yul\":8463:8464   */\n              0x00\n                /* \"#utility.yul\":8456:8471   */\n              revert\n                /* \"#utility.yul\":8483:8803   */\n            tag_58:\n                /* \"#utility.yul\":8527:8533   */\n              0x00\n                /* \"#utility.yul\":8564:8565   */\n              0x02\n                /* \"#utility.yul\":8558:8562   */\n              dup3\n                /* \"#utility.yul\":8554:8566   */\n              div\n                /* \"#utility.yul\":8544:8566   */\n              swap1\n              pop\n                /* \"#utility.yul\":8611:8612   */\n              0x01\n                /* \"#utility.yul\":8605:8609   */\n              dup3\n                /* \"#utility.yul\":8601:8613   */\n              and\n                /* \"#utility.yul\":8632:8650   */\n              dup1\n                /* \"#utility.yul\":8622:8703   */\n              tag_244\n              jumpi\n                /* \"#utility.yul\":8688:8692   */\n              0x7f\n                /* \"#utility.yul\":8680:8686   */\n              dup3\n                /* \"#utility.yul\":8676:8693   */\n              and\n                /* \"#utility.yul\":8666:8693   */\n              swap2\n              pop\n                /* \"#utility.yul\":8622:8703   */\n            tag_244:\n                /* \"#utility.yul\":8750:8752   */\n              0x20\n                /* \"#utility.yul\":8742:8748   */\n              dup3\n                /* \"#utility.yul\":8739:8753   */\n              lt\n                /* \"#utility.yul\":8719:8737   */\n              dup2\n                /* \"#utility.yul\":8716:8754   */\n              sub\n                /* \"#utility.yul\":8713:8797   */\n              tag_245\n              jumpi\n                /* \"#utility.yul\":8769:8787   */\n              tag_246\n              tag_125\n              jump\t// in\n            tag_246:\n                /* \"#utility.yul\":8713:8797   */\n            tag_245:\n                /* \"#utility.yul\":8534:8803   */\n              pop\n                /* \"#utility.yul\":8483:8803   */\n              swap2\n              swap1\n              pop\n              jump\t// out\n                /* \"#utility.yul\":8809:8950   */\n            tag_126:\n                /* \"#utility.yul\":8858:8862   */\n              0x00\n                /* \"#utility.yul\":8881:8884   */\n              dup2\n                /* \"#utility.yul\":8873:8884   */\n              swap1\n              pop\n                /* \"#utility.yul\":8904:8907   */\n              dup2\n                /* \"#utility.yul\":8901:8902   */\n              0x00\n                /* \"#utility.yul\":8894:8908   */\n              mstore\n                /* \"#utility.yul\":8938:8942   */\n              0x20\n                /* \"#utility.yul\":8935:8936   */\n              0x00\n                /* \"#utility.yul\":8925:8943   */\n              keccak256\n                /* \"#utility.yul\":8917:8943   */\n              swap1\n              pop\n                /* \"#utility.yul\":8809:8950   */\n              swap2\n              swap1\n              pop\n              jump\t// out\n                /* \"#utility.yul\":8956:9049   */\n            tag_127:\n                /* \"#utility.yul\":8993:8999   */\n              0x00\n                /* \"#utility.yul\":9040:9042   */\n              0x20\n                /* \"#utility.yul\":9035:9037   */\n              0x1f\n                /* \"#utility.yul\":9028:9033   */\n              dup4\n                /* \"#utility.yul\":9024:9038   */\n              add\n                /* \"#utility.yul\":9020:9043   */\n              div\n                /* \"#utility.yul\":9010:9043   */\n              swap1\n              pop\n                /* \"#utility.yul\":8956:9049   */\n              swap2\n              swap1\n              pop\n              jump\t// out\n                /* \"#utility.yul\":9055:9162   */\n            tag_128:\n                /* \"#utility.yul\":9099:9107   */\n              0x00\n                /* \"#utility.yul\":9149:9154   */\n              dup3\n                /* \"#utility.yul\":9143:9147   */\n              dup3\n                /* \"#utility.yul\":9139:9155   */\n              shl\n                /* \"#utility.yul\":9118:9155   */\n              swap1\n              pop\n                /* \"#utility.yul\":9055:9162   */\n              swap3\n              swap2\n              pop\n              pop\n              jump\t// out\n                /* \"#utility.yul\":9168:9561   */\n            tag_129:\n                /* \"#utility.yul\":9237:9243   */\n              0x00\n                /* \"#utility.yul\":9287:9288   */\n              0x08\n                /* \"#utility.yul\":9275:9285   */\n              dup4\n                /* \"#utility.yul\":9271:9289   */\n              mul\n                /* \"#utility.yul\":9310:9407   */\n              tag_251\n                /* \"#utility.yul\":9340:9406   */\n              0xffffffffffffffffffffffffffffffffffffffffffffffffffffffffffffffff\n                /* \"#utility.yul\":9329:9338   */\n              dup3\n                /* \"#utility.yul\":9310:9407   */\n              tag_128\n              jump\t// in\n            tag_251:\n                /* \"#utility.yul\":9428:9467   */\n              tag_252\n                /* \"#utility.yul\":9458:9466   */\n              dup7\n                /* \"#utility.yul\":9447:9456   */\n              dup4\n                /* \"#utility.yul\":9428:9467   */\n              tag_128\n              jump\t// in\n            tag_252:\n                /* \"#utility.yul\":9416:9467   */\n              swap6\n              pop\n                /* \"#utility.yul\":9500:9504   */\n              dup1\n                /* \"#utility.yul\":9496:9505   */\n              not\n                /* \"#utility.yul\":9489:9494   */\n              dup5\n                /* \"#utility.yul\":9485:9506   */\n              and\n                /* \"#utility.yul\":9476:9506   */\n              swap4\n              pop\n                /* \"#utility.yul\":9549:9553   */\n              dup1\n                /* \"#utility.yul\":9539:9547   */\n              dup7\n                /* \"#utility.yul\":9535:9554   */\n              and\n                /* \"#utility.yul\":9528:9533   */\n              dup5\n                /* \"#utility.yul\":9525:9555   */\n              or\n                /* \"#utility.yul\":9515:9555   */\n              swap3\n              pop\n                /* \"#utility.yul\":9244:9561   */\n              pop\n              pop\n                /* \"#utility.yul\":9168:9561   */\n              swap4\n              swap3\n              pop\n              pop\n              pop\n              jump\t// out\n                /* \"#utility.yul\":9567:9627   */\n            tag_130:\n                /* \"#utility.yul\":9595:9598   */\n              0x00\n                /* \"#utility.yul\":9616:9621   */\n              dup2\n                /* \"#utility.yul\":9609:9621   */\n              swap1\n              pop\n                /* \"#utility.yul\":9567:9627   */\n              swap2\n              swap1\n              pop\n              jump\t// out\n                /* \"#utility.yul\":9633:9775   */\n            tag_131:\n                /* \"#utility.yul\":9683:9692   */\n              0x00\n                /* \"#utility.yul\":9716:9769   */\n              tag_255\n                /* \"#utility.yul\":9734:9768   */\n              tag_256\n                /* \"#utility.yul\":9743:9767   */\n              tag_257\n                /* \"#utility.yul\":9761:9766   */\n              dup5\n                /* \"#utility.yul\":9743:9767   */\n              tag_103\n              jump\t// in\n            tag_257:\n                /* \"#utility.yul\":9734:9768   */\n              tag_130\n              jump\t// in\n            tag_256:\n                /* \"#utility.yul\":9716:9769   */\n              tag_103\n              jump\t// in\n            tag_255:\n                /* \"#utility.yul\":9703:9769   */\n              swap1\n              pop\n                /* \"#utility.yul\":9633:9775   */\n              swap2\n              swap1\n              pop\n              jump\t// out\n                /* \"#utility.yul\":9781:9856   */\n            tag_132:\n                /* \"#utility.yul\":9824:9827   */\n              0x00\n                /* \"#utility.yul\":9845:9850   */\n              dup2\n                /* \"#utility.yul\":9838:9850   */\n              swap1\n              pop\n                /* \"#utility.yul\":9781:9856   */\n              swap2\n              swap1\n              pop\n              jump\t// out\n                /* \"#utility.yul\":9862:10131   */\n            tag_133:\n                /* \"#utility.yul\":9972:10011   */\n              tag_260\n                /* \"#utility.yul\":10003:10010   */\n              dup4\n                /* \"#utility.yul\":9972:10011   */\n              tag_131\n              jump\t// in\n            tag_260:\n                /* \"#utility.yul\":10033:10124   */\n              tag_261\n                /* \"#utility.yul\":10082:10123   */\n              tag_262\n                /* \"#utility.yul\":10106:10122   */\n              dup3\n                /* \"#utility.yul\":10082:10123   */\n              tag_132\n              jump\t// in\n            tag_262:\n                /* \"#utility.yul\":10074:10080   */\n              dup5\n                /* \"#utility.yul\":10067:10071   */\n              dup5\n                /* \"#utility.yul\":10061:10072   */\n              sload\n                /* \"#utility.yul\":10033:10124   */\n              tag_129\n              jump\t// in\n            tag_261:\n                /* \"#utility.yul\":10027:10031   */\n              dup3\n                /* \"#utility.yul\":10020:10125   */\n              sstore\n                /* \"#utility.yul\":9938:10131   */\n              pop\n                /* \"#utility.yul\":9862:10131   */\n              pop\n              pop\n              pop\n              jump\t// out\n                /* \"#utility.yul\":10137:10210   */\n            tag_134:\n                /* \"#utility.yul\":10182:10185   */\n              0x00\n                /* \"#utility.yul\":10137:10210   */\n              swap1\n              jump\t// out\n                /* \"#utility.yul\":10216:10405   */\n            tag_135:\n                /* \"#utility.yul\":10293:10325   */\n              tag_265\n              tag_134\n              jump\t// in\n            tag_265:\n                /* \"#utility.yul\":10334:10399   */\n              tag_266\n                /* \"#utility.yul\":10392:10398   */\n              dup2\n                /* \"#utility.yul\":10384:10390   */\n              dup5\n                /* \"#utility.yul\":10378:10382   */\n              dup5\n                /* \"#utility.yul\":10334:10399   */\n              tag_133\n              jump\t// in\n            tag_266:\n                /* \"#utility.yul\":10269:10405   */\n              pop\n                /* \"#utility.yul\":10216:10405   */\n              pop\n              pop\n              jump\t// out\n                /* \"#utility.yul\":10411:10597   */\n            tag_136:\n                /* \"#utility.yul\":10471:10591   */\n            tag_268:\n                /* \"#utility.yul\":10488:10491   */\n              dup2\n                /* \"#utility.yul\":10481:10486   */\n              dup2\n                /* \"#utility.yul\":10478:10492   */\n              lt\n                /* \"#utility.yul\":10471:10591   */\n              iszero\n              tag_270\n              jumpi\n                /* \"#utility.yul\":10542:10581   */\n              tag_271\n                /* \"#utility.yul\":10579:10580   */\n              0x00\n                /* \"#utility.yul\":10572:10577   */\n              dup3\n                /* \"#utility.yul\":10542:10581   */\n              tag_135\n              jump\t// in\n            tag_271:\n                /* \"#utility.yul\":10515:10516   */\n              0x01\n                /* \"#utility.yul\":10508:10513   */\n              dup2\n                /* \"#utility.yul\":10504:10517   */\n              add\n                /* \"#utility.yul\":10495:10517   */\n              swap1\n              pop\n                /* \"#utility.yul\":10471:10591   */\n              jump(tag_268)\n            tag_270:\n                /* \"#utility.yul\":10411:10597   */\n              pop\n              pop\n              jump\t// out\n                /* \"#utility.yul\":10603:11146   */\n            tag_137:\n                /* \"#utility.yul\":10704:10706   */\n              0x1f\n                /* \"#utility.yul\":10699:10702   */\n              dup3\n                /* \"#utility.yul\":10696:10707   */\n              gt\n                /* \"#utility.yul\":10693:11139   */\n              iszero\n              tag_273\n              jumpi\n                /* \"#utility.yul\":10738:10776   */\n              tag_274\n                /* \"#utility.yul\":10770:10775   */\n              dup2\n                /* \"#utility.yul\":10738:10776   */\n              tag_126\n              jump\t// in\n            tag_274:\n                /* \"#utility.yul\":10822:10851   */\n              tag_275\n                /* \"#utility.yul\":10840:10850   */\n              dup5\n                /* \"#utility.yul\":10822:10851   */\n              tag_127\n              jump\t// in\n            tag_275:\n                /* \"#utility.yul\":10812:10820   */\n              dup2\n                /* \"#utility.yul\":10808:10852   */\n              add\n                /* \"#utility.yul\":11005:11007   */\n              0x20\n                /* \"#utility.yul\":10993:11003   */\n              dup6\n                /* \"#utility.yul\":10990:11008   */\n              lt\n                /* \"#utility.yul\":10987:11036   */\n              iszero\n              tag_276\n              jumpi\n                /* \"#utility.yul\":11026:11034   */\n              dup2\n                /* \"#utility.yul\":11011:11034   */\n              swap1\n              pop\n                /* \"#utility.yul\":10987:11036   */\n            tag_276:\n                /* \"#utility.yul\":11049:11129   */\n              tag_277\n                /* \"#utility.yul\":11105:11127   */\n              tag_278\n                /* \"#utility.yul\":11123:11126   */\n              dup6\n                /* \"#utility.yul\":11105:11127   */\n              tag_127\n              jump\t// in\n            tag_278:\n                /* \"#utility.yul\":11095:11103   */\n              dup4\n                /* \"#utility.yul\":11091:11128   */\n              add\n                /* \"#utility.yul\":11078:11089   */\n              dup3\n                /* \"#utility.yul\":11049:11129   */\n              tag_136\n              jump\t// in\n            tag_277:\n                /* \"#utility.yul\":10708:11139   */\n              pop\n              pop\n                /* \"#utility.yul\":10693:11139   */\n            tag_273:\n                /* \"#utility.yul\":10603:11146   */\n              pop\n              pop\n              pop\n              jump\t// out\n                /* \"#utility.yul\":11152:11269   */\n            tag_138:\n                /* \"#utility.yul\":11206:11214   */\n              0x00\n                /* \"#utility.yul\":11256:11261   */\n              dup3\n                /* \"#utility.yul\":11250:11254   */\n              dup3\n                /* \"#utility.yul\":11246:11262   */\n              shr\n                /* \"#utility.yul\":11225:11262   */\n              swap1\n              pop\n                /* \"#utility.yul\":11152:11269   */\n              swap3\n              swap2\n              pop\n              pop\n              jump\t// out\n                /* \"#utility.yul\":11275:11444   */\n            tag_139:\n                /* \"#utility.yul\":11319:11325   */\n              0x00\n                /* \"#utility.yul\":11352:11403   */\n              tag_281\n                /* \"#utility.yul\":11400:11401   */\n              0x00\n                /* \"#utility.yul\":11396:11402   */\n              not\n                /* \"#utility.yul\":11388:11393   */\n              dup5\n                /* \"#utility.yul\":11385:11386   */\n              0x08\n                /* \"#utility.yul\":11381:11394   */\n              mul\n                /* \"#utility.yul\":11352:11403   */\n              tag_138\n              jump\t// in\n            tag_281:\n                /* \"#utility.yul\":11348:11404   */\n              not\n                /* \"#utility.yul\":11433:11437   */\n              dup1\n                /* \"#utility.yul\":11427:11431   */\n              dup4\n                /* \"#utility.yul\":11423:11438   */\n              and\n                /* \"#utility.yul\":11413:11438   */\n              swap2\n              pop\n                /* \"#utility.yul\":11326:11444   */\n              pop\n                /* \"#utility.yul\":11275:11444   */\n              swap3\n              swap2\n              pop\n              pop\n              jump\t// out\n                /* \"#utility.yul\":11449:11744   */\n            tag_140:\n                /* \"#utility.yul\":11525:11529   */\n              0x00\n                /* \"#utility.yul\":11671:11700   */\n              tag_283\n                /* \"#utility.yul\":11696:11699   */\n              dup4\n                /* \"#utility.yul\":11690:11694   */\n              dup4\n                /* \"#utility.yul\":11671:11700   */\n              tag_139\n              jump\t// in\n            tag_283:\n                /* \"#utility.yul\":11663:11700   */\n              swap2\n              pop\n                /* \"#utility.yul\":11733:11736   */\n              dup3\n                /* \"#utility.yul\":11730:11731   */\n              0x02\n                /* \"#utility.yul\":11726:11737   */\n              mul\n                /* \"#utility.yul\":11720:11724   */\n              dup3\n                /* \"#utility.yul\":11717:11738   */\n              or\n                /* \"#utility.yul\":11709:11738   */\n              swap1\n              pop\n                /* \"#utility.yul\":11449:11744   */\n              swap3\n              swap2\n              pop\n              pop\n              jump\t// out\n                /* \"#utility.yul\":11749:13144   */\n            tag_68:\n                /* \"#utility.yul\":11866:11903   */\n              tag_285\n                /* \"#utility.yul\":11899:11902   */\n              dup3\n                /* \"#utility.yul\":11866:11903   */\n              tag_106\n              jump\t// in\n            tag_285:\n                /* \"#utility.yul\":11968:11986   */\n              0xffffffffffffffff\n                /* \"#utility.yul\":11960:11966   */\n              dup2\n                /* \"#utility.yul\":11957:11987   */\n              gt\n                /* \"#utility.yul\":11954:12010   */\n              iszero\n              tag_286\n              jumpi\n                /* \"#utility.yul\":11990:12008   */\n              tag_287\n              tag_116\n              jump\t// in\n            tag_287:\n                /* \"#utility.yul\":11954:12010   */\n            tag_286:\n                /* \"#utility.yul\":12034:12072   */\n              tag_288\n                /* \"#utility.yul\":12066:12070   */\n              dup3\n                /* \"#utility.yul\":12060:12071   */\n              sload\n                /* \"#utility.yul\":12034:12072   */\n              tag_58\n              jump\t// in\n            tag_288:\n                /* \"#utility.yul\":12119:12186   */\n              tag_289\n                /* \"#utility.yul\":12179:12185   */\n              dup3\n                /* \"#utility.yul\":12171:12177   */\n              dup3\n                /* \"#utility.yul\":12165:12169   */\n              dup6\n                /* \"#utility.yul\":12119:12186   */\n              tag_137\n              jump\t// in\n            tag_289:\n                /* \"#utility.yul\":12213:12214   */\n              0x00\n                /* \"#utility.yul\":12237:12241   */\n              0x20\n                /* \"#utility.yul\":12224:12241   */\n              swap1\n              pop\n                /* \"#utility.yul\":12269:12271   */\n              0x1f\n                /* \"#utility.yul\":12261:12267   */\n              dup4\n                /* \"#utility.yul\":12258:12272   */\n              gt\n                /* \"#utility.yul\":12286:12287   */\n              0x01\n                /* \"#utility.yul\":12281:12899   */\n              dup2\n              eq\n              tag_291\n              jumpi\n                /* \"#utility.yul\":12943:12944   */\n              0x00\n                /* \"#utility.yul\":12960:12966   */\n              dup5\n                /* \"#utility.yul\":12957:13034   */\n              iszero\n              tag_292\n              jumpi\n                /* \"#utility.yul\":13009:13018   */\n              dup3\n                /* \"#utility.yul\":13004:13007   */\n              dup8\n                /* \"#utility.yul\":13000:13019   */\n              add\n                /* \"#utility.yul\":12994:13020   */\n              mload\n                /* \"#utility.yul\":12985:13020   */\n              swap1\n              pop\n                /* \"#utility.yul\":12957:13034   */\n            tag_292:\n                /* \"#utility.yul\":13060:13127   */\n              tag_293\n                /* \"#utility.yul\":13120:13126   */\n              dup6\n                /* \"#utility.yul\":13113:13118   */\n              dup3\n                /* \"#utility.yul\":13060:13127   */\n              tag_140\n              jump\t// in\n            tag_293:\n                /* \"#utility.yul\":13054:13058   */\n              dup7\n                /* \"#utility.yul\":13047:13128   */\n              sstore\n                /* \"#utility.yul\":12916:13138   */\n              pop\n                /* \"#utility.yul\":12251:13138   */\n              jump(tag_290)\n                /* \"#utility.yul\":12281:12899   */\n            tag_291:\n                /* \"#utility.yul\":12333:12337   */\n              0x1f\n                /* \"#utility.yul\":12329:12338   */\n              not\n                /* \"#utility.yul\":12321:12327   */\n              dup5\n                /* \"#utility.yul\":12317:12339   */\n              and\n                /* \"#utility.yul\":12367:12404   */\n              tag_294\n                /* \"#utility.yul\":12399:12403   */\n              dup7\n                /* \"#utility.yul\":12367:12404   */\n              tag_126\n              jump\t// in\n            tag_294:\n                /* \"#utility.yul\":12426:12427   */\n              0x00\n                /* \"#utility.yul\":12440:12648   */\n            tag_295:\n                /* \"#utility.yul\":12454:12461   */\n              dup3\n                /* \"#utility.yul\":12451:12452   */\n              dup2\n                /* \"#utility.yul\":12448:12462   */\n              lt\n                /* \"#utility.yul\":12440:12648   */\n              iszero\n              tag_297\n              jumpi\n                /* \"#utility.yul\":12533:12542   */\n              dup5\n                /* \"#utility.yul\":12528:12531   */\n              dup10\n                /* \"#utility.yul\":12524:12543   */\n              add\n                /* \"#utility.yul\":12518:12544   */\n              mload\n                /* \"#utility.yul\":12510:12516   */\n              dup3\n                /* \"#utility.yul\":12503:12545   */\n              sstore\n                /* \"#utility.yul\":12584:12585   */\n              0x01\n                /* \"#utility.yul\":12576:12582   */\n              dup3\n                /* \"#utility.yul\":12572:12586   */\n              add\n                /* \"#utility.yul\":12562:12586   */\n              swap2\n              pop\n                /* \"#utility.yul\":12631:12633   */\n              0x20\n                /* \"#utility.yul\":12620:12629   */\n              dup6\n                /* \"#utility.yul\":12616:12634   */\n              add\n                /* \"#utility.yul\":12603:12634   */\n              swap5\n              pop\n                /* \"#utility.yul\":12477:12481   */\n              0x20\n                /* \"#utility.yul\":12474:12475   */\n              dup2\n                /* \"#utility.yul\":12470:12482   */\n              add\n                /* \"#utility.yul\":12465:12482   */\n              swap1\n              pop\n                /* \"#utility.yul\":12440:12648   */\n              jump(tag_295)\n            tag_297:\n                /* \"#utility.yul\":12676:12682   */\n              dup7\n                /* \"#utility.yul\":12667:12674   */\n              dup4\n                /* \"#utility.yul\":12664:12683   */\n              lt\n                /* \"#utility.yul\":12661:12840   */\n              iszero\n              tag_298\n              jumpi\n                /* \"#utility.yul\":12734:12743   */\n              dup5\n                /* \"#utility.yul\":12729:12732   */\n              dup10\n                /* \"#utility.yul\":12725:12744   */\n              add\n                /* \"#utility.yul\":12719:12745   */\n              mload\n                /* \"#utility.yul\":12777:12825   */\n              tag_299\n                /* \"#utility.yul\":12819:12823   */\n              0x1f\n                /* \"#utility.yul\":12811:12817   */\n              dup10\n                /* \"#utility.yul\":12807:12824   */\n              and\n                /* \"#utility.yul\":12796:12805   */\n              dup3\n                /* \"#utility.yul\":12777:12825   */\n              tag_139\n              jump\t// in\n            tag_299:\n                /* \"#utility.yul\":12769:12775   */\n              dup4\n                /* \"#utility.yul\":12762:12826   */\n              sstore\n                /* \"#utility.yul\":12684:12840   */\n              pop\n                /* \"#utility.yul\":12661:12840   */\n            tag_298:\n                /* \"#utility.yul\":12886:12887   */\n              0x01\n                /* \"#utility.yul\":12882:12883   */\n              0x02\n                /* \"#utility.yul\":12874:12880   */\n              dup9\n                /* \"#utility.yul\":12870:12884   */\n              mul\n                /* \"#utility.yul\":12866:12888   */\n              add\n                /* \"#utility.yul\":12860:12864   */\n              dup9\n                /* \"#utility.yul\":12853:12889   */\n              sstore\n                /* \"#utility.yul\":12288:12899   */\n              pop\n              pop\n              pop\n                /* \"#utility.yul\":12251:13138   */\n            tag_290:\n              pop\n                /* \"#utility.yul\":11841:13144   */\n              pop\n              pop\n              pop\n                /* \"#utility.yul\":11749:13144   */\n              pop\n              pop\n              jump\t// out\n                /* \"#utility.yul\":13150:13330   */\n            tag_141:\n                /* \"#utility.yul\":13198:13275   */\n              0x4e487b7100000000000000000000000000000000000000000000000000000000\n                /* \"#utility.yul\":13195:13196   */\n              0x00\n                /* \"#utility.yul\":13188:13276   */\n              mstore\n                /* \"#utility.yul\":13295:13299   */\n              0x11\n                /* \"#utility.yul\":13292:13293   */\n              0x04\n                /* \"#utility.yul\":13285:13300   */\n              mstore\n                /* \"#utility.yul\":13319:13323   */\n              0x24\n                /* \"#utility.yul\":13316:13317   */\n              0x00\n                /* \"#utility.yul\":13309:13324   */\n              revert\n                /* \"#utility.yul\":13336:13569   */\n            tag_72:\n                /* \"#utility.yul\":13375:13378   */\n              0x00\n                /* \"#utility.yul\":13398:13422   */\n              tag_302\n                /* \"#utility.yul\":13416:13421   */\n              dup3\n                /* \"#utility.yul\":13398:13422   */\n              tag_103\n              jump\t// in\n            tag_302:\n                /* \"#utility.yul\":13389:13422   */\n              swap2\n              pop\n                /* \"#utility.yul\":13444:13510   */\n              0xffffffffffffffffffffffffffffffffffffffffffffffffffffffffffffffff\n                /* \"#utility.yul\":13437:13442   */\n              dup3\n                /* \"#utility.yul\":13434:13511   */\n              sub\n                /* \"#utility.yul\":13431:13534   */\n              tag_303\n              jumpi\n                /* \"#utility.yul\":13514:13532   */\n              tag_304\n              tag_141\n              jump\t// in\n            tag_304:\n                /* \"#utility.yul\":13431:13534   */\n            tag_303:\n                /* \"#utility.yul\":13561:13562   */\n              0x01\n                /* \"#utility.yul\":13554:13559   */\n              dup3\n                /* \"#utility.yul\":13550:13563   */\n              add\n                /* \"#utility.yul\":13543:13563   */\n              swap1\n              pop\n                /* \"#utility.yul\":13336:13569   */\n              swap2\n              swap1\n              pop\n              jump\t// out\n                /* \"#utility.yul\":13575:13755   */\n            tag_76:\n                /* \"#utility.yul\":13623:13700   */\n              0x4e487b7100000000000000000000000000000000000000000000000000000000\n                /* \"#utility.yul\":13620:13621   */\n              0x00\n                /* \"#utility.yul\":13613:13701   */\n              mstore\n                /* \"#utility.yul\":13720:13724   */\n              0x32\n                /* \"#utility.yul\":13717:13718   */\n              0x04\n                /* \"#utility.yul\":13710:13725   */\n              mstore\n                /* \"#utility.yul\":13744:13748   */\n              0x24\n                /* \"#utility.yul\":13741:13742   */\n              0x00\n                /* \"#utility.yul\":13734:13749   */\n              revert\n                /* \"#utility.yul\":13761:13941   */\n            tag_142:\n                /* \"#utility.yul\":13809:13886   */\n              0x4e487b7100000000000000000000000000000000000000000000000000000000\n                /* \"#utility.yul\":13806:13807   */\n              0x00\n                /* \"#utility.yul\":13799:13887   */\n              mstore\n                /* \"#utility.yul\":13906:13910   */\n              0x12\n                /* \"#utility.yul\":13903:13904   */\n              0x04\n                /* \"#utility.yul\":13896:13911   */\n              mstore\n                /* \"#utility.yul\":13930:13934   */\n              0x24\n                /* \"#utility.yul\":13927:13928   */\n              0x00\n                /* \"#utility.yul\":13920:13935   */\n              revert\n                /* \"#utility.yul\":13947:14132   */\n            tag_89:\n                /* \"#utility.yul\":13987:13988   */\n              0x00\n                /* \"#utility.yul\":14004:14024   */\n              tag_308\n                /* \"#utility.yul\":14022:14023   */\n              dup3\n                /* \"#utility.yul\":14004:14024   */\n              tag_103\n              jump\t// in\n            tag_308:\n                /* \"#utility.yul\":13999:14024   */\n              swap2\n              pop\n                /* \"#utility.yul\":14038:14058   */\n              tag_309\n                /* \"#utility.yul\":14056:14057   */\n              dup4\n                /* \"#utility.yul\":14038:14058   */\n              tag_103\n              jump\t// in\n            tag_309:\n                /* \"#utility.yul\":14033:14058   */\n              swap3\n              pop\n                /* \"#utility.yul\":14077:14078   */\n              dup3\n                /* \"#utility.yul\":14067:14102   */\n              tag_310\n              jumpi\n                /* \"#utility.yul\":14082:14100   */\n              tag_311\n              tag_142\n              jump\t// in\n            tag_311:\n                /* \"#utility.yul\":14067:14102   */\n            tag_310:\n                /* \"#utility.yul\":14124:14125   */\n              dup3\n                /* \"#utility.yul\":14121:14122   */\n              dup3\n                /* \"#utility.yul\":14117:14126   */\n              div\n                /* \"#utility.yul\":14112:14126   */\n              swap1\n              pop\n                /* \"#utility.yul\":13947:14132   */\n              swap3\n              swap2\n              pop\n              pop\n              jump\t// out\n\n            auxdata: 0xa26469706673582212209e651cc8bd042d2ab71f3f297d251e47c384c5b56b02007dbc9495f60a5ed92364736f6c63430008110033\n        }\n    }\n\n    auxdata: 0xa2646970667358221220b207767a85de908e35e74922b194994202147bf40f21ce2984ca1dc67d71905264736f6c63430008110033\n}\n","bytecode":{"linkReferences":{},"object":"608060405234801561001057600080fd5b50611521806100206000396000f3fe608060405234801561001057600080fd5b50600436106100365760003560e01c80634acb9d4f1461003b578063a3303a7514610059575b600080fd5b610043610075565b60405161005091906102a1565b60405180910390f35b610073600480360381019061006e91906102fe565b610103565b005b606060008054806020026020016040519081016040528092919081815260200182805480156100f957602002820191906000526020600020905b8160009054906101000a900473ffffffffffffffffffffffffffffffffffffffff1673ffffffffffffffffffffffffffffffffffffffff16815260200190600101908083116100af575b5050505050905090565b60008133604051610113906101a4565b61011e929190610349565b604051809103906000f08015801561013a573d6000803e3d6000fd5b5090506000819080600181540180825580915050600190039060005260206000200160009091909190916101000a81548173ffffffffffffffffffffffffffffffffffffffff021916908373ffffffffffffffffffffffffffffffffffffffff1602179055505050565b6111798061037383390190565b600081519050919050565b600082825260208201905092915050565b6000819050602082019050919050565b600073ffffffffffffffffffffffffffffffffffffffff82169050919050565b6000610208826101dd565b9050919050565b610218816101fd565b82525050565b600061022a838361020f565b60208301905092915050565b6000602082019050919050565b600061024e826101b1565b61025881856101bc565b9350610263836101cd565b8060005b8381101561029457815161027b888261021e565b975061028683610236565b925050600181019050610267565b5085935050505092915050565b600060208201905081810360008301526102bb8184610243565b905092915050565b600080fd5b6000819050919050565b6102db816102c8565b81146102e657600080fd5b50565b6000813590506102f8816102d2565b92915050565b600060208284031215610314576103136102c3565b5b6000610322848285016102e9565b91505092915050565b610334816102c8565b82525050565b610343816101fd565b82525050565b600060408201905061035e600083018561032b565b61036b602083018461033a565b939250505056fe60806040523480156200001157600080fd5b50604051620011793803806200117983398181016040528101906200003791906200012b565b806000806101000a81548173ffffffffffffffffffffffffffffffffffffffff021916908373ffffffffffffffffffffffffffffffffffffffff16021790555081600181905550505062000172565b600080fd5b6000819050919050565b620000a0816200008b565b8114620000ac57600080fd5b50565b600081519050620000c08162000095565b92915050565b600073ffffffffffffffffffffffffffffffffffffffff82169050919050565b6000620000f382620000c6565b9050919050565b6200010581620000e6565b81146200011157600080fd5b50565b6000815190506200012581620000fa565b92915050565b6000806040838503121562000145576200014462000086565b5b60006200015585828601620000af565b9250506020620001688582860162000114565b9150509250929050565b610ff780620001826000396000f3fe6080604052600436106100865760003560e01c80638a9cfd55116100595780638a9cfd551461015f578063aaffadf314610188578063d7bb99ba146101b3578063d7d1bbdb146101bd578063e7b668b4146101e657610086565b80630a1443911461008b578063481c6a75146100c857806381d12c58146100f357806382fde09314610134575b600080fd5b34801561009757600080fd5b506100b260048036038101906100ad91906107e8565b61020f565b6040516100bf9190610830565b60405180910390f35b3480156100d457600080fd5b506100dd61022f565b6040516100ea919061085a565b60405180910390f35b3480156100ff57600080fd5b5061011a600480360381019061011591906108ab565b610253565b60405161012b959493929190610998565b60405180910390f35b34801561014057600080fd5b5061014961034e565b60405161015691906109f2565b60405180910390f35b34801561016b57600080fd5b5061018660048036038101906101819190610b6e565b610354565b005b34801561019457600080fd5b5061019d61045b565b6040516101aa91906109f2565b60405180910390f35b6101bb610461565b005b3480156101c957600080fd5b506101e460048036038101906101df91906108ab565b6104e1565b005b3480156101f257600080fd5b5061020d600480360381019061020891906108ab565b61062e565b005b60026020528060005260406000206000915054906101000a900460ff1681565b60008054906101000a900473ffffffffffffffffffffffffffffffffffffffff1681565b6004818154811061026357600080fd5b906000526020600020906005020160009150905080600001805461028690610c0c565b80601f01602080910402602001604051908101604052809291908181526020018280546102b290610c0c565b80156102ff5780601f106102d4576101008083540402835291602001916102ff565b820191906000526020600020905b8154815290600101906020018083116102e257829003601f168201915b5050505050908060010154908060020160009054906101000a900473ffffffffffffffffffffffffffffffffffffffff16908060020160149054906101000a900460ff16908060030154905085565b60035481565b60008054906101000a900473ffffffffffffffffffffffffffffffffffffffff1673ffffffffffffffffffffffffffffffffffffffff163373ffffffffffffffffffffffffffffffffffffffff16146103ac57600080fd5b600060046001816001815401808255809150500390600052602060002090600502019050838160000190816103e19190610de9565b50828160010181905550818160020160006101000a81548173ffffffffffffffffffffffffffffffffffffffff021916908373ffffffffffffffffffffffffffffffffffffffff16021790555060008160020160146101000a81548160ff0219169083151502179055506000816003018190555050505050565b60015481565b600154341161046f57600080fd5b6001600260003373ffffffffffffffffffffffffffffffffffffffff1673ffffffffffffffffffffffffffffffffffffffff16815260200190815260200160002060006101000a81548160ff021916908315150217905550600360008154809291906104da90610eea565b9190505550565b6000600482815481106104f7576104f6610f32565b5b90600052602060002090600502019050600260003373ffffffffffffffffffffffffffffffffffffffff1673ffffffffffffffffffffffffffffffffffffffff16815260200190815260200160002060009054906101000a900460ff1661055d57600080fd5b8060040160003373ffffffffffffffffffffffffffffffffffffffff1673ffffffffffffffffffffffffffffffffffffffff16815260200190815260200160002060009054906101000a900460ff16156105b657600080fd5b60018160040160003373ffffffffffffffffffffffffffffffffffffffff1673ffffffffffffffffffffffffffffffffffffffff16815260200190815260200160002060006101000a81548160ff02191690831515021790555080600301600081548092919061062590610eea565b91905055505050565b60008054906101000a900473ffffffffffffffffffffffffffffffffffffffff1673ffffffffffffffffffffffffffffffffffffffff163373ffffffffffffffffffffffffffffffffffffffff161461068657600080fd5b60006004828154811061069c5761069b610f32565b5b906000526020600020906005020190508060020160149054906101000a900460ff16156106c857600080fd5b60026003546106d79190610f90565b8160030154116106e657600080fd5b8060020160009054906101000a900473ffffffffffffffffffffffffffffffffffffffff1673ffffffffffffffffffffffffffffffffffffffff166108fc82600101549081150290604051600060405180830381858888f19350505050158015610754573d6000803e3d6000fd5b5060018160020160146101000a81548160ff0219169083151502179055505050565b6000604051905090565b600080fd5b600080fd5b600073ffffffffffffffffffffffffffffffffffffffff82169050919050565b60006107b58261078a565b9050919050565b6107c5816107aa565b81146107d057600080fd5b50565b6000813590506107e2816107bc565b92915050565b6000602082840312156107fe576107fd610780565b5b600061080c848285016107d3565b91505092915050565b60008115159050919050565b61082a81610815565b82525050565b60006020820190506108456000830184610821565b92915050565b610854816107aa565b82525050565b600060208201905061086f600083018461084b565b92915050565b6000819050919050565b61088881610875565b811461089357600080fd5b50565b6000813590506108a58161087f565b92915050565b6000602082840312156108c1576108c0610780565b5b60006108cf84828501610896565b91505092915050565b600081519050919050565b600082825260208201905092915050565b60005b838110156109125780820151818401526020810190506108f7565b60008484015250505050565b6000601f19601f8301169050919050565b600061093a826108d8565b61094481856108e3565b93506109548185602086016108f4565b61095d8161091e565b840191505092915050565b61097181610875565b82525050565b60006109828261078a565b9050919050565b61099281610977565b82525050565b600060a08201905081810360008301526109b2818861092f565b90506109c16020830187610968565b6109ce6040830186610989565b6109db6060830185610821565b6109e86080830184610968565b9695505050505050565b6000602082019050610a076000830184610968565b92915050565b600080fd5b600080fd5b7f4e487b7100000000000000000000000000000000000000000000000000000000600052604160045260246000fd5b610a4f8261091e565b810181811067ffffffffffffffff82111715610a6e57610a6d610a17565b5b80604052505050565b6000610a81610776565b9050610a8d8282610a46565b919050565b600067ffffffffffffffff821115610aad57610aac610a17565b5b610ab68261091e565b9050602081019050919050565b82818337600083830152505050565b6000610ae5610ae084610a92565b610a77565b905082815260208101848484011115610b0157610b00610a12565b5b610b0c848285610ac3565b509392505050565b600082601f830112610b2957610b28610a0d565b5b8135610b39848260208601610ad2565b91505092915050565b610b4b81610977565b8114610b5657600080fd5b50565b600081359050610b6881610b42565b92915050565b600080600060608486031215610b8757610b86610780565b5b600084013567ffffffffffffffff811115610ba557610ba4610785565b5b610bb186828701610b14565b9350506020610bc286828701610896565b9250506040610bd386828701610b59565b9150509250925092565b7f4e487b7100000000000000000000000000000000000000000000000000000000600052602260045260246000fd5b60006002820490506001821680610c2457607f821691505b602082108103610c3757610c36610bdd565b5b50919050565b60008190508160005260206000209050919050565b60006020601f8301049050919050565b600082821b905092915050565b600060088302610c9f7fffffffffffffffffffffffffffffffffffffffffffffffffffffffffffffffff82610c62565b610ca98683610c62565b95508019841693508086168417925050509392505050565b6000819050919050565b6000610ce6610ce1610cdc84610875565b610cc1565b610875565b9050919050565b6000819050919050565b610d0083610ccb565b610d14610d0c82610ced565b848454610c6f565b825550505050565b600090565b610d29610d1c565b610d34818484610cf7565b505050565b5b81811015610d5857610d4d600082610d21565b600181019050610d3a565b5050565b601f821115610d9d57610d6e81610c3d565b610d7784610c52565b81016020851015610d86578190505b610d9a610d9285610c52565b830182610d39565b50505b505050565b600082821c905092915050565b6000610dc060001984600802610da2565b1980831691505092915050565b6000610dd98383610daf565b9150826002028217905092915050565b610df2826108d8565b67ffffffffffffffff811115610e0b57610e0a610a17565b5b610e158254610c0c565b610e20828285610d5c565b600060209050601f831160018114610e535760008415610e41578287015190505b610e4b8582610dcd565b865550610eb3565b601f198416610e6186610c3d565b60005b82811015610e8957848901518255600182019150602085019450602081019050610e64565b86831015610ea65784890151610ea2601f891682610daf565b8355505b6001600288020188555050505b505050505050565b7f4e487b7100000000000000000000000000000000000000000000000000000000600052601160045260246000fd5b6000610ef582610875565b91507fffffffffffffffffffffffffffffffffffffffffffffffffffffffffffffffff8203610f2757610f26610ebb565b5b600182019050919050565b7f4e487b7100000000000000000000000000000000000000000000000000000000600052603260045260246000fd5b7f4e487b7100000000000000000000000000000000000000000000000000000000600052601260045260246000fd5b6000610f9b82610875565b9150610fa683610875565b925082610fb657610fb5610f61565b5b82820490509291505056fea26469706673582212209e651cc8bd042d2ab71f3f297d251e47c384c5b56b02007dbc9495f60a5ed92364736f6c63430008110033a2646970667358221220b207767a85de908e35e74922b194994202147bf40f21ce2984ca1dc67d71905264736f6c63430008110033","opcodes":"PUSH1 0x80 PUSH1 0x40 MSTORE CALLVALUE DUP1 ISZERO PUSH2 0x10 JUMPI PUSH1 0x0 DUP1 REVERT JUMPDEST POP PUSH2 0x1521 DUP1 PUSH2 0x20 PUSH1 0x0 CODECOPY PUSH1 0x0 RETURN INVALID PUSH1 0x80 PUSH1 0x40 MSTORE CALLVALUE DUP1 ISZERO PUSH2 0x10 JUMPI PUSH1 0x0 DUP1 REVERT JUMPDEST POP PUSH1 0x4 CALLDATASIZE LT PUSH2 0x36 JUMPI PUSH1 0x0 CALLDATALOAD PUSH1 0xE0 SHR DUP1 PUSH4 0x4ACB9D4F EQ PUSH2 0x3B JUMPI DUP1 PUSH4 0xA3303A75 EQ PUSH2 0x59 JUMPI JUMPDEST PUSH1 0x0 DUP1 REVERT JUMPDEST PUSH2 0x43 PUSH2 0x75 JUMP JUMPDEST PUSH1 0x40 MLOAD PUSH2 0x50 SWAP2 SWAP1 PUSH2 0x2A1 JUMP JUMPDEST PUSH1 0x40 MLOAD DUP1 SWAP2 SUB SWAP1 RETURN JUMPDEST PUSH2 0x73 PUSH1 0x4 DUP1 CALLDATASIZE SUB DUP2 ADD SWAP1 PUSH2 0x6E SWAP2 SWAP1 PUSH2 0x2FE JUMP JUMPDEST PUSH2 0x103 JUMP JUMPDEST STOP JUMPDEST PUSH1 0x60 PUSH1 0x0 DUP1 SLOAD DUP1 PUSH1 0x20 MUL PUSH1 0x20 ADD PUSH1 0x40 MLOAD SWAP1 DUP2 ADD PUSH1 0x40 MSTORE DUP1 SWAP3 SWAP2 SWAP1 DUP2 DUP2 MSTORE PUSH1 0x20 ADD DUP3 DUP1 SLOAD DUP1 ISZERO PUSH2 0xF9 JUMPI PUSH1 0x20 MUL DUP3 ADD SWAP2 SWAP1 PUSH1 0x0 MSTORE PUSH1 0x20 PUSH1 0x0 KECCAK256 SWAP1 JUMPDEST DUP2 PUSH1 0x0 SWAP1 SLOAD SWAP1 PUSH2 0x100 EXP SWAP1 DIV PUSH20 0xFFFFFFFFFFFFFFFFFFFFFFFFFFFFFFFFFFFFFFFF AND PUSH20 0xFFFFFFFFFFFFFFFFFFFFFFFFFFFFFFFFFFFFFFFF AND DUP2 MSTORE PUSH1 0x20 ADD SWAP1 PUSH1 0x1 ADD SWAP1 DUP1 DUP4 GT PUSH2 0xAF JUMPI JUMPDEST POP POP POP POP POP SWAP1 POP SWAP1 JUMP JUMPDEST PUSH1 0x0 DUP2 CALLER PUSH1 0x40 MLOAD PUSH2 0x113 SWAP1 PUSH2 0x1A4 JUMP JUMPDEST PUSH2 0x11E SWAP3 SWAP2 SWAP1 PUSH2 0x349 JUMP JUMPDEST PUSH1 0x40 MLOAD DUP1 SWAP2 SUB SWAP1 PUSH1 0x0 CREATE DUP1 ISZERO DUP1 ISZERO PUSH2 0x13A JUMPI RETURNDATASIZE PUSH1 0x0 DUP1 RETURNDATACOPY RETURNDATASIZE PUSH1 0x0 REVERT JUMPDEST POP SWAP1 POP PUSH1 0x0 DUP2 SWAP1 DUP1 PUSH1 0x1 DUP2 SLOAD ADD DUP1 DUP3 SSTORE DUP1 SWAP2 POP POP PUSH1 0x1 SWAP1 SUB SWAP1 PUSH1 0x0 MSTORE PUSH1 0x20 PUSH1 0x0 KECCAK256 ADD PUSH1 0x0 SWAP1 SWAP2 SWAP1 SWAP2 SWAP1 SWAP2 PUSH2 0x100 EXP DUP2 SLOAD DUP2 PUSH20 0xFFFFFFFFFFFFFFFFFFFFFFFFFFFFFFFFFFFFFFFF MUL NOT AND SWAP1 DUP4 PUSH20 0xFFFFFFFFFFFFFFFFFFFFFFFFFFFFFFFFFFFFFFFF AND MUL OR SWAP1 SSTORE POP POP POP JUMP JUMPDEST PUSH2 0x1179 DUP1 PUSH2 0x373 DUP4 CODECOPY ADD SWAP1 JUMP JUMPDEST PUSH1 0x0 DUP2 MLOAD SWAP1 POP SWAP2 SWAP1 POP JUMP JUMPDEST PUSH1 0x0 DUP3 DUP3 MSTORE PUSH1 0x20 DUP3 ADD SWAP1 POP SWAP3 SWAP2 POP POP JUMP JUMPDEST PUSH1 0x0 DUP2 SWAP1 POP PUSH1 0x20 DUP3 ADD SWAP1 POP SWAP2 SWAP1 POP JUMP JUMPDEST PUSH1 0x0 PUSH20 0xFFFFFFFFFFFFFFFFFFFFFFFFFFFFFFFFFFFFFFFF DUP3 AND SWAP1 POP SWAP2 SWAP1 POP JUMP JUMPDEST PUSH1 0x0 PUSH2 0x208 DUP3 PUSH2 0x1DD JUMP JUMPDEST SWAP1 POP SWAP2 SWAP1 POP JUMP JUMPDEST PUSH2 0x218 DUP2 PUSH2 0x1FD JUMP JUMPDEST DUP3 MSTORE POP POP JUMP JUMPDEST PUSH1 0x0 PUSH2 0x22A DUP4 DUP4 PUSH2 0x20F JUMP JUMPDEST PUSH1 0x20 DUP4 ADD SWAP1 POP SWAP3 SWAP2 POP POP JUMP JUMPDEST PUSH1 0x0 PUSH1 0x20 DUP3 ADD SWAP1 POP SWAP2 SWAP1 POP JUMP JUMPDEST PUSH1 0x0 PUSH2 0x24E DUP3 PUSH2 0x1B1 JUMP JUMPDEST PUSH2 0x258 DUP2 DUP6 PUSH2 0x1BC JUMP JUMPDEST SWAP4 POP PUSH2 0x263 DUP4 PUSH2 0x1CD JUMP JUMPDEST DUP1 PUSH1 0x0 JUMPDEST DUP4 DUP2 LT ISZERO PUSH2 0x294 JUMPI DUP2 MLOAD PUSH2 0x27B DUP9 DUP3 PUSH2 0x21E JUMP JUMPDEST SWAP8 POP PUSH2 0x286 DUP4 PUSH2 0x236 JUMP JUMPDEST SWAP3 POP POP PUSH1 0x1 DUP2 ADD SWAP1 POP PUSH2 0x267 JUMP JUMPDEST POP DUP6 SWAP4 POP POP POP POP SWAP3 SWAP2 POP POP JUMP JUMPDEST PUSH1 0x0 PUSH1 0x20 DUP3 ADD SWAP1 POP DUP2 DUP2 SUB PUSH1 0x0 DUP4 ADD MSTORE PUSH2 0x2BB DUP2 DUP5 PUSH2 0x243 JUMP JUMPDEST SWAP1 POP SWAP3 SWAP2 POP POP JUMP JUMPDEST PUSH1 0x0 DUP1 REVERT JUMPDEST PUSH1 0x0 DUP2 SWAP1 POP SWAP2 SWAP1 POP JUMP JUMPDEST PUSH2 0x2DB DUP2 PUSH2 0x2C8 JUMP JUMPDEST DUP2 EQ PUSH2 0x2E6 JUMPI PUSH1 0x0 DUP1 REVERT JUMPDEST POP JUMP JUMPDEST PUSH1 0x0 DUP2 CALLDATALOAD SWAP1 POP PUSH2 0x2F8 DUP2 PUSH2 0x2D2 JUMP JUMPDEST SWAP3 SWAP2 POP POP JUMP JUMPDEST PUSH1 0x0 PUSH1 0x20 DUP3 DUP5 SUB SLT ISZERO PUSH2 0x314 JUMPI PUSH2 0x313 PUSH2 0x2C3 JUMP JUMPDEST JUMPDEST PUSH1 0x0 PUSH2 0x322 DUP5 DUP3 DUP6 ADD PUSH2 0x2E9 JUMP JUMPDEST SWAP2 POP POP SWAP3 SWAP2 POP POP JUMP JUMPDEST PUSH2 0x334 DUP2 PUSH2 0x2C8 JUMP JUMPDEST DUP3 MSTORE POP POP JUMP JUMPDEST PUSH2 0x343 DUP2 PUSH2 0x1FD JUMP JUMPDEST DUP3 MSTORE POP POP JUMP JUMPDEST PUSH1 0x0 PUSH1 0x40 DUP3 ADD SWAP1 POP PUSH2 0x35E PUSH1 0x0 DUP4 ADD DUP6 PUSH2 0x32B JUMP JUMPDEST PUSH2 0x36B PUSH1 0x20 DUP4 ADD DUP5 PUSH2 0x33A JUMP JUMPDEST SWAP4 SWAP3 POP POP POP JUMP INVALID PUSH1 0x80 PUSH1 0x40 MSTORE CALLVALUE DUP1 ISZERO PUSH3 0x11 JUMPI PUSH1 0x0 DUP1 REVERT JUMPDEST POP PUSH1 0x40 MLOAD PUSH3 0x1179 CODESIZE SUB DUP1 PUSH3 0x1179 DUP4 CODECOPY DUP2 DUP2 ADD PUSH1 0x40 MSTORE DUP2 ADD SWAP1 PUSH3 0x37 SWAP2 SWAP1 PUSH3 0x12B JUMP JUMPDEST DUP1 PUSH1 0x0 DUP1 PUSH2 0x100 EXP DUP2 SLOAD DUP2 PUSH20 0xFFFFFFFFFFFFFFFFFFFFFFFFFFFFFFFFFFFFFFFF MUL NOT AND SWAP1 DUP4 PUSH20 0xFFFFFFFFFFFFFFFFFFFFFFFFFFFFFFFFFFFFFFFF AND MUL OR SWAP1 SSTORE POP DUP2 PUSH1 0x1 DUP2 SWAP1 SSTORE POP POP POP PUSH3 0x172 JUMP JUMPDEST PUSH1 0x0 DUP1 REVERT JUMPDEST PUSH1 0x0 DUP2 SWAP1 POP SWAP2 SWAP1 POP JUMP JUMPDEST PUSH3 0xA0 DUP2 PUSH3 0x8B JUMP JUMPDEST DUP2 EQ PUSH3 0xAC JUMPI PUSH1 0x0 DUP1 REVERT JUMPDEST POP JUMP JUMPDEST PUSH1 0x0 DUP2 MLOAD SWAP1 POP PUSH3 0xC0 DUP2 PUSH3 0x95 JUMP JUMPDEST SWAP3 SWAP2 POP POP JUMP JUMPDEST PUSH1 0x0 PUSH20 0xFFFFFFFFFFFFFFFFFFFFFFFFFFFFFFFFFFFFFFFF DUP3 AND SWAP1 POP SWAP2 SWAP1 POP JUMP JUMPDEST PUSH1 0x0 PUSH3 0xF3 DUP3 PUSH3 0xC6 JUMP JUMPDEST SWAP1 POP SWAP2 SWAP1 POP JUMP JUMPDEST PUSH3 0x105 DUP2 PUSH3 0xE6 JUMP JUMPDEST DUP2 EQ PUSH3 0x111 JUMPI PUSH1 0x0 DUP1 REVERT JUMPDEST POP JUMP JUMPDEST PUSH1 0x0 DUP2 MLOAD SWAP1 POP PUSH3 0x125 DUP2 PUSH3 0xFA JUMP JUMPDEST SWAP3 SWAP2 POP POP JUMP JUMPDEST PUSH1 0x0 DUP1 PUSH1 0x40 DUP4 DUP6 SUB SLT ISZERO PUSH3 0x145 JUMPI PUSH3 0x144 PUSH3 0x86 JUMP JUMPDEST JUMPDEST PUSH1 0x0 PUSH3 0x155 DUP6 DUP3 DUP7 ADD PUSH3 0xAF JUMP JUMPDEST SWAP3 POP POP PUSH1 0x20 PUSH3 0x168 DUP6 DUP3 DUP7 ADD PUSH3 0x114 JUMP JUMPDEST SWAP2 POP POP SWAP3 POP SWAP3 SWAP1 POP JUMP JUMPDEST PUSH2 0xFF7 DUP1 PUSH3 0x182 PUSH1 0x0 CODECOPY PUSH1 0x0 RETURN INVALID PUSH1 0x80 PUSH1 0x40 MSTORE PUSH1 0x4 CALLDATASIZE LT PUSH2 0x86 JUMPI PUSH1 0x0 CALLDATALOAD PUSH1 0xE0 SHR DUP1 PUSH4 0x8A9CFD55 GT PUSH2 0x59 JUMPI DUP1 PUSH4 0x8A9CFD55 EQ PUSH2 0x15F JUMPI DUP1 PUSH4 0xAAFFADF3 EQ PUSH2 0x188 JUMPI DUP1 PUSH4 0xD7BB99BA EQ PUSH2 0x1B3 JUMPI DUP1 PUSH4 0xD7D1BBDB EQ PUSH2 0x1BD JUMPI DUP1 PUSH4 0xE7B668B4 EQ PUSH2 0x1E6 JUMPI PUSH2 0x86 JUMP JUMPDEST DUP1 PUSH4 0xA144391 EQ PUSH2 0x8B JUMPI DUP1 PUSH4 0x481C6A75 EQ PUSH2 0xC8 JUMPI DUP1 PUSH4 0x81D12C58 EQ PUSH2 0xF3 JUMPI DUP1 PUSH4 0x82FDE093 EQ PUSH2 0x134 JUMPI JUMPDEST PUSH1 0x0 DUP1 REVERT JUMPDEST CALLVALUE DUP1 ISZERO PUSH2 0x97 JUMPI PUSH1 0x0 DUP1 REVERT JUMPDEST POP PUSH2 0xB2 PUSH1 0x4 DUP1 CALLDATASIZE SUB DUP2 ADD SWAP1 PUSH2 0xAD SWAP2 SWAP1 PUSH2 0x7E8 JUMP JUMPDEST PUSH2 0x20F JUMP JUMPDEST PUSH1 0x40 MLOAD PUSH2 0xBF SWAP2 SWAP1 PUSH2 0x830 JUMP JUMPDEST PUSH1 0x40 MLOAD DUP1 SWAP2 SUB SWAP1 RETURN JUMPDEST CALLVALUE DUP1 ISZERO PUSH2 0xD4 JUMPI PUSH1 0x0 DUP1 REVERT JUMPDEST POP PUSH2 0xDD PUSH2 0x22F JUMP JUMPDEST PUSH1 0x40 MLOAD PUSH2 0xEA SWAP2 SWAP1 PUSH2 0x85A JUMP JUMPDEST PUSH1 0x40 MLOAD DUP1 SWAP2 SUB SWAP1 RETURN JUMPDEST CALLVALUE DUP1 ISZERO PUSH2 0xFF JUMPI PUSH1 0x0 DUP1 REVERT JUMPDEST POP PUSH2 0x11A PUSH1 0x4 DUP1 CALLDATASIZE SUB DUP2 ADD SWAP1 PUSH2 0x115 SWAP2 SWAP1 PUSH2 0x8AB JUMP JUMPDEST PUSH2 0x253 JUMP JUMPDEST PUSH1 0x40 MLOAD PUSH2 0x12B SWAP6 SWAP5 SWAP4 SWAP3 SWAP2 SWAP1 PUSH2 0x998 JUMP JUMPDEST PUSH1 0x40 MLOAD DUP1 SWAP2 SUB SWAP1 RETURN JUMPDEST CALLVALUE DUP1 ISZERO PUSH2 0x140 JUMPI PUSH1 0x0 DUP1 REVERT JUMPDEST POP PUSH2 0x149 PUSH2 0x34E JUMP JUMPDEST PUSH1 0x40 MLOAD PUSH2 0x156 SWAP2 SWAP1 PUSH2 0x9F2 JUMP JUMPDEST PUSH1 0x40 MLOAD DUP1 SWAP2 SUB SWAP1 RETURN JUMPDEST CALLVALUE DUP1 ISZERO PUSH2 0x16B JUMPI PUSH1 0x0 DUP1 REVERT JUMPDEST POP PUSH2 0x186 PUSH1 0x4 DUP1 CALLDATASIZE SUB DUP2 ADD SWAP1 PUSH2 0x181 SWAP2 SWAP1 PUSH2 0xB6E JUMP JUMPDEST PUSH2 0x354 JUMP JUMPDEST STOP JUMPDEST CALLVALUE DUP1 ISZERO PUSH2 0x194 JUMPI PUSH1 0x0 DUP1 REVERT JUMPDEST POP PUSH2 0x19D PUSH2 0x45B JUMP JUMPDEST PUSH1 0x40 MLOAD PUSH2 0x1AA SWAP2 SWAP1 PUSH2 0x9F2 JUMP JUMPDEST PUSH1 0x40 MLOAD DUP1 SWAP2 SUB SWAP1 RETURN JUMPDEST PUSH2 0x1BB PUSH2 0x461 JUMP JUMPDEST STOP JUMPDEST CALLVALUE DUP1 ISZERO PUSH2 0x1C9 JUMPI PUSH1 0x0 DUP1 REVERT JUMPDEST POP PUSH2 0x1E4 PUSH1 0x4 DUP1 CALLDATASIZE SUB DUP2 ADD SWAP1 PUSH2 0x1DF SWAP2 SWAP1 PUSH2 0x8AB JUMP JUMPDEST PUSH2 0x4E1 JUMP JUMPDEST STOP JUMPDEST CALLVALUE DUP1 ISZERO PUSH2 0x1F2 JUMPI PUSH1 0x0 DUP1 REVERT JUMPDEST POP PUSH2 0x20D PUSH1 0x4 DUP1 CALLDATASIZE SUB DUP2 ADD SWAP1 PUSH2 0x208 SWAP2 SWAP1 PUSH2 0x8AB JUMP JUMPDEST PUSH2 0x62E JUMP JUMPDEST STOP JUMPDEST PUSH1 0x2 PUSH1 0x20 MSTORE DUP1 PUSH1 0x0 MSTORE PUSH1 0x40 PUSH1 0x0 KECCAK256 PUSH1 0x0 SWAP2 POP SLOAD SWAP1 PUSH2 0x100 EXP SWAP1 DIV PUSH1 0xFF AND DUP2 JUMP JUMPDEST PUSH1 0x0 DUP1 SLOAD SWAP1 PUSH2 0x100 EXP SWAP1 DIV PUSH20 0xFFFFFFFFFFFFFFFFFFFFFFFFFFFFFFFFFFFFFFFF AND DUP2 JUMP JUMPDEST PUSH1 0x4 DUP2 DUP2 SLOAD DUP2 LT PUSH2 0x263 JUMPI PUSH1 0x0 DUP1 REVERT JUMPDEST SWAP1 PUSH1 0x0 MSTORE PUSH1 0x20 PUSH1 0x0 KECCAK256 SWAP1 PUSH1 0x5 MUL ADD PUSH1 0x0 SWAP2 POP SWAP1 POP DUP1 PUSH1 0x0 ADD DUP1 SLOAD PUSH2 0x286 SWAP1 PUSH2 0xC0C JUMP JUMPDEST DUP1 PUSH1 0x1F ADD PUSH1 0x20 DUP1 SWAP2 DIV MUL PUSH1 0x20 ADD PUSH1 0x40 MLOAD SWAP1 DUP2 ADD PUSH1 0x40 MSTORE DUP1 SWAP3 SWAP2 SWAP1 DUP2 DUP2 MSTORE PUSH1 0x20 ADD DUP3 DUP1 SLOAD PUSH2 0x2B2 SWAP1 PUSH2 0xC0C JUMP JUMPDEST DUP1 ISZERO PUSH2 0x2FF JUMPI DUP1 PUSH1 0x1F LT PUSH2 0x2D4 JUMPI PUSH2 0x100 DUP1 DUP4 SLOAD DIV MUL DUP4 MSTORE SWAP2 PUSH1 0x20 ADD SWAP2 PUSH2 0x2FF JUMP JUMPDEST DUP3 ADD SWAP2 SWAP1 PUSH1 0x0 MSTORE PUSH1 0x20 PUSH1 0x0 KECCAK256 SWAP1 JUMPDEST DUP2 SLOAD DUP2 MSTORE SWAP1 PUSH1 0x1 ADD SWAP1 PUSH1 0x20 ADD DUP1 DUP4 GT PUSH2 0x2E2 JUMPI DUP3 SWAP1 SUB PUSH1 0x1F AND DUP3 ADD SWAP2 JUMPDEST POP POP POP POP POP SWAP1 DUP1 PUSH1 0x1 ADD SLOAD SWAP1 DUP1 PUSH1 0x2 ADD PUSH1 0x0 SWAP1 SLOAD SWAP1 PUSH2 0x100 EXP SWAP1 DIV PUSH20 0xFFFFFFFFFFFFFFFFFFFFFFFFFFFFFFFFFFFFFFFF AND SWAP1 DUP1 PUSH1 0x2 ADD PUSH1 0x14 SWAP1 SLOAD SWAP1 PUSH2 0x100 EXP SWAP1 DIV PUSH1 0xFF AND SWAP1 DUP1 PUSH1 0x3 ADD SLOAD SWAP1 POP DUP6 JUMP JUMPDEST PUSH1 0x3 SLOAD DUP2 JUMP JUMPDEST PUSH1 0x0 DUP1 SLOAD SWAP1 PUSH2 0x100 EXP SWAP1 DIV PUSH20 0xFFFFFFFFFFFFFFFFFFFFFFFFFFFFFFFFFFFFFFFF AND PUSH20 0xFFFFFFFFFFFFFFFFFFFFFFFFFFFFFFFFFFFFFFFF AND CALLER PUSH20 0xFFFFFFFFFFFFFFFFFFFFFFFFFFFFFFFFFFFFFFFF AND EQ PUSH2 0x3AC JUMPI PUSH1 0x0 DUP1 REVERT JUMPDEST PUSH1 0x0 PUSH1 0x4 PUSH1 0x1 DUP2 PUSH1 0x1 DUP2 SLOAD ADD DUP1 DUP3 SSTORE DUP1 SWAP2 POP POP SUB SWAP1 PUSH1 0x0 MSTORE PUSH1 0x20 PUSH1 0x0 KECCAK256 SWAP1 PUSH1 0x5 MUL ADD SWAP1 POP DUP4 DUP2 PUSH1 0x0 ADD SWAP1 DUP2 PUSH2 0x3E1 SWAP2 SWAP1 PUSH2 0xDE9 JUMP JUMPDEST POP DUP3 DUP2 PUSH1 0x1 ADD DUP2 SWAP1 SSTORE POP DUP2 DUP2 PUSH1 0x2 ADD PUSH1 0x0 PUSH2 0x100 EXP DUP2 SLOAD DUP2 PUSH20 0xFFFFFFFFFFFFFFFFFFFFFFFFFFFFFFFFFFFFFFFF MUL NOT AND SWAP1 DUP4 PUSH20 0xFFFFFFFFFFFFFFFFFFFFFFFFFFFFFFFFFFFFFFFF AND MUL OR SWAP1 SSTORE POP PUSH1 0x0 DUP2 PUSH1 0x2 ADD PUSH1 0x14 PUSH2 0x100 EXP DUP2 SLOAD DUP2 PUSH1 0xFF MUL NOT AND SWAP1 DUP4 ISZERO ISZERO MUL OR SWAP1 SSTORE POP PUSH1 0x0 DUP2 PUSH1 0x3 ADD DUP2 SWAP1 SSTORE POP POP POP POP POP JUMP JUMPDEST PUSH1 0x1 SLOAD DUP2 JUMP JUMPDEST PUSH1 0x1 SLOAD CALLVALUE GT PUSH2 0x46F JUMPI PUSH1 0x0 DUP1 REVERT JUMPDEST PUSH1 0x1 PUSH1 0x2 PUSH1 0x0 CALLER PUSH20 0xFFFFFFFFFFFFFFFFFFFFFFFFFFFFFFFFFFFFFFFF AND PUSH20 0xFFFFFFFFFFFFFFFFFFFFFFFFFFFFFFFFFFFFFFFF AND DUP2 MSTORE PUSH1 0x20 ADD SWAP1 DUP2 MSTORE PUSH1 0x20 ADD PUSH1 0x0 KECCAK256 PUSH1 0x0 PUSH2 0x100 EXP DUP2 SLOAD DUP2 PUSH1 0xFF MUL NOT AND SWAP1 DUP4 ISZERO ISZERO MUL OR SWAP1 SSTORE POP PUSH1 0x3 PUSH1 0x0 DUP2 SLOAD DUP1 SWAP3 SWAP2 SWAP1 PUSH2 0x4DA SWAP1 PUSH2 0xEEA JUMP JUMPDEST SWAP2 SWAP1 POP SSTORE POP JUMP JUMPDEST PUSH1 0x0 PUSH1 0x4 DUP3 DUP2 SLOAD DUP2 LT PUSH2 0x4F7 JUMPI PUSH2 0x4F6 PUSH2 0xF32 JUMP JUMPDEST JUMPDEST SWAP1 PUSH1 0x0 MSTORE PUSH1 0x20 PUSH1 0x0 KECCAK256 SWAP1 PUSH1 0x5 MUL ADD SWAP1 POP PUSH1 0x2 PUSH1 0x0 CALLER PUSH20 0xFFFFFFFFFFFFFFFFFFFFFFFFFFFFFFFFFFFFFFFF AND PUSH20 0xFFFFFFFFFFFFFFFFFFFFFFFFFFFFFFFFFFFFFFFF AND DUP2 MSTORE PUSH1 0x20 ADD SWAP1 DUP2 MSTORE PUSH1 0x20 ADD PUSH1 0x0 KECCAK256 PUSH1 0x0 SWAP1 SLOAD SWAP1 PUSH2 0x100 EXP SWAP1 DIV PUSH1 0xFF AND PUSH2 0x55D JUMPI PUSH1 0x0 DUP1 REVERT JUMPDEST DUP1 PUSH1 0x4 ADD PUSH1 0x0 CALLER PUSH20 0xFFFFFFFFFFFFFFFFFFFFFFFFFFFFFFFFFFFFFFFF AND PUSH20 0xFFFFFFFFFFFFFFFFFFFFFFFFFFFFFFFFFFFFFFFF AND DUP2 MSTORE PUSH1 0x20 ADD SWAP1 DUP2 MSTORE PUSH1 0x20 ADD PUSH1 0x0 KECCAK256 PUSH1 0x0 SWAP1 SLOAD SWAP1 PUSH2 0x100 EXP SWAP1 DIV PUSH1 0xFF AND ISZERO PUSH2 0x5B6 JUMPI PUSH1 0x0 DUP1 REVERT JUMPDEST PUSH1 0x1 DUP2 PUSH1 0x4 ADD PUSH1 0x0 CALLER PUSH20 0xFFFFFFFFFFFFFFFFFFFFFFFFFFFFFFFFFFFFFFFF AND PUSH20 0xFFFFFFFFFFFFFFFFFFFFFFFFFFFFFFFFFFFFFFFF AND DUP2 MSTORE PUSH1 0x20 ADD SWAP1 DUP2 MSTORE PUSH1 0x20 ADD PUSH1 0x0 KECCAK256 PUSH1 0x0 PUSH2 0x100 EXP DUP2 SLOAD DUP2 PUSH1 0xFF MUL NOT AND SWAP1 DUP4 ISZERO ISZERO MUL OR SWAP1 SSTORE POP DUP1 PUSH1 0x3 ADD PUSH1 0x0 DUP2 SLOAD DUP1 SWAP3 SWAP2 SWAP1 PUSH2 0x625 SWAP1 PUSH2 0xEEA JUMP JUMPDEST SWAP2 SWAP1 POP SSTORE POP POP POP JUMP JUMPDEST PUSH1 0x0 DUP1 SLOAD SWAP1 PUSH2 0x100 EXP SWAP1 DIV PUSH20 0xFFFFFFFFFFFFFFFFFFFFFFFFFFFFFFFFFFFFFFFF AND PUSH20 0xFFFFFFFFFFFFFFFFFFFFFFFFFFFFFFFFFFFFFFFF AND CALLER PUSH20 0xFFFFFFFFFFFFFFFFFFFFFFFFFFFFFFFFFFFFFFFF AND EQ PUSH2 0x686 JUMPI PUSH1 0x0 DUP1 REVERT JUMPDEST PUSH1 0x0 PUSH1 0x4 DUP3 DUP2 SLOAD DUP2 LT PUSH2 0x69C JUMPI PUSH2 0x69B PUSH2 0xF32 JUMP JUMPDEST JUMPDEST SWAP1 PUSH1 0x0 MSTORE PUSH1 0x20 PUSH1 0x0 KECCAK256 SWAP1 PUSH1 0x5 MUL ADD SWAP1 POP DUP1 PUSH1 0x2 ADD PUSH1 0x14 SWAP1 SLOAD SWAP1 PUSH2 0x100 EXP SWAP1 DIV PUSH1 0xFF AND ISZERO PUSH2 0x6C8 JUMPI PUSH1 0x0 DUP1 REVERT JUMPDEST PUSH1 0x2 PUSH1 0x3 SLOAD PUSH2 0x6D7 SWAP2 SWAP1 PUSH2 0xF90 JUMP JUMPDEST DUP2 PUSH1 0x3 ADD SLOAD GT PUSH2 0x6E6 JUMPI PUSH1 0x0 DUP1 REVERT JUMPDEST DUP1 PUSH1 0x2 ADD PUSH1 0x0 SWAP1 SLOAD SWAP1 PUSH2 0x100 EXP SWAP1 DIV PUSH20 0xFFFFFFFFFFFFFFFFFFFFFFFFFFFFFFFFFFFFFFFF AND PUSH20 0xFFFFFFFFFFFFFFFFFFFFFFFFFFFFFFFFFFFFFFFF AND PUSH2 0x8FC DUP3 PUSH1 0x1 ADD SLOAD SWAP1 DUP2 ISZERO MUL SWAP1 PUSH1 0x40 MLOAD PUSH1 0x0 PUSH1 0x40 MLOAD DUP1 DUP4 SUB DUP2 DUP6 DUP9 DUP9 CALL SWAP4 POP POP POP POP ISZERO DUP1 ISZERO PUSH2 0x754 JUMPI RETURNDATASIZE PUSH1 0x0 DUP1 RETURNDATACOPY RETURNDATASIZE PUSH1 0x0 REVERT JUMPDEST POP PUSH1 0x1 DUP2 PUSH1 0x2 ADD PUSH1 0x14 PUSH2 0x100 EXP DUP2 SLOAD DUP2 PUSH1 0xFF MUL NOT AND SWAP1 DUP4 ISZERO ISZERO MUL OR SWAP1 SSTORE POP POP POP JUMP JUMPDEST PUSH1 0x0 PUSH1 0x40 MLOAD SWAP1 POP SWAP1 JUMP JUMPDEST PUSH1 0x0 DUP1 REVERT JUMPDEST PUSH1 0x0 DUP1 REVERT JUMPDEST PUSH1 0x0 PUSH20 0xFFFFFFFFFFFFFFFFFFFFFFFFFFFFFFFFFFFFFFFF DUP3 AND SWAP1 POP SWAP2 SWAP1 POP JUMP JUMPDEST PUSH1 0x0 PUSH2 0x7B5 DUP3 PUSH2 0x78A JUMP JUMPDEST SWAP1 POP SWAP2 SWAP1 POP JUMP JUMPDEST PUSH2 0x7C5 DUP2 PUSH2 0x7AA JUMP JUMPDEST DUP2 EQ PUSH2 0x7D0 JUMPI PUSH1 0x0 DUP1 REVERT JUMPDEST POP JUMP JUMPDEST PUSH1 0x0 DUP2 CALLDATALOAD SWAP1 POP PUSH2 0x7E2 DUP2 PUSH2 0x7BC JUMP JUMPDEST SWAP3 SWAP2 POP POP JUMP JUMPDEST PUSH1 0x0 PUSH1 0x20 DUP3 DUP5 SUB SLT ISZERO PUSH2 0x7FE JUMPI PUSH2 0x7FD PUSH2 0x780 JUMP JUMPDEST JUMPDEST PUSH1 0x0 PUSH2 0x80C DUP5 DUP3 DUP6 ADD PUSH2 0x7D3 JUMP JUMPDEST SWAP2 POP POP SWAP3 SWAP2 POP POP JUMP JUMPDEST PUSH1 0x0 DUP2 ISZERO ISZERO SWAP1 POP SWAP2 SWAP1 POP JUMP JUMPDEST PUSH2 0x82A DUP2 PUSH2 0x815 JUMP JUMPDEST DUP3 MSTORE POP POP JUMP JUMPDEST PUSH1 0x0 PUSH1 0x20 DUP3 ADD SWAP1 POP PUSH2 0x845 PUSH1 0x0 DUP4 ADD DUP5 PUSH2 0x821 JUMP JUMPDEST SWAP3 SWAP2 POP POP JUMP JUMPDEST PUSH2 0x854 DUP2 PUSH2 0x7AA JUMP JUMPDEST DUP3 MSTORE POP POP JUMP JUMPDEST PUSH1 0x0 PUSH1 0x20 DUP3 ADD SWAP1 POP PUSH2 0x86F PUSH1 0x0 DUP4 ADD DUP5 PUSH2 0x84B JUMP JUMPDEST SWAP3 SWAP2 POP POP JUMP JUMPDEST PUSH1 0x0 DUP2 SWAP1 POP SWAP2 SWAP1 POP JUMP JUMPDEST PUSH2 0x888 DUP2 PUSH2 0x875 JUMP JUMPDEST DUP2 EQ PUSH2 0x893 JUMPI PUSH1 0x0 DUP1 REVERT JUMPDEST POP JUMP JUMPDEST PUSH1 0x0 DUP2 CALLDATALOAD SWAP1 POP PUSH2 0x8A5 DUP2 PUSH2 0x87F JUMP JUMPDEST SWAP3 SWAP2 POP POP JUMP JUMPDEST PUSH1 0x0 PUSH1 0x20 DUP3 DUP5 SUB SLT ISZERO PUSH2 0x8C1 JUMPI PUSH2 0x8C0 PUSH2 0x780 JUMP JUMPDEST JUMPDEST PUSH1 0x0 PUSH2 0x8CF DUP5 DUP3 DUP6 ADD PUSH2 0x896 JUMP JUMPDEST SWAP2 POP POP SWAP3 SWAP2 POP POP JUMP JUMPDEST PUSH1 0x0 DUP2 MLOAD SWAP1 POP SWAP2 SWAP1 POP JUMP JUMPDEST PUSH1 0x0 DUP3 DUP3 MSTORE PUSH1 0x20 DUP3 ADD SWAP1 POP SWAP3 SWAP2 POP POP JUMP JUMPDEST PUSH1 0x0 JUMPDEST DUP4 DUP2 LT ISZERO PUSH2 0x912 JUMPI DUP1 DUP3 ADD MLOAD DUP2 DUP5 ADD MSTORE PUSH1 0x20 DUP2 ADD SWAP1 POP PUSH2 0x8F7 JUMP JUMPDEST PUSH1 0x0 DUP5 DUP5 ADD MSTORE POP POP POP POP JUMP JUMPDEST PUSH1 0x0 PUSH1 0x1F NOT PUSH1 0x1F DUP4 ADD AND SWAP1 POP SWAP2 SWAP1 POP JUMP JUMPDEST PUSH1 0x0 PUSH2 0x93A DUP3 PUSH2 0x8D8 JUMP JUMPDEST PUSH2 0x944 DUP2 DUP6 PUSH2 0x8E3 JUMP JUMPDEST SWAP4 POP PUSH2 0x954 DUP2 DUP6 PUSH1 0x20 DUP7 ADD PUSH2 0x8F4 JUMP JUMPDEST PUSH2 0x95D DUP2 PUSH2 0x91E JUMP JUMPDEST DUP5 ADD SWAP2 POP POP SWAP3 SWAP2 POP POP JUMP JUMPDEST PUSH2 0x971 DUP2 PUSH2 0x875 JUMP JUMPDEST DUP3 MSTORE POP POP JUMP JUMPDEST PUSH1 0x0 PUSH2 0x982 DUP3 PUSH2 0x78A JUMP JUMPDEST SWAP1 POP SWAP2 SWAP1 POP JUMP JUMPDEST PUSH2 0x992 DUP2 PUSH2 0x977 JUMP JUMPDEST DUP3 MSTORE POP POP JUMP JUMPDEST PUSH1 0x0 PUSH1 0xA0 DUP3 ADD SWAP1 POP DUP2 DUP2 SUB PUSH1 0x0 DUP4 ADD MSTORE PUSH2 0x9B2 DUP2 DUP9 PUSH2 0x92F JUMP JUMPDEST SWAP1 POP PUSH2 0x9C1 PUSH1 0x20 DUP4 ADD DUP8 PUSH2 0x968 JUMP JUMPDEST PUSH2 0x9CE PUSH1 0x40 DUP4 ADD DUP7 PUSH2 0x989 JUMP JUMPDEST PUSH2 0x9DB PUSH1 0x60 DUP4 ADD DUP6 PUSH2 0x821 JUMP JUMPDEST PUSH2 0x9E8 PUSH1 0x80 DUP4 ADD DUP5 PUSH2 0x968 JUMP JUMPDEST SWAP7 SWAP6 POP POP POP POP POP POP JUMP JUMPDEST PUSH1 0x0 PUSH1 0x20 DUP3 ADD SWAP1 POP PUSH2 0xA07 PUSH1 0x0 DUP4 ADD DUP5 PUSH2 0x968 JUMP JUMPDEST SWAP3 SWAP2 POP POP JUMP JUMPDEST PUSH1 0x0 DUP1 REVERT JUMPDEST PUSH1 0x0 DUP1 REVERT JUMPDEST PUSH32 0x4E487B7100000000000000000000000000000000000000000000000000000000 PUSH1 0x0 MSTORE PUSH1 0x41 PUSH1 0x4 MSTORE PUSH1 0x24 PUSH1 0x0 REVERT JUMPDEST PUSH2 0xA4F DUP3 PUSH2 0x91E JUMP JUMPDEST DUP2 ADD DUP2 DUP2 LT PUSH8 0xFFFFFFFFFFFFFFFF DUP3 GT OR ISZERO PUSH2 0xA6E JUMPI PUSH2 0xA6D PUSH2 0xA17 JUMP JUMPDEST JUMPDEST DUP1 PUSH1 0x40 MSTORE POP POP POP JUMP JUMPDEST PUSH1 0x0 PUSH2 0xA81 PUSH2 0x776 JUMP JUMPDEST SWAP1 POP PUSH2 0xA8D DUP3 DUP3 PUSH2 0xA46 JUMP JUMPDEST SWAP2 SWAP1 POP JUMP JUMPDEST PUSH1 0x0 PUSH8 0xFFFFFFFFFFFFFFFF DUP3 GT ISZERO PUSH2 0xAAD JUMPI PUSH2 0xAAC PUSH2 0xA17 JUMP JUMPDEST JUMPDEST PUSH2 0xAB6 DUP3 PUSH2 0x91E JUMP JUMPDEST SWAP1 POP PUSH1 0x20 DUP2 ADD SWAP1 POP SWAP2 SWAP1 POP JUMP JUMPDEST DUP3 DUP2 DUP4 CALLDATACOPY PUSH1 0x0 DUP4 DUP4 ADD MSTORE POP POP POP JUMP JUMPDEST PUSH1 0x0 PUSH2 0xAE5 PUSH2 0xAE0 DUP5 PUSH2 0xA92 JUMP JUMPDEST PUSH2 0xA77 JUMP JUMPDEST SWAP1 POP DUP3 DUP2 MSTORE PUSH1 0x20 DUP2 ADD DUP5 DUP5 DUP5 ADD GT ISZERO PUSH2 0xB01 JUMPI PUSH2 0xB00 PUSH2 0xA12 JUMP JUMPDEST JUMPDEST PUSH2 0xB0C DUP5 DUP3 DUP6 PUSH2 0xAC3 JUMP JUMPDEST POP SWAP4 SWAP3 POP POP POP JUMP JUMPDEST PUSH1 0x0 DUP3 PUSH1 0x1F DUP4 ADD SLT PUSH2 0xB29 JUMPI PUSH2 0xB28 PUSH2 0xA0D JUMP JUMPDEST JUMPDEST DUP2 CALLDATALOAD PUSH2 0xB39 DUP5 DUP3 PUSH1 0x20 DUP7 ADD PUSH2 0xAD2 JUMP JUMPDEST SWAP2 POP POP SWAP3 SWAP2 POP POP JUMP JUMPDEST PUSH2 0xB4B DUP2 PUSH2 0x977 JUMP JUMPDEST DUP2 EQ PUSH2 0xB56 JUMPI PUSH1 0x0 DUP1 REVERT JUMPDEST POP JUMP JUMPDEST PUSH1 0x0 DUP2 CALLDATALOAD SWAP1 POP PUSH2 0xB68 DUP2 PUSH2 0xB42 JUMP JUMPDEST SWAP3 SWAP2 POP POP JUMP JUMPDEST PUSH1 0x0 DUP1 PUSH1 0x0 PUSH1 0x60 DUP5 DUP7 SUB SLT ISZERO PUSH2 0xB87 JUMPI PUSH2 0xB86 PUSH2 0x780 JUMP JUMPDEST JUMPDEST PUSH1 0x0 DUP5 ADD CALLDATALOAD PUSH8 0xFFFFFFFFFFFFFFFF DUP2 GT ISZERO PUSH2 0xBA5 JUMPI PUSH2 0xBA4 PUSH2 0x785 JUMP JUMPDEST JUMPDEST PUSH2 0xBB1 DUP7 DUP3 DUP8 ADD PUSH2 0xB14 JUMP JUMPDEST SWAP4 POP POP PUSH1 0x20 PUSH2 0xBC2 DUP7 DUP3 DUP8 ADD PUSH2 0x896 JUMP JUMPDEST SWAP3 POP POP PUSH1 0x40 PUSH2 0xBD3 DUP7 DUP3 DUP8 ADD PUSH2 0xB59 JUMP JUMPDEST SWAP2 POP POP SWAP3 POP SWAP3 POP SWAP3 JUMP JUMPDEST PUSH32 0x4E487B7100000000000000000000000000000000000000000000000000000000 PUSH1 0x0 MSTORE PUSH1 0x22 PUSH1 0x4 MSTORE PUSH1 0x24 PUSH1 0x0 REVERT JUMPDEST PUSH1 0x0 PUSH1 0x2 DUP3 DIV SWAP1 POP PUSH1 0x1 DUP3 AND DUP1 PUSH2 0xC24 JUMPI PUSH1 0x7F DUP3 AND SWAP2 POP JUMPDEST PUSH1 0x20 DUP3 LT DUP2 SUB PUSH2 0xC37 JUMPI PUSH2 0xC36 PUSH2 0xBDD JUMP JUMPDEST JUMPDEST POP SWAP2 SWAP1 POP JUMP JUMPDEST PUSH1 0x0 DUP2 SWAP1 POP DUP2 PUSH1 0x0 MSTORE PUSH1 0x20 PUSH1 0x0 KECCAK256 SWAP1 POP SWAP2 SWAP1 POP JUMP JUMPDEST PUSH1 0x0 PUSH1 0x20 PUSH1 0x1F DUP4 ADD DIV SWAP1 POP SWAP2 SWAP1 POP JUMP JUMPDEST PUSH1 0x0 DUP3 DUP3 SHL SWAP1 POP SWAP3 SWAP2 POP POP JUMP JUMPDEST PUSH1 0x0 PUSH1 0x8 DUP4 MUL PUSH2 0xC9F PUSH32 0xFFFFFFFFFFFFFFFFFFFFFFFFFFFFFFFFFFFFFFFFFFFFFFFFFFFFFFFFFFFFFFFF DUP3 PUSH2 0xC62 JUMP JUMPDEST PUSH2 0xCA9 DUP7 DUP4 PUSH2 0xC62 JUMP JUMPDEST SWAP6 POP DUP1 NOT DUP5 AND SWAP4 POP DUP1 DUP7 AND DUP5 OR SWAP3 POP POP POP SWAP4 SWAP3 POP POP POP JUMP JUMPDEST PUSH1 0x0 DUP2 SWAP1 POP SWAP2 SWAP1 POP JUMP JUMPDEST PUSH1 0x0 PUSH2 0xCE6 PUSH2 0xCE1 PUSH2 0xCDC DUP5 PUSH2 0x875 JUMP JUMPDEST PUSH2 0xCC1 JUMP JUMPDEST PUSH2 0x875 JUMP JUMPDEST SWAP1 POP SWAP2 SWAP1 POP JUMP JUMPDEST PUSH1 0x0 DUP2 SWAP1 POP SWAP2 SWAP1 POP JUMP JUMPDEST PUSH2 0xD00 DUP4 PUSH2 0xCCB JUMP JUMPDEST PUSH2 0xD14 PUSH2 0xD0C DUP3 PUSH2 0xCED JUMP JUMPDEST DUP5 DUP5 SLOAD PUSH2 0xC6F JUMP JUMPDEST DUP3 SSTORE POP POP POP POP JUMP JUMPDEST PUSH1 0x0 SWAP1 JUMP JUMPDEST PUSH2 0xD29 PUSH2 0xD1C JUMP JUMPDEST PUSH2 0xD34 DUP2 DUP5 DUP5 PUSH2 0xCF7 JUMP JUMPDEST POP POP POP JUMP JUMPDEST JUMPDEST DUP2 DUP2 LT ISZERO PUSH2 0xD58 JUMPI PUSH2 0xD4D PUSH1 0x0 DUP3 PUSH2 0xD21 JUMP JUMPDEST PUSH1 0x1 DUP2 ADD SWAP1 POP PUSH2 0xD3A JUMP JUMPDEST POP POP JUMP JUMPDEST PUSH1 0x1F DUP3 GT ISZERO PUSH2 0xD9D JUMPI PUSH2 0xD6E DUP2 PUSH2 0xC3D JUMP JUMPDEST PUSH2 0xD77 DUP5 PUSH2 0xC52 JUMP JUMPDEST DUP2 ADD PUSH1 0x20 DUP6 LT ISZERO PUSH2 0xD86 JUMPI DUP2 SWAP1 POP JUMPDEST PUSH2 0xD9A PUSH2 0xD92 DUP6 PUSH2 0xC52 JUMP JUMPDEST DUP4 ADD DUP3 PUSH2 0xD39 JUMP JUMPDEST POP POP JUMPDEST POP POP POP JUMP JUMPDEST PUSH1 0x0 DUP3 DUP3 SHR SWAP1 POP SWAP3 SWAP2 POP POP JUMP JUMPDEST PUSH1 0x0 PUSH2 0xDC0 PUSH1 0x0 NOT DUP5 PUSH1 0x8 MUL PUSH2 0xDA2 JUMP JUMPDEST NOT DUP1 DUP4 AND SWAP2 POP POP SWAP3 SWAP2 POP POP JUMP JUMPDEST PUSH1 0x0 PUSH2 0xDD9 DUP4 DUP4 PUSH2 0xDAF JUMP JUMPDEST SWAP2 POP DUP3 PUSH1 0x2 MUL DUP3 OR SWAP1 POP SWAP3 SWAP2 POP POP JUMP JUMPDEST PUSH2 0xDF2 DUP3 PUSH2 0x8D8 JUMP JUMPDEST PUSH8 0xFFFFFFFFFFFFFFFF DUP2 GT ISZERO PUSH2 0xE0B JUMPI PUSH2 0xE0A PUSH2 0xA17 JUMP JUMPDEST JUMPDEST PUSH2 0xE15 DUP3 SLOAD PUSH2 0xC0C JUMP JUMPDEST PUSH2 0xE20 DUP3 DUP3 DUP6 PUSH2 0xD5C JUMP JUMPDEST PUSH1 0x0 PUSH1 0x20 SWAP1 POP PUSH1 0x1F DUP4 GT PUSH1 0x1 DUP2 EQ PUSH2 0xE53 JUMPI PUSH1 0x0 DUP5 ISZERO PUSH2 0xE41 JUMPI DUP3 DUP8 ADD MLOAD SWAP1 POP JUMPDEST PUSH2 0xE4B DUP6 DUP3 PUSH2 0xDCD JUMP JUMPDEST DUP7 SSTORE POP PUSH2 0xEB3 JUMP JUMPDEST PUSH1 0x1F NOT DUP5 AND PUSH2 0xE61 DUP7 PUSH2 0xC3D JUMP JUMPDEST PUSH1 0x0 JUMPDEST DUP3 DUP2 LT ISZERO PUSH2 0xE89 JUMPI DUP5 DUP10 ADD MLOAD DUP3 SSTORE PUSH1 0x1 DUP3 ADD SWAP2 POP PUSH1 0x20 DUP6 ADD SWAP5 POP PUSH1 0x20 DUP2 ADD SWAP1 POP PUSH2 0xE64 JUMP JUMPDEST DUP7 DUP4 LT ISZERO PUSH2 0xEA6 JUMPI DUP5 DUP10 ADD MLOAD PUSH2 0xEA2 PUSH1 0x1F DUP10 AND DUP3 PUSH2 0xDAF JUMP JUMPDEST DUP4 SSTORE POP JUMPDEST PUSH1 0x1 PUSH1 0x2 DUP9 MUL ADD DUP9 SSTORE POP POP POP JUMPDEST POP POP POP POP POP POP JUMP JUMPDEST PUSH32 0x4E487B7100000000000000000000000000000000000000000000000000000000 PUSH1 0x0 MSTORE PUSH1 0x11 PUSH1 0x4 MSTORE PUSH1 0x24 PUSH1 0x0 REVERT JUMPDEST PUSH1 0x0 PUSH2 0xEF5 DUP3 PUSH2 0x875 JUMP JUMPDEST SWAP2 POP PUSH32 0xFFFFFFFFFFFFFFFFFFFFFFFFFFFFFFFFFFFFFFFFFFFFFFFFFFFFFFFFFFFFFFFF DUP3 SUB PUSH2 0xF27 JUMPI PUSH2 0xF26 PUSH2 0xEBB JUMP JUMPDEST JUMPDEST PUSH1 0x1 DUP3 ADD SWAP1 POP SWAP2 SWAP1 POP JUMP JUMPDEST PUSH32 0x4E487B7100000000000000000000000000000000000000000000000000000000 PUSH1 0x0 MSTORE PUSH1 0x32 PUSH1 0x4 MSTORE PUSH1 0x24 PUSH1 0x0 REVERT JUMPDEST PUSH32 0x4E487B7100000000000000000000000000000000000000000000000000000000 PUSH1 0x0 MSTORE PUSH1 0x12 PUSH1 0x4 MSTORE PUSH1 0x24 PUSH1 0x0 REVERT JUMPDEST PUSH1 0x0 PUSH2 0xF9B DUP3 PUSH2 0x875 JUMP JUMPDEST SWAP2 POP PUSH2 0xFA6 DUP4 PUSH2 0x875 JUMP JUMPDEST SWAP3 POP DUP3 PUSH2 0xFB6 JUMPI PUSH2 0xFB5 PUSH2 0xF61 JUMP JUMPDEST JUMPDEST DUP3 DUP3 DIV SWAP1 POP SWAP3 SWAP2 POP POP JUMP INVALID LOG2 PUSH5 0x6970667358 0x22 SLT KECCAK256 SWAP15 PUSH6 0x1CC8BD042D2A 0xB7 0x1F EXTCODEHASH 0x29 PUSH30 0x251E47C384C5B56B02007DBC9495F60A5ED92364736F6C63430008110033 LOG2 PUSH5 0x6970667358 0x22 SLT KECCAK256 0xB2 SMOD PUSH23 0x7A85DE908E35E74922B194994202147BF40F21CE2984CA SAR 0xC6 PUSH30 0x71905264736F6C6343000811003300000000000000000000000000000000 "},"gasEstimates":{"creation":{"codeDepositCost":"1081800","executionCost":"1127","totalCost":"1082927"},"external":{"createCampaign(uint256)":"infinite","getDeployedCampaigns()":"infinite"}},"methodIdentifiers":{"createCampaign(uint256)":"a3303a75","getDeployedCampaigns()":"4acb9d4f"}},"storageLayout":{"storage":[{"astId":4,"contract":"Campaign.sol:CampaignFactory","label":"deployedCampaigns","offset":0,"slot":"0","type":"t_array(t_address)dyn_storage"}],"types":{"t_address":{"encoding":"inplace","label":"address","numberOfBytes":"20"},"t_array(t_address)dyn_storage":{"base":"t_address","encoding":"dynamic_array","label":"address[]","numberOfBytes":"32"}}},"userdoc":{"kind":"user","methods":{},"version":1}}