{"abi":[{"anonymous":false,"inputs":[{"indexed":false,"internalType":"address","name":"campaignAddress","type":"address"}],"name":"CampaignCreated","type":"event"},{"inputs":[{"internalType":"string","name":"name","type":"string"},{"internalType":"string","name":"description","type":"string"},{"internalType":"uint256","name":"goal","type":"uint256"},{"internalType":"uint256","name":"minimum","type":"uint256"}],"name":"createCampaign","outputs":[],"stateMutability":"nonpayable","type":"function"},{"inputs":[],"name":"getDeployedCampaigns","outputs":[{"internalType":"address[]","name":"","type":"address[]"}],"stateMutability":"view","type":"function"}],"devdoc":{"kind":"dev","methods":{},"version":1},"evm":{"assembly":"    /* \"Campaign.sol\":58:600  contract CampaignFactory {... */\n  mstore(0x40, 0x80)\n  callvalue\n  dup1\n  iszero\n  tag_1\n  jumpi\n  0x00\n  dup1\n  revert\ntag_1:\n  pop\n  dataSize(sub_0)\n  dup1\n  dataOffset(sub_0)\n  0x00\n  codecopy\n  0x00\n  return\nstop\n\nsub_0: assembly {\n        /* \"Campaign.sol\":58:600  contract CampaignFactory {... */\n      mstore(0x40, 0x80)\n      callvalue\n      dup1\n      iszero\n      tag_1\n      jumpi\n      0x00\n      dup1\n      revert\n    tag_1:\n      pop\n      jumpi(tag_2, lt(calldatasize, 0x04))\n      shr(0xe0, calldataload(0x00))\n      dup1\n      0x4acb9d4f\n      eq\n      tag_3\n      jumpi\n      dup1\n      0xa318f269\n      eq\n      tag_4\n      jumpi\n    tag_2:\n      0x00\n      dup1\n      revert\n        /* \"Campaign.sol\":488:598  function getDeployedCampaigns() public view returns(address[] memory){... */\n    tag_3:\n      tag_5\n      tag_6\n      jump\t// in\n    tag_5:\n      mload(0x40)\n      tag_7\n      swap2\n      swap1\n      tag_8\n      jump\t// in\n    tag_7:\n      mload(0x40)\n      dup1\n      swap2\n      sub\n      swap1\n      return\n        /* \"Campaign.sol\":175:482  function createCampaign(string memory name, string memory description, uint goal, uint minimum) public {... */\n    tag_4:\n      tag_9\n      0x04\n      dup1\n      calldatasize\n      sub\n      dup2\n      add\n      swap1\n      tag_10\n      swap2\n      swap1\n      tag_11\n      jump\t// in\n    tag_10:\n      tag_12\n      jump\t// in\n    tag_9:\n      stop\n        /* \"Campaign.sol\":488:598  function getDeployedCampaigns() public view returns(address[] memory){... */\n    tag_6:\n        /* \"Campaign.sol\":540:556  address[] memory */\n      0x60\n        /* \"Campaign.sol\":574:591  deployedCampaigns */\n      0x00\n        /* \"Campaign.sol\":567:591  return deployedCampaigns */\n      dup1\n      sload\n      dup1\n      0x20\n      mul\n      0x20\n      add\n      mload(0x40)\n      swap1\n      dup2\n      add\n      0x40\n      mstore\n      dup1\n      swap3\n      swap2\n      swap1\n      dup2\n      dup2\n      mstore\n      0x20\n      add\n      dup3\n      dup1\n      sload\n      dup1\n      iszero\n      tag_14\n      jumpi\n      0x20\n      mul\n      dup3\n      add\n      swap2\n      swap1\n      0x00\n      mstore\n      keccak256(0x00, 0x20)\n      swap1\n    tag_15:\n      dup2\n      0x00\n      swap1\n      sload\n      swap1\n      0x0100\n      exp\n      swap1\n      div\n      0xffffffffffffffffffffffffffffffffffffffff\n      and\n      0xffffffffffffffffffffffffffffffffffffffff\n      and\n      dup2\n      mstore\n      0x20\n      add\n      swap1\n      0x01\n      add\n      swap1\n      dup1\n      dup4\n      gt\n      tag_15\n      jumpi\n    tag_14:\n      pop\n      pop\n      pop\n      pop\n      pop\n      swap1\n      pop\n        /* \"Campaign.sol\":488:598  function getDeployedCampaigns() public view returns(address[] memory){... */\n      swap1\n      jump\t// out\n        /* \"Campaign.sol\":175:482  function createCampaign(string memory name, string memory description, uint goal, uint minimum) public {... */\n    tag_12:\n        /* \"Campaign.sol\":288:308  Campaign newCampaign */\n      0x00\n        /* \"Campaign.sol\":324:331  minimum */\n      dup2\n        /* \"Campaign.sol\":333:343  msg.sender */\n      caller\n        /* \"Campaign.sol\":345:349  name */\n      dup7\n        /* \"Campaign.sol\":351:362  description */\n      dup7\n        /* \"Campaign.sol\":364:368  goal */\n      dup7\n        /* \"Campaign.sol\":311:369  new Campaign(minimum, msg.sender, name, description, goal) */\n      mload(0x40)\n      tag_17\n      swap1\n      tag_18\n      jump\t// in\n    tag_17:\n      tag_19\n      swap6\n      swap5\n      swap4\n      swap3\n      swap2\n      swap1\n      tag_20\n      jump\t// in\n    tag_19:\n      mload(0x40)\n      dup1\n      swap2\n      sub\n      swap1\n      0x00\n      create\n      dup1\n      iszero\n      dup1\n      iszero\n      tag_21\n      jumpi\n      returndatasize\n      0x00\n      dup1\n      returndatacopy\n      revert(0x00, returndatasize)\n    tag_21:\n      pop\n        /* \"Campaign.sol\":288:369  Campaign newCampaign = new Campaign(minimum, msg.sender, name, description, goal) */\n      swap1\n      pop\n        /* \"Campaign.sol\":379:396  deployedCampaigns */\n      0x00\n        /* \"Campaign.sol\":410:421  newCampaign */\n      dup2\n        /* \"Campaign.sol\":379:423  deployedCampaigns.push(address(newCampaign)) */\n      swap1\n      dup1\n      0x01\n      dup2\n      sload\n      add\n      dup1\n      dup3\n      sstore\n      dup1\n      swap2\n      pop\n      pop\n      0x01\n      swap1\n      sub\n      swap1\n      0x00\n      mstore\n      keccak256(0x00, 0x20)\n      add\n      0x00\n      swap1\n      swap2\n      swap1\n      swap2\n      swap1\n      swap2\n      0x0100\n      exp\n      dup2\n      sload\n      dup2\n      0xffffffffffffffffffffffffffffffffffffffff\n      mul\n      not\n      and\n      swap1\n      dup4\n      0xffffffffffffffffffffffffffffffffffffffff\n      and\n      mul\n      or\n      swap1\n      sstore\n      pop\n        /* \"Campaign.sol\":438:475  CampaignCreated(address(newCampaign)) */\n      0x07a9c134c6ed9c353773b355c69cbf65e34e3c3820554f5b8e1afdecdfb40292\n        /* \"Campaign.sol\":462:473  newCampaign */\n      dup2\n        /* \"Campaign.sol\":438:475  CampaignCreated(address(newCampaign)) */\n      mload(0x40)\n      tag_23\n      swap2\n      swap1\n      tag_24\n      jump\t// in\n    tag_23:\n      mload(0x40)\n      dup1\n      swap2\n      sub\n      swap1\n      log1\n        /* \"Campaign.sol\":278:482  {... */\n      pop\n        /* \"Campaign.sol\":175:482  function createCampaign(string memory name, string memory description, uint goal, uint minimum) public {... */\n      pop\n      pop\n      pop\n      pop\n      jump\t// out\n    tag_18:\n      dataSize(sub_0)\n      dup1\n      dataOffset(sub_0)\n      dup4\n      codecopy\n      add\n      swap1\n      jump\t// out\n        /* \"#utility.yul\":7:121   */\n    tag_25:\n        /* \"#utility.yul\":74:80   */\n      0x00\n        /* \"#utility.yul\":108:113   */\n      dup2\n        /* \"#utility.yul\":102:114   */\n      mload\n        /* \"#utility.yul\":92:114   */\n      swap1\n      pop\n        /* \"#utility.yul\":7:121   */\n      swap2\n      swap1\n      pop\n      jump\t// out\n        /* \"#utility.yul\":127:311   */\n    tag_26:\n        /* \"#utility.yul\":226:237   */\n      0x00\n        /* \"#utility.yul\":260:266   */\n      dup3\n        /* \"#utility.yul\":255:258   */\n      dup3\n        /* \"#utility.yul\":248:267   */\n      mstore\n        /* \"#utility.yul\":300:304   */\n      0x20\n        /* \"#utility.yul\":295:298   */\n      dup3\n        /* \"#utility.yul\":291:305   */\n      add\n        /* \"#utility.yul\":276:305   */\n      swap1\n      pop\n        /* \"#utility.yul\":127:311   */\n      swap3\n      swap2\n      pop\n      pop\n      jump\t// out\n        /* \"#utility.yul\":317:449   */\n    tag_27:\n        /* \"#utility.yul\":384:388   */\n      0x00\n        /* \"#utility.yul\":407:410   */\n      dup2\n        /* \"#utility.yul\":399:410   */\n      swap1\n      pop\n        /* \"#utility.yul\":437:441   */\n      0x20\n        /* \"#utility.yul\":432:435   */\n      dup3\n        /* \"#utility.yul\":428:442   */\n      add\n        /* \"#utility.yul\":420:442   */\n      swap1\n      pop\n        /* \"#utility.yul\":317:449   */\n      swap2\n      swap1\n      pop\n      jump\t// out\n        /* \"#utility.yul\":455:581   */\n    tag_28:\n        /* \"#utility.yul\":492:499   */\n      0x00\n        /* \"#utility.yul\":532:574   */\n      0xffffffffffffffffffffffffffffffffffffffff\n        /* \"#utility.yul\":525:530   */\n      dup3\n        /* \"#utility.yul\":521:575   */\n      and\n        /* \"#utility.yul\":510:575   */\n      swap1\n      pop\n        /* \"#utility.yul\":455:581   */\n      swap2\n      swap1\n      pop\n      jump\t// out\n        /* \"#utility.yul\":587:683   */\n    tag_29:\n        /* \"#utility.yul\":624:631   */\n      0x00\n        /* \"#utility.yul\":653:677   */\n      tag_62\n        /* \"#utility.yul\":671:676   */\n      dup3\n        /* \"#utility.yul\":653:677   */\n      tag_28\n      jump\t// in\n    tag_62:\n        /* \"#utility.yul\":642:677   */\n      swap1\n      pop\n        /* \"#utility.yul\":587:683   */\n      swap2\n      swap1\n      pop\n      jump\t// out\n        /* \"#utility.yul\":689:797   */\n    tag_30:\n        /* \"#utility.yul\":766:790   */\n      tag_64\n        /* \"#utility.yul\":784:789   */\n      dup2\n        /* \"#utility.yul\":766:790   */\n      tag_29\n      jump\t// in\n    tag_64:\n        /* \"#utility.yul\":761:764   */\n      dup3\n        /* \"#utility.yul\":754:791   */\n      mstore\n        /* \"#utility.yul\":689:797   */\n      pop\n      pop\n      jump\t// out\n        /* \"#utility.yul\":803:982   */\n    tag_31:\n        /* \"#utility.yul\":872:882   */\n      0x00\n        /* \"#utility.yul\":893:939   */\n      tag_66\n        /* \"#utility.yul\":935:938   */\n      dup4\n        /* \"#utility.yul\":927:933   */\n      dup4\n        /* \"#utility.yul\":893:939   */\n      tag_30\n      jump\t// in\n    tag_66:\n        /* \"#utility.yul\":971:975   */\n      0x20\n        /* \"#utility.yul\":966:969   */\n      dup4\n        /* \"#utility.yul\":962:976   */\n      add\n        /* \"#utility.yul\":948:976   */\n      swap1\n      pop\n        /* \"#utility.yul\":803:982   */\n      swap3\n      swap2\n      pop\n      pop\n      jump\t// out\n        /* \"#utility.yul\":988:1101   */\n    tag_32:\n        /* \"#utility.yul\":1058:1062   */\n      0x00\n        /* \"#utility.yul\":1090:1094   */\n      0x20\n        /* \"#utility.yul\":1085:1088   */\n      dup3\n        /* \"#utility.yul\":1081:1095   */\n      add\n        /* \"#utility.yul\":1073:1095   */\n      swap1\n      pop\n        /* \"#utility.yul\":988:1101   */\n      swap2\n      swap1\n      pop\n      jump\t// out\n        /* \"#utility.yul\":1137:1869   */\n    tag_33:\n        /* \"#utility.yul\":1256:1259   */\n      0x00\n        /* \"#utility.yul\":1285:1339   */\n      tag_69\n        /* \"#utility.yul\":1333:1338   */\n      dup3\n        /* \"#utility.yul\":1285:1339   */\n      tag_25\n      jump\t// in\n    tag_69:\n        /* \"#utility.yul\":1355:1441   */\n      tag_70\n        /* \"#utility.yul\":1434:1440   */\n      dup2\n        /* \"#utility.yul\":1429:1432   */\n      dup6\n        /* \"#utility.yul\":1355:1441   */\n      tag_26\n      jump\t// in\n    tag_70:\n        /* \"#utility.yul\":1348:1441   */\n      swap4\n      pop\n        /* \"#utility.yul\":1465:1521   */\n      tag_71\n        /* \"#utility.yul\":1515:1520   */\n      dup4\n        /* \"#utility.yul\":1465:1521   */\n      tag_27\n      jump\t// in\n    tag_71:\n        /* \"#utility.yul\":1544:1551   */\n      dup1\n        /* \"#utility.yul\":1575:1576   */\n      0x00\n        /* \"#utility.yul\":1560:1844   */\n    tag_72:\n        /* \"#utility.yul\":1585:1591   */\n      dup4\n        /* \"#utility.yul\":1582:1583   */\n      dup2\n        /* \"#utility.yul\":1579:1592   */\n      lt\n        /* \"#utility.yul\":1560:1844   */\n      iszero\n      tag_74\n      jumpi\n        /* \"#utility.yul\":1661:1667   */\n      dup2\n        /* \"#utility.yul\":1655:1668   */\n      mload\n        /* \"#utility.yul\":1688:1751   */\n      tag_75\n        /* \"#utility.yul\":1747:1750   */\n      dup9\n        /* \"#utility.yul\":1732:1745   */\n      dup3\n        /* \"#utility.yul\":1688:1751   */\n      tag_31\n      jump\t// in\n    tag_75:\n        /* \"#utility.yul\":1681:1751   */\n      swap8\n      pop\n        /* \"#utility.yul\":1774:1834   */\n      tag_76\n        /* \"#utility.yul\":1827:1833   */\n      dup4\n        /* \"#utility.yul\":1774:1834   */\n      tag_32\n      jump\t// in\n    tag_76:\n        /* \"#utility.yul\":1764:1834   */\n      swap3\n      pop\n        /* \"#utility.yul\":1620:1844   */\n      pop\n        /* \"#utility.yul\":1607:1608   */\n      0x01\n        /* \"#utility.yul\":1604:1605   */\n      dup2\n        /* \"#utility.yul\":1600:1609   */\n      add\n        /* \"#utility.yul\":1595:1609   */\n      swap1\n      pop\n        /* \"#utility.yul\":1560:1844   */\n      jump(tag_72)\n    tag_74:\n        /* \"#utility.yul\":1564:1578   */\n      pop\n        /* \"#utility.yul\":1860:1863   */\n      dup6\n        /* \"#utility.yul\":1853:1863   */\n      swap4\n      pop\n        /* \"#utility.yul\":1261:1869   */\n      pop\n      pop\n      pop\n        /* \"#utility.yul\":1137:1869   */\n      swap3\n      swap2\n      pop\n      pop\n      jump\t// out\n        /* \"#utility.yul\":1875:2248   */\n    tag_8:\n        /* \"#utility.yul\":2018:2022   */\n      0x00\n        /* \"#utility.yul\":2056:2058   */\n      0x20\n        /* \"#utility.yul\":2045:2054   */\n      dup3\n        /* \"#utility.yul\":2041:2059   */\n      add\n        /* \"#utility.yul\":2033:2059   */\n      swap1\n      pop\n        /* \"#utility.yul\":2105:2114   */\n      dup2\n        /* \"#utility.yul\":2099:2103   */\n      dup2\n        /* \"#utility.yul\":2095:2115   */\n      sub\n        /* \"#utility.yul\":2091:2092   */\n      0x00\n        /* \"#utility.yul\":2080:2089   */\n      dup4\n        /* \"#utility.yul\":2076:2093   */\n      add\n        /* \"#utility.yul\":2069:2116   */\n      mstore\n        /* \"#utility.yul\":2133:2241   */\n      tag_78\n        /* \"#utility.yul\":2236:2240   */\n      dup2\n        /* \"#utility.yul\":2227:2233   */\n      dup5\n        /* \"#utility.yul\":2133:2241   */\n      tag_33\n      jump\t// in\n    tag_78:\n        /* \"#utility.yul\":2125:2241   */\n      swap1\n      pop\n        /* \"#utility.yul\":1875:2248   */\n      swap3\n      swap2\n      pop\n      pop\n      jump\t// out\n        /* \"#utility.yul\":2254:2329   */\n    tag_34:\n        /* \"#utility.yul\":2287:2293   */\n      0x00\n        /* \"#utility.yul\":2320:2322   */\n      0x40\n        /* \"#utility.yul\":2314:2323   */\n      mload\n        /* \"#utility.yul\":2304:2323   */\n      swap1\n      pop\n        /* \"#utility.yul\":2254:2329   */\n      swap1\n      jump\t// out\n        /* \"#utility.yul\":2335:2452   */\n    tag_35:\n        /* \"#utility.yul\":2444:2445   */\n      0x00\n        /* \"#utility.yul\":2441:2442   */\n      dup1\n        /* \"#utility.yul\":2434:2446   */\n      revert\n        /* \"#utility.yul\":2458:2575   */\n    tag_36:\n        /* \"#utility.yul\":2567:2568   */\n      0x00\n        /* \"#utility.yul\":2564:2565   */\n      dup1\n        /* \"#utility.yul\":2557:2569   */\n      revert\n        /* \"#utility.yul\":2581:2698   */\n    tag_37:\n        /* \"#utility.yul\":2690:2691   */\n      0x00\n        /* \"#utility.yul\":2687:2688   */\n      dup1\n        /* \"#utility.yul\":2680:2692   */\n      revert\n        /* \"#utility.yul\":2704:2821   */\n    tag_38:\n        /* \"#utility.yul\":2813:2814   */\n      0x00\n        /* \"#utility.yul\":2810:2811   */\n      dup1\n        /* \"#utility.yul\":2803:2815   */\n      revert\n        /* \"#utility.yul\":2827:2929   */\n    tag_39:\n        /* \"#utility.yul\":2868:2874   */\n      0x00\n        /* \"#utility.yul\":2919:2921   */\n      0x1f\n        /* \"#utility.yul\":2915:2922   */\n      not\n        /* \"#utility.yul\":2910:2912   */\n      0x1f\n        /* \"#utility.yul\":2903:2908   */\n      dup4\n        /* \"#utility.yul\":2899:2913   */\n      add\n        /* \"#utility.yul\":2895:2923   */\n      and\n        /* \"#utility.yul\":2885:2923   */\n      swap1\n      pop\n        /* \"#utility.yul\":2827:2929   */\n      swap2\n      swap1\n      pop\n      jump\t// out\n        /* \"#utility.yul\":2935:3115   */\n    tag_40:\n        /* \"#utility.yul\":2983:3060   */\n      0x4e487b7100000000000000000000000000000000000000000000000000000000\n        /* \"#utility.yul\":2980:2981   */\n      0x00\n        /* \"#utility.yul\":2973:3061   */\n      mstore\n        /* \"#utility.yul\":3080:3084   */\n      0x41\n        /* \"#utility.yul\":3077:3078   */\n      0x04\n        /* \"#utility.yul\":3070:3085   */\n      mstore\n        /* \"#utility.yul\":3104:3108   */\n      0x24\n        /* \"#utility.yul\":3101:3102   */\n      0x00\n        /* \"#utility.yul\":3094:3109   */\n      revert\n        /* \"#utility.yul\":3121:3402   */\n    tag_41:\n        /* \"#utility.yul\":3204:3231   */\n      tag_87\n        /* \"#utility.yul\":3226:3230   */\n      dup3\n        /* \"#utility.yul\":3204:3231   */\n      tag_39\n      jump\t// in\n    tag_87:\n        /* \"#utility.yul\":3196:3202   */\n      dup2\n        /* \"#utility.yul\":3192:3232   */\n      add\n        /* \"#utility.yul\":3334:3340   */\n      dup2\n        /* \"#utility.yul\":3322:3332   */\n      dup2\n        /* \"#utility.yul\":3319:3341   */\n      lt\n        /* \"#utility.yul\":3298:3316   */\n      0xffffffffffffffff\n        /* \"#utility.yul\":3286:3296   */\n      dup3\n        /* \"#utility.yul\":3283:3317   */\n      gt\n        /* \"#utility.yul\":3280:3342   */\n      or\n        /* \"#utility.yul\":3277:3365   */\n      iszero\n      tag_88\n      jumpi\n        /* \"#utility.yul\":3345:3363   */\n      tag_89\n      tag_40\n      jump\t// in\n    tag_89:\n        /* \"#utility.yul\":3277:3365   */\n    tag_88:\n        /* \"#utility.yul\":3385:3395   */\n      dup1\n        /* \"#utility.yul\":3381:3383   */\n      0x40\n        /* \"#utility.yul\":3374:3396   */\n      mstore\n        /* \"#utility.yul\":3164:3402   */\n      pop\n        /* \"#utility.yul\":3121:3402   */\n      pop\n      pop\n      jump\t// out\n        /* \"#utility.yul\":3408:3537   */\n    tag_42:\n        /* \"#utility.yul\":3442:3448   */\n      0x00\n        /* \"#utility.yul\":3469:3489   */\n      tag_91\n      tag_34\n      jump\t// in\n    tag_91:\n        /* \"#utility.yul\":3459:3489   */\n      swap1\n      pop\n        /* \"#utility.yul\":3498:3531   */\n      tag_92\n        /* \"#utility.yul\":3526:3530   */\n      dup3\n        /* \"#utility.yul\":3518:3524   */\n      dup3\n        /* \"#utility.yul\":3498:3531   */\n      tag_41\n      jump\t// in\n    tag_92:\n        /* \"#utility.yul\":3408:3537   */\n      swap2\n      swap1\n      pop\n      jump\t// out\n        /* \"#utility.yul\":3543:3851   */\n    tag_43:\n        /* \"#utility.yul\":3605:3609   */\n      0x00\n        /* \"#utility.yul\":3695:3713   */\n      0xffffffffffffffff\n        /* \"#utility.yul\":3687:3693   */\n      dup3\n        /* \"#utility.yul\":3684:3714   */\n      gt\n        /* \"#utility.yul\":3681:3737   */\n      iszero\n      tag_94\n      jumpi\n        /* \"#utility.yul\":3717:3735   */\n      tag_95\n      tag_40\n      jump\t// in\n    tag_95:\n        /* \"#utility.yul\":3681:3737   */\n    tag_94:\n        /* \"#utility.yul\":3755:3784   */\n      tag_96\n        /* \"#utility.yul\":3777:3783   */\n      dup3\n        /* \"#utility.yul\":3755:3784   */\n      tag_39\n      jump\t// in\n    tag_96:\n        /* \"#utility.yul\":3747:3784   */\n      swap1\n      pop\n        /* \"#utility.yul\":3839:3843   */\n      0x20\n        /* \"#utility.yul\":3833:3837   */\n      dup2\n        /* \"#utility.yul\":3829:3844   */\n      add\n        /* \"#utility.yul\":3821:3844   */\n      swap1\n      pop\n        /* \"#utility.yul\":3543:3851   */\n      swap2\n      swap1\n      pop\n      jump\t// out\n        /* \"#utility.yul\":3857:4003   */\n    tag_44:\n        /* \"#utility.yul\":3954:3960   */\n      dup3\n        /* \"#utility.yul\":3949:3952   */\n      dup2\n        /* \"#utility.yul\":3944:3947   */\n      dup4\n        /* \"#utility.yul\":3931:3961   */\n      calldatacopy\n        /* \"#utility.yul\":3995:3996   */\n      0x00\n        /* \"#utility.yul\":3986:3992   */\n      dup4\n        /* \"#utility.yul\":3981:3984   */\n      dup4\n        /* \"#utility.yul\":3977:3993   */\n      add\n        /* \"#utility.yul\":3970:3997   */\n      mstore\n        /* \"#utility.yul\":3857:4003   */\n      pop\n      pop\n      pop\n      jump\t// out\n        /* \"#utility.yul\":4009:4434   */\n    tag_45:\n        /* \"#utility.yul\":4087:4092   */\n      0x00\n        /* \"#utility.yul\":4112:4178   */\n      tag_99\n        /* \"#utility.yul\":4128:4177   */\n      tag_100\n        /* \"#utility.yul\":4170:4176   */\n      dup5\n        /* \"#utility.yul\":4128:4177   */\n      tag_43\n      jump\t// in\n    tag_100:\n        /* \"#utility.yul\":4112:4178   */\n      tag_42\n      jump\t// in\n    tag_99:\n        /* \"#utility.yul\":4103:4178   */\n      swap1\n      pop\n        /* \"#utility.yul\":4201:4207   */\n      dup3\n        /* \"#utility.yul\":4194:4199   */\n      dup2\n        /* \"#utility.yul\":4187:4208   */\n      mstore\n        /* \"#utility.yul\":4239:4243   */\n      0x20\n        /* \"#utility.yul\":4232:4237   */\n      dup2\n        /* \"#utility.yul\":4228:4244   */\n      add\n        /* \"#utility.yul\":4277:4280   */\n      dup5\n        /* \"#utility.yul\":4268:4274   */\n      dup5\n        /* \"#utility.yul\":4263:4266   */\n      dup5\n        /* \"#utility.yul\":4259:4275   */\n      add\n        /* \"#utility.yul\":4256:4281   */\n      gt\n        /* \"#utility.yul\":4253:4365   */\n      iszero\n      tag_101\n      jumpi\n        /* \"#utility.yul\":4284:4363   */\n      tag_102\n      tag_38\n      jump\t// in\n    tag_102:\n        /* \"#utility.yul\":4253:4365   */\n    tag_101:\n        /* \"#utility.yul\":4374:4428   */\n      tag_103\n        /* \"#utility.yul\":4421:4427   */\n      dup5\n        /* \"#utility.yul\":4416:4419   */\n      dup3\n        /* \"#utility.yul\":4411:4414   */\n      dup6\n        /* \"#utility.yul\":4374:4428   */\n      tag_44\n      jump\t// in\n    tag_103:\n        /* \"#utility.yul\":4093:4434   */\n      pop\n        /* \"#utility.yul\":4009:4434   */\n      swap4\n      swap3\n      pop\n      pop\n      pop\n      jump\t// out\n        /* \"#utility.yul\":4454:4794   */\n    tag_46:\n        /* \"#utility.yul\":4510:4515   */\n      0x00\n        /* \"#utility.yul\":4559:4562   */\n      dup3\n        /* \"#utility.yul\":4552:4556   */\n      0x1f\n        /* \"#utility.yul\":4544:4550   */\n      dup4\n        /* \"#utility.yul\":4540:4557   */\n      add\n        /* \"#utility.yul\":4536:4563   */\n      slt\n        /* \"#utility.yul\":4526:4648   */\n      tag_105\n      jumpi\n        /* \"#utility.yul\":4567:4646   */\n      tag_106\n      tag_37\n      jump\t// in\n    tag_106:\n        /* \"#utility.yul\":4526:4648   */\n    tag_105:\n        /* \"#utility.yul\":4684:4690   */\n      dup2\n        /* \"#utility.yul\":4671:4691   */\n      calldataload\n        /* \"#utility.yul\":4709:4788   */\n      tag_107\n        /* \"#utility.yul\":4784:4787   */\n      dup5\n        /* \"#utility.yul\":4776:4782   */\n      dup3\n        /* \"#utility.yul\":4769:4773   */\n      0x20\n        /* \"#utility.yul\":4761:4767   */\n      dup7\n        /* \"#utility.yul\":4757:4774   */\n      add\n        /* \"#utility.yul\":4709:4788   */\n      tag_45\n      jump\t// in\n    tag_107:\n        /* \"#utility.yul\":4700:4788   */\n      swap2\n      pop\n        /* \"#utility.yul\":4516:4794   */\n      pop\n        /* \"#utility.yul\":4454:4794   */\n      swap3\n      swap2\n      pop\n      pop\n      jump\t// out\n        /* \"#utility.yul\":4800:4877   */\n    tag_47:\n        /* \"#utility.yul\":4837:4844   */\n      0x00\n        /* \"#utility.yul\":4866:4871   */\n      dup2\n        /* \"#utility.yul\":4855:4871   */\n      swap1\n      pop\n        /* \"#utility.yul\":4800:4877   */\n      swap2\n      swap1\n      pop\n      jump\t// out\n        /* \"#utility.yul\":4883:5005   */\n    tag_48:\n        /* \"#utility.yul\":4956:4980   */\n      tag_110\n        /* \"#utility.yul\":4974:4979   */\n      dup2\n        /* \"#utility.yul\":4956:4980   */\n      tag_47\n      jump\t// in\n    tag_110:\n        /* \"#utility.yul\":4949:4954   */\n      dup2\n        /* \"#utility.yul\":4946:4981   */\n      eq\n        /* \"#utility.yul\":4936:4999   */\n      tag_111\n      jumpi\n        /* \"#utility.yul\":4995:4996   */\n      0x00\n        /* \"#utility.yul\":4992:4993   */\n      dup1\n        /* \"#utility.yul\":4985:4997   */\n      revert\n        /* \"#utility.yul\":4936:4999   */\n    tag_111:\n        /* \"#utility.yul\":4883:5005   */\n      pop\n      jump\t// out\n        /* \"#utility.yul\":5011:5150   */\n    tag_49:\n        /* \"#utility.yul\":5057:5062   */\n      0x00\n        /* \"#utility.yul\":5095:5101   */\n      dup2\n        /* \"#utility.yul\":5082:5102   */\n      calldataload\n        /* \"#utility.yul\":5073:5102   */\n      swap1\n      pop\n        /* \"#utility.yul\":5111:5144   */\n      tag_113\n        /* \"#utility.yul\":5138:5143   */\n      dup2\n        /* \"#utility.yul\":5111:5144   */\n      tag_48\n      jump\t// in\n    tag_113:\n        /* \"#utility.yul\":5011:5150   */\n      swap3\n      swap2\n      pop\n      pop\n      jump\t// out\n        /* \"#utility.yul\":5156:6281   */\n    tag_11:\n        /* \"#utility.yul\":5262:5268   */\n      0x00\n        /* \"#utility.yul\":5270:5276   */\n      dup1\n        /* \"#utility.yul\":5278:5284   */\n      0x00\n        /* \"#utility.yul\":5286:5292   */\n      dup1\n        /* \"#utility.yul\":5335:5338   */\n      0x80\n        /* \"#utility.yul\":5323:5332   */\n      dup6\n        /* \"#utility.yul\":5314:5321   */\n      dup8\n        /* \"#utility.yul\":5310:5333   */\n      sub\n        /* \"#utility.yul\":5306:5339   */\n      slt\n        /* \"#utility.yul\":5303:5423   */\n      iszero\n      tag_115\n      jumpi\n        /* \"#utility.yul\":5342:5421   */\n      tag_116\n      tag_35\n      jump\t// in\n    tag_116:\n        /* \"#utility.yul\":5303:5423   */\n    tag_115:\n        /* \"#utility.yul\":5490:5491   */\n      0x00\n        /* \"#utility.yul\":5479:5488   */\n      dup6\n        /* \"#utility.yul\":5475:5492   */\n      add\n        /* \"#utility.yul\":5462:5493   */\n      calldataload\n        /* \"#utility.yul\":5520:5538   */\n      0xffffffffffffffff\n        /* \"#utility.yul\":5512:5518   */\n      dup2\n        /* \"#utility.yul\":5509:5539   */\n      gt\n        /* \"#utility.yul\":5506:5623   */\n      iszero\n      tag_117\n      jumpi\n        /* \"#utility.yul\":5542:5621   */\n      tag_118\n      tag_36\n      jump\t// in\n    tag_118:\n        /* \"#utility.yul\":5506:5623   */\n    tag_117:\n        /* \"#utility.yul\":5647:5710   */\n      tag_119\n        /* \"#utility.yul\":5702:5709   */\n      dup8\n        /* \"#utility.yul\":5693:5699   */\n      dup3\n        /* \"#utility.yul\":5682:5691   */\n      dup9\n        /* \"#utility.yul\":5678:5700   */\n      add\n        /* \"#utility.yul\":5647:5710   */\n      tag_46\n      jump\t// in\n    tag_119:\n        /* \"#utility.yul\":5637:5710   */\n      swap5\n      pop\n        /* \"#utility.yul\":5433:5720   */\n      pop\n        /* \"#utility.yul\":5787:5789   */\n      0x20\n        /* \"#utility.yul\":5776:5785   */\n      dup6\n        /* \"#utility.yul\":5772:5790   */\n      add\n        /* \"#utility.yul\":5759:5791   */\n      calldataload\n        /* \"#utility.yul\":5818:5836   */\n      0xffffffffffffffff\n        /* \"#utility.yul\":5810:5816   */\n      dup2\n        /* \"#utility.yul\":5807:5837   */\n      gt\n        /* \"#utility.yul\":5804:5921   */\n      iszero\n      tag_120\n      jumpi\n        /* \"#utility.yul\":5840:5919   */\n      tag_121\n      tag_36\n      jump\t// in\n    tag_121:\n        /* \"#utility.yul\":5804:5921   */\n    tag_120:\n        /* \"#utility.yul\":5945:6008   */\n      tag_122\n        /* \"#utility.yul\":6000:6007   */\n      dup8\n        /* \"#utility.yul\":5991:5997   */\n      dup3\n        /* \"#utility.yul\":5980:5989   */\n      dup9\n        /* \"#utility.yul\":5976:5998   */\n      add\n        /* \"#utility.yul\":5945:6008   */\n      tag_46\n      jump\t// in\n    tag_122:\n        /* \"#utility.yul\":5935:6008   */\n      swap4\n      pop\n        /* \"#utility.yul\":5730:6018   */\n      pop\n        /* \"#utility.yul\":6057:6059   */\n      0x40\n        /* \"#utility.yul\":6083:6136   */\n      tag_123\n        /* \"#utility.yul\":6128:6135   */\n      dup8\n        /* \"#utility.yul\":6119:6125   */\n      dup3\n        /* \"#utility.yul\":6108:6117   */\n      dup9\n        /* \"#utility.yul\":6104:6126   */\n      add\n        /* \"#utility.yul\":6083:6136   */\n      tag_49\n      jump\t// in\n    tag_123:\n        /* \"#utility.yul\":6073:6136   */\n      swap3\n      pop\n        /* \"#utility.yul\":6028:6146   */\n      pop\n        /* \"#utility.yul\":6185:6187   */\n      0x60\n        /* \"#utility.yul\":6211:6264   */\n      tag_124\n        /* \"#utility.yul\":6256:6263   */\n      dup8\n        /* \"#utility.yul\":6247:6253   */\n      dup3\n        /* \"#utility.yul\":6236:6245   */\n      dup9\n        /* \"#utility.yul\":6232:6254   */\n      add\n        /* \"#utility.yul\":6211:6264   */\n      tag_49\n      jump\t// in\n    tag_124:\n        /* \"#utility.yul\":6201:6264   */\n      swap2\n      pop\n        /* \"#utility.yul\":6156:6274   */\n      pop\n        /* \"#utility.yul\":5156:6281   */\n      swap3\n      swap6\n      swap2\n      swap5\n      pop\n      swap3\n      pop\n      jump\t// out\n        /* \"#utility.yul\":6287:6405   */\n    tag_50:\n        /* \"#utility.yul\":6374:6398   */\n      tag_126\n        /* \"#utility.yul\":6392:6397   */\n      dup2\n        /* \"#utility.yul\":6374:6398   */\n      tag_47\n      jump\t// in\n    tag_126:\n        /* \"#utility.yul\":6369:6372   */\n      dup3\n        /* \"#utility.yul\":6362:6399   */\n      mstore\n        /* \"#utility.yul\":6287:6405   */\n      pop\n      pop\n      jump\t// out\n        /* \"#utility.yul\":6411:6529   */\n    tag_51:\n        /* \"#utility.yul\":6498:6522   */\n      tag_128\n        /* \"#utility.yul\":6516:6521   */\n      dup2\n        /* \"#utility.yul\":6498:6522   */\n      tag_29\n      jump\t// in\n    tag_128:\n        /* \"#utility.yul\":6493:6496   */\n      dup3\n        /* \"#utility.yul\":6486:6523   */\n      mstore\n        /* \"#utility.yul\":6411:6529   */\n      pop\n      pop\n      jump\t// out\n        /* \"#utility.yul\":6535:6634   */\n    tag_52:\n        /* \"#utility.yul\":6587:6593   */\n      0x00\n        /* \"#utility.yul\":6621:6626   */\n      dup2\n        /* \"#utility.yul\":6615:6627   */\n      mload\n        /* \"#utility.yul\":6605:6627   */\n      swap1\n      pop\n        /* \"#utility.yul\":6535:6634   */\n      swap2\n      swap1\n      pop\n      jump\t// out\n        /* \"#utility.yul\":6640:6809   */\n    tag_53:\n        /* \"#utility.yul\":6724:6735   */\n      0x00\n        /* \"#utility.yul\":6758:6764   */\n      dup3\n        /* \"#utility.yul\":6753:6756   */\n      dup3\n        /* \"#utility.yul\":6746:6765   */\n      mstore\n        /* \"#utility.yul\":6798:6802   */\n      0x20\n        /* \"#utility.yul\":6793:6796   */\n      dup3\n        /* \"#utility.yul\":6789:6803   */\n      add\n        /* \"#utility.yul\":6774:6803   */\n      swap1\n      pop\n        /* \"#utility.yul\":6640:6809   */\n      swap3\n      swap2\n      pop\n      pop\n      jump\t// out\n        /* \"#utility.yul\":6815:7061   */\n    tag_54:\n        /* \"#utility.yul\":6896:6897   */\n      0x00\n        /* \"#utility.yul\":6906:7019   */\n    tag_132:\n        /* \"#utility.yul\":6920:6926   */\n      dup4\n        /* \"#utility.yul\":6917:6918   */\n      dup2\n        /* \"#utility.yul\":6914:6927   */\n      lt\n        /* \"#utility.yul\":6906:7019   */\n      iszero\n      tag_134\n      jumpi\n        /* \"#utility.yul\":7005:7006   */\n      dup1\n        /* \"#utility.yul\":7000:7003   */\n      dup3\n        /* \"#utility.yul\":6996:7007   */\n      add\n        /* \"#utility.yul\":6990:7008   */\n      mload\n        /* \"#utility.yul\":6986:6987   */\n      dup2\n        /* \"#utility.yul\":6981:6984   */\n      dup5\n        /* \"#utility.yul\":6977:6988   */\n      add\n        /* \"#utility.yul\":6970:7009   */\n      mstore\n        /* \"#utility.yul\":6942:6944   */\n      0x20\n        /* \"#utility.yul\":6939:6940   */\n      dup2\n        /* \"#utility.yul\":6935:6945   */\n      add\n        /* \"#utility.yul\":6930:6945   */\n      swap1\n      pop\n        /* \"#utility.yul\":6906:7019   */\n      jump(tag_132)\n    tag_134:\n        /* \"#utility.yul\":7053:7054   */\n      0x00\n        /* \"#utility.yul\":7044:7050   */\n      dup5\n        /* \"#utility.yul\":7039:7042   */\n      dup5\n        /* \"#utility.yul\":7035:7051   */\n      add\n        /* \"#utility.yul\":7028:7055   */\n      mstore\n        /* \"#utility.yul\":6877:7061   */\n      pop\n        /* \"#utility.yul\":6815:7061   */\n      pop\n      pop\n      pop\n      jump\t// out\n        /* \"#utility.yul\":7067:7444   */\n    tag_55:\n        /* \"#utility.yul\":7155:7158   */\n      0x00\n        /* \"#utility.yul\":7183:7222   */\n      tag_136\n        /* \"#utility.yul\":7216:7221   */\n      dup3\n        /* \"#utility.yul\":7183:7222   */\n      tag_52\n      jump\t// in\n    tag_136:\n        /* \"#utility.yul\":7238:7309   */\n      tag_137\n        /* \"#utility.yul\":7302:7308   */\n      dup2\n        /* \"#utility.yul\":7297:7300   */\n      dup6\n        /* \"#utility.yul\":7238:7309   */\n      tag_53\n      jump\t// in\n    tag_137:\n        /* \"#utility.yul\":7231:7309   */\n      swap4\n      pop\n        /* \"#utility.yul\":7318:7383   */\n      tag_138\n        /* \"#utility.yul\":7376:7382   */\n      dup2\n        /* \"#utility.yul\":7371:7374   */\n      dup6\n        /* \"#utility.yul\":7364:7368   */\n      0x20\n        /* \"#utility.yul\":7357:7362   */\n      dup7\n        /* \"#utility.yul\":7353:7369   */\n      add\n        /* \"#utility.yul\":7318:7383   */\n      tag_54\n      jump\t// in\n    tag_138:\n        /* \"#utility.yul\":7408:7437   */\n      tag_139\n        /* \"#utility.yul\":7430:7436   */\n      dup2\n        /* \"#utility.yul\":7408:7437   */\n      tag_39\n      jump\t// in\n    tag_139:\n        /* \"#utility.yul\":7403:7406   */\n      dup5\n        /* \"#utility.yul\":7399:7438   */\n      add\n        /* \"#utility.yul\":7392:7438   */\n      swap2\n      pop\n        /* \"#utility.yul\":7159:7444   */\n      pop\n        /* \"#utility.yul\":7067:7444   */\n      swap3\n      swap2\n      pop\n      pop\n      jump\t// out\n        /* \"#utility.yul\":7450:8296   */\n    tag_20:\n        /* \"#utility.yul\":7695:7699   */\n      0x00\n        /* \"#utility.yul\":7733:7736   */\n      0xa0\n        /* \"#utility.yul\":7722:7731   */\n      dup3\n        /* \"#utility.yul\":7718:7737   */\n      add\n        /* \"#utility.yul\":7710:7737   */\n      swap1\n      pop\n        /* \"#utility.yul\":7747:7818   */\n      tag_141\n        /* \"#utility.yul\":7815:7816   */\n      0x00\n        /* \"#utility.yul\":7804:7813   */\n      dup4\n        /* \"#utility.yul\":7800:7817   */\n      add\n        /* \"#utility.yul\":7791:7797   */\n      dup9\n        /* \"#utility.yul\":7747:7818   */\n      tag_50\n      jump\t// in\n    tag_141:\n        /* \"#utility.yul\":7828:7900   */\n      tag_142\n        /* \"#utility.yul\":7896:7898   */\n      0x20\n        /* \"#utility.yul\":7885:7894   */\n      dup4\n        /* \"#utility.yul\":7881:7899   */\n      add\n        /* \"#utility.yul\":7872:7878   */\n      dup8\n        /* \"#utility.yul\":7828:7900   */\n      tag_51\n      jump\t// in\n    tag_142:\n        /* \"#utility.yul\":7947:7956   */\n      dup2\n        /* \"#utility.yul\":7941:7945   */\n      dup2\n        /* \"#utility.yul\":7937:7957   */\n      sub\n        /* \"#utility.yul\":7932:7934   */\n      0x40\n        /* \"#utility.yul\":7921:7930   */\n      dup4\n        /* \"#utility.yul\":7917:7935   */\n      add\n        /* \"#utility.yul\":7910:7958   */\n      mstore\n        /* \"#utility.yul\":7975:8053   */\n      tag_143\n        /* \"#utility.yul\":8048:8052   */\n      dup2\n        /* \"#utility.yul\":8039:8045   */\n      dup7\n        /* \"#utility.yul\":7975:8053   */\n      tag_55\n      jump\t// in\n    tag_143:\n        /* \"#utility.yul\":7967:8053   */\n      swap1\n      pop\n        /* \"#utility.yul\":8100:8109   */\n      dup2\n        /* \"#utility.yul\":8094:8098   */\n      dup2\n        /* \"#utility.yul\":8090:8110   */\n      sub\n        /* \"#utility.yul\":8085:8087   */\n      0x60\n        /* \"#utility.yul\":8074:8083   */\n      dup4\n        /* \"#utility.yul\":8070:8088   */\n      add\n        /* \"#utility.yul\":8063:8111   */\n      mstore\n        /* \"#utility.yul\":8128:8206   */\n      tag_144\n        /* \"#utility.yul\":8201:8205   */\n      dup2\n        /* \"#utility.yul\":8192:8198   */\n      dup6\n        /* \"#utility.yul\":8128:8206   */\n      tag_55\n      jump\t// in\n    tag_144:\n        /* \"#utility.yul\":8120:8206   */\n      swap1\n      pop\n        /* \"#utility.yul\":8216:8289   */\n      tag_145\n        /* \"#utility.yul\":8284:8287   */\n      0x80\n        /* \"#utility.yul\":8273:8282   */\n      dup4\n        /* \"#utility.yul\":8269:8288   */\n      add\n        /* \"#utility.yul\":8260:8266   */\n      dup5\n        /* \"#utility.yul\":8216:8289   */\n      tag_50\n      jump\t// in\n    tag_145:\n        /* \"#utility.yul\":7450:8296   */\n      swap7\n      swap6\n      pop\n      pop\n      pop\n      pop\n      pop\n      pop\n      jump\t// out\n        /* \"#utility.yul\":8302:8524   */\n    tag_24:\n        /* \"#utility.yul\":8395:8399   */\n      0x00\n        /* \"#utility.yul\":8433:8435   */\n      0x20\n        /* \"#utility.yul\":8422:8431   */\n      dup3\n        /* \"#utility.yul\":8418:8436   */\n      add\n        /* \"#utility.yul\":8410:8436   */\n      swap1\n      pop\n        /* \"#utility.yul\":8446:8517   */\n      tag_147\n        /* \"#utility.yul\":8514:8515   */\n      0x00\n        /* \"#utility.yul\":8503:8512   */\n      dup4\n        /* \"#utility.yul\":8499:8516   */\n      add\n        /* \"#utility.yul\":8490:8496   */\n      dup5\n        /* \"#utility.yul\":8446:8517   */\n      tag_51\n      jump\t// in\n    tag_147:\n        /* \"#utility.yul\":8302:8524   */\n      swap3\n      swap2\n      pop\n      pop\n      jump\t// out\n    stop\n\n    sub_0: assembly {\n            /* \"Campaign.sol\":602:3701  contract Campaign {... */\n          mstore(0x40, 0x80)\n            /* \"Campaign.sol\":1383:1654  constructor(uint minimum, address creator, string memory name, string memory description, uint goal) {... */\n          callvalue\n          dup1\n          iszero\n          tag_1\n          jumpi\n          0x00\n          dup1\n          revert\n        tag_1:\n          pop\n          mload(0x40)\n          sub(codesize, bytecodeSize)\n          dup1\n          bytecodeSize\n          dup4\n          codecopy\n          dup2\n          dup2\n          add\n          0x40\n          mstore\n          dup2\n          add\n          swap1\n          tag_2\n          swap2\n          swap1\n          tag_3\n          jump\t// in\n        tag_2:\n            /* \"Campaign.sol\":1512:1519  minimum */\n          dup5\n            /* \"Campaign.sol\":1494:1509  minContribution */\n          0x04\n            /* \"Campaign.sol\":1494:1519  minContribution = minimum */\n          dup2\n          swap1\n          sstore\n          pop\n            /* \"Campaign.sol\":1539:1546  creator */\n          dup4\n            /* \"Campaign.sol\":1529:1536  manager */\n          0x00\n          dup1\n            /* \"Campaign.sol\":1529:1546  manager = creator */\n          0x0100\n          exp\n          dup2\n          sload\n          dup2\n          0xffffffffffffffffffffffffffffffffffffffff\n          mul\n          not\n          and\n          swap1\n          dup4\n          0xffffffffffffffffffffffffffffffffffffffff\n          and\n          mul\n          or\n          swap1\n          sstore\n          pop\n            /* \"Campaign.sol\":1571:1575  name */\n          dup3\n            /* \"Campaign.sol\":1556:1568  campaignName */\n          0x01\n            /* \"Campaign.sol\":1556:1575  campaignName = name */\n          swap1\n          dup2\n          tag_6\n          swap2\n          swap1\n          tag_7\n          jump\t// in\n        tag_6:\n          pop\n            /* \"Campaign.sol\":1607:1618  description */\n          dup2\n            /* \"Campaign.sol\":1585:1604  campaignDescription */\n          0x02\n            /* \"Campaign.sol\":1585:1618  campaignDescription = description */\n          swap1\n          dup2\n          tag_8\n          swap2\n          swap1\n          tag_7\n          jump\t// in\n        tag_8:\n          pop\n            /* \"Campaign.sol\":1643:1647  goal */\n          dup1\n            /* \"Campaign.sol\":1628:1640  campaignGoal */\n          0x03\n            /* \"Campaign.sol\":1628:1647  campaignGoal = goal */\n          dup2\n          swap1\n          sstore\n          pop\n            /* \"Campaign.sol\":1383:1654  constructor(uint minimum, address creator, string memory name, string memory description, uint goal) {... */\n          pop\n          pop\n          pop\n          pop\n          pop\n            /* \"Campaign.sol\":602:3701  contract Campaign {... */\n          jump(tag_9)\n            /* \"#utility.yul\":7:82   */\n        tag_10:\n            /* \"#utility.yul\":40:46   */\n          0x00\n            /* \"#utility.yul\":73:75   */\n          0x40\n            /* \"#utility.yul\":67:76   */\n          mload\n            /* \"#utility.yul\":57:76   */\n          swap1\n          pop\n            /* \"#utility.yul\":7:82   */\n          swap1\n          jump\t// out\n            /* \"#utility.yul\":88:205   */\n        tag_11:\n            /* \"#utility.yul\":197:198   */\n          0x00\n            /* \"#utility.yul\":194:195   */\n          dup1\n            /* \"#utility.yul\":187:199   */\n          revert\n            /* \"#utility.yul\":211:328   */\n        tag_12:\n            /* \"#utility.yul\":320:321   */\n          0x00\n            /* \"#utility.yul\":317:318   */\n          dup1\n            /* \"#utility.yul\":310:322   */\n          revert\n            /* \"#utility.yul\":334:411   */\n        tag_13:\n            /* \"#utility.yul\":371:378   */\n          0x00\n            /* \"#utility.yul\":400:405   */\n          dup2\n            /* \"#utility.yul\":389:405   */\n          swap1\n          pop\n            /* \"#utility.yul\":334:411   */\n          swap2\n          swap1\n          pop\n          jump\t// out\n            /* \"#utility.yul\":417:539   */\n        tag_14:\n            /* \"#utility.yul\":490:514   */\n          tag_54\n            /* \"#utility.yul\":508:513   */\n          dup2\n            /* \"#utility.yul\":490:514   */\n          tag_13\n          jump\t// in\n        tag_54:\n            /* \"#utility.yul\":483:488   */\n          dup2\n            /* \"#utility.yul\":480:515   */\n          eq\n            /* \"#utility.yul\":470:533   */\n          tag_55\n          jumpi\n            /* \"#utility.yul\":529:530   */\n          0x00\n            /* \"#utility.yul\":526:527   */\n          dup1\n            /* \"#utility.yul\":519:531   */\n          revert\n            /* \"#utility.yul\":470:533   */\n        tag_55:\n            /* \"#utility.yul\":417:539   */\n          pop\n          jump\t// out\n            /* \"#utility.yul\":545:688   */\n        tag_15:\n            /* \"#utility.yul\":602:607   */\n          0x00\n            /* \"#utility.yul\":633:639   */\n          dup2\n            /* \"#utility.yul\":627:640   */\n          mload\n            /* \"#utility.yul\":618:640   */\n          swap1\n          pop\n            /* \"#utility.yul\":649:682   */\n          tag_57\n            /* \"#utility.yul\":676:681   */\n          dup2\n            /* \"#utility.yul\":649:682   */\n          tag_14\n          jump\t// in\n        tag_57:\n            /* \"#utility.yul\":545:688   */\n          swap3\n          swap2\n          pop\n          pop\n          jump\t// out\n            /* \"#utility.yul\":694:820   */\n        tag_16:\n            /* \"#utility.yul\":731:738   */\n          0x00\n            /* \"#utility.yul\":771:813   */\n          0xffffffffffffffffffffffffffffffffffffffff\n            /* \"#utility.yul\":764:769   */\n          dup3\n            /* \"#utility.yul\":760:814   */\n          and\n            /* \"#utility.yul\":749:814   */\n          swap1\n          pop\n            /* \"#utility.yul\":694:820   */\n          swap2\n          swap1\n          pop\n          jump\t// out\n            /* \"#utility.yul\":826:922   */\n        tag_17:\n            /* \"#utility.yul\":863:870   */\n          0x00\n            /* \"#utility.yul\":892:916   */\n          tag_60\n            /* \"#utility.yul\":910:915   */\n          dup3\n            /* \"#utility.yul\":892:916   */\n          tag_16\n          jump\t// in\n        tag_60:\n            /* \"#utility.yul\":881:916   */\n          swap1\n          pop\n            /* \"#utility.yul\":826:922   */\n          swap2\n          swap1\n          pop\n          jump\t// out\n            /* \"#utility.yul\":928:1050   */\n        tag_18:\n            /* \"#utility.yul\":1001:1025   */\n          tag_62\n            /* \"#utility.yul\":1019:1024   */\n          dup2\n            /* \"#utility.yul\":1001:1025   */\n          tag_17\n          jump\t// in\n        tag_62:\n            /* \"#utility.yul\":994:999   */\n          dup2\n            /* \"#utility.yul\":991:1026   */\n          eq\n            /* \"#utility.yul\":981:1044   */\n          tag_63\n          jumpi\n            /* \"#utility.yul\":1040:1041   */\n          0x00\n            /* \"#utility.yul\":1037:1038   */\n          dup1\n            /* \"#utility.yul\":1030:1042   */\n          revert\n            /* \"#utility.yul\":981:1044   */\n        tag_63:\n            /* \"#utility.yul\":928:1050   */\n          pop\n          jump\t// out\n            /* \"#utility.yul\":1056:1199   */\n        tag_19:\n            /* \"#utility.yul\":1113:1118   */\n          0x00\n            /* \"#utility.yul\":1144:1150   */\n          dup2\n            /* \"#utility.yul\":1138:1151   */\n          mload\n            /* \"#utility.yul\":1129:1151   */\n          swap1\n          pop\n            /* \"#utility.yul\":1160:1193   */\n          tag_65\n            /* \"#utility.yul\":1187:1192   */\n          dup2\n            /* \"#utility.yul\":1160:1193   */\n          tag_18\n          jump\t// in\n        tag_65:\n            /* \"#utility.yul\":1056:1199   */\n          swap3\n          swap2\n          pop\n          pop\n          jump\t// out\n            /* \"#utility.yul\":1205:1322   */\n        tag_20:\n            /* \"#utility.yul\":1314:1315   */\n          0x00\n            /* \"#utility.yul\":1311:1312   */\n          dup1\n            /* \"#utility.yul\":1304:1316   */\n          revert\n            /* \"#utility.yul\":1328:1445   */\n        tag_21:\n            /* \"#utility.yul\":1437:1438   */\n          0x00\n            /* \"#utility.yul\":1434:1435   */\n          dup1\n            /* \"#utility.yul\":1427:1439   */\n          revert\n            /* \"#utility.yul\":1451:1553   */\n        tag_22:\n            /* \"#utility.yul\":1492:1498   */\n          0x00\n            /* \"#utility.yul\":1543:1545   */\n          0x1f\n            /* \"#utility.yul\":1539:1546   */\n          not\n            /* \"#utility.yul\":1534:1536   */\n          0x1f\n            /* \"#utility.yul\":1527:1532   */\n          dup4\n            /* \"#utility.yul\":1523:1537   */\n          add\n            /* \"#utility.yul\":1519:1547   */\n          and\n            /* \"#utility.yul\":1509:1547   */\n          swap1\n          pop\n            /* \"#utility.yul\":1451:1553   */\n          swap2\n          swap1\n          pop\n          jump\t// out\n            /* \"#utility.yul\":1559:1739   */\n        tag_23:\n            /* \"#utility.yul\":1607:1684   */\n          0x4e487b7100000000000000000000000000000000000000000000000000000000\n            /* \"#utility.yul\":1604:1605   */\n          0x00\n            /* \"#utility.yul\":1597:1685   */\n          mstore\n            /* \"#utility.yul\":1704:1708   */\n          0x41\n            /* \"#utility.yul\":1701:1702   */\n          0x04\n            /* \"#utility.yul\":1694:1709   */\n          mstore\n            /* \"#utility.yul\":1728:1732   */\n          0x24\n            /* \"#utility.yul\":1725:1726   */\n          0x00\n            /* \"#utility.yul\":1718:1733   */\n          revert\n            /* \"#utility.yul\":1745:2026   */\n        tag_24:\n            /* \"#utility.yul\":1828:1855   */\n          tag_71\n            /* \"#utility.yul\":1850:1854   */\n          dup3\n            /* \"#utility.yul\":1828:1855   */\n          tag_22\n          jump\t// in\n        tag_71:\n            /* \"#utility.yul\":1820:1826   */\n          dup2\n            /* \"#utility.yul\":1816:1856   */\n          add\n            /* \"#utility.yul\":1958:1964   */\n          dup2\n            /* \"#utility.yul\":1946:1956   */\n          dup2\n            /* \"#utility.yul\":1943:1965   */\n          lt\n            /* \"#utility.yul\":1922:1940   */\n          0xffffffffffffffff\n            /* \"#utility.yul\":1910:1920   */\n          dup3\n            /* \"#utility.yul\":1907:1941   */\n          gt\n            /* \"#utility.yul\":1904:1966   */\n          or\n            /* \"#utility.yul\":1901:1989   */\n          iszero\n          tag_72\n          jumpi\n            /* \"#utility.yul\":1969:1987   */\n          tag_73\n          tag_23\n          jump\t// in\n        tag_73:\n            /* \"#utility.yul\":1901:1989   */\n        tag_72:\n            /* \"#utility.yul\":2009:2019   */\n          dup1\n            /* \"#utility.yul\":2005:2007   */\n          0x40\n            /* \"#utility.yul\":1998:2020   */\n          mstore\n            /* \"#utility.yul\":1788:2026   */\n          pop\n            /* \"#utility.yul\":1745:2026   */\n          pop\n          pop\n          jump\t// out\n            /* \"#utility.yul\":2032:2161   */\n        tag_25:\n            /* \"#utility.yul\":2066:2072   */\n          0x00\n            /* \"#utility.yul\":2093:2113   */\n          tag_75\n          tag_10\n          jump\t// in\n        tag_75:\n            /* \"#utility.yul\":2083:2113   */\n          swap1\n          pop\n            /* \"#utility.yul\":2122:2155   */\n          tag_76\n            /* \"#utility.yul\":2150:2154   */\n          dup3\n            /* \"#utility.yul\":2142:2148   */\n          dup3\n            /* \"#utility.yul\":2122:2155   */\n          tag_24\n          jump\t// in\n        tag_76:\n            /* \"#utility.yul\":2032:2161   */\n          swap2\n          swap1\n          pop\n          jump\t// out\n            /* \"#utility.yul\":2167:2475   */\n        tag_26:\n            /* \"#utility.yul\":2229:2233   */\n          0x00\n            /* \"#utility.yul\":2319:2337   */\n          0xffffffffffffffff\n            /* \"#utility.yul\":2311:2317   */\n          dup3\n            /* \"#utility.yul\":2308:2338   */\n          gt\n            /* \"#utility.yul\":2305:2361   */\n          iszero\n          tag_78\n          jumpi\n            /* \"#utility.yul\":2341:2359   */\n          tag_79\n          tag_23\n          jump\t// in\n        tag_79:\n            /* \"#utility.yul\":2305:2361   */\n        tag_78:\n            /* \"#utility.yul\":2379:2408   */\n          tag_80\n            /* \"#utility.yul\":2401:2407   */\n          dup3\n            /* \"#utility.yul\":2379:2408   */\n          tag_22\n          jump\t// in\n        tag_80:\n            /* \"#utility.yul\":2371:2408   */\n          swap1\n          pop\n            /* \"#utility.yul\":2463:2467   */\n          0x20\n            /* \"#utility.yul\":2457:2461   */\n          dup2\n            /* \"#utility.yul\":2453:2468   */\n          add\n            /* \"#utility.yul\":2445:2468   */\n          swap1\n          pop\n            /* \"#utility.yul\":2167:2475   */\n          swap2\n          swap1\n          pop\n          jump\t// out\n            /* \"#utility.yul\":2481:2727   */\n        tag_27:\n            /* \"#utility.yul\":2562:2563   */\n          0x00\n            /* \"#utility.yul\":2572:2685   */\n        tag_82:\n            /* \"#utility.yul\":2586:2592   */\n          dup4\n            /* \"#utility.yul\":2583:2584   */\n          dup2\n            /* \"#utility.yul\":2580:2593   */\n          lt\n            /* \"#utility.yul\":2572:2685   */\n          iszero\n          tag_84\n          jumpi\n            /* \"#utility.yul\":2671:2672   */\n          dup1\n            /* \"#utility.yul\":2666:2669   */\n          dup3\n            /* \"#utility.yul\":2662:2673   */\n          add\n            /* \"#utility.yul\":2656:2674   */\n          mload\n            /* \"#utility.yul\":2652:2653   */\n          dup2\n            /* \"#utility.yul\":2647:2650   */\n          dup5\n            /* \"#utility.yul\":2643:2654   */\n          add\n            /* \"#utility.yul\":2636:2675   */\n          mstore\n            /* \"#utility.yul\":2608:2610   */\n          0x20\n            /* \"#utility.yul\":2605:2606   */\n          dup2\n            /* \"#utility.yul\":2601:2611   */\n          add\n            /* \"#utility.yul\":2596:2611   */\n          swap1\n          pop\n            /* \"#utility.yul\":2572:2685   */\n          jump(tag_82)\n        tag_84:\n            /* \"#utility.yul\":2719:2720   */\n          0x00\n            /* \"#utility.yul\":2710:2716   */\n          dup5\n            /* \"#utility.yul\":2705:2708   */\n          dup5\n            /* \"#utility.yul\":2701:2717   */\n          add\n            /* \"#utility.yul\":2694:2721   */\n          mstore\n            /* \"#utility.yul\":2543:2727   */\n          pop\n            /* \"#utility.yul\":2481:2727   */\n          pop\n          pop\n          pop\n          jump\t// out\n            /* \"#utility.yul\":2733:3167   */\n        tag_28:\n            /* \"#utility.yul\":2822:2827   */\n          0x00\n            /* \"#utility.yul\":2847:2913   */\n          tag_86\n            /* \"#utility.yul\":2863:2912   */\n          tag_87\n            /* \"#utility.yul\":2905:2911   */\n          dup5\n            /* \"#utility.yul\":2863:2912   */\n          tag_26\n          jump\t// in\n        tag_87:\n            /* \"#utility.yul\":2847:2913   */\n          tag_25\n          jump\t// in\n        tag_86:\n            /* \"#utility.yul\":2838:2913   */\n          swap1\n          pop\n            /* \"#utility.yul\":2936:2942   */\n          dup3\n            /* \"#utility.yul\":2929:2934   */\n          dup2\n            /* \"#utility.yul\":2922:2943   */\n          mstore\n            /* \"#utility.yul\":2974:2978   */\n          0x20\n            /* \"#utility.yul\":2967:2972   */\n          dup2\n            /* \"#utility.yul\":2963:2979   */\n          add\n            /* \"#utility.yul\":3012:3015   */\n          dup5\n            /* \"#utility.yul\":3003:3009   */\n          dup5\n            /* \"#utility.yul\":2998:3001   */\n          dup5\n            /* \"#utility.yul\":2994:3010   */\n          add\n            /* \"#utility.yul\":2991:3016   */\n          gt\n            /* \"#utility.yul\":2988:3100   */\n          iszero\n          tag_88\n          jumpi\n            /* \"#utility.yul\":3019:3098   */\n          tag_89\n          tag_21\n          jump\t// in\n        tag_89:\n            /* \"#utility.yul\":2988:3100   */\n        tag_88:\n            /* \"#utility.yul\":3109:3161   */\n          tag_90\n            /* \"#utility.yul\":3154:3160   */\n          dup5\n            /* \"#utility.yul\":3149:3152   */\n          dup3\n            /* \"#utility.yul\":3144:3147   */\n          dup6\n            /* \"#utility.yul\":3109:3161   */\n          tag_27\n          jump\t// in\n        tag_90:\n            /* \"#utility.yul\":2828:3167   */\n          pop\n            /* \"#utility.yul\":2733:3167   */\n          swap4\n          swap3\n          pop\n          pop\n          pop\n          jump\t// out\n            /* \"#utility.yul\":3187:3542   */\n        tag_29:\n            /* \"#utility.yul\":3254:3259   */\n          0x00\n            /* \"#utility.yul\":3303:3306   */\n          dup3\n            /* \"#utility.yul\":3296:3300   */\n          0x1f\n            /* \"#utility.yul\":3288:3294   */\n          dup4\n            /* \"#utility.yul\":3284:3301   */\n          add\n            /* \"#utility.yul\":3280:3307   */\n          slt\n            /* \"#utility.yul\":3270:3392   */\n          tag_92\n          jumpi\n            /* \"#utility.yul\":3311:3390   */\n          tag_93\n          tag_20\n          jump\t// in\n        tag_93:\n            /* \"#utility.yul\":3270:3392   */\n        tag_92:\n            /* \"#utility.yul\":3421:3427   */\n          dup2\n            /* \"#utility.yul\":3415:3428   */\n          mload\n            /* \"#utility.yul\":3446:3536   */\n          tag_94\n            /* \"#utility.yul\":3532:3535   */\n          dup5\n            /* \"#utility.yul\":3524:3530   */\n          dup3\n            /* \"#utility.yul\":3517:3521   */\n          0x20\n            /* \"#utility.yul\":3509:3515   */\n          dup7\n            /* \"#utility.yul\":3505:3522   */\n          add\n            /* \"#utility.yul\":3446:3536   */\n          tag_28\n          jump\t// in\n        tag_94:\n            /* \"#utility.yul\":3437:3536   */\n          swap2\n          pop\n            /* \"#utility.yul\":3260:3542   */\n          pop\n            /* \"#utility.yul\":3187:3542   */\n          swap3\n          swap2\n          pop\n          pop\n          jump\t// out\n            /* \"#utility.yul\":3548:4871   */\n        tag_3:\n            /* \"#utility.yul\":3674:3680   */\n          0x00\n            /* \"#utility.yul\":3682:3688   */\n          dup1\n            /* \"#utility.yul\":3690:3696   */\n          0x00\n            /* \"#utility.yul\":3698:3704   */\n          dup1\n            /* \"#utility.yul\":3706:3712   */\n          0x00\n            /* \"#utility.yul\":3755:3758   */\n          0xa0\n            /* \"#utility.yul\":3743:3752   */\n          dup7\n            /* \"#utility.yul\":3734:3741   */\n          dup9\n            /* \"#utility.yul\":3730:3753   */\n          sub\n            /* \"#utility.yul\":3726:3759   */\n          slt\n            /* \"#utility.yul\":3723:3843   */\n          iszero\n          tag_96\n          jumpi\n            /* \"#utility.yul\":3762:3841   */\n          tag_97\n          tag_11\n          jump\t// in\n        tag_97:\n            /* \"#utility.yul\":3723:3843   */\n        tag_96:\n            /* \"#utility.yul\":3882:3883   */\n          0x00\n            /* \"#utility.yul\":3907:3971   */\n          tag_98\n            /* \"#utility.yul\":3963:3970   */\n          dup9\n            /* \"#utility.yul\":3954:3960   */\n          dup3\n            /* \"#utility.yul\":3943:3952   */\n          dup10\n            /* \"#utility.yul\":3939:3961   */\n          add\n            /* \"#utility.yul\":3907:3971   */\n          tag_15\n          jump\t// in\n        tag_98:\n            /* \"#utility.yul\":3897:3971   */\n          swap6\n          pop\n            /* \"#utility.yul\":3853:3981   */\n          pop\n            /* \"#utility.yul\":4020:4022   */\n          0x20\n            /* \"#utility.yul\":4046:4110   */\n          tag_99\n            /* \"#utility.yul\":4102:4109   */\n          dup9\n            /* \"#utility.yul\":4093:4099   */\n          dup3\n            /* \"#utility.yul\":4082:4091   */\n          dup10\n            /* \"#utility.yul\":4078:4100   */\n          add\n            /* \"#utility.yul\":4046:4110   */\n          tag_19\n          jump\t// in\n        tag_99:\n            /* \"#utility.yul\":4036:4110   */\n          swap5\n          pop\n            /* \"#utility.yul\":3991:4120   */\n          pop\n            /* \"#utility.yul\":4180:4182   */\n          0x40\n            /* \"#utility.yul\":4169:4178   */\n          dup7\n            /* \"#utility.yul\":4165:4183   */\n          add\n            /* \"#utility.yul\":4159:4184   */\n          mload\n            /* \"#utility.yul\":4211:4229   */\n          0xffffffffffffffff\n            /* \"#utility.yul\":4203:4209   */\n          dup2\n            /* \"#utility.yul\":4200:4230   */\n          gt\n            /* \"#utility.yul\":4197:4314   */\n          iszero\n          tag_100\n          jumpi\n            /* \"#utility.yul\":4233:4312   */\n          tag_101\n          tag_12\n          jump\t// in\n        tag_101:\n            /* \"#utility.yul\":4197:4314   */\n        tag_100:\n            /* \"#utility.yul\":4338:4412   */\n          tag_102\n            /* \"#utility.yul\":4404:4411   */\n          dup9\n            /* \"#utility.yul\":4395:4401   */\n          dup3\n            /* \"#utility.yul\":4384:4393   */\n          dup10\n            /* \"#utility.yul\":4380:4402   */\n          add\n            /* \"#utility.yul\":4338:4412   */\n          tag_29\n          jump\t// in\n        tag_102:\n            /* \"#utility.yul\":4328:4412   */\n          swap4\n          pop\n            /* \"#utility.yul\":4130:4422   */\n          pop\n            /* \"#utility.yul\":4482:4484   */\n          0x60\n            /* \"#utility.yul\":4471:4480   */\n          dup7\n            /* \"#utility.yul\":4467:4485   */\n          add\n            /* \"#utility.yul\":4461:4486   */\n          mload\n            /* \"#utility.yul\":4513:4531   */\n          0xffffffffffffffff\n            /* \"#utility.yul\":4505:4511   */\n          dup2\n            /* \"#utility.yul\":4502:4532   */\n          gt\n            /* \"#utility.yul\":4499:4616   */\n          iszero\n          tag_103\n          jumpi\n            /* \"#utility.yul\":4535:4614   */\n          tag_104\n          tag_12\n          jump\t// in\n        tag_104:\n            /* \"#utility.yul\":4499:4616   */\n        tag_103:\n            /* \"#utility.yul\":4640:4714   */\n          tag_105\n            /* \"#utility.yul\":4706:4713   */\n          dup9\n            /* \"#utility.yul\":4697:4703   */\n          dup3\n            /* \"#utility.yul\":4686:4695   */\n          dup10\n            /* \"#utility.yul\":4682:4704   */\n          add\n            /* \"#utility.yul\":4640:4714   */\n          tag_29\n          jump\t// in\n        tag_105:\n            /* \"#utility.yul\":4630:4714   */\n          swap3\n          pop\n            /* \"#utility.yul\":4432:4724   */\n          pop\n            /* \"#utility.yul\":4763:4766   */\n          0x80\n            /* \"#utility.yul\":4790:4854   */\n          tag_106\n            /* \"#utility.yul\":4846:4853   */\n          dup9\n            /* \"#utility.yul\":4837:4843   */\n          dup3\n            /* \"#utility.yul\":4826:4835   */\n          dup10\n            /* \"#utility.yul\":4822:4844   */\n          add\n            /* \"#utility.yul\":4790:4854   */\n          tag_15\n          jump\t// in\n        tag_106:\n            /* \"#utility.yul\":4780:4854   */\n          swap2\n          pop\n            /* \"#utility.yul\":4734:4864   */\n          pop\n            /* \"#utility.yul\":3548:4871   */\n          swap3\n          swap6\n          pop\n          swap3\n          swap6\n          swap1\n          swap4\n          pop\n          jump\t// out\n            /* \"#utility.yul\":4877:4976   */\n        tag_30:\n            /* \"#utility.yul\":4929:4935   */\n          0x00\n            /* \"#utility.yul\":4963:4968   */\n          dup2\n            /* \"#utility.yul\":4957:4969   */\n          mload\n            /* \"#utility.yul\":4947:4969   */\n          swap1\n          pop\n            /* \"#utility.yul\":4877:4976   */\n          swap2\n          swap1\n          pop\n          jump\t// out\n            /* \"#utility.yul\":4982:5162   */\n        tag_31:\n            /* \"#utility.yul\":5030:5107   */\n          0x4e487b7100000000000000000000000000000000000000000000000000000000\n            /* \"#utility.yul\":5027:5028   */\n          0x00\n            /* \"#utility.yul\":5020:5108   */\n          mstore\n            /* \"#utility.yul\":5127:5131   */\n          0x22\n            /* \"#utility.yul\":5124:5125   */\n          0x04\n            /* \"#utility.yul\":5117:5132   */\n          mstore\n            /* \"#utility.yul\":5151:5155   */\n          0x24\n            /* \"#utility.yul\":5148:5149   */\n          0x00\n            /* \"#utility.yul\":5141:5156   */\n          revert\n            /* \"#utility.yul\":5168:5488   */\n        tag_32:\n            /* \"#utility.yul\":5212:5218   */\n          0x00\n            /* \"#utility.yul\":5249:5250   */\n          0x02\n            /* \"#utility.yul\":5243:5247   */\n          dup3\n            /* \"#utility.yul\":5239:5251   */\n          div\n            /* \"#utility.yul\":5229:5251   */\n          swap1\n          pop\n            /* \"#utility.yul\":5296:5297   */\n          0x01\n            /* \"#utility.yul\":5290:5294   */\n          dup3\n            /* \"#utility.yul\":5286:5298   */\n          and\n            /* \"#utility.yul\":5317:5335   */\n          dup1\n            /* \"#utility.yul\":5307:5388   */\n          tag_110\n          jumpi\n            /* \"#utility.yul\":5373:5377   */\n          0x7f\n            /* \"#utility.yul\":5365:5371   */\n          dup3\n            /* \"#utility.yul\":5361:5378   */\n          and\n            /* \"#utility.yul\":5351:5378   */\n          swap2\n          pop\n            /* \"#utility.yul\":5307:5388   */\n        tag_110:\n            /* \"#utility.yul\":5435:5437   */\n          0x20\n            /* \"#utility.yul\":5427:5433   */\n          dup3\n            /* \"#utility.yul\":5424:5438   */\n          lt\n            /* \"#utility.yul\":5404:5422   */\n          dup2\n            /* \"#utility.yul\":5401:5439   */\n          sub\n            /* \"#utility.yul\":5398:5482   */\n          tag_111\n          jumpi\n            /* \"#utility.yul\":5454:5472   */\n          tag_112\n          tag_31\n          jump\t// in\n        tag_112:\n            /* \"#utility.yul\":5398:5482   */\n        tag_111:\n            /* \"#utility.yul\":5219:5488   */\n          pop\n            /* \"#utility.yul\":5168:5488   */\n          swap2\n          swap1\n          pop\n          jump\t// out\n            /* \"#utility.yul\":5494:5635   */\n        tag_33:\n            /* \"#utility.yul\":5543:5547   */\n          0x00\n            /* \"#utility.yul\":5566:5569   */\n          dup2\n            /* \"#utility.yul\":5558:5569   */\n          swap1\n          pop\n            /* \"#utility.yul\":5589:5592   */\n          dup2\n            /* \"#utility.yul\":5586:5587   */\n          0x00\n            /* \"#utility.yul\":5579:5593   */\n          mstore\n            /* \"#utility.yul\":5623:5627   */\n          0x20\n            /* \"#utility.yul\":5620:5621   */\n          0x00\n            /* \"#utility.yul\":5610:5628   */\n          keccak256\n            /* \"#utility.yul\":5602:5628   */\n          swap1\n          pop\n            /* \"#utility.yul\":5494:5635   */\n          swap2\n          swap1\n          pop\n          jump\t// out\n            /* \"#utility.yul\":5641:5734   */\n        tag_34:\n            /* \"#utility.yul\":5678:5684   */\n          0x00\n            /* \"#utility.yul\":5725:5727   */\n          0x20\n            /* \"#utility.yul\":5720:5722   */\n          0x1f\n            /* \"#utility.yul\":5713:5718   */\n          dup4\n            /* \"#utility.yul\":5709:5723   */\n          add\n            /* \"#utility.yul\":5705:5728   */\n          div\n            /* \"#utility.yul\":5695:5728   */\n          swap1\n          pop\n            /* \"#utility.yul\":5641:5734   */\n          swap2\n          swap1\n          pop\n          jump\t// out\n            /* \"#utility.yul\":5740:5847   */\n        tag_35:\n            /* \"#utility.yul\":5784:5792   */\n          0x00\n            /* \"#utility.yul\":5834:5839   */\n          dup3\n            /* \"#utility.yul\":5828:5832   */\n          dup3\n            /* \"#utility.yul\":5824:5840   */\n          shl\n            /* \"#utility.yul\":5803:5840   */\n          swap1\n          pop\n            /* \"#utility.yul\":5740:5847   */\n          swap3\n          swap2\n          pop\n          pop\n          jump\t// out\n            /* \"#utility.yul\":5853:6246   */\n        tag_36:\n            /* \"#utility.yul\":5922:5928   */\n          0x00\n            /* \"#utility.yul\":5972:5973   */\n          0x08\n            /* \"#utility.yul\":5960:5970   */\n          dup4\n            /* \"#utility.yul\":5956:5974   */\n          mul\n            /* \"#utility.yul\":5995:6092   */\n          tag_117\n            /* \"#utility.yul\":6025:6091   */\n          0xffffffffffffffffffffffffffffffffffffffffffffffffffffffffffffffff\n            /* \"#utility.yul\":6014:6023   */\n          dup3\n            /* \"#utility.yul\":5995:6092   */\n          tag_35\n          jump\t// in\n        tag_117:\n            /* \"#utility.yul\":6113:6152   */\n          tag_118\n            /* \"#utility.yul\":6143:6151   */\n          dup7\n            /* \"#utility.yul\":6132:6141   */\n          dup4\n            /* \"#utility.yul\":6113:6152   */\n          tag_35\n          jump\t// in\n        tag_118:\n            /* \"#utility.yul\":6101:6152   */\n          swap6\n          pop\n            /* \"#utility.yul\":6185:6189   */\n          dup1\n            /* \"#utility.yul\":6181:6190   */\n          not\n            /* \"#utility.yul\":6174:6179   */\n          dup5\n            /* \"#utility.yul\":6170:6191   */\n          and\n            /* \"#utility.yul\":6161:6191   */\n          swap4\n          pop\n            /* \"#utility.yul\":6234:6238   */\n          dup1\n            /* \"#utility.yul\":6224:6232   */\n          dup7\n            /* \"#utility.yul\":6220:6239   */\n          and\n            /* \"#utility.yul\":6213:6218   */\n          dup5\n            /* \"#utility.yul\":6210:6240   */\n          or\n            /* \"#utility.yul\":6200:6240   */\n          swap3\n          pop\n            /* \"#utility.yul\":5929:6246   */\n          pop\n          pop\n            /* \"#utility.yul\":5853:6246   */\n          swap4\n          swap3\n          pop\n          pop\n          pop\n          jump\t// out\n            /* \"#utility.yul\":6252:6312   */\n        tag_37:\n            /* \"#utility.yul\":6280:6283   */\n          0x00\n            /* \"#utility.yul\":6301:6306   */\n          dup2\n            /* \"#utility.yul\":6294:6306   */\n          swap1\n          pop\n            /* \"#utility.yul\":6252:6312   */\n          swap2\n          swap1\n          pop\n          jump\t// out\n            /* \"#utility.yul\":6318:6460   */\n        tag_38:\n            /* \"#utility.yul\":6368:6377   */\n          0x00\n            /* \"#utility.yul\":6401:6454   */\n          tag_121\n            /* \"#utility.yul\":6419:6453   */\n          tag_122\n            /* \"#utility.yul\":6428:6452   */\n          tag_123\n            /* \"#utility.yul\":6446:6451   */\n          dup5\n            /* \"#utility.yul\":6428:6452   */\n          tag_13\n          jump\t// in\n        tag_123:\n            /* \"#utility.yul\":6419:6453   */\n          tag_37\n          jump\t// in\n        tag_122:\n            /* \"#utility.yul\":6401:6454   */\n          tag_13\n          jump\t// in\n        tag_121:\n            /* \"#utility.yul\":6388:6454   */\n          swap1\n          pop\n            /* \"#utility.yul\":6318:6460   */\n          swap2\n          swap1\n          pop\n          jump\t// out\n            /* \"#utility.yul\":6466:6541   */\n        tag_39:\n            /* \"#utility.yul\":6509:6512   */\n          0x00\n            /* \"#utility.yul\":6530:6535   */\n          dup2\n            /* \"#utility.yul\":6523:6535   */\n          swap1\n          pop\n            /* \"#utility.yul\":6466:6541   */\n          swap2\n          swap1\n          pop\n          jump\t// out\n            /* \"#utility.yul\":6547:6816   */\n        tag_40:\n            /* \"#utility.yul\":6657:6696   */\n          tag_126\n            /* \"#utility.yul\":6688:6695   */\n          dup4\n            /* \"#utility.yul\":6657:6696   */\n          tag_38\n          jump\t// in\n        tag_126:\n            /* \"#utility.yul\":6718:6809   */\n          tag_127\n            /* \"#utility.yul\":6767:6808   */\n          tag_128\n            /* \"#utility.yul\":6791:6807   */\n          dup3\n            /* \"#utility.yul\":6767:6808   */\n          tag_39\n          jump\t// in\n        tag_128:\n            /* \"#utility.yul\":6759:6765   */\n          dup5\n            /* \"#utility.yul\":6752:6756   */\n          dup5\n            /* \"#utility.yul\":6746:6757   */\n          sload\n            /* \"#utility.yul\":6718:6809   */\n          tag_36\n          jump\t// in\n        tag_127:\n            /* \"#utility.yul\":6712:6716   */\n          dup3\n            /* \"#utility.yul\":6705:6810   */\n          sstore\n            /* \"#utility.yul\":6623:6816   */\n          pop\n            /* \"#utility.yul\":6547:6816   */\n          pop\n          pop\n          pop\n          jump\t// out\n            /* \"#utility.yul\":6822:6895   */\n        tag_41:\n            /* \"#utility.yul\":6867:6870   */\n          0x00\n            /* \"#utility.yul\":6822:6895   */\n          swap1\n          jump\t// out\n            /* \"#utility.yul\":6901:7090   */\n        tag_42:\n            /* \"#utility.yul\":6978:7010   */\n          tag_131\n          tag_41\n          jump\t// in\n        tag_131:\n            /* \"#utility.yul\":7019:7084   */\n          tag_132\n            /* \"#utility.yul\":7077:7083   */\n          dup2\n            /* \"#utility.yul\":7069:7075   */\n          dup5\n            /* \"#utility.yul\":7063:7067   */\n          dup5\n            /* \"#utility.yul\":7019:7084   */\n          tag_40\n          jump\t// in\n        tag_132:\n            /* \"#utility.yul\":6954:7090   */\n          pop\n            /* \"#utility.yul\":6901:7090   */\n          pop\n          pop\n          jump\t// out\n            /* \"#utility.yul\":7096:7282   */\n        tag_43:\n            /* \"#utility.yul\":7156:7276   */\n        tag_134:\n            /* \"#utility.yul\":7173:7176   */\n          dup2\n            /* \"#utility.yul\":7166:7171   */\n          dup2\n            /* \"#utility.yul\":7163:7177   */\n          lt\n            /* \"#utility.yul\":7156:7276   */\n          iszero\n          tag_136\n          jumpi\n            /* \"#utility.yul\":7227:7266   */\n          tag_137\n            /* \"#utility.yul\":7264:7265   */\n          0x00\n            /* \"#utility.yul\":7257:7262   */\n          dup3\n            /* \"#utility.yul\":7227:7266   */\n          tag_42\n          jump\t// in\n        tag_137:\n            /* \"#utility.yul\":7200:7201   */\n          0x01\n            /* \"#utility.yul\":7193:7198   */\n          dup2\n            /* \"#utility.yul\":7189:7202   */\n          add\n            /* \"#utility.yul\":7180:7202   */\n          swap1\n          pop\n            /* \"#utility.yul\":7156:7276   */\n          jump(tag_134)\n        tag_136:\n            /* \"#utility.yul\":7096:7282   */\n          pop\n          pop\n          jump\t// out\n            /* \"#utility.yul\":7288:7831   */\n        tag_44:\n            /* \"#utility.yul\":7389:7391   */\n          0x1f\n            /* \"#utility.yul\":7384:7387   */\n          dup3\n            /* \"#utility.yul\":7381:7392   */\n          gt\n            /* \"#utility.yul\":7378:7824   */\n          iszero\n          tag_139\n          jumpi\n            /* \"#utility.yul\":7423:7461   */\n          tag_140\n            /* \"#utility.yul\":7455:7460   */\n          dup2\n            /* \"#utility.yul\":7423:7461   */\n          tag_33\n          jump\t// in\n        tag_140:\n            /* \"#utility.yul\":7507:7536   */\n          tag_141\n            /* \"#utility.yul\":7525:7535   */\n          dup5\n            /* \"#utility.yul\":7507:7536   */\n          tag_34\n          jump\t// in\n        tag_141:\n            /* \"#utility.yul\":7497:7505   */\n          dup2\n            /* \"#utility.yul\":7493:7537   */\n          add\n            /* \"#utility.yul\":7690:7692   */\n          0x20\n            /* \"#utility.yul\":7678:7688   */\n          dup6\n            /* \"#utility.yul\":7675:7693   */\n          lt\n            /* \"#utility.yul\":7672:7721   */\n          iszero\n          tag_142\n          jumpi\n            /* \"#utility.yul\":7711:7719   */\n          dup2\n            /* \"#utility.yul\":7696:7719   */\n          swap1\n          pop\n            /* \"#utility.yul\":7672:7721   */\n        tag_142:\n            /* \"#utility.yul\":7734:7814   */\n          tag_143\n            /* \"#utility.yul\":7790:7812   */\n          tag_144\n            /* \"#utility.yul\":7808:7811   */\n          dup6\n            /* \"#utility.yul\":7790:7812   */\n          tag_34\n          jump\t// in\n        tag_144:\n            /* \"#utility.yul\":7780:7788   */\n          dup4\n            /* \"#utility.yul\":7776:7813   */\n          add\n            /* \"#utility.yul\":7763:7774   */\n          dup3\n            /* \"#utility.yul\":7734:7814   */\n          tag_43\n          jump\t// in\n        tag_143:\n            /* \"#utility.yul\":7393:7824   */\n          pop\n          pop\n            /* \"#utility.yul\":7378:7824   */\n        tag_139:\n            /* \"#utility.yul\":7288:7831   */\n          pop\n          pop\n          pop\n          jump\t// out\n            /* \"#utility.yul\":7837:7954   */\n        tag_45:\n            /* \"#utility.yul\":7891:7899   */\n          0x00\n            /* \"#utility.yul\":7941:7946   */\n          dup3\n            /* \"#utility.yul\":7935:7939   */\n          dup3\n            /* \"#utility.yul\":7931:7947   */\n          shr\n            /* \"#utility.yul\":7910:7947   */\n          swap1\n          pop\n            /* \"#utility.yul\":7837:7954   */\n          swap3\n          swap2\n          pop\n          pop\n          jump\t// out\n            /* \"#utility.yul\":7960:8129   */\n        tag_46:\n            /* \"#utility.yul\":8004:8010   */\n          0x00\n            /* \"#utility.yul\":8037:8088   */\n          tag_147\n            /* \"#utility.yul\":8085:8086   */\n          0x00\n            /* \"#utility.yul\":8081:8087   */\n          not\n            /* \"#utility.yul\":8073:8078   */\n          dup5\n            /* \"#utility.yul\":8070:8071   */\n          0x08\n            /* \"#utility.yul\":8066:8079   */\n          mul\n            /* \"#utility.yul\":8037:8088   */\n          tag_45\n          jump\t// in\n        tag_147:\n            /* \"#utility.yul\":8033:8089   */\n          not\n            /* \"#utility.yul\":8118:8122   */\n          dup1\n            /* \"#utility.yul\":8112:8116   */\n          dup4\n            /* \"#utility.yul\":8108:8123   */\n          and\n            /* \"#utility.yul\":8098:8123   */\n          swap2\n          pop\n            /* \"#utility.yul\":8011:8129   */\n          pop\n            /* \"#utility.yul\":7960:8129   */\n          swap3\n          swap2\n          pop\n          pop\n          jump\t// out\n            /* \"#utility.yul\":8134:8429   */\n        tag_47:\n            /* \"#utility.yul\":8210:8214   */\n          0x00\n            /* \"#utility.yul\":8356:8385   */\n          tag_149\n            /* \"#utility.yul\":8381:8384   */\n          dup4\n            /* \"#utility.yul\":8375:8379   */\n          dup4\n            /* \"#utility.yul\":8356:8385   */\n          tag_46\n          jump\t// in\n        tag_149:\n            /* \"#utility.yul\":8348:8385   */\n          swap2\n          pop\n            /* \"#utility.yul\":8418:8421   */\n          dup3\n            /* \"#utility.yul\":8415:8416   */\n          0x02\n            /* \"#utility.yul\":8411:8422   */\n          mul\n            /* \"#utility.yul\":8405:8409   */\n          dup3\n            /* \"#utility.yul\":8402:8423   */\n          or\n            /* \"#utility.yul\":8394:8423   */\n          swap1\n          pop\n            /* \"#utility.yul\":8134:8429   */\n          swap3\n          swap2\n          pop\n          pop\n          jump\t// out\n            /* \"#utility.yul\":8434:9829   */\n        tag_7:\n            /* \"#utility.yul\":8551:8588   */\n          tag_151\n            /* \"#utility.yul\":8584:8587   */\n          dup3\n            /* \"#utility.yul\":8551:8588   */\n          tag_30\n          jump\t// in\n        tag_151:\n            /* \"#utility.yul\":8653:8671   */\n          0xffffffffffffffff\n            /* \"#utility.yul\":8645:8651   */\n          dup2\n            /* \"#utility.yul\":8642:8672   */\n          gt\n            /* \"#utility.yul\":8639:8695   */\n          iszero\n          tag_152\n          jumpi\n            /* \"#utility.yul\":8675:8693   */\n          tag_153\n          tag_23\n          jump\t// in\n        tag_153:\n            /* \"#utility.yul\":8639:8695   */\n        tag_152:\n            /* \"#utility.yul\":8719:8757   */\n          tag_154\n            /* \"#utility.yul\":8751:8755   */\n          dup3\n            /* \"#utility.yul\":8745:8756   */\n          sload\n            /* \"#utility.yul\":8719:8757   */\n          tag_32\n          jump\t// in\n        tag_154:\n            /* \"#utility.yul\":8804:8871   */\n          tag_155\n            /* \"#utility.yul\":8864:8870   */\n          dup3\n            /* \"#utility.yul\":8856:8862   */\n          dup3\n            /* \"#utility.yul\":8850:8854   */\n          dup6\n            /* \"#utility.yul\":8804:8871   */\n          tag_44\n          jump\t// in\n        tag_155:\n            /* \"#utility.yul\":8898:8899   */\n          0x00\n            /* \"#utility.yul\":8922:8926   */\n          0x20\n            /* \"#utility.yul\":8909:8926   */\n          swap1\n          pop\n            /* \"#utility.yul\":8954:8956   */\n          0x1f\n            /* \"#utility.yul\":8946:8952   */\n          dup4\n            /* \"#utility.yul\":8943:8957   */\n          gt\n            /* \"#utility.yul\":8971:8972   */\n          0x01\n            /* \"#utility.yul\":8966:9584   */\n          dup2\n          eq\n          tag_157\n          jumpi\n            /* \"#utility.yul\":9628:9629   */\n          0x00\n            /* \"#utility.yul\":9645:9651   */\n          dup5\n            /* \"#utility.yul\":9642:9719   */\n          iszero\n          tag_158\n          jumpi\n            /* \"#utility.yul\":9694:9703   */\n          dup3\n            /* \"#utility.yul\":9689:9692   */\n          dup8\n            /* \"#utility.yul\":9685:9704   */\n          add\n            /* \"#utility.yul\":9679:9705   */\n          mload\n            /* \"#utility.yul\":9670:9705   */\n          swap1\n          pop\n            /* \"#utility.yul\":9642:9719   */\n        tag_158:\n            /* \"#utility.yul\":9745:9812   */\n          tag_159\n            /* \"#utility.yul\":9805:9811   */\n          dup6\n            /* \"#utility.yul\":9798:9803   */\n          dup3\n            /* \"#utility.yul\":9745:9812   */\n          tag_47\n          jump\t// in\n        tag_159:\n            /* \"#utility.yul\":9739:9743   */\n          dup7\n            /* \"#utility.yul\":9732:9813   */\n          sstore\n            /* \"#utility.yul\":9601:9823   */\n          pop\n            /* \"#utility.yul\":8936:9823   */\n          jump(tag_156)\n            /* \"#utility.yul\":8966:9584   */\n        tag_157:\n            /* \"#utility.yul\":9018:9022   */\n          0x1f\n            /* \"#utility.yul\":9014:9023   */\n          not\n            /* \"#utility.yul\":9006:9012   */\n          dup5\n            /* \"#utility.yul\":9002:9024   */\n          and\n            /* \"#utility.yul\":9052:9089   */\n          tag_160\n            /* \"#utility.yul\":9084:9088   */\n          dup7\n            /* \"#utility.yul\":9052:9089   */\n          tag_33\n          jump\t// in\n        tag_160:\n            /* \"#utility.yul\":9111:9112   */\n          0x00\n            /* \"#utility.yul\":9125:9333   */\n        tag_161:\n            /* \"#utility.yul\":9139:9146   */\n          dup3\n            /* \"#utility.yul\":9136:9137   */\n          dup2\n            /* \"#utility.yul\":9133:9147   */\n          lt\n            /* \"#utility.yul\":9125:9333   */\n          iszero\n          tag_163\n          jumpi\n            /* \"#utility.yul\":9218:9227   */\n          dup5\n            /* \"#utility.yul\":9213:9216   */\n          dup10\n            /* \"#utility.yul\":9209:9228   */\n          add\n            /* \"#utility.yul\":9203:9229   */\n          mload\n            /* \"#utility.yul\":9195:9201   */\n          dup3\n            /* \"#utility.yul\":9188:9230   */\n          sstore\n            /* \"#utility.yul\":9269:9270   */\n          0x01\n            /* \"#utility.yul\":9261:9267   */\n          dup3\n            /* \"#utility.yul\":9257:9271   */\n          add\n            /* \"#utility.yul\":9247:9271   */\n          swap2\n          pop\n            /* \"#utility.yul\":9316:9318   */\n          0x20\n            /* \"#utility.yul\":9305:9314   */\n          dup6\n            /* \"#utility.yul\":9301:9319   */\n          add\n            /* \"#utility.yul\":9288:9319   */\n          swap5\n          pop\n            /* \"#utility.yul\":9162:9166   */\n          0x20\n            /* \"#utility.yul\":9159:9160   */\n          dup2\n            /* \"#utility.yul\":9155:9167   */\n          add\n            /* \"#utility.yul\":9150:9167   */\n          swap1\n          pop\n            /* \"#utility.yul\":9125:9333   */\n          jump(tag_161)\n        tag_163:\n            /* \"#utility.yul\":9361:9367   */\n          dup7\n            /* \"#utility.yul\":9352:9359   */\n          dup4\n            /* \"#utility.yul\":9349:9368   */\n          lt\n            /* \"#utility.yul\":9346:9525   */\n          iszero\n          tag_164\n          jumpi\n            /* \"#utility.yul\":9419:9428   */\n          dup5\n            /* \"#utility.yul\":9414:9417   */\n          dup10\n            /* \"#utility.yul\":9410:9429   */\n          add\n            /* \"#utility.yul\":9404:9430   */\n          mload\n            /* \"#utility.yul\":9462:9510   */\n          tag_165\n            /* \"#utility.yul\":9504:9508   */\n          0x1f\n            /* \"#utility.yul\":9496:9502   */\n          dup10\n            /* \"#utility.yul\":9492:9509   */\n          and\n            /* \"#utility.yul\":9481:9490   */\n          dup3\n            /* \"#utility.yul\":9462:9510   */\n          tag_46\n          jump\t// in\n        tag_165:\n            /* \"#utility.yul\":9454:9460   */\n          dup4\n            /* \"#utility.yul\":9447:9511   */\n          sstore\n            /* \"#utility.yul\":9369:9525   */\n          pop\n            /* \"#utility.yul\":9346:9525   */\n        tag_164:\n            /* \"#utility.yul\":9571:9572   */\n          0x01\n            /* \"#utility.yul\":9567:9568   */\n          0x02\n            /* \"#utility.yul\":9559:9565   */\n          dup9\n            /* \"#utility.yul\":9555:9569   */\n          mul\n            /* \"#utility.yul\":9551:9573   */\n          add\n            /* \"#utility.yul\":9545:9549   */\n          dup9\n            /* \"#utility.yul\":9538:9574   */\n          sstore\n            /* \"#utility.yul\":8973:9584   */\n          pop\n          pop\n          pop\n            /* \"#utility.yul\":8936:9823   */\n        tag_156:\n          pop\n            /* \"#utility.yul\":8526:9829   */\n          pop\n          pop\n          pop\n            /* \"#utility.yul\":8434:9829   */\n          pop\n          pop\n          jump\t// out\n            /* \"Campaign.sol\":602:3701  contract Campaign {... */\n        tag_9:\n          dataSize(sub_0)\n          dup1\n          dataOffset(sub_0)\n          0x00\n          codecopy\n          0x00\n          return\n        stop\n\n        sub_0: assembly {\n                /* \"Campaign.sol\":602:3701  contract Campaign {... */\n              mstore(0x40, 0x80)\n              jumpi(tag_1, lt(calldatasize, 0x04))\n              shr(0xe0, calldataload(0x00))\n              dup1\n              0x82fde093\n              gt\n              tag_18\n              jumpi\n              dup1\n              0xd7bb99ba\n              gt\n              tag_19\n              jumpi\n              dup1\n              0xd7bb99ba\n              eq\n              tag_14\n              jumpi\n              dup1\n              0xd7d1bbdb\n              eq\n              tag_15\n              jumpi\n              dup1\n              0xe7b668b4\n              eq\n              tag_16\n              jumpi\n              dup1\n              0xef068a7f\n              eq\n              tag_17\n              jumpi\n              jump(tag_1)\n            tag_19:\n              dup1\n              0x82fde093\n              eq\n              tag_10\n              jumpi\n              dup1\n              0xaaffadf3\n              eq\n              tag_11\n              jumpi\n              dup1\n              0xc5c4744c\n              eq\n              tag_12\n              jumpi\n              dup1\n              0xc7741265\n              eq\n              tag_13\n              jumpi\n              jump(tag_1)\n            tag_18:\n              dup1\n              0x4051ddac\n              gt\n              tag_20\n              jumpi\n              dup1\n              0x4051ddac\n              eq\n              tag_6\n              jumpi\n              dup1\n              0x481c6a75\n              eq\n              tag_7\n              jumpi\n              dup1\n              0x5b18056b\n              eq\n              tag_8\n              jumpi\n              dup1\n              0x81d12c58\n              eq\n              tag_9\n              jumpi\n              jump(tag_1)\n            tag_20:\n              dup1\n              0x0724fda9\n              eq\n              tag_2\n              jumpi\n              dup1\n              0x0a144391\n              eq\n              tag_3\n              jumpi\n              dup1\n              0x110842cb\n              eq\n              tag_4\n              jumpi\n              dup1\n              0x3410452a\n              eq\n              tag_5\n              jumpi\n            tag_1:\n              0x00\n              dup1\n              revert\n                /* \"Campaign.sol\":915:941  string public campaignName */\n            tag_2:\n              callvalue\n              dup1\n              iszero\n              tag_21\n              jumpi\n              0x00\n              dup1\n              revert\n            tag_21:\n              pop\n              tag_22\n              tag_23\n              jump\t// in\n            tag_22:\n              mload(0x40)\n              tag_24\n              swap2\n              swap1\n              tag_25\n              jump\t// in\n            tag_24:\n              mload(0x40)\n              dup1\n              swap2\n              sub\n              swap1\n              return\n                /* \"Campaign.sol\":1084:1125  mapping(address => bool) public approvers */\n            tag_3:\n              callvalue\n              dup1\n              iszero\n              tag_26\n              jumpi\n              0x00\n              dup1\n              revert\n            tag_26:\n              pop\n              tag_27\n              0x04\n              dup1\n              calldatasize\n              sub\n              dup2\n              add\n              swap1\n              tag_28\n              swap2\n              swap1\n              tag_29\n              jump\t// in\n            tag_28:\n              tag_30\n              jump\t// in\n            tag_27:\n              mload(0x40)\n              tag_31\n              swap2\n              swap1\n              tag_32\n              jump\t// in\n            tag_31:\n              mload(0x40)\n              dup1\n              swap2\n              sub\n              swap1\n              return\n                /* \"Campaign.sol\":947:980  string public campaignDescription */\n            tag_4:\n              callvalue\n              dup1\n              iszero\n              tag_33\n              jumpi\n              0x00\n              dup1\n              revert\n            tag_33:\n              pop\n              tag_34\n              tag_35\n              jump\t// in\n            tag_34:\n              mload(0x40)\n              tag_36\n              swap2\n              swap1\n              tag_25\n              jump\t// in\n            tag_36:\n              mload(0x40)\n              dup1\n              swap2\n              sub\n              swap1\n              return\n                /* \"Campaign.sol\":3605:3699  function getRequestsCount() public view returns (uint) {... */\n            tag_5:\n              callvalue\n              dup1\n              iszero\n              tag_37\n              jumpi\n              0x00\n              dup1\n              revert\n            tag_37:\n              pop\n              tag_38\n              tag_39\n              jump\t// in\n            tag_38:\n              mload(0x40)\n              tag_40\n              swap2\n              swap1\n              tag_41\n              jump\t// in\n            tag_40:\n              mload(0x40)\n              dup1\n              swap2\n              sub\n              swap1\n              return\n                /* \"Campaign.sol\":3144:3599  function getSummary() public view returns (... */\n            tag_6:\n              callvalue\n              dup1\n              iszero\n              tag_42\n              jumpi\n              0x00\n              dup1\n              revert\n            tag_42:\n              pop\n              tag_43\n              tag_44\n              jump\t// in\n            tag_43:\n              mload(0x40)\n              tag_45\n              swap11\n              swap10\n              swap9\n              swap8\n              swap7\n              swap6\n              swap5\n              swap4\n              swap3\n              swap2\n              swap1\n              tag_46\n              jump\t// in\n            tag_45:\n              mload(0x40)\n              dup1\n              swap2\n              sub\n              swap1\n              return\n                /* \"Campaign.sol\":887:909  address public manager */\n            tag_7:\n              callvalue\n              dup1\n              iszero\n              tag_47\n              jumpi\n              0x00\n              dup1\n              revert\n            tag_47:\n              pop\n              tag_48\n              tag_49\n              jump\t// in\n            tag_48:\n              mload(0x40)\n              tag_50\n              swap2\n              swap1\n              tag_51\n              jump\t// in\n            tag_50:\n              mload(0x40)\n              dup1\n              swap2\n              sub\n              swap1\n              return\n                /* \"Campaign.sol\":1049:1078  uint public contributionCount */\n            tag_8:\n              callvalue\n              dup1\n              iszero\n              tag_52\n              jumpi\n              0x00\n              dup1\n              revert\n            tag_52:\n              pop\n              tag_53\n              tag_54\n              jump\t// in\n            tag_53:\n              mload(0x40)\n              tag_55\n              swap2\n              swap1\n              tag_41\n              jump\t// in\n            tag_55:\n              mload(0x40)\n              dup1\n              swap2\n              sub\n              swap1\n              return\n                /* \"Campaign.sol\":1163:1188  Request[] public requests */\n            tag_9:\n              callvalue\n              dup1\n              iszero\n              tag_56\n              jumpi\n              0x00\n              dup1\n              revert\n            tag_56:\n              pop\n              tag_57\n              0x04\n              dup1\n              calldatasize\n              sub\n              dup2\n              add\n              swap1\n              tag_58\n              swap2\n              swap1\n              tag_59\n              jump\t// in\n            tag_58:\n              tag_60\n              jump\t// in\n            tag_57:\n              mload(0x40)\n              tag_61\n              swap7\n              swap6\n              swap5\n              swap4\n              swap3\n              swap2\n              swap1\n              tag_62\n              jump\t// in\n            tag_61:\n              mload(0x40)\n              dup1\n              swap2\n              sub\n              swap1\n              return\n                /* \"Campaign.sol\":1131:1157  uint public approversCount */\n            tag_10:\n              callvalue\n              dup1\n              iszero\n              tag_63\n              jumpi\n              0x00\n              dup1\n              revert\n            tag_63:\n              pop\n              tag_64\n              tag_65\n              jump\t// in\n            tag_64:\n              mload(0x40)\n              tag_66\n              swap2\n              swap1\n              tag_41\n              jump\t// in\n            tag_66:\n              mload(0x40)\n              dup1\n              swap2\n              sub\n              swap1\n              return\n                /* \"Campaign.sol\":1016:1043  uint public minContribution */\n            tag_11:\n              callvalue\n              dup1\n              iszero\n              tag_67\n              jumpi\n              0x00\n              dup1\n              revert\n            tag_67:\n              pop\n              tag_68\n              tag_69\n              jump\t// in\n            tag_68:\n              mload(0x40)\n              tag_70\n              swap2\n              swap1\n              tag_41\n              jump\t// in\n            tag_70:\n              mload(0x40)\n              dup1\n              swap2\n              sub\n              swap1\n              return\n                /* \"Campaign.sol\":1194:1217  uint public totalRaised */\n            tag_12:\n              callvalue\n              dup1\n              iszero\n              tag_71\n              jumpi\n              0x00\n              dup1\n              revert\n            tag_71:\n              pop\n              tag_72\n              tag_73\n              jump\t// in\n            tag_72:\n              mload(0x40)\n              tag_74\n              swap2\n              swap1\n              tag_41\n              jump\t// in\n            tag_74:\n              mload(0x40)\n              dup1\n              swap2\n              sub\n              swap1\n              return\n                /* \"Campaign.sol\":1982:2567  function createRequest(string memory name, string memory description, uint value, address payable recipient)... */\n            tag_13:\n              callvalue\n              dup1\n              iszero\n              tag_75\n              jumpi\n              0x00\n              dup1\n              revert\n            tag_75:\n              pop\n              tag_76\n              0x04\n              dup1\n              calldatasize\n              sub\n              dup2\n              add\n              swap1\n              tag_77\n              swap2\n              swap1\n              tag_78\n              jump\t// in\n            tag_77:\n              tag_79\n              jump\t// in\n            tag_76:\n              stop\n                /* \"Campaign.sol\":1660:1976  function contribute() public payable {... */\n            tag_14:\n              tag_80\n              tag_81\n              jump\t// in\n            tag_80:\n              stop\n                /* \"Campaign.sol\":2573:2835  function approveRequest(uint index) public {... */\n            tag_15:\n              callvalue\n              dup1\n              iszero\n              tag_82\n              jumpi\n              0x00\n              dup1\n              revert\n            tag_82:\n              pop\n              tag_83\n              0x04\n              dup1\n              calldatasize\n              sub\n              dup2\n              add\n              swap1\n              tag_84\n              swap2\n              swap1\n              tag_59\n              jump\t// in\n            tag_84:\n              tag_85\n              jump\t// in\n            tag_83:\n              stop\n                /* \"Campaign.sol\":2841:3138  function finaliseRequest(uint index) public restricted {... */\n            tag_16:\n              callvalue\n              dup1\n              iszero\n              tag_86\n              jumpi\n              0x00\n              dup1\n              revert\n            tag_86:\n              pop\n              tag_87\n              0x04\n              dup1\n              calldatasize\n              sub\n              dup2\n              add\n              swap1\n              tag_88\n              swap2\n              swap1\n              tag_59\n              jump\t// in\n            tag_88:\n              tag_89\n              jump\t// in\n            tag_87:\n              stop\n                /* \"Campaign.sol\":986:1010  uint public campaignGoal */\n            tag_17:\n              callvalue\n              dup1\n              iszero\n              tag_90\n              jumpi\n              0x00\n              dup1\n              revert\n            tag_90:\n              pop\n              tag_91\n              tag_92\n              jump\t// in\n            tag_91:\n              mload(0x40)\n              tag_93\n              swap2\n              swap1\n              tag_41\n              jump\t// in\n            tag_93:\n              mload(0x40)\n              dup1\n              swap2\n              sub\n              swap1\n              return\n                /* \"Campaign.sol\":915:941  string public campaignName */\n            tag_23:\n              0x01\n              dup1\n              sload\n              tag_94\n              swap1\n              tag_95\n              jump\t// in\n            tag_94:\n              dup1\n              0x1f\n              add\n              0x20\n              dup1\n              swap2\n              div\n              mul\n              0x20\n              add\n              mload(0x40)\n              swap1\n              dup2\n              add\n              0x40\n              mstore\n              dup1\n              swap3\n              swap2\n              swap1\n              dup2\n              dup2\n              mstore\n              0x20\n              add\n              dup3\n              dup1\n              sload\n              tag_96\n              swap1\n              tag_95\n              jump\t// in\n            tag_96:\n              dup1\n              iszero\n              tag_97\n              jumpi\n              dup1\n              0x1f\n              lt\n              tag_98\n              jumpi\n              0x0100\n              dup1\n              dup4\n              sload\n              div\n              mul\n              dup4\n              mstore\n              swap2\n              0x20\n              add\n              swap2\n              jump(tag_97)\n            tag_98:\n              dup3\n              add\n              swap2\n              swap1\n              0x00\n              mstore\n              keccak256(0x00, 0x20)\n              swap1\n            tag_99:\n              dup2\n              sload\n              dup2\n              mstore\n              swap1\n              0x01\n              add\n              swap1\n              0x20\n              add\n              dup1\n              dup4\n              gt\n              tag_99\n              jumpi\n              dup3\n              swap1\n              sub\n              0x1f\n              and\n              dup3\n              add\n              swap2\n            tag_97:\n              pop\n              pop\n              pop\n              pop\n              pop\n              dup2\n              jump\t// out\n                /* \"Campaign.sol\":1084:1125  mapping(address => bool) public approvers */\n            tag_30:\n              mstore(0x20, 0x06)\n              dup1\n              0x00\n              mstore\n              keccak256(0x00, 0x40)\n              0x00\n              swap2\n              pop\n              sload\n              swap1\n              0x0100\n              exp\n              swap1\n              div\n              0xff\n              and\n              dup2\n              jump\t// out\n                /* \"Campaign.sol\":947:980  string public campaignDescription */\n            tag_35:\n              0x02\n              dup1\n              sload\n              tag_100\n              swap1\n              tag_95\n              jump\t// in\n            tag_100:\n              dup1\n              0x1f\n              add\n              0x20\n              dup1\n              swap2\n              div\n              mul\n              0x20\n              add\n              mload(0x40)\n              swap1\n              dup2\n              add\n              0x40\n              mstore\n              dup1\n              swap3\n              swap2\n              swap1\n              dup2\n              dup2\n              mstore\n              0x20\n              add\n              dup3\n              dup1\n              sload\n              tag_101\n              swap1\n              tag_95\n              jump\t// in\n            tag_101:\n              dup1\n              iszero\n              tag_102\n              jumpi\n              dup1\n              0x1f\n              lt\n              tag_103\n              jumpi\n              0x0100\n              dup1\n              dup4\n              sload\n              div\n              mul\n              dup4\n              mstore\n              swap2\n              0x20\n              add\n              swap2\n              jump(tag_102)\n            tag_103:\n              dup3\n              add\n              swap2\n              swap1\n              0x00\n              mstore\n              keccak256(0x00, 0x20)\n              swap1\n            tag_104:\n              dup2\n              sload\n              dup2\n              mstore\n              swap1\n              0x01\n              add\n              swap1\n              0x20\n              add\n              dup1\n              dup4\n              gt\n              tag_104\n              jumpi\n              dup3\n              swap1\n              sub\n              0x1f\n              and\n              dup3\n              add\n              swap2\n            tag_102:\n              pop\n              pop\n              pop\n              pop\n              pop\n              dup2\n              jump\t// out\n                /* \"Campaign.sol\":3605:3699  function getRequestsCount() public view returns (uint) {... */\n            tag_39:\n                /* \"Campaign.sol\":3654:3658  uint */\n              0x00\n                /* \"Campaign.sol\":3677:3685  requests */\n              0x08\n                /* \"Campaign.sol\":3677:3692  requests.length */\n              dup1\n              sload\n              swap1\n              pop\n                /* \"Campaign.sol\":3670:3692  return requests.length */\n              swap1\n              pop\n                /* \"Campaign.sol\":3605:3699  function getRequestsCount() public view returns (uint) {... */\n              swap1\n              jump\t// out\n                /* \"Campaign.sol\":3144:3599  function getSummary() public view returns (... */\n            tag_44:\n                /* \"Campaign.sol\":3196:3209  string memory */\n              0x60\n                /* \"Campaign.sol\":3211:3224  string memory */\n              dup1\n                /* \"Campaign.sol\":3226:3230  uint */\n              0x00\n                /* \"Campaign.sol\":3232:3236  uint */\n              dup1\n                /* \"Campaign.sol\":3238:3242  uint */\n              0x00\n                /* \"Campaign.sol\":3244:3248  uint */\n              dup1\n                /* \"Campaign.sol\":3250:3254  uint */\n              0x00\n                /* \"Campaign.sol\":3256:3260  uint */\n              dup1\n                /* \"Campaign.sol\":3262:3266  uint */\n              0x00\n                /* \"Campaign.sol\":3268:3275  address */\n              dup1\n                /* \"Campaign.sol\":3313:3325  campaignName */\n              0x01\n                /* \"Campaign.sol\":3339:3358  campaignDescription */\n              0x02\n                /* \"Campaign.sol\":3372:3384  campaignGoal */\n              sload(0x03)\n                /* \"Campaign.sol\":3398:3415  contributionCount */\n              sload(0x05)\n                /* \"Campaign.sol\":3429:3444  minContribution */\n              sload(0x04)\n                /* \"Campaign.sol\":3458:3469  totalRaised */\n              sload(0x09)\n                /* \"Campaign.sol\":3483:3504  address(this).balance */\n              selfbalance\n                /* \"Campaign.sol\":3518:3526  requests */\n              0x08\n                /* \"Campaign.sol\":3518:3533  requests.length */\n              dup1\n              sload\n              swap1\n              pop\n                /* \"Campaign.sol\":3547:3561  approversCount */\n              sload(0x07)\n                /* \"Campaign.sol\":3575:3582  manager */\n              0x00\n              dup1\n              sload\n              swap1\n              0x0100\n              exp\n              swap1\n              div\n              0xffffffffffffffffffffffffffffffffffffffff\n              and\n                /* \"Campaign.sol\":3292:3592  return (... */\n              dup10\n              dup1\n              sload\n              tag_107\n              swap1\n              tag_95\n              jump\t// in\n            tag_107:\n              dup1\n              0x1f\n              add\n              0x20\n              dup1\n              swap2\n              div\n              mul\n              0x20\n              add\n              mload(0x40)\n              swap1\n              dup2\n              add\n              0x40\n              mstore\n              dup1\n              swap3\n              swap2\n              swap1\n              dup2\n              dup2\n              mstore\n              0x20\n              add\n              dup3\n              dup1\n              sload\n              tag_108\n              swap1\n              tag_95\n              jump\t// in\n            tag_108:\n              dup1\n              iszero\n              tag_109\n              jumpi\n              dup1\n              0x1f\n              lt\n              tag_110\n              jumpi\n              0x0100\n              dup1\n              dup4\n              sload\n              div\n              mul\n              dup4\n              mstore\n              swap2\n              0x20\n              add\n              swap2\n              jump(tag_109)\n            tag_110:\n              dup3\n              add\n              swap2\n              swap1\n              0x00\n              mstore\n              keccak256(0x00, 0x20)\n              swap1\n            tag_111:\n              dup2\n              sload\n              dup2\n              mstore\n              swap1\n              0x01\n              add\n              swap1\n              0x20\n              add\n              dup1\n              dup4\n              gt\n              tag_111\n              jumpi\n              dup3\n              swap1\n              sub\n              0x1f\n              and\n              dup3\n              add\n              swap2\n            tag_109:\n              pop\n              pop\n              pop\n              pop\n              pop\n              swap10\n              pop\n              dup9\n              dup1\n              sload\n              tag_112\n              swap1\n              tag_95\n              jump\t// in\n            tag_112:\n              dup1\n              0x1f\n              add\n              0x20\n              dup1\n              swap2\n              div\n              mul\n              0x20\n              add\n              mload(0x40)\n              swap1\n              dup2\n              add\n              0x40\n              mstore\n              dup1\n              swap3\n              swap2\n              swap1\n              dup2\n              dup2\n              mstore\n              0x20\n              add\n              dup3\n              dup1\n              sload\n              tag_113\n              swap1\n              tag_95\n              jump\t// in\n            tag_113:\n              dup1\n              iszero\n              tag_114\n              jumpi\n              dup1\n              0x1f\n              lt\n              tag_115\n              jumpi\n              0x0100\n              dup1\n              dup4\n              sload\n              div\n              mul\n              dup4\n              mstore\n              swap2\n              0x20\n              add\n              swap2\n              jump(tag_114)\n            tag_115:\n              dup3\n              add\n              swap2\n              swap1\n              0x00\n              mstore\n              keccak256(0x00, 0x20)\n              swap1\n            tag_116:\n              dup2\n              sload\n              dup2\n              mstore\n              swap1\n              0x01\n              add\n              swap1\n              0x20\n              add\n              dup1\n              dup4\n              gt\n              tag_116\n              jumpi\n              dup3\n              swap1\n              sub\n              0x1f\n              and\n              dup3\n              add\n              swap2\n            tag_114:\n              pop\n              pop\n              pop\n              pop\n              pop\n              swap9\n              pop\n              swap10\n              pop\n              swap10\n              pop\n              swap10\n              pop\n              swap10\n              pop\n              swap10\n              pop\n              swap10\n              pop\n              swap10\n              pop\n              swap10\n              pop\n              swap10\n              pop\n              swap10\n              pop\n                /* \"Campaign.sol\":3144:3599  function getSummary() public view returns (... */\n              swap1\n              swap2\n              swap3\n              swap4\n              swap5\n              swap6\n              swap7\n              swap8\n              swap9\n              swap10\n              jump\t// out\n                /* \"Campaign.sol\":887:909  address public manager */\n            tag_49:\n              0x00\n              dup1\n              sload\n              swap1\n              0x0100\n              exp\n              swap1\n              div\n              0xffffffffffffffffffffffffffffffffffffffff\n              and\n              dup2\n              jump\t// out\n                /* \"Campaign.sol\":1049:1078  uint public contributionCount */\n            tag_54:\n              sload(0x05)\n              dup2\n              jump\t// out\n                /* \"Campaign.sol\":1163:1188  Request[] public requests */\n            tag_60:\n              0x08\n              dup2\n              dup2\n              sload\n              dup2\n              lt\n              tag_117\n              jumpi\n              0x00\n              dup1\n              revert\n            tag_117:\n              swap1\n              0x00\n              mstore\n              keccak256(0x00, 0x20)\n              swap1\n              0x06\n              mul\n              add\n              0x00\n              swap2\n              pop\n              swap1\n              pop\n              dup1\n              0x00\n              add\n              dup1\n              sload\n              tag_119\n              swap1\n              tag_95\n              jump\t// in\n            tag_119:\n              dup1\n              0x1f\n              add\n              0x20\n              dup1\n              swap2\n              div\n              mul\n              0x20\n              add\n              mload(0x40)\n              swap1\n              dup2\n              add\n              0x40\n              mstore\n              dup1\n              swap3\n              swap2\n              swap1\n              dup2\n              dup2\n              mstore\n              0x20\n              add\n              dup3\n              dup1\n              sload\n              tag_120\n              swap1\n              tag_95\n              jump\t// in\n            tag_120:\n              dup1\n              iszero\n              tag_121\n              jumpi\n              dup1\n              0x1f\n              lt\n              tag_122\n              jumpi\n              0x0100\n              dup1\n              dup4\n              sload\n              div\n              mul\n              dup4\n              mstore\n              swap2\n              0x20\n              add\n              swap2\n              jump(tag_121)\n            tag_122:\n              dup3\n              add\n              swap2\n              swap1\n              0x00\n              mstore\n              keccak256(0x00, 0x20)\n              swap1\n            tag_123:\n              dup2\n              sload\n              dup2\n              mstore\n              swap1\n              0x01\n              add\n              swap1\n              0x20\n              add\n              dup1\n              dup4\n              gt\n              tag_123\n              jumpi\n              dup3\n              swap1\n              sub\n              0x1f\n              and\n              dup3\n              add\n              swap2\n            tag_121:\n              pop\n              pop\n              pop\n              pop\n              pop\n              swap1\n              dup1\n              0x01\n              add\n              dup1\n              sload\n              tag_124\n              swap1\n              tag_95\n              jump\t// in\n            tag_124:\n              dup1\n              0x1f\n              add\n              0x20\n              dup1\n              swap2\n              div\n              mul\n              0x20\n              add\n              mload(0x40)\n              swap1\n              dup2\n              add\n              0x40\n              mstore\n              dup1\n              swap3\n              swap2\n              swap1\n              dup2\n              dup2\n              mstore\n              0x20\n              add\n              dup3\n              dup1\n              sload\n              tag_125\n              swap1\n              tag_95\n              jump\t// in\n            tag_125:\n              dup1\n              iszero\n              tag_126\n              jumpi\n              dup1\n              0x1f\n              lt\n              tag_127\n              jumpi\n              0x0100\n              dup1\n              dup4\n              sload\n              div\n              mul\n              dup4\n              mstore\n              swap2\n              0x20\n              add\n              swap2\n              jump(tag_126)\n            tag_127:\n              dup3\n              add\n              swap2\n              swap1\n              0x00\n              mstore\n              keccak256(0x00, 0x20)\n              swap1\n            tag_128:\n              dup2\n              sload\n              dup2\n              mstore\n              swap1\n              0x01\n              add\n              swap1\n              0x20\n              add\n              dup1\n              dup4\n              gt\n              tag_128\n              jumpi\n              dup3\n              swap1\n              sub\n              0x1f\n              and\n              dup3\n              add\n              swap2\n            tag_126:\n              pop\n              pop\n              pop\n              pop\n              pop\n              swap1\n              dup1\n              0x02\n              add\n              sload\n              swap1\n              dup1\n              0x03\n              add\n              0x00\n              swap1\n              sload\n              swap1\n              0x0100\n              exp\n              swap1\n              div\n              0xffffffffffffffffffffffffffffffffffffffff\n              and\n              swap1\n              dup1\n              0x03\n              add\n              0x14\n              swap1\n              sload\n              swap1\n              0x0100\n              exp\n              swap1\n              div\n              0xff\n              and\n              swap1\n              dup1\n              0x04\n              add\n              sload\n              swap1\n              pop\n              dup7\n              jump\t// out\n                /* \"Campaign.sol\":1131:1157  uint public approversCount */\n            tag_65:\n              sload(0x07)\n              dup2\n              jump\t// out\n                /* \"Campaign.sol\":1016:1043  uint public minContribution */\n            tag_69:\n              sload(0x04)\n              dup2\n              jump\t// out\n                /* \"Campaign.sol\":1194:1217  uint public totalRaised */\n            tag_73:\n              sload(0x09)\n              dup2\n              jump\t// out\n                /* \"Campaign.sol\":1982:2567  function createRequest(string memory name, string memory description, uint value, address payable recipient)... */\n            tag_79:\n                /* \"Campaign.sol\":1347:1354  manager */\n              0x00\n              dup1\n              sload\n              swap1\n              0x0100\n              exp\n              swap1\n              div\n              0xffffffffffffffffffffffffffffffffffffffff\n              and\n                /* \"Campaign.sol\":1333:1354  msg.sender == manager */\n              0xffffffffffffffffffffffffffffffffffffffff\n              and\n                /* \"Campaign.sol\":1333:1343  msg.sender */\n              caller\n                /* \"Campaign.sol\":1333:1354  msg.sender == manager */\n              0xffffffffffffffffffffffffffffffffffffffff\n              and\n              eq\n                /* \"Campaign.sol\":1325:1355  require(msg.sender == manager) */\n              tag_130\n              jumpi\n              0x00\n              dup1\n              revert\n            tag_130:\n                /* \"Campaign.sol\":2235:2247  campaignGoal */\n              sload(0x03)\n                /* \"Campaign.sol\":2210:2231  address(this).balance */\n              selfbalance\n                /* \"Campaign.sol\":2210:2247  address(this).balance >= campaignGoal */\n              lt\n              iszero\n                /* \"Campaign.sol\":2202:2248  require(address(this).balance >= campaignGoal) */\n              tag_132\n              jumpi\n              0x00\n              dup1\n              revert\n            tag_132:\n                /* \"Campaign.sol\":2262:2288  Request storage newRequest */\n              0x00\n                /* \"Campaign.sol\":2291:2299  requests */\n              0x08\n                /* \"Campaign.sol\":2291:2306  requests.push() */\n              0x01\n              dup2\n              0x01\n              dup2\n              sload\n              add\n              dup1\n              dup3\n              sstore\n              dup1\n              swap2\n              pop\n              pop\n              sub\n              swap1\n              0x00\n              mstore\n              keccak256(0x00, 0x20)\n              swap1\n              0x06\n              mul\n              add\n                /* \"Campaign.sol\":2262:2306  Request storage newRequest = requests.push() */\n              swap1\n              pop\n                /* \"Campaign.sol\":2339:2343  name */\n              dup5\n                /* \"Campaign.sol\":2321:2331  newRequest */\n              dup2\n                /* \"Campaign.sol\":2321:2336  newRequest.name */\n              0x00\n              add\n                /* \"Campaign.sol\":2321:2343  newRequest.name = name */\n              swap1\n              dup2\n              tag_134\n              swap2\n              swap1\n              tag_135\n              jump\t// in\n            tag_134:\n              pop\n                /* \"Campaign.sol\":2382:2393  description */\n              dup4\n                /* \"Campaign.sol\":2357:2367  newRequest */\n              dup2\n                /* \"Campaign.sol\":2357:2379  newRequest.description */\n              0x01\n              add\n                /* \"Campaign.sol\":2357:2393  newRequest.description = description */\n              swap1\n              dup2\n              tag_136\n              swap2\n              swap1\n              tag_135\n              jump\t// in\n            tag_136:\n              pop\n                /* \"Campaign.sol\":2426:2431  value */\n              dup3\n                /* \"Campaign.sol\":2407:2417  newRequest */\n              dup2\n                /* \"Campaign.sol\":2407:2423  newRequest.value */\n              0x02\n              add\n                /* \"Campaign.sol\":2407:2431  newRequest.value = value */\n              dup2\n              swap1\n              sstore\n              pop\n                /* \"Campaign.sol\":2468:2477  recipient */\n              dup2\n                /* \"Campaign.sol\":2445:2455  newRequest */\n              dup2\n                /* \"Campaign.sol\":2445:2465  newRequest.recipient */\n              0x03\n              add\n              0x00\n                /* \"Campaign.sol\":2445:2477  newRequest.recipient = recipient */\n              0x0100\n              exp\n              dup2\n              sload\n              dup2\n              0xffffffffffffffffffffffffffffffffffffffff\n              mul\n              not\n              and\n              swap1\n              dup4\n              0xffffffffffffffffffffffffffffffffffffffff\n              and\n              mul\n              or\n              swap1\n              sstore\n              pop\n                /* \"Campaign.sol\":2513:2518  false */\n              0x00\n                /* \"Campaign.sol\":2491:2501  newRequest */\n              dup2\n                /* \"Campaign.sol\":2491:2510  newRequest.complete */\n              0x03\n              add\n              0x14\n                /* \"Campaign.sol\":2491:2518  newRequest.complete = false */\n              0x0100\n              exp\n              dup2\n              sload\n              dup2\n              0xff\n              mul\n              not\n              and\n              swap1\n              dup4\n              iszero\n              iszero\n              mul\n              or\n              swap1\n              sstore\n              pop\n                /* \"Campaign.sol\":2559:2560  0 */\n              0x00\n                /* \"Campaign.sol\":2532:2542  newRequest */\n              dup2\n                /* \"Campaign.sol\":2532:2556  newRequest.approvalCount */\n              0x04\n              add\n                /* \"Campaign.sol\":2532:2560  newRequest.approvalCount = 0 */\n              dup2\n              swap1\n              sstore\n              pop\n                /* \"Campaign.sol\":2117:2567  {... */\n              pop\n                /* \"Campaign.sol\":1982:2567  function createRequest(string memory name, string memory description, uint value, address payable recipient)... */\n              pop\n              pop\n              pop\n              pop\n              jump\t// out\n                /* \"Campaign.sol\":1660:1976  function contribute() public payable {... */\n            tag_81:\n                /* \"Campaign.sol\":1707:1722  bool isApprover */\n              0x00\n                /* \"Campaign.sol\":1725:1734  approvers */\n              0x06\n                /* \"Campaign.sol\":1725:1746  approvers[msg.sender] */\n              0x00\n                /* \"Campaign.sol\":1735:1745  msg.sender */\n              caller\n                /* \"Campaign.sol\":1725:1746  approvers[msg.sender] */\n              0xffffffffffffffffffffffffffffffffffffffff\n              and\n              0xffffffffffffffffffffffffffffffffffffffff\n              and\n              dup2\n              mstore\n              0x20\n              add\n              swap1\n              dup2\n              mstore\n              0x20\n              add\n              0x00\n              keccak256\n              0x00\n              swap1\n              sload\n              swap1\n              0x0100\n              exp\n              swap1\n              div\n              0xff\n              and\n                /* \"Campaign.sol\":1707:1746  bool isApprover = approvers[msg.sender] */\n              swap1\n              pop\n                /* \"Campaign.sol\":1762:1772  isApprover */\n              dup1\n                /* \"Campaign.sol\":1757:1907  if (!isApprover) {... */\n              tag_138\n              jumpi\n                /* \"Campaign.sol\":1808:1823  minContribution */\n              sload(0x04)\n                /* \"Campaign.sol\":1796:1805  msg.value */\n              callvalue\n                /* \"Campaign.sol\":1796:1823  msg.value > minContribution */\n              gt\n                /* \"Campaign.sol\":1788:1824  require(msg.value > minContribution) */\n              tag_139\n              jumpi\n              0x00\n              dup1\n              revert\n            tag_139:\n                /* \"Campaign.sol\":1862:1866  true */\n              0x01\n                /* \"Campaign.sol\":1838:1847  approvers */\n              0x06\n                /* \"Campaign.sol\":1838:1859  approvers[msg.sender] */\n              0x00\n                /* \"Campaign.sol\":1848:1858  msg.sender */\n              caller\n                /* \"Campaign.sol\":1838:1859  approvers[msg.sender] */\n              0xffffffffffffffffffffffffffffffffffffffff\n              and\n              0xffffffffffffffffffffffffffffffffffffffff\n              and\n              dup2\n              mstore\n              0x20\n              add\n              swap1\n              dup2\n              mstore\n              0x20\n              add\n              0x00\n              keccak256\n              0x00\n                /* \"Campaign.sol\":1838:1866  approvers[msg.sender] = true */\n              0x0100\n              exp\n              dup2\n              sload\n              dup2\n              0xff\n              mul\n              not\n              and\n              swap1\n              dup4\n              iszero\n              iszero\n              mul\n              or\n              swap1\n              sstore\n              pop\n                /* \"Campaign.sol\":1880:1894  approversCount */\n              0x07\n              0x00\n                /* \"Campaign.sol\":1880:1896  approversCount++ */\n              dup2\n              sload\n              dup1\n              swap3\n              swap2\n              swap1\n              tag_140\n              swap1\n              tag_141\n              jump\t// in\n            tag_140:\n              swap2\n              swap1\n              pop\n              sstore\n              pop\n                /* \"Campaign.sol\":1757:1907  if (!isApprover) {... */\n            tag_138:\n                /* \"Campaign.sol\":1931:1940  msg.value */\n              callvalue\n                /* \"Campaign.sol\":1916:1927  totalRaised */\n              0x09\n              0x00\n                /* \"Campaign.sol\":1916:1940  totalRaised += msg.value */\n              dup3\n              dup3\n              sload\n              tag_142\n              swap2\n              swap1\n              tag_143\n              jump\t// in\n            tag_142:\n              swap3\n              pop\n              pop\n              dup2\n              swap1\n              sstore\n              pop\n                /* \"Campaign.sol\":1950:1967  contributionCount */\n              0x05\n              0x00\n                /* \"Campaign.sol\":1950:1969  contributionCount++ */\n              dup2\n              sload\n              dup1\n              swap3\n              swap2\n              swap1\n              tag_144\n              swap1\n              tag_141\n              jump\t// in\n            tag_144:\n              swap2\n              swap1\n              pop\n              sstore\n              pop\n                /* \"Campaign.sol\":1697:1976  {... */\n              pop\n                /* \"Campaign.sol\":1660:1976  function contribute() public payable {... */\n              jump\t// out\n                /* \"Campaign.sol\":2573:2835  function approveRequest(uint index) public {... */\n            tag_85:\n                /* \"Campaign.sol\":2626:2649  Request storage request */\n              0x00\n                /* \"Campaign.sol\":2652:2660  requests */\n              0x08\n                /* \"Campaign.sol\":2661:2666  index */\n              dup3\n                /* \"Campaign.sol\":2652:2667  requests[index] */\n              dup2\n              sload\n              dup2\n              lt\n              tag_146\n              jumpi\n              tag_147\n              tag_148\n              jump\t// in\n            tag_147:\n            tag_146:\n              swap1\n              0x00\n              mstore\n              keccak256(0x00, 0x20)\n              swap1\n              0x06\n              mul\n              add\n                /* \"Campaign.sol\":2626:2667  Request storage request = requests[index] */\n              swap1\n              pop\n                /* \"Campaign.sol\":2685:2694  approvers */\n              0x06\n                /* \"Campaign.sol\":2685:2706  approvers[msg.sender] */\n              0x00\n                /* \"Campaign.sol\":2695:2705  msg.sender */\n              caller\n                /* \"Campaign.sol\":2685:2706  approvers[msg.sender] */\n              0xffffffffffffffffffffffffffffffffffffffff\n              and\n              0xffffffffffffffffffffffffffffffffffffffff\n              and\n              dup2\n              mstore\n              0x20\n              add\n              swap1\n              dup2\n              mstore\n              0x20\n              add\n              0x00\n              keccak256\n              0x00\n              swap1\n              sload\n              swap1\n              0x0100\n              exp\n              swap1\n              div\n              0xff\n              and\n                /* \"Campaign.sol\":2677:2707  require(approvers[msg.sender]) */\n              tag_150\n              jumpi\n              0x00\n              dup1\n              revert\n            tag_150:\n                /* \"Campaign.sol\":2726:2733  request */\n              dup1\n                /* \"Campaign.sol\":2726:2739  request.voted */\n              0x05\n              add\n                /* \"Campaign.sol\":2726:2751  request.voted[msg.sender] */\n              0x00\n                /* \"Campaign.sol\":2740:2750  msg.sender */\n              caller\n                /* \"Campaign.sol\":2726:2751  request.voted[msg.sender] */\n              0xffffffffffffffffffffffffffffffffffffffff\n              and\n              0xffffffffffffffffffffffffffffffffffffffff\n              and\n              dup2\n              mstore\n              0x20\n              add\n              swap1\n              dup2\n              mstore\n              0x20\n              add\n              0x00\n              keccak256\n              0x00\n              swap1\n              sload\n              swap1\n              0x0100\n              exp\n              swap1\n              div\n              0xff\n              and\n                /* \"Campaign.sol\":2725:2751  !request.voted[msg.sender] */\n              iszero\n                /* \"Campaign.sol\":2717:2752  require(!request.voted[msg.sender]) */\n              tag_151\n              jumpi\n              0x00\n              dup1\n              revert\n            tag_151:\n                /* \"Campaign.sol\":2791:2795  true */\n              0x01\n                /* \"Campaign.sol\":2763:2770  request */\n              dup2\n                /* \"Campaign.sol\":2763:2776  request.voted */\n              0x05\n              add\n                /* \"Campaign.sol\":2763:2788  request.voted[msg.sender] */\n              0x00\n                /* \"Campaign.sol\":2777:2787  msg.sender */\n              caller\n                /* \"Campaign.sol\":2763:2788  request.voted[msg.sender] */\n              0xffffffffffffffffffffffffffffffffffffffff\n              and\n              0xffffffffffffffffffffffffffffffffffffffff\n              and\n              dup2\n              mstore\n              0x20\n              add\n              swap1\n              dup2\n              mstore\n              0x20\n              add\n              0x00\n              keccak256\n              0x00\n                /* \"Campaign.sol\":2763:2795  request.voted[msg.sender] = true */\n              0x0100\n              exp\n              dup2\n              sload\n              dup2\n              0xff\n              mul\n              not\n              and\n              swap1\n              dup4\n              iszero\n              iszero\n              mul\n              or\n              swap1\n              sstore\n              pop\n                /* \"Campaign.sol\":2805:2812  request */\n              dup1\n                /* \"Campaign.sol\":2805:2826  request.approvalCount */\n              0x04\n              add\n              0x00\n                /* \"Campaign.sol\":2805:2828  request.approvalCount++ */\n              dup2\n              sload\n              dup1\n              swap3\n              swap2\n              swap1\n              tag_152\n              swap1\n              tag_141\n              jump\t// in\n            tag_152:\n              swap2\n              swap1\n              pop\n              sstore\n              pop\n                /* \"Campaign.sol\":2616:2835  {... */\n              pop\n                /* \"Campaign.sol\":2573:2835  function approveRequest(uint index) public {... */\n              pop\n              jump\t// out\n                /* \"Campaign.sol\":2841:3138  function finaliseRequest(uint index) public restricted {... */\n            tag_89:\n                /* \"Campaign.sol\":1347:1354  manager */\n              0x00\n              dup1\n              sload\n              swap1\n              0x0100\n              exp\n              swap1\n              div\n              0xffffffffffffffffffffffffffffffffffffffff\n              and\n                /* \"Campaign.sol\":1333:1354  msg.sender == manager */\n              0xffffffffffffffffffffffffffffffffffffffff\n              and\n                /* \"Campaign.sol\":1333:1343  msg.sender */\n              caller\n                /* \"Campaign.sol\":1333:1354  msg.sender == manager */\n              0xffffffffffffffffffffffffffffffffffffffff\n              and\n              eq\n                /* \"Campaign.sol\":1325:1355  require(msg.sender == manager) */\n              tag_154\n              jumpi\n              0x00\n              dup1\n              revert\n            tag_154:\n                /* \"Campaign.sol\":2906:2929  Request storage request */\n              0x00\n                /* \"Campaign.sol\":2932:2940  requests */\n              0x08\n                /* \"Campaign.sol\":2941:2946  index */\n              dup3\n                /* \"Campaign.sol\":2932:2947  requests[index] */\n              dup2\n              sload\n              dup2\n              lt\n              tag_156\n              jumpi\n              tag_157\n              tag_148\n              jump\t// in\n            tag_157:\n            tag_156:\n              swap1\n              0x00\n              mstore\n              keccak256(0x00, 0x20)\n              swap1\n              0x06\n              mul\n              add\n                /* \"Campaign.sol\":2906:2947  Request storage request = requests[index] */\n              swap1\n              pop\n                /* \"Campaign.sol\":2966:2973  request */\n              dup1\n                /* \"Campaign.sol\":2966:2982  request.complete */\n              0x03\n              add\n              0x14\n              swap1\n              sload\n              swap1\n              0x0100\n              exp\n              swap1\n              div\n              0xff\n              and\n                /* \"Campaign.sol\":2965:2982  !request.complete */\n              iszero\n                /* \"Campaign.sol\":2957:2983  require(!request.complete) */\n              tag_159\n              jumpi\n              0x00\n              dup1\n              revert\n            tag_159:\n                /* \"Campaign.sol\":3043:3044  2 */\n              0x02\n                /* \"Campaign.sol\":3026:3040  approversCount */\n              sload(0x07)\n                /* \"Campaign.sol\":3026:3044  approversCount / 2 */\n              tag_160\n              swap2\n              swap1\n              tag_161\n              jump\t// in\n            tag_160:\n                /* \"Campaign.sol\":3001:3008  request */\n              dup2\n                /* \"Campaign.sol\":3001:3022  request.approvalCount */\n              0x04\n              add\n              sload\n                /* \"Campaign.sol\":3001:3045  request.approvalCount > (approversCount / 2) */\n              gt\n                /* \"Campaign.sol\":2993:3046  require(request.approvalCount > (approversCount / 2)) */\n              tag_162\n              jumpi\n              0x00\n              dup1\n              revert\n            tag_162:\n                /* \"Campaign.sol\":3057:3064  request */\n              dup1\n                /* \"Campaign.sol\":3057:3074  request.recipient */\n              0x03\n              add\n              0x00\n              swap1\n              sload\n              swap1\n              0x0100\n              exp\n              swap1\n              div\n              0xffffffffffffffffffffffffffffffffffffffff\n              and\n                /* \"Campaign.sol\":3057:3083  request.recipient.transfer */\n              0xffffffffffffffffffffffffffffffffffffffff\n              and\n                /* \"Campaign.sol\":3057:3098  request.recipient.transfer(request.value) */\n              0x08fc\n                /* \"Campaign.sol\":3084:3091  request */\n              dup3\n                /* \"Campaign.sol\":3084:3097  request.value */\n              0x02\n              add\n              sload\n                /* \"Campaign.sol\":3057:3098  request.recipient.transfer(request.value) */\n              swap1\n              dup2\n              iszero\n              mul\n              swap1\n              mload(0x40)\n              0x00\n              mload(0x40)\n              dup1\n              dup4\n              sub\n              dup2\n              dup6\n              dup9\n              dup9\n              call\n              swap4\n              pop\n              pop\n              pop\n              pop\n              iszero\n              dup1\n              iszero\n              tag_164\n              jumpi\n              returndatasize\n              0x00\n              dup1\n              returndatacopy\n              revert(0x00, returndatasize)\n            tag_164:\n              pop\n                /* \"Campaign.sol\":3127:3131  true */\n              0x01\n                /* \"Campaign.sol\":3108:3115  request */\n              dup2\n                /* \"Campaign.sol\":3108:3124  request.complete */\n              0x03\n              add\n              0x14\n                /* \"Campaign.sol\":3108:3131  request.complete = true */\n              0x0100\n              exp\n              dup2\n              sload\n              dup2\n              0xff\n              mul\n              not\n              and\n              swap1\n              dup4\n              iszero\n              iszero\n              mul\n              or\n              swap1\n              sstore\n              pop\n                /* \"Campaign.sol\":2896:3138  {... */\n              pop\n                /* \"Campaign.sol\":2841:3138  function finaliseRequest(uint index) public restricted {... */\n              pop\n              jump\t// out\n                /* \"Campaign.sol\":986:1010  uint public campaignGoal */\n            tag_92:\n              sload(0x03)\n              dup2\n              jump\t// out\n                /* \"#utility.yul\":7:106   */\n            tag_165:\n                /* \"#utility.yul\":59:65   */\n              0x00\n                /* \"#utility.yul\":93:98   */\n              dup2\n                /* \"#utility.yul\":87:99   */\n              mload\n                /* \"#utility.yul\":77:99   */\n              swap1\n              pop\n                /* \"#utility.yul\":7:106   */\n              swap2\n              swap1\n              pop\n              jump\t// out\n                /* \"#utility.yul\":112:281   */\n            tag_166:\n                /* \"#utility.yul\":196:207   */\n              0x00\n                /* \"#utility.yul\":230:236   */\n              dup3\n                /* \"#utility.yul\":225:228   */\n              dup3\n                /* \"#utility.yul\":218:237   */\n              mstore\n                /* \"#utility.yul\":270:274   */\n              0x20\n                /* \"#utility.yul\":265:268   */\n              dup3\n                /* \"#utility.yul\":261:275   */\n              add\n                /* \"#utility.yul\":246:275   */\n              swap1\n              pop\n                /* \"#utility.yul\":112:281   */\n              swap3\n              swap2\n              pop\n              pop\n              jump\t// out\n                /* \"#utility.yul\":287:533   */\n            tag_167:\n                /* \"#utility.yul\":368:369   */\n              0x00\n                /* \"#utility.yul\":378:491   */\n            tag_219:\n                /* \"#utility.yul\":392:398   */\n              dup4\n                /* \"#utility.yul\":389:390   */\n              dup2\n                /* \"#utility.yul\":386:399   */\n              lt\n                /* \"#utility.yul\":378:491   */\n              iszero\n              tag_221\n              jumpi\n                /* \"#utility.yul\":477:478   */\n              dup1\n                /* \"#utility.yul\":472:475   */\n              dup3\n                /* \"#utility.yul\":468:479   */\n              add\n                /* \"#utility.yul\":462:480   */\n              mload\n                /* \"#utility.yul\":458:459   */\n              dup2\n                /* \"#utility.yul\":453:456   */\n              dup5\n                /* \"#utility.yul\":449:460   */\n              add\n                /* \"#utility.yul\":442:481   */\n              mstore\n                /* \"#utility.yul\":414:416   */\n              0x20\n                /* \"#utility.yul\":411:412   */\n              dup2\n                /* \"#utility.yul\":407:417   */\n              add\n                /* \"#utility.yul\":402:417   */\n              swap1\n              pop\n                /* \"#utility.yul\":378:491   */\n              jump(tag_219)\n            tag_221:\n                /* \"#utility.yul\":525:526   */\n              0x00\n                /* \"#utility.yul\":516:522   */\n              dup5\n                /* \"#utility.yul\":511:514   */\n              dup5\n                /* \"#utility.yul\":507:523   */\n              add\n                /* \"#utility.yul\":500:527   */\n              mstore\n                /* \"#utility.yul\":349:533   */\n              pop\n                /* \"#utility.yul\":287:533   */\n              pop\n              pop\n              pop\n              jump\t// out\n                /* \"#utility.yul\":539:641   */\n            tag_168:\n                /* \"#utility.yul\":580:586   */\n              0x00\n                /* \"#utility.yul\":631:633   */\n              0x1f\n                /* \"#utility.yul\":627:634   */\n              not\n                /* \"#utility.yul\":622:624   */\n              0x1f\n                /* \"#utility.yul\":615:620   */\n              dup4\n                /* \"#utility.yul\":611:625   */\n              add\n                /* \"#utility.yul\":607:635   */\n              and\n                /* \"#utility.yul\":597:635   */\n              swap1\n              pop\n                /* \"#utility.yul\":539:641   */\n              swap2\n              swap1\n              pop\n              jump\t// out\n                /* \"#utility.yul\":647:1024   */\n            tag_169:\n                /* \"#utility.yul\":735:738   */\n              0x00\n                /* \"#utility.yul\":763:802   */\n              tag_224\n                /* \"#utility.yul\":796:801   */\n              dup3\n                /* \"#utility.yul\":763:802   */\n              tag_165\n              jump\t// in\n            tag_224:\n                /* \"#utility.yul\":818:889   */\n              tag_225\n                /* \"#utility.yul\":882:888   */\n              dup2\n                /* \"#utility.yul\":877:880   */\n              dup6\n                /* \"#utility.yul\":818:889   */\n              tag_166\n              jump\t// in\n            tag_225:\n                /* \"#utility.yul\":811:889   */\n              swap4\n              pop\n                /* \"#utility.yul\":898:963   */\n              tag_226\n                /* \"#utility.yul\":956:962   */\n              dup2\n                /* \"#utility.yul\":951:954   */\n              dup6\n                /* \"#utility.yul\":944:948   */\n              0x20\n                /* \"#utility.yul\":937:942   */\n              dup7\n                /* \"#utility.yul\":933:949   */\n              add\n                /* \"#utility.yul\":898:963   */\n              tag_167\n              jump\t// in\n            tag_226:\n                /* \"#utility.yul\":988:1017   */\n              tag_227\n                /* \"#utility.yul\":1010:1016   */\n              dup2\n                /* \"#utility.yul\":988:1017   */\n              tag_168\n              jump\t// in\n            tag_227:\n                /* \"#utility.yul\":983:986   */\n              dup5\n                /* \"#utility.yul\":979:1018   */\n              add\n                /* \"#utility.yul\":972:1018   */\n              swap2\n              pop\n                /* \"#utility.yul\":739:1024   */\n              pop\n                /* \"#utility.yul\":647:1024   */\n              swap3\n              swap2\n              pop\n              pop\n              jump\t// out\n                /* \"#utility.yul\":1030:1343   */\n            tag_25:\n                /* \"#utility.yul\":1143:1147   */\n              0x00\n                /* \"#utility.yul\":1181:1183   */\n              0x20\n                /* \"#utility.yul\":1170:1179   */\n              dup3\n                /* \"#utility.yul\":1166:1184   */\n              add\n                /* \"#utility.yul\":1158:1184   */\n              swap1\n              pop\n                /* \"#utility.yul\":1230:1239   */\n              dup2\n                /* \"#utility.yul\":1224:1228   */\n              dup2\n                /* \"#utility.yul\":1220:1240   */\n              sub\n                /* \"#utility.yul\":1216:1217   */\n              0x00\n                /* \"#utility.yul\":1205:1214   */\n              dup4\n                /* \"#utility.yul\":1201:1218   */\n              add\n                /* \"#utility.yul\":1194:1241   */\n              mstore\n                /* \"#utility.yul\":1258:1336   */\n              tag_229\n                /* \"#utility.yul\":1331:1335   */\n              dup2\n                /* \"#utility.yul\":1322:1328   */\n              dup5\n                /* \"#utility.yul\":1258:1336   */\n              tag_169\n              jump\t// in\n            tag_229:\n                /* \"#utility.yul\":1250:1336   */\n              swap1\n              pop\n                /* \"#utility.yul\":1030:1343   */\n              swap3\n              swap2\n              pop\n              pop\n              jump\t// out\n                /* \"#utility.yul\":1349:1424   */\n            tag_170:\n                /* \"#utility.yul\":1382:1388   */\n              0x00\n                /* \"#utility.yul\":1415:1417   */\n              0x40\n                /* \"#utility.yul\":1409:1418   */\n              mload\n                /* \"#utility.yul\":1399:1418   */\n              swap1\n              pop\n                /* \"#utility.yul\":1349:1424   */\n              swap1\n              jump\t// out\n                /* \"#utility.yul\":1430:1547   */\n            tag_171:\n                /* \"#utility.yul\":1539:1540   */\n              0x00\n                /* \"#utility.yul\":1536:1537   */\n              dup1\n                /* \"#utility.yul\":1529:1541   */\n              revert\n                /* \"#utility.yul\":1553:1670   */\n            tag_172:\n                /* \"#utility.yul\":1662:1663   */\n              0x00\n                /* \"#utility.yul\":1659:1660   */\n              dup1\n                /* \"#utility.yul\":1652:1664   */\n              revert\n                /* \"#utility.yul\":1676:1802   */\n            tag_173:\n                /* \"#utility.yul\":1713:1720   */\n              0x00\n                /* \"#utility.yul\":1753:1795   */\n              0xffffffffffffffffffffffffffffffffffffffff\n                /* \"#utility.yul\":1746:1751   */\n              dup3\n                /* \"#utility.yul\":1742:1796   */\n              and\n                /* \"#utility.yul\":1731:1796   */\n              swap1\n              pop\n                /* \"#utility.yul\":1676:1802   */\n              swap2\n              swap1\n              pop\n              jump\t// out\n                /* \"#utility.yul\":1808:1904   */\n            tag_174:\n                /* \"#utility.yul\":1845:1852   */\n              0x00\n                /* \"#utility.yul\":1874:1898   */\n              tag_235\n                /* \"#utility.yul\":1892:1897   */\n              dup3\n                /* \"#utility.yul\":1874:1898   */\n              tag_173\n              jump\t// in\n            tag_235:\n                /* \"#utility.yul\":1863:1898   */\n              swap1\n              pop\n                /* \"#utility.yul\":1808:1904   */\n              swap2\n              swap1\n              pop\n              jump\t// out\n                /* \"#utility.yul\":1910:2032   */\n            tag_175:\n                /* \"#utility.yul\":1983:2007   */\n              tag_237\n                /* \"#utility.yul\":2001:2006   */\n              dup2\n                /* \"#utility.yul\":1983:2007   */\n              tag_174\n              jump\t// in\n            tag_237:\n                /* \"#utility.yul\":1976:1981   */\n              dup2\n                /* \"#utility.yul\":1973:2008   */\n              eq\n                /* \"#utility.yul\":1963:2026   */\n              tag_238\n              jumpi\n                /* \"#utility.yul\":2022:2023   */\n              0x00\n                /* \"#utility.yul\":2019:2020   */\n              dup1\n                /* \"#utility.yul\":2012:2024   */\n              revert\n                /* \"#utility.yul\":1963:2026   */\n            tag_238:\n                /* \"#utility.yul\":1910:2032   */\n              pop\n              jump\t// out\n                /* \"#utility.yul\":2038:2177   */\n            tag_176:\n                /* \"#utility.yul\":2084:2089   */\n              0x00\n                /* \"#utility.yul\":2122:2128   */\n              dup2\n                /* \"#utility.yul\":2109:2129   */\n              calldataload\n                /* \"#utility.yul\":2100:2129   */\n              swap1\n              pop\n                /* \"#utility.yul\":2138:2171   */\n              tag_240\n                /* \"#utility.yul\":2165:2170   */\n              dup2\n                /* \"#utility.yul\":2138:2171   */\n              tag_175\n              jump\t// in\n            tag_240:\n                /* \"#utility.yul\":2038:2177   */\n              swap3\n              swap2\n              pop\n              pop\n              jump\t// out\n                /* \"#utility.yul\":2183:2512   */\n            tag_29:\n                /* \"#utility.yul\":2242:2248   */\n              0x00\n                /* \"#utility.yul\":2291:2293   */\n              0x20\n                /* \"#utility.yul\":2279:2288   */\n              dup3\n                /* \"#utility.yul\":2270:2277   */\n              dup5\n                /* \"#utility.yul\":2266:2289   */\n              sub\n                /* \"#utility.yul\":2262:2294   */\n              slt\n                /* \"#utility.yul\":2259:2378   */\n              iszero\n              tag_242\n              jumpi\n                /* \"#utility.yul\":2297:2376   */\n              tag_243\n              tag_171\n              jump\t// in\n            tag_243:\n                /* \"#utility.yul\":2259:2378   */\n            tag_242:\n                /* \"#utility.yul\":2417:2418   */\n              0x00\n                /* \"#utility.yul\":2442:2495   */\n              tag_244\n                /* \"#utility.yul\":2487:2494   */\n              dup5\n                /* \"#utility.yul\":2478:2484   */\n              dup3\n                /* \"#utility.yul\":2467:2476   */\n              dup6\n                /* \"#utility.yul\":2463:2485   */\n              add\n                /* \"#utility.yul\":2442:2495   */\n              tag_176\n              jump\t// in\n            tag_244:\n                /* \"#utility.yul\":2432:2495   */\n              swap2\n              pop\n                /* \"#utility.yul\":2388:2505   */\n              pop\n                /* \"#utility.yul\":2183:2512   */\n              swap3\n              swap2\n              pop\n              pop\n              jump\t// out\n                /* \"#utility.yul\":2518:2608   */\n            tag_177:\n                /* \"#utility.yul\":2552:2559   */\n              0x00\n                /* \"#utility.yul\":2595:2600   */\n              dup2\n                /* \"#utility.yul\":2588:2601   */\n              iszero\n                /* \"#utility.yul\":2581:2602   */\n              iszero\n                /* \"#utility.yul\":2570:2602   */\n              swap1\n              pop\n                /* \"#utility.yul\":2518:2608   */\n              swap2\n              swap1\n              pop\n              jump\t// out\n                /* \"#utility.yul\":2614:2723   */\n            tag_178:\n                /* \"#utility.yul\":2695:2716   */\n              tag_247\n                /* \"#utility.yul\":2710:2715   */\n              dup2\n                /* \"#utility.yul\":2695:2716   */\n              tag_177\n              jump\t// in\n            tag_247:\n                /* \"#utility.yul\":2690:2693   */\n              dup3\n                /* \"#utility.yul\":2683:2717   */\n              mstore\n                /* \"#utility.yul\":2614:2723   */\n              pop\n              pop\n              jump\t// out\n                /* \"#utility.yul\":2729:2939   */\n            tag_32:\n                /* \"#utility.yul\":2816:2820   */\n              0x00\n                /* \"#utility.yul\":2854:2856   */\n              0x20\n                /* \"#utility.yul\":2843:2852   */\n              dup3\n                /* \"#utility.yul\":2839:2857   */\n              add\n                /* \"#utility.yul\":2831:2857   */\n              swap1\n              pop\n                /* \"#utility.yul\":2867:2932   */\n              tag_249\n                /* \"#utility.yul\":2929:2930   */\n              0x00\n                /* \"#utility.yul\":2918:2927   */\n              dup4\n                /* \"#utility.yul\":2914:2931   */\n              add\n                /* \"#utility.yul\":2905:2911   */\n              dup5\n                /* \"#utility.yul\":2867:2932   */\n              tag_178\n              jump\t// in\n            tag_249:\n                /* \"#utility.yul\":2729:2939   */\n              swap3\n              swap2\n              pop\n              pop\n              jump\t// out\n                /* \"#utility.yul\":2945:3022   */\n            tag_179:\n                /* \"#utility.yul\":2982:2989   */\n              0x00\n                /* \"#utility.yul\":3011:3016   */\n              dup2\n                /* \"#utility.yul\":3000:3016   */\n              swap1\n              pop\n                /* \"#utility.yul\":2945:3022   */\n              swap2\n              swap1\n              pop\n              jump\t// out\n                /* \"#utility.yul\":3028:3146   */\n            tag_180:\n                /* \"#utility.yul\":3115:3139   */\n              tag_252\n                /* \"#utility.yul\":3133:3138   */\n              dup2\n                /* \"#utility.yul\":3115:3139   */\n              tag_179\n              jump\t// in\n            tag_252:\n                /* \"#utility.yul\":3110:3113   */\n              dup3\n                /* \"#utility.yul\":3103:3140   */\n              mstore\n                /* \"#utility.yul\":3028:3146   */\n              pop\n              pop\n              jump\t// out\n                /* \"#utility.yul\":3152:3374   */\n            tag_41:\n                /* \"#utility.yul\":3245:3249   */\n              0x00\n                /* \"#utility.yul\":3283:3285   */\n              0x20\n                /* \"#utility.yul\":3272:3281   */\n              dup3\n                /* \"#utility.yul\":3268:3286   */\n              add\n                /* \"#utility.yul\":3260:3286   */\n              swap1\n              pop\n                /* \"#utility.yul\":3296:3367   */\n              tag_254\n                /* \"#utility.yul\":3364:3365   */\n              0x00\n                /* \"#utility.yul\":3353:3362   */\n              dup4\n                /* \"#utility.yul\":3349:3366   */\n              add\n                /* \"#utility.yul\":3340:3346   */\n              dup5\n                /* \"#utility.yul\":3296:3367   */\n              tag_180\n              jump\t// in\n            tag_254:\n                /* \"#utility.yul\":3152:3374   */\n              swap3\n              swap2\n              pop\n              pop\n              jump\t// out\n                /* \"#utility.yul\":3380:3498   */\n            tag_181:\n                /* \"#utility.yul\":3467:3491   */\n              tag_256\n                /* \"#utility.yul\":3485:3490   */\n              dup2\n                /* \"#utility.yul\":3467:3491   */\n              tag_174\n              jump\t// in\n            tag_256:\n                /* \"#utility.yul\":3462:3465   */\n              dup3\n                /* \"#utility.yul\":3455:3492   */\n              mstore\n                /* \"#utility.yul\":3380:3498   */\n              pop\n              pop\n              jump\t// out\n                /* \"#utility.yul\":3504:4905   */\n            tag_46:\n                /* \"#utility.yul\":3889:3893   */\n              0x00\n                /* \"#utility.yul\":3927:3930   */\n              0x0140\n                /* \"#utility.yul\":3916:3925   */\n              dup3\n                /* \"#utility.yul\":3912:3931   */\n              add\n                /* \"#utility.yul\":3904:3931   */\n              swap1\n              pop\n                /* \"#utility.yul\":3977:3986   */\n              dup2\n                /* \"#utility.yul\":3971:3975   */\n              dup2\n                /* \"#utility.yul\":3967:3987   */\n              sub\n                /* \"#utility.yul\":3963:3964   */\n              0x00\n                /* \"#utility.yul\":3952:3961   */\n              dup4\n                /* \"#utility.yul\":3948:3965   */\n              add\n                /* \"#utility.yul\":3941:3988   */\n              mstore\n                /* \"#utility.yul\":4005:4083   */\n              tag_258\n                /* \"#utility.yul\":4078:4082   */\n              dup2\n                /* \"#utility.yul\":4069:4075   */\n              dup14\n                /* \"#utility.yul\":4005:4083   */\n              tag_169\n              jump\t// in\n            tag_258:\n                /* \"#utility.yul\":3997:4083   */\n              swap1\n              pop\n                /* \"#utility.yul\":4130:4139   */\n              dup2\n                /* \"#utility.yul\":4124:4128   */\n              dup2\n                /* \"#utility.yul\":4120:4140   */\n              sub\n                /* \"#utility.yul\":4115:4117   */\n              0x20\n                /* \"#utility.yul\":4104:4113   */\n              dup4\n                /* \"#utility.yul\":4100:4118   */\n              add\n                /* \"#utility.yul\":4093:4141   */\n              mstore\n                /* \"#utility.yul\":4158:4236   */\n              tag_259\n                /* \"#utility.yul\":4231:4235   */\n              dup2\n                /* \"#utility.yul\":4222:4228   */\n              dup13\n                /* \"#utility.yul\":4158:4236   */\n              tag_169\n              jump\t// in\n            tag_259:\n                /* \"#utility.yul\":4150:4236   */\n              swap1\n              pop\n                /* \"#utility.yul\":4246:4318   */\n              tag_260\n                /* \"#utility.yul\":4314:4316   */\n              0x40\n                /* \"#utility.yul\":4303:4312   */\n              dup4\n                /* \"#utility.yul\":4299:4317   */\n              add\n                /* \"#utility.yul\":4290:4296   */\n              dup12\n                /* \"#utility.yul\":4246:4318   */\n              tag_180\n              jump\t// in\n            tag_260:\n                /* \"#utility.yul\":4328:4400   */\n              tag_261\n                /* \"#utility.yul\":4396:4398   */\n              0x60\n                /* \"#utility.yul\":4385:4394   */\n              dup4\n                /* \"#utility.yul\":4381:4399   */\n              add\n                /* \"#utility.yul\":4372:4378   */\n              dup11\n                /* \"#utility.yul\":4328:4400   */\n              tag_180\n              jump\t// in\n            tag_261:\n                /* \"#utility.yul\":4410:4483   */\n              tag_262\n                /* \"#utility.yul\":4478:4481   */\n              0x80\n                /* \"#utility.yul\":4467:4476   */\n              dup4\n                /* \"#utility.yul\":4463:4482   */\n              add\n                /* \"#utility.yul\":4454:4460   */\n              dup10\n                /* \"#utility.yul\":4410:4483   */\n              tag_180\n              jump\t// in\n            tag_262:\n                /* \"#utility.yul\":4493:4566   */\n              tag_263\n                /* \"#utility.yul\":4561:4564   */\n              0xa0\n                /* \"#utility.yul\":4550:4559   */\n              dup4\n                /* \"#utility.yul\":4546:4565   */\n              add\n                /* \"#utility.yul\":4537:4543   */\n              dup9\n                /* \"#utility.yul\":4493:4566   */\n              tag_180\n              jump\t// in\n            tag_263:\n                /* \"#utility.yul\":4576:4649   */\n              tag_264\n                /* \"#utility.yul\":4644:4647   */\n              0xc0\n                /* \"#utility.yul\":4633:4642   */\n              dup4\n                /* \"#utility.yul\":4629:4648   */\n              add\n                /* \"#utility.yul\":4620:4626   */\n              dup8\n                /* \"#utility.yul\":4576:4649   */\n              tag_180\n              jump\t// in\n            tag_264:\n                /* \"#utility.yul\":4659:4732   */\n              tag_265\n                /* \"#utility.yul\":4727:4730   */\n              0xe0\n                /* \"#utility.yul\":4716:4725   */\n              dup4\n                /* \"#utility.yul\":4712:4731   */\n              add\n                /* \"#utility.yul\":4703:4709   */\n              dup7\n                /* \"#utility.yul\":4659:4732   */\n              tag_180\n              jump\t// in\n            tag_265:\n                /* \"#utility.yul\":4742:4815   */\n              tag_266\n                /* \"#utility.yul\":4810:4813   */\n              0x0100\n                /* \"#utility.yul\":4799:4808   */\n              dup4\n                /* \"#utility.yul\":4795:4814   */\n              add\n                /* \"#utility.yul\":4786:4792   */\n              dup6\n                /* \"#utility.yul\":4742:4815   */\n              tag_180\n              jump\t// in\n            tag_266:\n                /* \"#utility.yul\":4825:4898   */\n              tag_267\n                /* \"#utility.yul\":4893:4896   */\n              0x0120\n                /* \"#utility.yul\":4882:4891   */\n              dup4\n                /* \"#utility.yul\":4878:4897   */\n              add\n                /* \"#utility.yul\":4869:4875   */\n              dup5\n                /* \"#utility.yul\":4825:4898   */\n              tag_181\n              jump\t// in\n            tag_267:\n                /* \"#utility.yul\":3504:4905   */\n              swap12\n              swap11\n              pop\n              pop\n              pop\n              pop\n              pop\n              pop\n              pop\n              pop\n              pop\n              pop\n              pop\n              jump\t// out\n                /* \"#utility.yul\":4911:5133   */\n            tag_51:\n                /* \"#utility.yul\":5004:5008   */\n              0x00\n                /* \"#utility.yul\":5042:5044   */\n              0x20\n                /* \"#utility.yul\":5031:5040   */\n              dup3\n                /* \"#utility.yul\":5027:5045   */\n              add\n                /* \"#utility.yul\":5019:5045   */\n              swap1\n              pop\n                /* \"#utility.yul\":5055:5126   */\n              tag_269\n                /* \"#utility.yul\":5123:5124   */\n              0x00\n                /* \"#utility.yul\":5112:5121   */\n              dup4\n                /* \"#utility.yul\":5108:5125   */\n              add\n                /* \"#utility.yul\":5099:5105   */\n              dup5\n                /* \"#utility.yul\":5055:5126   */\n              tag_181\n              jump\t// in\n            tag_269:\n                /* \"#utility.yul\":4911:5133   */\n              swap3\n              swap2\n              pop\n              pop\n              jump\t// out\n                /* \"#utility.yul\":5139:5261   */\n            tag_182:\n                /* \"#utility.yul\":5212:5236   */\n              tag_271\n                /* \"#utility.yul\":5230:5235   */\n              dup2\n                /* \"#utility.yul\":5212:5236   */\n              tag_179\n              jump\t// in\n            tag_271:\n                /* \"#utility.yul\":5205:5210   */\n              dup2\n                /* \"#utility.yul\":5202:5237   */\n              eq\n                /* \"#utility.yul\":5192:5255   */\n              tag_272\n              jumpi\n                /* \"#utility.yul\":5251:5252   */\n              0x00\n                /* \"#utility.yul\":5248:5249   */\n              dup1\n                /* \"#utility.yul\":5241:5253   */\n              revert\n                /* \"#utility.yul\":5192:5255   */\n            tag_272:\n                /* \"#utility.yul\":5139:5261   */\n              pop\n              jump\t// out\n                /* \"#utility.yul\":5267:5406   */\n            tag_183:\n                /* \"#utility.yul\":5313:5318   */\n              0x00\n                /* \"#utility.yul\":5351:5357   */\n              dup2\n                /* \"#utility.yul\":5338:5358   */\n              calldataload\n                /* \"#utility.yul\":5329:5358   */\n              swap1\n              pop\n                /* \"#utility.yul\":5367:5400   */\n              tag_274\n                /* \"#utility.yul\":5394:5399   */\n              dup2\n                /* \"#utility.yul\":5367:5400   */\n              tag_182\n              jump\t// in\n            tag_274:\n                /* \"#utility.yul\":5267:5406   */\n              swap3\n              swap2\n              pop\n              pop\n              jump\t// out\n                /* \"#utility.yul\":5412:5741   */\n            tag_59:\n                /* \"#utility.yul\":5471:5477   */\n              0x00\n                /* \"#utility.yul\":5520:5522   */\n              0x20\n                /* \"#utility.yul\":5508:5517   */\n              dup3\n                /* \"#utility.yul\":5499:5506   */\n              dup5\n                /* \"#utility.yul\":5495:5518   */\n              sub\n                /* \"#utility.yul\":5491:5523   */\n              slt\n                /* \"#utility.yul\":5488:5607   */\n              iszero\n              tag_276\n              jumpi\n                /* \"#utility.yul\":5526:5605   */\n              tag_277\n              tag_171\n              jump\t// in\n            tag_277:\n                /* \"#utility.yul\":5488:5607   */\n            tag_276:\n                /* \"#utility.yul\":5646:5647   */\n              0x00\n                /* \"#utility.yul\":5671:5724   */\n              tag_278\n                /* \"#utility.yul\":5716:5723   */\n              dup5\n                /* \"#utility.yul\":5707:5713   */\n              dup3\n                /* \"#utility.yul\":5696:5705   */\n              dup6\n                /* \"#utility.yul\":5692:5714   */\n              add\n                /* \"#utility.yul\":5671:5724   */\n              tag_183\n              jump\t// in\n            tag_278:\n                /* \"#utility.yul\":5661:5724   */\n              swap2\n              pop\n                /* \"#utility.yul\":5617:5734   */\n              pop\n                /* \"#utility.yul\":5412:5741   */\n              swap3\n              swap2\n              pop\n              pop\n              jump\t// out\n                /* \"#utility.yul\":5747:5851   */\n            tag_184:\n                /* \"#utility.yul\":5792:5799   */\n              0x00\n                /* \"#utility.yul\":5821:5845   */\n              tag_280\n                /* \"#utility.yul\":5839:5844   */\n              dup3\n                /* \"#utility.yul\":5821:5845   */\n              tag_173\n              jump\t// in\n            tag_280:\n                /* \"#utility.yul\":5810:5845   */\n              swap1\n              pop\n                /* \"#utility.yul\":5747:5851   */\n              swap2\n              swap1\n              pop\n              jump\t// out\n                /* \"#utility.yul\":5857:5999   */\n            tag_185:\n                /* \"#utility.yul\":5960:5992   */\n              tag_282\n                /* \"#utility.yul\":5986:5991   */\n              dup2\n                /* \"#utility.yul\":5960:5992   */\n              tag_184\n              jump\t// in\n            tag_282:\n                /* \"#utility.yul\":5955:5958   */\n              dup3\n                /* \"#utility.yul\":5948:5993   */\n              mstore\n                /* \"#utility.yul\":5857:5999   */\n              pop\n              pop\n              jump\t// out\n                /* \"#utility.yul\":6005:6982   */\n            tag_62:\n                /* \"#utility.yul\":6288:6292   */\n              0x00\n                /* \"#utility.yul\":6326:6329   */\n              0xc0\n                /* \"#utility.yul\":6315:6324   */\n              dup3\n                /* \"#utility.yul\":6311:6330   */\n              add\n                /* \"#utility.yul\":6303:6330   */\n              swap1\n              pop\n                /* \"#utility.yul\":6376:6385   */\n              dup2\n                /* \"#utility.yul\":6370:6374   */\n              dup2\n                /* \"#utility.yul\":6366:6386   */\n              sub\n                /* \"#utility.yul\":6362:6363   */\n              0x00\n                /* \"#utility.yul\":6351:6360   */\n              dup4\n                /* \"#utility.yul\":6347:6364   */\n              add\n                /* \"#utility.yul\":6340:6387   */\n              mstore\n                /* \"#utility.yul\":6404:6482   */\n              tag_284\n                /* \"#utility.yul\":6477:6481   */\n              dup2\n                /* \"#utility.yul\":6468:6474   */\n              dup10\n                /* \"#utility.yul\":6404:6482   */\n              tag_169\n              jump\t// in\n            tag_284:\n                /* \"#utility.yul\":6396:6482   */\n              swap1\n              pop\n                /* \"#utility.yul\":6529:6538   */\n              dup2\n                /* \"#utility.yul\":6523:6527   */\n              dup2\n                /* \"#utility.yul\":6519:6539   */\n              sub\n                /* \"#utility.yul\":6514:6516   */\n              0x20\n                /* \"#utility.yul\":6503:6512   */\n              dup4\n                /* \"#utility.yul\":6499:6517   */\n              add\n                /* \"#utility.yul\":6492:6540   */\n              mstore\n                /* \"#utility.yul\":6557:6635   */\n              tag_285\n                /* \"#utility.yul\":6630:6634   */\n              dup2\n                /* \"#utility.yul\":6621:6627   */\n              dup9\n                /* \"#utility.yul\":6557:6635   */\n              tag_169\n              jump\t// in\n            tag_285:\n                /* \"#utility.yul\":6549:6635   */\n              swap1\n              pop\n                /* \"#utility.yul\":6645:6717   */\n              tag_286\n                /* \"#utility.yul\":6713:6715   */\n              0x40\n                /* \"#utility.yul\":6702:6711   */\n              dup4\n                /* \"#utility.yul\":6698:6716   */\n              add\n                /* \"#utility.yul\":6689:6695   */\n              dup8\n                /* \"#utility.yul\":6645:6717   */\n              tag_180\n              jump\t// in\n            tag_286:\n                /* \"#utility.yul\":6727:6815   */\n              tag_287\n                /* \"#utility.yul\":6811:6813   */\n              0x60\n                /* \"#utility.yul\":6800:6809   */\n              dup4\n                /* \"#utility.yul\":6796:6814   */\n              add\n                /* \"#utility.yul\":6787:6793   */\n              dup7\n                /* \"#utility.yul\":6727:6815   */\n              tag_185\n              jump\t// in\n            tag_287:\n                /* \"#utility.yul\":6825:6892   */\n              tag_288\n                /* \"#utility.yul\":6887:6890   */\n              0x80\n                /* \"#utility.yul\":6876:6885   */\n              dup4\n                /* \"#utility.yul\":6872:6891   */\n              add\n                /* \"#utility.yul\":6863:6869   */\n              dup6\n                /* \"#utility.yul\":6825:6892   */\n              tag_178\n              jump\t// in\n            tag_288:\n                /* \"#utility.yul\":6902:6975   */\n              tag_289\n                /* \"#utility.yul\":6970:6973   */\n              0xa0\n                /* \"#utility.yul\":6959:6968   */\n              dup4\n                /* \"#utility.yul\":6955:6974   */\n              add\n                /* \"#utility.yul\":6946:6952   */\n              dup5\n                /* \"#utility.yul\":6902:6975   */\n              tag_180\n              jump\t// in\n            tag_289:\n                /* \"#utility.yul\":6005:6982   */\n              swap8\n              swap7\n              pop\n              pop\n              pop\n              pop\n              pop\n              pop\n              pop\n              jump\t// out\n                /* \"#utility.yul\":6988:7105   */\n            tag_186:\n                /* \"#utility.yul\":7097:7098   */\n              0x00\n                /* \"#utility.yul\":7094:7095   */\n              dup1\n                /* \"#utility.yul\":7087:7099   */\n              revert\n                /* \"#utility.yul\":7111:7228   */\n            tag_187:\n                /* \"#utility.yul\":7220:7221   */\n              0x00\n                /* \"#utility.yul\":7217:7218   */\n              dup1\n                /* \"#utility.yul\":7210:7222   */\n              revert\n                /* \"#utility.yul\":7234:7414   */\n            tag_188:\n                /* \"#utility.yul\":7282:7359   */\n              0x4e487b7100000000000000000000000000000000000000000000000000000000\n                /* \"#utility.yul\":7279:7280   */\n              0x00\n                /* \"#utility.yul\":7272:7360   */\n              mstore\n                /* \"#utility.yul\":7379:7383   */\n              0x41\n                /* \"#utility.yul\":7376:7377   */\n              0x04\n                /* \"#utility.yul\":7369:7384   */\n              mstore\n                /* \"#utility.yul\":7403:7407   */\n              0x24\n                /* \"#utility.yul\":7400:7401   */\n              0x00\n                /* \"#utility.yul\":7393:7408   */\n              revert\n                /* \"#utility.yul\":7420:7701   */\n            tag_189:\n                /* \"#utility.yul\":7503:7530   */\n              tag_294\n                /* \"#utility.yul\":7525:7529   */\n              dup3\n                /* \"#utility.yul\":7503:7530   */\n              tag_168\n              jump\t// in\n            tag_294:\n                /* \"#utility.yul\":7495:7501   */\n              dup2\n                /* \"#utility.yul\":7491:7531   */\n              add\n                /* \"#utility.yul\":7633:7639   */\n              dup2\n                /* \"#utility.yul\":7621:7631   */\n              dup2\n                /* \"#utility.yul\":7618:7640   */\n              lt\n                /* \"#utility.yul\":7597:7615   */\n              0xffffffffffffffff\n                /* \"#utility.yul\":7585:7595   */\n              dup3\n                /* \"#utility.yul\":7582:7616   */\n              gt\n                /* \"#utility.yul\":7579:7641   */\n              or\n                /* \"#utility.yul\":7576:7664   */\n              iszero\n              tag_295\n              jumpi\n                /* \"#utility.yul\":7644:7662   */\n              tag_296\n              tag_188\n              jump\t// in\n            tag_296:\n                /* \"#utility.yul\":7576:7664   */\n            tag_295:\n                /* \"#utility.yul\":7684:7694   */\n              dup1\n                /* \"#utility.yul\":7680:7682   */\n              0x40\n                /* \"#utility.yul\":7673:7695   */\n              mstore\n                /* \"#utility.yul\":7463:7701   */\n              pop\n                /* \"#utility.yul\":7420:7701   */\n              pop\n              pop\n              jump\t// out\n                /* \"#utility.yul\":7707:7836   */\n            tag_190:\n                /* \"#utility.yul\":7741:7747   */\n              0x00\n                /* \"#utility.yul\":7768:7788   */\n              tag_298\n              tag_170\n              jump\t// in\n            tag_298:\n                /* \"#utility.yul\":7758:7788   */\n              swap1\n              pop\n                /* \"#utility.yul\":7797:7830   */\n              tag_299\n                /* \"#utility.yul\":7825:7829   */\n              dup3\n                /* \"#utility.yul\":7817:7823   */\n              dup3\n                /* \"#utility.yul\":7797:7830   */\n              tag_189\n              jump\t// in\n            tag_299:\n                /* \"#utility.yul\":7707:7836   */\n              swap2\n              swap1\n              pop\n              jump\t// out\n                /* \"#utility.yul\":7842:8150   */\n            tag_191:\n                /* \"#utility.yul\":7904:7908   */\n              0x00\n                /* \"#utility.yul\":7994:8012   */\n              0xffffffffffffffff\n                /* \"#utility.yul\":7986:7992   */\n              dup3\n                /* \"#utility.yul\":7983:8013   */\n              gt\n                /* \"#utility.yul\":7980:8036   */\n              iszero\n              tag_301\n              jumpi\n                /* \"#utility.yul\":8016:8034   */\n              tag_302\n              tag_188\n              jump\t// in\n            tag_302:\n                /* \"#utility.yul\":7980:8036   */\n            tag_301:\n                /* \"#utility.yul\":8054:8083   */\n              tag_303\n                /* \"#utility.yul\":8076:8082   */\n              dup3\n                /* \"#utility.yul\":8054:8083   */\n              tag_168\n              jump\t// in\n            tag_303:\n                /* \"#utility.yul\":8046:8083   */\n              swap1\n              pop\n                /* \"#utility.yul\":8138:8142   */\n              0x20\n                /* \"#utility.yul\":8132:8136   */\n              dup2\n                /* \"#utility.yul\":8128:8143   */\n              add\n                /* \"#utility.yul\":8120:8143   */\n              swap1\n              pop\n                /* \"#utility.yul\":7842:8150   */\n              swap2\n              swap1\n              pop\n              jump\t// out\n                /* \"#utility.yul\":8156:8302   */\n            tag_192:\n                /* \"#utility.yul\":8253:8259   */\n              dup3\n                /* \"#utility.yul\":8248:8251   */\n              dup2\n                /* \"#utility.yul\":8243:8246   */\n              dup4\n                /* \"#utility.yul\":8230:8260   */\n              calldatacopy\n                /* \"#utility.yul\":8294:8295   */\n              0x00\n                /* \"#utility.yul\":8285:8291   */\n              dup4\n                /* \"#utility.yul\":8280:8283   */\n              dup4\n                /* \"#utility.yul\":8276:8292   */\n              add\n                /* \"#utility.yul\":8269:8296   */\n              mstore\n                /* \"#utility.yul\":8156:8302   */\n              pop\n              pop\n              pop\n              jump\t// out\n                /* \"#utility.yul\":8308:8733   */\n            tag_193:\n                /* \"#utility.yul\":8386:8391   */\n              0x00\n                /* \"#utility.yul\":8411:8477   */\n              tag_306\n                /* \"#utility.yul\":8427:8476   */\n              tag_307\n                /* \"#utility.yul\":8469:8475   */\n              dup5\n                /* \"#utility.yul\":8427:8476   */\n              tag_191\n              jump\t// in\n            tag_307:\n                /* \"#utility.yul\":8411:8477   */\n              tag_190\n              jump\t// in\n            tag_306:\n                /* \"#utility.yul\":8402:8477   */\n              swap1\n              pop\n                /* \"#utility.yul\":8500:8506   */\n              dup3\n                /* \"#utility.yul\":8493:8498   */\n              dup2\n                /* \"#utility.yul\":8486:8507   */\n              mstore\n                /* \"#utility.yul\":8538:8542   */\n              0x20\n                /* \"#utility.yul\":8531:8536   */\n              dup2\n                /* \"#utility.yul\":8527:8543   */\n              add\n                /* \"#utility.yul\":8576:8579   */\n              dup5\n                /* \"#utility.yul\":8567:8573   */\n              dup5\n                /* \"#utility.yul\":8562:8565   */\n              dup5\n                /* \"#utility.yul\":8558:8574   */\n              add\n                /* \"#utility.yul\":8555:8580   */\n              gt\n                /* \"#utility.yul\":8552:8664   */\n              iszero\n              tag_308\n              jumpi\n                /* \"#utility.yul\":8583:8662   */\n              tag_309\n              tag_187\n              jump\t// in\n            tag_309:\n                /* \"#utility.yul\":8552:8664   */\n            tag_308:\n                /* \"#utility.yul\":8673:8727   */\n              tag_310\n                /* \"#utility.yul\":8720:8726   */\n              dup5\n                /* \"#utility.yul\":8715:8718   */\n              dup3\n                /* \"#utility.yul\":8710:8713   */\n              dup6\n                /* \"#utility.yul\":8673:8727   */\n              tag_192\n              jump\t// in\n            tag_310:\n                /* \"#utility.yul\":8392:8733   */\n              pop\n                /* \"#utility.yul\":8308:8733   */\n              swap4\n              swap3\n              pop\n              pop\n              pop\n              jump\t// out\n                /* \"#utility.yul\":8753:9093   */\n            tag_194:\n                /* \"#utility.yul\":8809:8814   */\n              0x00\n                /* \"#utility.yul\":8858:8861   */\n              dup3\n                /* \"#utility.yul\":8851:8855   */\n              0x1f\n                /* \"#utility.yul\":8843:8849   */\n              dup4\n                /* \"#utility.yul\":8839:8856   */\n              add\n                /* \"#utility.yul\":8835:8862   */\n              slt\n                /* \"#utility.yul\":8825:8947   */\n              tag_312\n              jumpi\n                /* \"#utility.yul\":8866:8945   */\n              tag_313\n              tag_186\n              jump\t// in\n            tag_313:\n                /* \"#utility.yul\":8825:8947   */\n            tag_312:\n                /* \"#utility.yul\":8983:8989   */\n              dup2\n                /* \"#utility.yul\":8970:8990   */\n              calldataload\n                /* \"#utility.yul\":9008:9087   */\n              tag_314\n                /* \"#utility.yul\":9083:9086   */\n              dup5\n                /* \"#utility.yul\":9075:9081   */\n              dup3\n                /* \"#utility.yul\":9068:9072   */\n              0x20\n                /* \"#utility.yul\":9060:9066   */\n              dup7\n                /* \"#utility.yul\":9056:9073   */\n              add\n                /* \"#utility.yul\":9008:9087   */\n              tag_193\n              jump\t// in\n            tag_314:\n                /* \"#utility.yul\":8999:9087   */\n              swap2\n              pop\n                /* \"#utility.yul\":8815:9093   */\n              pop\n                /* \"#utility.yul\":8753:9093   */\n              swap3\n              swap2\n              pop\n              pop\n              jump\t// out\n                /* \"#utility.yul\":9099:9237   */\n            tag_195:\n                /* \"#utility.yul\":9180:9212   */\n              tag_316\n                /* \"#utility.yul\":9206:9211   */\n              dup2\n                /* \"#utility.yul\":9180:9212   */\n              tag_184\n              jump\t// in\n            tag_316:\n                /* \"#utility.yul\":9173:9178   */\n              dup2\n                /* \"#utility.yul\":9170:9213   */\n              eq\n                /* \"#utility.yul\":9160:9231   */\n              tag_317\n              jumpi\n                /* \"#utility.yul\":9227:9228   */\n              0x00\n                /* \"#utility.yul\":9224:9225   */\n              dup1\n                /* \"#utility.yul\":9217:9229   */\n              revert\n                /* \"#utility.yul\":9160:9231   */\n            tag_317:\n                /* \"#utility.yul\":9099:9237   */\n              pop\n              jump\t// out\n                /* \"#utility.yul\":9243:9398   */\n            tag_196:\n                /* \"#utility.yul\":9297:9302   */\n              0x00\n                /* \"#utility.yul\":9335:9341   */\n              dup2\n                /* \"#utility.yul\":9322:9342   */\n              calldataload\n                /* \"#utility.yul\":9313:9342   */\n              swap1\n              pop\n                /* \"#utility.yul\":9351:9392   */\n              tag_319\n                /* \"#utility.yul\":9386:9391   */\n              dup2\n                /* \"#utility.yul\":9351:9392   */\n              tag_195\n              jump\t// in\n            tag_319:\n                /* \"#utility.yul\":9243:9398   */\n              swap3\n              swap2\n              pop\n              pop\n              jump\t// out\n                /* \"#utility.yul\":9404:10545   */\n            tag_78:\n                /* \"#utility.yul\":9518:9524   */\n              0x00\n                /* \"#utility.yul\":9526:9532   */\n              dup1\n                /* \"#utility.yul\":9534:9540   */\n              0x00\n                /* \"#utility.yul\":9542:9548   */\n              dup1\n                /* \"#utility.yul\":9591:9594   */\n              0x80\n                /* \"#utility.yul\":9579:9588   */\n              dup6\n                /* \"#utility.yul\":9570:9577   */\n              dup8\n                /* \"#utility.yul\":9566:9589   */\n              sub\n                /* \"#utility.yul\":9562:9595   */\n              slt\n                /* \"#utility.yul\":9559:9679   */\n              iszero\n              tag_321\n              jumpi\n                /* \"#utility.yul\":9598:9677   */\n              tag_322\n              tag_171\n              jump\t// in\n            tag_322:\n                /* \"#utility.yul\":9559:9679   */\n            tag_321:\n                /* \"#utility.yul\":9746:9747   */\n              0x00\n                /* \"#utility.yul\":9735:9744   */\n              dup6\n                /* \"#utility.yul\":9731:9748   */\n              add\n                /* \"#utility.yul\":9718:9749   */\n              calldataload\n                /* \"#utility.yul\":9776:9794   */\n              0xffffffffffffffff\n                /* \"#utility.yul\":9768:9774   */\n              dup2\n                /* \"#utility.yul\":9765:9795   */\n              gt\n                /* \"#utility.yul\":9762:9879   */\n              iszero\n              tag_323\n              jumpi\n                /* \"#utility.yul\":9798:9877   */\n              tag_324\n              tag_172\n              jump\t// in\n            tag_324:\n                /* \"#utility.yul\":9762:9879   */\n            tag_323:\n                /* \"#utility.yul\":9903:9966   */\n              tag_325\n                /* \"#utility.yul\":9958:9965   */\n              dup8\n                /* \"#utility.yul\":9949:9955   */\n              dup3\n                /* \"#utility.yul\":9938:9947   */\n              dup9\n                /* \"#utility.yul\":9934:9956   */\n              add\n                /* \"#utility.yul\":9903:9966   */\n              tag_194\n              jump\t// in\n            tag_325:\n                /* \"#utility.yul\":9893:9966   */\n              swap5\n              pop\n                /* \"#utility.yul\":9689:9976   */\n              pop\n                /* \"#utility.yul\":10043:10045   */\n              0x20\n                /* \"#utility.yul\":10032:10041   */\n              dup6\n                /* \"#utility.yul\":10028:10046   */\n              add\n                /* \"#utility.yul\":10015:10047   */\n              calldataload\n                /* \"#utility.yul\":10074:10092   */\n              0xffffffffffffffff\n                /* \"#utility.yul\":10066:10072   */\n              dup2\n                /* \"#utility.yul\":10063:10093   */\n              gt\n                /* \"#utility.yul\":10060:10177   */\n              iszero\n              tag_326\n              jumpi\n                /* \"#utility.yul\":10096:10175   */\n              tag_327\n              tag_172\n              jump\t// in\n            tag_327:\n                /* \"#utility.yul\":10060:10177   */\n            tag_326:\n                /* \"#utility.yul\":10201:10264   */\n              tag_328\n                /* \"#utility.yul\":10256:10263   */\n              dup8\n                /* \"#utility.yul\":10247:10253   */\n              dup3\n                /* \"#utility.yul\":10236:10245   */\n              dup9\n                /* \"#utility.yul\":10232:10254   */\n              add\n                /* \"#utility.yul\":10201:10264   */\n              tag_194\n              jump\t// in\n            tag_328:\n                /* \"#utility.yul\":10191:10264   */\n              swap4\n              pop\n                /* \"#utility.yul\":9986:10274   */\n              pop\n                /* \"#utility.yul\":10313:10315   */\n              0x40\n                /* \"#utility.yul\":10339:10392   */\n              tag_329\n                /* \"#utility.yul\":10384:10391   */\n              dup8\n                /* \"#utility.yul\":10375:10381   */\n              dup3\n                /* \"#utility.yul\":10364:10373   */\n              dup9\n                /* \"#utility.yul\":10360:10382   */\n              add\n                /* \"#utility.yul\":10339:10392   */\n              tag_183\n              jump\t// in\n            tag_329:\n                /* \"#utility.yul\":10329:10392   */\n              swap3\n              pop\n                /* \"#utility.yul\":10284:10402   */\n              pop\n                /* \"#utility.yul\":10441:10443   */\n              0x60\n                /* \"#utility.yul\":10467:10528   */\n              tag_330\n                /* \"#utility.yul\":10520:10527   */\n              dup8\n                /* \"#utility.yul\":10511:10517   */\n              dup3\n                /* \"#utility.yul\":10500:10509   */\n              dup9\n                /* \"#utility.yul\":10496:10518   */\n              add\n                /* \"#utility.yul\":10467:10528   */\n              tag_196\n              jump\t// in\n            tag_330:\n                /* \"#utility.yul\":10457:10528   */\n              swap2\n              pop\n                /* \"#utility.yul\":10412:10538   */\n              pop\n                /* \"#utility.yul\":9404:10545   */\n              swap3\n              swap6\n              swap2\n              swap5\n              pop\n              swap3\n              pop\n              jump\t// out\n                /* \"#utility.yul\":10551:10731   */\n            tag_197:\n                /* \"#utility.yul\":10599:10676   */\n              0x4e487b7100000000000000000000000000000000000000000000000000000000\n                /* \"#utility.yul\":10596:10597   */\n              0x00\n                /* \"#utility.yul\":10589:10677   */\n              mstore\n                /* \"#utility.yul\":10696:10700   */\n              0x22\n                /* \"#utility.yul\":10693:10694   */\n              0x04\n                /* \"#utility.yul\":10686:10701   */\n              mstore\n                /* \"#utility.yul\":10720:10724   */\n              0x24\n                /* \"#utility.yul\":10717:10718   */\n              0x00\n                /* \"#utility.yul\":10710:10725   */\n              revert\n                /* \"#utility.yul\":10737:11057   */\n            tag_95:\n                /* \"#utility.yul\":10781:10787   */\n              0x00\n                /* \"#utility.yul\":10818:10819   */\n              0x02\n                /* \"#utility.yul\":10812:10816   */\n              dup3\n                /* \"#utility.yul\":10808:10820   */\n              div\n                /* \"#utility.yul\":10798:10820   */\n              swap1\n              pop\n                /* \"#utility.yul\":10865:10866   */\n              0x01\n                /* \"#utility.yul\":10859:10863   */\n              dup3\n                /* \"#utility.yul\":10855:10867   */\n              and\n                /* \"#utility.yul\":10886:10904   */\n              dup1\n                /* \"#utility.yul\":10876:10957   */\n              tag_333\n              jumpi\n                /* \"#utility.yul\":10942:10946   */\n              0x7f\n                /* \"#utility.yul\":10934:10940   */\n              dup3\n                /* \"#utility.yul\":10930:10947   */\n              and\n                /* \"#utility.yul\":10920:10947   */\n              swap2\n              pop\n                /* \"#utility.yul\":10876:10957   */\n            tag_333:\n                /* \"#utility.yul\":11004:11006   */\n              0x20\n                /* \"#utility.yul\":10996:11002   */\n              dup3\n                /* \"#utility.yul\":10993:11007   */\n              lt\n                /* \"#utility.yul\":10973:10991   */\n              dup2\n                /* \"#utility.yul\":10970:11008   */\n              sub\n                /* \"#utility.yul\":10967:11051   */\n              tag_334\n              jumpi\n                /* \"#utility.yul\":11023:11041   */\n              tag_335\n              tag_197\n              jump\t// in\n            tag_335:\n                /* \"#utility.yul\":10967:11051   */\n            tag_334:\n                /* \"#utility.yul\":10788:11057   */\n              pop\n                /* \"#utility.yul\":10737:11057   */\n              swap2\n              swap1\n              pop\n              jump\t// out\n                /* \"#utility.yul\":11063:11204   */\n            tag_198:\n                /* \"#utility.yul\":11112:11116   */\n              0x00\n                /* \"#utility.yul\":11135:11138   */\n              dup2\n                /* \"#utility.yul\":11127:11138   */\n              swap1\n              pop\n                /* \"#utility.yul\":11158:11161   */\n              dup2\n                /* \"#utility.yul\":11155:11156   */\n              0x00\n                /* \"#utility.yul\":11148:11162   */\n              mstore\n                /* \"#utility.yul\":11192:11196   */\n              0x20\n                /* \"#utility.yul\":11189:11190   */\n              0x00\n                /* \"#utility.yul\":11179:11197   */\n              keccak256\n                /* \"#utility.yul\":11171:11197   */\n              swap1\n              pop\n                /* \"#utility.yul\":11063:11204   */\n              swap2\n              swap1\n              pop\n              jump\t// out\n                /* \"#utility.yul\":11210:11303   */\n            tag_199:\n                /* \"#utility.yul\":11247:11253   */\n              0x00\n                /* \"#utility.yul\":11294:11296   */\n              0x20\n                /* \"#utility.yul\":11289:11291   */\n              0x1f\n                /* \"#utility.yul\":11282:11287   */\n              dup4\n                /* \"#utility.yul\":11278:11292   */\n              add\n                /* \"#utility.yul\":11274:11297   */\n              div\n                /* \"#utility.yul\":11264:11297   */\n              swap1\n              pop\n                /* \"#utility.yul\":11210:11303   */\n              swap2\n              swap1\n              pop\n              jump\t// out\n                /* \"#utility.yul\":11309:11416   */\n            tag_200:\n                /* \"#utility.yul\":11353:11361   */\n              0x00\n                /* \"#utility.yul\":11403:11408   */\n              dup3\n                /* \"#utility.yul\":11397:11401   */\n              dup3\n                /* \"#utility.yul\":11393:11409   */\n              shl\n                /* \"#utility.yul\":11372:11409   */\n              swap1\n              pop\n                /* \"#utility.yul\":11309:11416   */\n              swap3\n              swap2\n              pop\n              pop\n              jump\t// out\n                /* \"#utility.yul\":11422:11815   */\n            tag_201:\n                /* \"#utility.yul\":11491:11497   */\n              0x00\n                /* \"#utility.yul\":11541:11542   */\n              0x08\n                /* \"#utility.yul\":11529:11539   */\n              dup4\n                /* \"#utility.yul\":11525:11543   */\n              mul\n                /* \"#utility.yul\":11564:11661   */\n              tag_340\n                /* \"#utility.yul\":11594:11660   */\n              0xffffffffffffffffffffffffffffffffffffffffffffffffffffffffffffffff\n                /* \"#utility.yul\":11583:11592   */\n              dup3\n                /* \"#utility.yul\":11564:11661   */\n              tag_200\n              jump\t// in\n            tag_340:\n                /* \"#utility.yul\":11682:11721   */\n              tag_341\n                /* \"#utility.yul\":11712:11720   */\n              dup7\n                /* \"#utility.yul\":11701:11710   */\n              dup4\n                /* \"#utility.yul\":11682:11721   */\n              tag_200\n              jump\t// in\n            tag_341:\n                /* \"#utility.yul\":11670:11721   */\n              swap6\n              pop\n                /* \"#utility.yul\":11754:11758   */\n              dup1\n                /* \"#utility.yul\":11750:11759   */\n              not\n                /* \"#utility.yul\":11743:11748   */\n              dup5\n                /* \"#utility.yul\":11739:11760   */\n              and\n                /* \"#utility.yul\":11730:11760   */\n              swap4\n              pop\n                /* \"#utility.yul\":11803:11807   */\n              dup1\n                /* \"#utility.yul\":11793:11801   */\n              dup7\n                /* \"#utility.yul\":11789:11808   */\n              and\n                /* \"#utility.yul\":11782:11787   */\n              dup5\n                /* \"#utility.yul\":11779:11809   */\n              or\n                /* \"#utility.yul\":11769:11809   */\n              swap3\n              pop\n                /* \"#utility.yul\":11498:11815   */\n              pop\n              pop\n                /* \"#utility.yul\":11422:11815   */\n              swap4\n              swap3\n              pop\n              pop\n              pop\n              jump\t// out\n                /* \"#utility.yul\":11821:11881   */\n            tag_202:\n                /* \"#utility.yul\":11849:11852   */\n              0x00\n                /* \"#utility.yul\":11870:11875   */\n              dup2\n                /* \"#utility.yul\":11863:11875   */\n              swap1\n              pop\n                /* \"#utility.yul\":11821:11881   */\n              swap2\n              swap1\n              pop\n              jump\t// out\n                /* \"#utility.yul\":11887:12029   */\n            tag_203:\n                /* \"#utility.yul\":11937:11946   */\n              0x00\n                /* \"#utility.yul\":11970:12023   */\n              tag_344\n                /* \"#utility.yul\":11988:12022   */\n              tag_345\n                /* \"#utility.yul\":11997:12021   */\n              tag_346\n                /* \"#utility.yul\":12015:12020   */\n              dup5\n                /* \"#utility.yul\":11997:12021   */\n              tag_179\n              jump\t// in\n            tag_346:\n                /* \"#utility.yul\":11988:12022   */\n              tag_202\n              jump\t// in\n            tag_345:\n                /* \"#utility.yul\":11970:12023   */\n              tag_179\n              jump\t// in\n            tag_344:\n                /* \"#utility.yul\":11957:12023   */\n              swap1\n              pop\n                /* \"#utility.yul\":11887:12029   */\n              swap2\n              swap1\n              pop\n              jump\t// out\n                /* \"#utility.yul\":12035:12110   */\n            tag_204:\n                /* \"#utility.yul\":12078:12081   */\n              0x00\n                /* \"#utility.yul\":12099:12104   */\n              dup2\n                /* \"#utility.yul\":12092:12104   */\n              swap1\n              pop\n                /* \"#utility.yul\":12035:12110   */\n              swap2\n              swap1\n              pop\n              jump\t// out\n                /* \"#utility.yul\":12116:12385   */\n            tag_205:\n                /* \"#utility.yul\":12226:12265   */\n              tag_349\n                /* \"#utility.yul\":12257:12264   */\n              dup4\n                /* \"#utility.yul\":12226:12265   */\n              tag_203\n              jump\t// in\n            tag_349:\n                /* \"#utility.yul\":12287:12378   */\n              tag_350\n                /* \"#utility.yul\":12336:12377   */\n              tag_351\n                /* \"#utility.yul\":12360:12376   */\n              dup3\n                /* \"#utility.yul\":12336:12377   */\n              tag_204\n              jump\t// in\n            tag_351:\n                /* \"#utility.yul\":12328:12334   */\n              dup5\n                /* \"#utility.yul\":12321:12325   */\n              dup5\n                /* \"#utility.yul\":12315:12326   */\n              sload\n                /* \"#utility.yul\":12287:12378   */\n              tag_201\n              jump\t// in\n            tag_350:\n                /* \"#utility.yul\":12281:12285   */\n              dup3\n                /* \"#utility.yul\":12274:12379   */\n              sstore\n                /* \"#utility.yul\":12192:12385   */\n              pop\n                /* \"#utility.yul\":12116:12385   */\n              pop\n              pop\n              pop\n              jump\t// out\n                /* \"#utility.yul\":12391:12464   */\n            tag_206:\n                /* \"#utility.yul\":12436:12439   */\n              0x00\n                /* \"#utility.yul\":12391:12464   */\n              swap1\n              jump\t// out\n                /* \"#utility.yul\":12470:12659   */\n            tag_207:\n                /* \"#utility.yul\":12547:12579   */\n              tag_354\n              tag_206\n              jump\t// in\n            tag_354:\n                /* \"#utility.yul\":12588:12653   */\n              tag_355\n                /* \"#utility.yul\":12646:12652   */\n              dup2\n                /* \"#utility.yul\":12638:12644   */\n              dup5\n                /* \"#utility.yul\":12632:12636   */\n              dup5\n                /* \"#utility.yul\":12588:12653   */\n              tag_205\n              jump\t// in\n            tag_355:\n                /* \"#utility.yul\":12523:12659   */\n              pop\n                /* \"#utility.yul\":12470:12659   */\n              pop\n              pop\n              jump\t// out\n                /* \"#utility.yul\":12665:12851   */\n            tag_208:\n                /* \"#utility.yul\":12725:12845   */\n            tag_357:\n                /* \"#utility.yul\":12742:12745   */\n              dup2\n                /* \"#utility.yul\":12735:12740   */\n              dup2\n                /* \"#utility.yul\":12732:12746   */\n              lt\n                /* \"#utility.yul\":12725:12845   */\n              iszero\n              tag_359\n              jumpi\n                /* \"#utility.yul\":12796:12835   */\n              tag_360\n                /* \"#utility.yul\":12833:12834   */\n              0x00\n                /* \"#utility.yul\":12826:12831   */\n              dup3\n                /* \"#utility.yul\":12796:12835   */\n              tag_207\n              jump\t// in\n            tag_360:\n                /* \"#utility.yul\":12769:12770   */\n              0x01\n                /* \"#utility.yul\":12762:12767   */\n              dup2\n                /* \"#utility.yul\":12758:12771   */\n              add\n                /* \"#utility.yul\":12749:12771   */\n              swap1\n              pop\n                /* \"#utility.yul\":12725:12845   */\n              jump(tag_357)\n            tag_359:\n                /* \"#utility.yul\":12665:12851   */\n              pop\n              pop\n              jump\t// out\n                /* \"#utility.yul\":12857:13400   */\n            tag_209:\n                /* \"#utility.yul\":12958:12960   */\n              0x1f\n                /* \"#utility.yul\":12953:12956   */\n              dup3\n                /* \"#utility.yul\":12950:12961   */\n              gt\n                /* \"#utility.yul\":12947:13393   */\n              iszero\n              tag_362\n              jumpi\n                /* \"#utility.yul\":12992:13030   */\n              tag_363\n                /* \"#utility.yul\":13024:13029   */\n              dup2\n                /* \"#utility.yul\":12992:13030   */\n              tag_198\n              jump\t// in\n            tag_363:\n                /* \"#utility.yul\":13076:13105   */\n              tag_364\n                /* \"#utility.yul\":13094:13104   */\n              dup5\n                /* \"#utility.yul\":13076:13105   */\n              tag_199\n              jump\t// in\n            tag_364:\n                /* \"#utility.yul\":13066:13074   */\n              dup2\n                /* \"#utility.yul\":13062:13106   */\n              add\n                /* \"#utility.yul\":13259:13261   */\n              0x20\n                /* \"#utility.yul\":13247:13257   */\n              dup6\n                /* \"#utility.yul\":13244:13262   */\n              lt\n                /* \"#utility.yul\":13241:13290   */\n              iszero\n              tag_365\n              jumpi\n                /* \"#utility.yul\":13280:13288   */\n              dup2\n                /* \"#utility.yul\":13265:13288   */\n              swap1\n              pop\n                /* \"#utility.yul\":13241:13290   */\n            tag_365:\n                /* \"#utility.yul\":13303:13383   */\n              tag_366\n                /* \"#utility.yul\":13359:13381   */\n              tag_367\n                /* \"#utility.yul\":13377:13380   */\n              dup6\n                /* \"#utility.yul\":13359:13381   */\n              tag_199\n              jump\t// in\n            tag_367:\n                /* \"#utility.yul\":13349:13357   */\n              dup4\n                /* \"#utility.yul\":13345:13382   */\n              add\n                /* \"#utility.yul\":13332:13343   */\n              dup3\n                /* \"#utility.yul\":13303:13383   */\n              tag_208\n              jump\t// in\n            tag_366:\n                /* \"#utility.yul\":12962:13393   */\n              pop\n              pop\n                /* \"#utility.yul\":12947:13393   */\n            tag_362:\n                /* \"#utility.yul\":12857:13400   */\n              pop\n              pop\n              pop\n              jump\t// out\n                /* \"#utility.yul\":13406:13523   */\n            tag_210:\n                /* \"#utility.yul\":13460:13468   */\n              0x00\n                /* \"#utility.yul\":13510:13515   */\n              dup3\n                /* \"#utility.yul\":13504:13508   */\n              dup3\n                /* \"#utility.yul\":13500:13516   */\n              shr\n                /* \"#utility.yul\":13479:13516   */\n              swap1\n              pop\n                /* \"#utility.yul\":13406:13523   */\n              swap3\n              swap2\n              pop\n              pop\n              jump\t// out\n                /* \"#utility.yul\":13529:13698   */\n            tag_211:\n                /* \"#utility.yul\":13573:13579   */\n              0x00\n                /* \"#utility.yul\":13606:13657   */\n              tag_370\n                /* \"#utility.yul\":13654:13655   */\n              0x00\n                /* \"#utility.yul\":13650:13656   */\n              not\n                /* \"#utility.yul\":13642:13647   */\n              dup5\n                /* \"#utility.yul\":13639:13640   */\n              0x08\n                /* \"#utility.yul\":13635:13648   */\n              mul\n                /* \"#utility.yul\":13606:13657   */\n              tag_210\n              jump\t// in\n            tag_370:\n                /* \"#utility.yul\":13602:13658   */\n              not\n                /* \"#utility.yul\":13687:13691   */\n              dup1\n                /* \"#utility.yul\":13681:13685   */\n              dup4\n                /* \"#utility.yul\":13677:13692   */\n              and\n                /* \"#utility.yul\":13667:13692   */\n              swap2\n              pop\n                /* \"#utility.yul\":13580:13698   */\n              pop\n                /* \"#utility.yul\":13529:13698   */\n              swap3\n              swap2\n              pop\n              pop\n              jump\t// out\n                /* \"#utility.yul\":13703:13998   */\n            tag_212:\n                /* \"#utility.yul\":13779:13783   */\n              0x00\n                /* \"#utility.yul\":13925:13954   */\n              tag_372\n                /* \"#utility.yul\":13950:13953   */\n              dup4\n                /* \"#utility.yul\":13944:13948   */\n              dup4\n                /* \"#utility.yul\":13925:13954   */\n              tag_211\n              jump\t// in\n            tag_372:\n                /* \"#utility.yul\":13917:13954   */\n              swap2\n              pop\n                /* \"#utility.yul\":13987:13990   */\n              dup3\n                /* \"#utility.yul\":13984:13985   */\n              0x02\n                /* \"#utility.yul\":13980:13991   */\n              mul\n                /* \"#utility.yul\":13974:13978   */\n              dup3\n                /* \"#utility.yul\":13971:13992   */\n              or\n                /* \"#utility.yul\":13963:13992   */\n              swap1\n              pop\n                /* \"#utility.yul\":13703:13998   */\n              swap3\n              swap2\n              pop\n              pop\n              jump\t// out\n                /* \"#utility.yul\":14003:15398   */\n            tag_135:\n                /* \"#utility.yul\":14120:14157   */\n              tag_374\n                /* \"#utility.yul\":14153:14156   */\n              dup3\n                /* \"#utility.yul\":14120:14157   */\n              tag_165\n              jump\t// in\n            tag_374:\n                /* \"#utility.yul\":14222:14240   */\n              0xffffffffffffffff\n                /* \"#utility.yul\":14214:14220   */\n              dup2\n                /* \"#utility.yul\":14211:14241   */\n              gt\n                /* \"#utility.yul\":14208:14264   */\n              iszero\n              tag_375\n              jumpi\n                /* \"#utility.yul\":14244:14262   */\n              tag_376\n              tag_188\n              jump\t// in\n            tag_376:\n                /* \"#utility.yul\":14208:14264   */\n            tag_375:\n                /* \"#utility.yul\":14288:14326   */\n              tag_377\n                /* \"#utility.yul\":14320:14324   */\n              dup3\n                /* \"#utility.yul\":14314:14325   */\n              sload\n                /* \"#utility.yul\":14288:14326   */\n              tag_95\n              jump\t// in\n            tag_377:\n                /* \"#utility.yul\":14373:14440   */\n              tag_378\n                /* \"#utility.yul\":14433:14439   */\n              dup3\n                /* \"#utility.yul\":14425:14431   */\n              dup3\n                /* \"#utility.yul\":14419:14423   */\n              dup6\n                /* \"#utility.yul\":14373:14440   */\n              tag_209\n              jump\t// in\n            tag_378:\n                /* \"#utility.yul\":14467:14468   */\n              0x00\n                /* \"#utility.yul\":14491:14495   */\n              0x20\n                /* \"#utility.yul\":14478:14495   */\n              swap1\n              pop\n                /* \"#utility.yul\":14523:14525   */\n              0x1f\n                /* \"#utility.yul\":14515:14521   */\n              dup4\n                /* \"#utility.yul\":14512:14526   */\n              gt\n                /* \"#utility.yul\":14540:14541   */\n              0x01\n                /* \"#utility.yul\":14535:15153   */\n              dup2\n              eq\n              tag_380\n              jumpi\n                /* \"#utility.yul\":15197:15198   */\n              0x00\n                /* \"#utility.yul\":15214:15220   */\n              dup5\n                /* \"#utility.yul\":15211:15288   */\n              iszero\n              tag_381\n              jumpi\n                /* \"#utility.yul\":15263:15272   */\n              dup3\n                /* \"#utility.yul\":15258:15261   */\n              dup8\n                /* \"#utility.yul\":15254:15273   */\n              add\n                /* \"#utility.yul\":15248:15274   */\n              mload\n                /* \"#utility.yul\":15239:15274   */\n              swap1\n              pop\n                /* \"#utility.yul\":15211:15288   */\n            tag_381:\n                /* \"#utility.yul\":15314:15381   */\n              tag_382\n                /* \"#utility.yul\":15374:15380   */\n              dup6\n                /* \"#utility.yul\":15367:15372   */\n              dup3\n                /* \"#utility.yul\":15314:15381   */\n              tag_212\n              jump\t// in\n            tag_382:\n                /* \"#utility.yul\":15308:15312   */\n              dup7\n                /* \"#utility.yul\":15301:15382   */\n              sstore\n                /* \"#utility.yul\":15170:15392   */\n              pop\n                /* \"#utility.yul\":14505:15392   */\n              jump(tag_379)\n                /* \"#utility.yul\":14535:15153   */\n            tag_380:\n                /* \"#utility.yul\":14587:14591   */\n              0x1f\n                /* \"#utility.yul\":14583:14592   */\n              not\n                /* \"#utility.yul\":14575:14581   */\n              dup5\n                /* \"#utility.yul\":14571:14593   */\n              and\n                /* \"#utility.yul\":14621:14658   */\n              tag_383\n                /* \"#utility.yul\":14653:14657   */\n              dup7\n                /* \"#utility.yul\":14621:14658   */\n              tag_198\n              jump\t// in\n            tag_383:\n                /* \"#utility.yul\":14680:14681   */\n              0x00\n                /* \"#utility.yul\":14694:14902   */\n            tag_384:\n                /* \"#utility.yul\":14708:14715   */\n              dup3\n                /* \"#utility.yul\":14705:14706   */\n              dup2\n                /* \"#utility.yul\":14702:14716   */\n              lt\n                /* \"#utility.yul\":14694:14902   */\n              iszero\n              tag_386\n              jumpi\n                /* \"#utility.yul\":14787:14796   */\n              dup5\n                /* \"#utility.yul\":14782:14785   */\n              dup10\n                /* \"#utility.yul\":14778:14797   */\n              add\n                /* \"#utility.yul\":14772:14798   */\n              mload\n                /* \"#utility.yul\":14764:14770   */\n              dup3\n                /* \"#utility.yul\":14757:14799   */\n              sstore\n                /* \"#utility.yul\":14838:14839   */\n              0x01\n                /* \"#utility.yul\":14830:14836   */\n              dup3\n                /* \"#utility.yul\":14826:14840   */\n              add\n                /* \"#utility.yul\":14816:14840   */\n              swap2\n              pop\n                /* \"#utility.yul\":14885:14887   */\n              0x20\n                /* \"#utility.yul\":14874:14883   */\n              dup6\n                /* \"#utility.yul\":14870:14888   */\n              add\n                /* \"#utility.yul\":14857:14888   */\n              swap5\n              pop\n                /* \"#utility.yul\":14731:14735   */\n              0x20\n                /* \"#utility.yul\":14728:14729   */\n              dup2\n                /* \"#utility.yul\":14724:14736   */\n              add\n                /* \"#utility.yul\":14719:14736   */\n              swap1\n              pop\n                /* \"#utility.yul\":14694:14902   */\n              jump(tag_384)\n            tag_386:\n                /* \"#utility.yul\":14930:14936   */\n              dup7\n                /* \"#utility.yul\":14921:14928   */\n              dup4\n                /* \"#utility.yul\":14918:14937   */\n              lt\n                /* \"#utility.yul\":14915:15094   */\n              iszero\n              tag_387\n              jumpi\n                /* \"#utility.yul\":14988:14997   */\n              dup5\n                /* \"#utility.yul\":14983:14986   */\n              dup10\n                /* \"#utility.yul\":14979:14998   */\n              add\n                /* \"#utility.yul\":14973:14999   */\n              mload\n                /* \"#utility.yul\":15031:15079   */\n              tag_388\n                /* \"#utility.yul\":15073:15077   */\n              0x1f\n                /* \"#utility.yul\":15065:15071   */\n              dup10\n                /* \"#utility.yul\":15061:15078   */\n              and\n                /* \"#utility.yul\":15050:15059   */\n              dup3\n                /* \"#utility.yul\":15031:15079   */\n              tag_211\n              jump\t// in\n            tag_388:\n                /* \"#utility.yul\":15023:15029   */\n              dup4\n                /* \"#utility.yul\":15016:15080   */\n              sstore\n                /* \"#utility.yul\":14938:15094   */\n              pop\n                /* \"#utility.yul\":14915:15094   */\n            tag_387:\n                /* \"#utility.yul\":15140:15141   */\n              0x01\n                /* \"#utility.yul\":15136:15137   */\n              0x02\n                /* \"#utility.yul\":15128:15134   */\n              dup9\n                /* \"#utility.yul\":15124:15138   */\n              mul\n                /* \"#utility.yul\":15120:15142   */\n              add\n                /* \"#utility.yul\":15114:15118   */\n              dup9\n                /* \"#utility.yul\":15107:15143   */\n              sstore\n                /* \"#utility.yul\":14542:15153   */\n              pop\n              pop\n              pop\n                /* \"#utility.yul\":14505:15392   */\n            tag_379:\n              pop\n                /* \"#utility.yul\":14095:15398   */\n              pop\n              pop\n              pop\n                /* \"#utility.yul\":14003:15398   */\n              pop\n              pop\n              jump\t// out\n                /* \"#utility.yul\":15404:15584   */\n            tag_213:\n                /* \"#utility.yul\":15452:15529   */\n              0x4e487b7100000000000000000000000000000000000000000000000000000000\n                /* \"#utility.yul\":15449:15450   */\n              0x00\n                /* \"#utility.yul\":15442:15530   */\n              mstore\n                /* \"#utility.yul\":15549:15553   */\n              0x11\n                /* \"#utility.yul\":15546:15547   */\n              0x04\n                /* \"#utility.yul\":15539:15554   */\n              mstore\n                /* \"#utility.yul\":15573:15577   */\n              0x24\n                /* \"#utility.yul\":15570:15571   */\n              0x00\n                /* \"#utility.yul\":15563:15578   */\n              revert\n                /* \"#utility.yul\":15590:15823   */\n            tag_141:\n                /* \"#utility.yul\":15629:15632   */\n              0x00\n                /* \"#utility.yul\":15652:15676   */\n              tag_391\n                /* \"#utility.yul\":15670:15675   */\n              dup3\n                /* \"#utility.yul\":15652:15676   */\n              tag_179\n              jump\t// in\n            tag_391:\n                /* \"#utility.yul\":15643:15676   */\n              swap2\n              pop\n                /* \"#utility.yul\":15698:15764   */\n              0xffffffffffffffffffffffffffffffffffffffffffffffffffffffffffffffff\n                /* \"#utility.yul\":15691:15696   */\n              dup3\n                /* \"#utility.yul\":15688:15765   */\n              sub\n                /* \"#utility.yul\":15685:15788   */\n              tag_392\n              jumpi\n                /* \"#utility.yul\":15768:15786   */\n              tag_393\n              tag_213\n              jump\t// in\n            tag_393:\n                /* \"#utility.yul\":15685:15788   */\n            tag_392:\n                /* \"#utility.yul\":15815:15816   */\n              0x01\n                /* \"#utility.yul\":15808:15813   */\n              dup3\n                /* \"#utility.yul\":15804:15817   */\n              add\n                /* \"#utility.yul\":15797:15817   */\n              swap1\n              pop\n                /* \"#utility.yul\":15590:15823   */\n              swap2\n              swap1\n              pop\n              jump\t// out\n                /* \"#utility.yul\":15829:16020   */\n            tag_143:\n                /* \"#utility.yul\":15869:15872   */\n              0x00\n                /* \"#utility.yul\":15888:15908   */\n              tag_395\n                /* \"#utility.yul\":15906:15907   */\n              dup3\n                /* \"#utility.yul\":15888:15908   */\n              tag_179\n              jump\t// in\n            tag_395:\n                /* \"#utility.yul\":15883:15908   */\n              swap2\n              pop\n                /* \"#utility.yul\":15922:15942   */\n              tag_396\n                /* \"#utility.yul\":15940:15941   */\n              dup4\n                /* \"#utility.yul\":15922:15942   */\n              tag_179\n              jump\t// in\n            tag_396:\n                /* \"#utility.yul\":15917:15942   */\n              swap3\n              pop\n                /* \"#utility.yul\":15965:15966   */\n              dup3\n                /* \"#utility.yul\":15962:15963   */\n              dup3\n                /* \"#utility.yul\":15958:15967   */\n              add\n                /* \"#utility.yul\":15951:15967   */\n              swap1\n              pop\n                /* \"#utility.yul\":15986:15989   */\n              dup1\n                /* \"#utility.yul\":15983:15984   */\n              dup3\n                /* \"#utility.yul\":15980:15990   */\n              gt\n                /* \"#utility.yul\":15977:16013   */\n              iszero\n              tag_397\n              jumpi\n                /* \"#utility.yul\":15993:16011   */\n              tag_398\n              tag_213\n              jump\t// in\n            tag_398:\n                /* \"#utility.yul\":15977:16013   */\n            tag_397:\n                /* \"#utility.yul\":15829:16020   */\n              swap3\n              swap2\n              pop\n              pop\n              jump\t// out\n                /* \"#utility.yul\":16026:16206   */\n            tag_148:\n                /* \"#utility.yul\":16074:16151   */\n              0x4e487b7100000000000000000000000000000000000000000000000000000000\n                /* \"#utility.yul\":16071:16072   */\n              0x00\n                /* \"#utility.yul\":16064:16152   */\n              mstore\n                /* \"#utility.yul\":16171:16175   */\n              0x32\n                /* \"#utility.yul\":16168:16169   */\n              0x04\n                /* \"#utility.yul\":16161:16176   */\n              mstore\n                /* \"#utility.yul\":16195:16199   */\n              0x24\n                /* \"#utility.yul\":16192:16193   */\n              0x00\n                /* \"#utility.yul\":16185:16200   */\n              revert\n                /* \"#utility.yul\":16212:16392   */\n            tag_214:\n                /* \"#utility.yul\":16260:16337   */\n              0x4e487b7100000000000000000000000000000000000000000000000000000000\n                /* \"#utility.yul\":16257:16258   */\n              0x00\n                /* \"#utility.yul\":16250:16338   */\n              mstore\n                /* \"#utility.yul\":16357:16361   */\n              0x12\n                /* \"#utility.yul\":16354:16355   */\n              0x04\n                /* \"#utility.yul\":16347:16362   */\n              mstore\n                /* \"#utility.yul\":16381:16385   */\n              0x24\n                /* \"#utility.yul\":16378:16379   */\n              0x00\n                /* \"#utility.yul\":16371:16386   */\n              revert\n                /* \"#utility.yul\":16398:16583   */\n            tag_161:\n                /* \"#utility.yul\":16438:16439   */\n              0x00\n                /* \"#utility.yul\":16455:16475   */\n              tag_402\n                /* \"#utility.yul\":16473:16474   */\n              dup3\n                /* \"#utility.yul\":16455:16475   */\n              tag_179\n              jump\t// in\n            tag_402:\n                /* \"#utility.yul\":16450:16475   */\n              swap2\n              pop\n                /* \"#utility.yul\":16489:16509   */\n              tag_403\n                /* \"#utility.yul\":16507:16508   */\n              dup4\n                /* \"#utility.yul\":16489:16509   */\n              tag_179\n              jump\t// in\n            tag_403:\n                /* \"#utility.yul\":16484:16509   */\n              swap3\n              pop\n                /* \"#utility.yul\":16528:16529   */\n              dup3\n                /* \"#utility.yul\":16518:16553   */\n              tag_404\n              jumpi\n                /* \"#utility.yul\":16533:16551   */\n              tag_405\n              tag_214\n              jump\t// in\n            tag_405:\n                /* \"#utility.yul\":16518:16553   */\n            tag_404:\n                /* \"#utility.yul\":16575:16576   */\n              dup3\n                /* \"#utility.yul\":16572:16573   */\n              dup3\n                /* \"#utility.yul\":16568:16577   */\n              div\n                /* \"#utility.yul\":16563:16577   */\n              swap1\n              pop\n                /* \"#utility.yul\":16398:16583   */\n              swap3\n              swap2\n              pop\n              pop\n              jump\t// out\n\n            auxdata: 0xa26469706673582212206725d42769ca939130278f61e0a1176136c1f7ea8f7153b9b569a91449734b3364736f6c63430008110033\n        }\n    }\n\n    auxdata: 0xa2646970667358221220028588dd5d5f8fef631f56d83726dd3b818362190a5dd882c2aca06ec8271d8564736f6c63430008110033\n}\n","bytecode":{"linkReferences":{},"object":"608060405234801561001057600080fd5b506124b2806100206000396000f3fe60806040523480156200001157600080fd5b50600436106200003a5760003560e01c80634acb9d4f146200003f578063a318f2691462000061575b600080fd5b6200004962000081565b60405162000058919062000309565b60405180910390f35b6200007f6004803603810190620000799190620004de565b62000111565b005b606060008054806020026020016040519081016040528092919081815260200182805480156200010757602002820191906000526020600020905b8160009054906101000a900473ffffffffffffffffffffffffffffffffffffffff1673ffffffffffffffffffffffffffffffffffffffff1681526020019060010190808311620000bc575b5050505050905090565b600081338686866040516200012690620001f9565b6200013695949392919062000639565b604051809103906000f08015801562000153573d6000803e3d6000fd5b5090506000819080600181540180825580915050600190039060005260206000200160009091909190916101000a81548173ffffffffffffffffffffffffffffffffffffffff021916908373ffffffffffffffffffffffffffffffffffffffff1602179055507f07a9c134c6ed9c353773b355c69cbf65e34e3c3820554f5b8e1afdecdfb4029281604051620001ea9190620006a4565b60405180910390a15050505050565b611dbb80620006c283390190565b600081519050919050565b600082825260208201905092915050565b6000819050602082019050919050565b600073ffffffffffffffffffffffffffffffffffffffff82169050919050565b6000620002608262000233565b9050919050565b620002728162000253565b82525050565b600062000286838362000267565b60208301905092915050565b6000602082019050919050565b6000620002ac8262000207565b620002b8818562000212565b9350620002c58362000223565b8060005b83811015620002fc578151620002e0888262000278565b9750620002ed8362000292565b925050600181019050620002c9565b5085935050505092915050565b600060208201905081810360008301526200032581846200029f565b905092915050565b6000604051905090565b600080fd5b600080fd5b600080fd5b600080fd5b6000601f19601f8301169050919050565b7f4e487b7100000000000000000000000000000000000000000000000000000000600052604160045260246000fd5b62000396826200034b565b810181811067ffffffffffffffff82111715620003b857620003b76200035c565b5b80604052505050565b6000620003cd6200032d565b9050620003db82826200038b565b919050565b600067ffffffffffffffff821115620003fe57620003fd6200035c565b5b62000409826200034b565b9050602081019050919050565b82818337600083830152505050565b60006200043c6200043684620003e0565b620003c1565b9050828152602081018484840111156200045b576200045a62000346565b5b6200046884828562000416565b509392505050565b600082601f83011262000488576200048762000341565b5b81356200049a84826020860162000425565b91505092915050565b6000819050919050565b620004b881620004a3565b8114620004c457600080fd5b50565b600081359050620004d881620004ad565b92915050565b60008060008060808587031215620004fb57620004fa62000337565b5b600085013567ffffffffffffffff8111156200051c576200051b6200033c565b5b6200052a8782880162000470565b945050602085013567ffffffffffffffff8111156200054e576200054d6200033c565b5b6200055c8782880162000470565b93505060406200056f87828801620004c7565b92505060606200058287828801620004c7565b91505092959194509250565b6200059981620004a3565b82525050565b620005aa8162000253565b82525050565b600081519050919050565b600082825260208201905092915050565b60005b83811015620005ec578082015181840152602081019050620005cf565b60008484015250505050565b60006200060582620005b0565b620006118185620005bb565b935062000623818560208601620005cc565b6200062e816200034b565b840191505092915050565b600060a0820190506200065060008301886200058e565b6200065f60208301876200059f565b8181036040830152620006738186620005f8565b90508181036060830152620006898185620005f8565b90506200069a60808301846200058e565b9695505050505050565b6000602082019050620006bb60008301846200059f565b9291505056fe60806040523480156200001157600080fd5b5060405162001dbb38038062001dbb8339818101604052810190620000379190620002e7565b84600481905550836000806101000a81548173ffffffffffffffffffffffffffffffffffffffff021916908373ffffffffffffffffffffffffffffffffffffffff16021790555082600190816200008f9190620005ee565b508160029081620000a19190620005ee565b50806003819055505050505050620006d5565b6000604051905090565b600080fd5b600080fd5b6000819050919050565b620000dd81620000c8565b8114620000e957600080fd5b50565b600081519050620000fd81620000d2565b92915050565b600073ffffffffffffffffffffffffffffffffffffffff82169050919050565b6000620001308262000103565b9050919050565b620001428162000123565b81146200014e57600080fd5b50565b600081519050620001628162000137565b92915050565b600080fd5b600080fd5b6000601f19601f8301169050919050565b7f4e487b7100000000000000000000000000000000000000000000000000000000600052604160045260246000fd5b620001bd8262000172565b810181811067ffffffffffffffff82111715620001df57620001de62000183565b5b80604052505050565b6000620001f4620000b4565b9050620002028282620001b2565b919050565b600067ffffffffffffffff82111562000225576200022462000183565b5b620002308262000172565b9050602081019050919050565b60005b838110156200025d57808201518184015260208101905062000240565b60008484015250505050565b6000620002806200027a8462000207565b620001e8565b9050828152602081018484840111156200029f576200029e6200016d565b5b620002ac8482856200023d565b509392505050565b600082601f830112620002cc57620002cb62000168565b5b8151620002de84826020860162000269565b91505092915050565b600080600080600060a08688031215620003065762000305620000be565b5b60006200031688828901620000ec565b9550506020620003298882890162000151565b945050604086015167ffffffffffffffff8111156200034d576200034c620000c3565b5b6200035b88828901620002b4565b935050606086015167ffffffffffffffff8111156200037f576200037e620000c3565b5b6200038d88828901620002b4565b9250506080620003a088828901620000ec565b9150509295509295909350565b600081519050919050565b7f4e487b7100000000000000000000000000000000000000000000000000000000600052602260045260246000fd5b600060028204905060018216806200040057607f821691505b602082108103620004165762000415620003b8565b5b50919050565b60008190508160005260206000209050919050565b60006020601f8301049050919050565b600082821b905092915050565b600060088302620004807fffffffffffffffffffffffffffffffffffffffffffffffffffffffffffffffff8262000441565b6200048c868362000441565b95508019841693508086168417925050509392505050565b6000819050919050565b6000620004cf620004c9620004c384620000c8565b620004a4565b620000c8565b9050919050565b6000819050919050565b620004eb83620004ae565b62000503620004fa82620004d6565b8484546200044e565b825550505050565b600090565b6200051a6200050b565b62000527818484620004e0565b505050565b5b818110156200054f576200054360008262000510565b6001810190506200052d565b5050565b601f8211156200059e5762000568816200041c565b620005738462000431565b8101602085101562000583578190505b6200059b620005928562000431565b8301826200052c565b50505b505050565b600082821c905092915050565b6000620005c360001984600802620005a3565b1980831691505092915050565b6000620005de8383620005b0565b9150826002028217905092915050565b620005f982620003ad565b67ffffffffffffffff81111562000615576200061462000183565b5b620006218254620003e7565b6200062e82828562000553565b600060209050601f83116001811462000666576000841562000651578287015190505b6200065d8582620005d0565b865550620006cd565b601f19841662000676866200041c565b60005b82811015620006a05784890151825560018201915060208501945060208101905062000679565b86831015620006c05784890151620006bc601f891682620005b0565b8355505b6001600288020188555050505b505050505050565b6116d680620006e56000396000f3fe6080604052600436106100f35760003560e01c806382fde0931161008a578063d7bb99ba11610059578063d7bb99ba1461032c578063d7d1bbdb14610336578063e7b668b41461035f578063ef068a7f14610388576100f3565b806382fde09314610282578063aaffadf3146102ad578063c5c4744c146102d8578063c774126514610303576100f3565b80634051ddac116100c65780634051ddac146101b6578063481c6a75146101ea5780635b18056b1461021557806381d12c5814610240576100f3565b80630724fda9146100f85780630a14439114610123578063110842cb146101605780633410452a1461018b575b600080fd5b34801561010457600080fd5b5061010d6103b3565b60405161011a9190610da0565b60405180910390f35b34801561012f57600080fd5b5061014a60048036038101906101459190610e34565b610441565b6040516101579190610e7c565b60405180910390f35b34801561016c57600080fd5b50610175610461565b6040516101829190610da0565b60405180910390f35b34801561019757600080fd5b506101a06104ef565b6040516101ad9190610eb0565b60405180910390f35b3480156101c257600080fd5b506101cb6104fc565b6040516101e19a99989796959493929190610eda565b60405180910390f35b3480156101f657600080fd5b506101ff61067e565b60405161020c9190610f84565b60405180910390f35b34801561022157600080fd5b5061022a6106a2565b6040516102379190610eb0565b60405180910390f35b34801561024c57600080fd5b5061026760048036038101906102629190610fcb565b6106a8565b60405161027996959493929190611019565b60405180910390f35b34801561028e57600080fd5b50610297610831565b6040516102a49190610eb0565b60405180910390f35b3480156102b957600080fd5b506102c2610837565b6040516102cf9190610eb0565b60405180910390f35b3480156102e457600080fd5b506102ed61083d565b6040516102fa9190610eb0565b60405180910390f35b34801561030f57600080fd5b5061032a600480360381019061032591906111e9565b610843565b005b61033461096c565b005b34801561034257600080fd5b5061035d60048036038101906103589190610fcb565b610a75565b005b34801561036b57600080fd5b5061038660048036038101906103819190610fcb565b610bc2565b005b34801561039457600080fd5b5061039d610d0a565b6040516103aa9190610eb0565b60405180910390f35b600180546103c0906112b7565b80601f01602080910402602001604051908101604052809291908181526020018280546103ec906112b7565b80156104395780601f1061040e57610100808354040283529160200191610439565b820191906000526020600020905b81548152906001019060200180831161041c57829003601f168201915b505050505081565b60066020528060005260406000206000915054906101000a900460ff1681565b6002805461046e906112b7565b80601f016020809104026020016040519081016040528092919081815260200182805461049a906112b7565b80156104e75780601f106104bc576101008083540402835291602001916104e7565b820191906000526020600020905b8154815290600101906020018083116104ca57829003601f168201915b505050505081565b6000600880549050905090565b606080600080600080600080600080600160026003546005546004546009544760088054905060075460008054906101000a900473ffffffffffffffffffffffffffffffffffffffff16898054610552906112b7565b80601f016020809104026020016040519081016040528092919081815260200182805461057e906112b7565b80156105cb5780601f106105a0576101008083540402835291602001916105cb565b820191906000526020600020905b8154815290600101906020018083116105ae57829003601f168201915b505050505099508880546105de906112b7565b80601f016020809104026020016040519081016040528092919081815260200182805461060a906112b7565b80156106575780601f1061062c57610100808354040283529160200191610657565b820191906000526020600020905b81548152906001019060200180831161063a57829003601f168201915b50505050509850995099509950995099509950995099509950995090919293949596979899565b60008054906101000a900473ffffffffffffffffffffffffffffffffffffffff1681565b60055481565b600881815481106106b857600080fd5b90600052602060002090600602016000915090508060000180546106db906112b7565b80601f0160208091040260200160405190810160405280929190818152602001828054610707906112b7565b80156107545780601f1061072957610100808354040283529160200191610754565b820191906000526020600020905b81548152906001019060200180831161073757829003601f168201915b505050505090806001018054610769906112b7565b80601f0160208091040260200160405190810160405280929190818152602001828054610795906112b7565b80156107e25780601f106107b7576101008083540402835291602001916107e2565b820191906000526020600020905b8154815290600101906020018083116107c557829003601f168201915b5050505050908060020154908060030160009054906101000a900473ffffffffffffffffffffffffffffffffffffffff16908060030160149054906101000a900460ff16908060040154905086565b60075481565b60045481565b60095481565b60008054906101000a900473ffffffffffffffffffffffffffffffffffffffff1673ffffffffffffffffffffffffffffffffffffffff163373ffffffffffffffffffffffffffffffffffffffff161461089b57600080fd5b6003544710156108aa57600080fd5b600060086001816001815401808255809150500390600052602060002090600602019050848160000190816108df9190611494565b50838160010190816108f19190611494565b50828160020181905550818160030160006101000a81548173ffffffffffffffffffffffffffffffffffffffff021916908373ffffffffffffffffffffffffffffffffffffffff16021790555060008160030160146101000a81548160ff021916908315150217905550600081600401819055505050505050565b6000600660003373ffffffffffffffffffffffffffffffffffffffff1673ffffffffffffffffffffffffffffffffffffffff16815260200190815260200160002060009054906101000a900460ff16905080610a415760045434116109d057600080fd5b6001600660003373ffffffffffffffffffffffffffffffffffffffff1673ffffffffffffffffffffffffffffffffffffffff16815260200190815260200160002060006101000a81548160ff02191690831515021790555060076000815480929190610a3b90611595565b91905055505b3460096000828254610a5391906115dd565b9250508190555060056000815480929190610a6d90611595565b919050555050565b600060088281548110610a8b57610a8a611611565b5b90600052602060002090600602019050600660003373ffffffffffffffffffffffffffffffffffffffff1673ffffffffffffffffffffffffffffffffffffffff16815260200190815260200160002060009054906101000a900460ff16610af157600080fd5b8060050160003373ffffffffffffffffffffffffffffffffffffffff1673ffffffffffffffffffffffffffffffffffffffff16815260200190815260200160002060009054906101000a900460ff1615610b4a57600080fd5b60018160050160003373ffffffffffffffffffffffffffffffffffffffff1673ffffffffffffffffffffffffffffffffffffffff16815260200190815260200160002060006101000a81548160ff021916908315150217905550806004016000815480929190610bb990611595565b91905055505050565b60008054906101000a900473ffffffffffffffffffffffffffffffffffffffff1673ffffffffffffffffffffffffffffffffffffffff163373ffffffffffffffffffffffffffffffffffffffff1614610c1a57600080fd5b600060088281548110610c3057610c2f611611565b5b906000526020600020906006020190508060030160149054906101000a900460ff1615610c5c57600080fd5b6002600754610c6b919061166f565b816004015411610c7a57600080fd5b8060030160009054906101000a900473ffffffffffffffffffffffffffffffffffffffff1673ffffffffffffffffffffffffffffffffffffffff166108fc82600201549081150290604051600060405180830381858888f19350505050158015610ce8573d6000803e3d6000fd5b5060018160030160146101000a81548160ff0219169083151502179055505050565b60035481565b600081519050919050565b600082825260208201905092915050565b60005b83811015610d4a578082015181840152602081019050610d2f565b60008484015250505050565b6000601f19601f8301169050919050565b6000610d7282610d10565b610d7c8185610d1b565b9350610d8c818560208601610d2c565b610d9581610d56565b840191505092915050565b60006020820190508181036000830152610dba8184610d67565b905092915050565b6000604051905090565b600080fd5b600080fd5b600073ffffffffffffffffffffffffffffffffffffffff82169050919050565b6000610e0182610dd6565b9050919050565b610e1181610df6565b8114610e1c57600080fd5b50565b600081359050610e2e81610e08565b92915050565b600060208284031215610e4a57610e49610dcc565b5b6000610e5884828501610e1f565b91505092915050565b60008115159050919050565b610e7681610e61565b82525050565b6000602082019050610e916000830184610e6d565b92915050565b6000819050919050565b610eaa81610e97565b82525050565b6000602082019050610ec56000830184610ea1565b92915050565b610ed481610df6565b82525050565b6000610140820190508181036000830152610ef5818d610d67565b90508181036020830152610f09818c610d67565b9050610f18604083018b610ea1565b610f25606083018a610ea1565b610f326080830189610ea1565b610f3f60a0830188610ea1565b610f4c60c0830187610ea1565b610f5960e0830186610ea1565b610f67610100830185610ea1565b610f75610120830184610ecb565b9b9a5050505050505050505050565b6000602082019050610f996000830184610ecb565b92915050565b610fa881610e97565b8114610fb357600080fd5b50565b600081359050610fc581610f9f565b92915050565b600060208284031215610fe157610fe0610dcc565b5b6000610fef84828501610fb6565b91505092915050565b600061100382610dd6565b9050919050565b61101381610ff8565b82525050565b600060c08201905081810360008301526110338189610d67565b905081810360208301526110478188610d67565b90506110566040830187610ea1565b611063606083018661100a565b6110706080830185610e6d565b61107d60a0830184610ea1565b979650505050505050565b600080fd5b600080fd5b7f4e487b7100000000000000000000000000000000000000000000000000000000600052604160045260246000fd5b6110ca82610d56565b810181811067ffffffffffffffff821117156110e9576110e8611092565b5b80604052505050565b60006110fc610dc2565b905061110882826110c1565b919050565b600067ffffffffffffffff82111561112857611127611092565b5b61113182610d56565b9050602081019050919050565b82818337600083830152505050565b600061116061115b8461110d565b6110f2565b90508281526020810184848401111561117c5761117b61108d565b5b61118784828561113e565b509392505050565b600082601f8301126111a4576111a3611088565b5b81356111b484826020860161114d565b91505092915050565b6111c681610ff8565b81146111d157600080fd5b50565b6000813590506111e3816111bd565b92915050565b6000806000806080858703121561120357611202610dcc565b5b600085013567ffffffffffffffff81111561122157611220610dd1565b5b61122d8782880161118f565b945050602085013567ffffffffffffffff81111561124e5761124d610dd1565b5b61125a8782880161118f565b935050604061126b87828801610fb6565b925050606061127c878288016111d4565b91505092959194509250565b7f4e487b7100000000000000000000000000000000000000000000000000000000600052602260045260246000fd5b600060028204905060018216806112cf57607f821691505b6020821081036112e2576112e1611288565b5b50919050565b60008190508160005260206000209050919050565b60006020601f8301049050919050565b600082821b905092915050565b60006008830261134a7fffffffffffffffffffffffffffffffffffffffffffffffffffffffffffffffff8261130d565b611354868361130d565b95508019841693508086168417925050509392505050565b6000819050919050565b600061139161138c61138784610e97565b61136c565b610e97565b9050919050565b6000819050919050565b6113ab83611376565b6113bf6113b782611398565b84845461131a565b825550505050565b600090565b6113d46113c7565b6113df8184846113a2565b505050565b5b81811015611403576113f86000826113cc565b6001810190506113e5565b5050565b601f82111561144857611419816112e8565b611422846112fd565b81016020851015611431578190505b61144561143d856112fd565b8301826113e4565b50505b505050565b600082821c905092915050565b600061146b6000198460080261144d565b1980831691505092915050565b6000611484838361145a565b9150826002028217905092915050565b61149d82610d10565b67ffffffffffffffff8111156114b6576114b5611092565b5b6114c082546112b7565b6114cb828285611407565b600060209050601f8311600181146114fe57600084156114ec578287015190505b6114f68582611478565b86555061155e565b601f19841661150c866112e8565b60005b828110156115345784890151825560018201915060208501945060208101905061150f565b86831015611551578489015161154d601f89168261145a565b8355505b6001600288020188555050505b505050505050565b7f4e487b7100000000000000000000000000000000000000000000000000000000600052601160045260246000fd5b60006115a082610e97565b91507fffffffffffffffffffffffffffffffffffffffffffffffffffffffffffffffff82036115d2576115d1611566565b5b600182019050919050565b60006115e882610e97565b91506115f383610e97565b925082820190508082111561160b5761160a611566565b5b92915050565b7f4e487b7100000000000000000000000000000000000000000000000000000000600052603260045260246000fd5b7f4e487b7100000000000000000000000000000000000000000000000000000000600052601260045260246000fd5b600061167a82610e97565b915061168583610e97565b92508261169557611694611640565b5b82820490509291505056fea26469706673582212206725d42769ca939130278f61e0a1176136c1f7ea8f7153b9b569a91449734b3364736f6c63430008110033a2646970667358221220028588dd5d5f8fef631f56d83726dd3b818362190a5dd882c2aca06ec8271d8564736f6c63430008110033","opcodes":"PUSH1 0x80 PUSH1 0x40 MSTORE CALLVALUE DUP1 ISZERO PUSH2 0x10 JUMPI PUSH1 0x0 DUP1 REVERT JUMPDEST POP PUSH2 0x24B2 DUP1 PUSH2 0x20 PUSH1 0x0 CODECOPY PUSH1 0x0 RETURN INVALID PUSH1 0x80 PUSH1 0x40 MSTORE CALLVALUE DUP1 ISZERO PUSH3 0x11 JUMPI PUSH1 0x0 DUP1 REVERT JUMPDEST POP PUSH1 0x4 CALLDATASIZE LT PUSH3 0x3A JUMPI PUSH1 0x0 CALLDATALOAD PUSH1 0xE0 SHR DUP1 PUSH4 0x4ACB9D4F EQ PUSH3 0x3F JUMPI DUP1 PUSH4 0xA318F269 EQ PUSH3 0x61 JUMPI JUMPDEST PUSH1 0x0 DUP1 REVERT JUMPDEST PUSH3 0x49 PUSH3 0x81 JUMP JUMPDEST PUSH1 0x40 MLOAD PUSH3 0x58 SWAP2 SWAP1 PUSH3 0x309 JUMP JUMPDEST PUSH1 0x40 MLOAD DUP1 SWAP2 SUB SWAP1 RETURN JUMPDEST PUSH3 0x7F PUSH1 0x4 DUP1 CALLDATASIZE SUB DUP2 ADD SWAP1 PUSH3 0x79 SWAP2 SWAP1 PUSH3 0x4DE JUMP JUMPDEST PUSH3 0x111 JUMP JUMPDEST STOP JUMPDEST PUSH1 0x60 PUSH1 0x0 DUP1 SLOAD DUP1 PUSH1 0x20 MUL PUSH1 0x20 ADD PUSH1 0x40 MLOAD SWAP1 DUP2 ADD PUSH1 0x40 MSTORE DUP1 SWAP3 SWAP2 SWAP1 DUP2 DUP2 MSTORE PUSH1 0x20 ADD DUP3 DUP1 SLOAD DUP1 ISZERO PUSH3 0x107 JUMPI PUSH1 0x20 MUL DUP3 ADD SWAP2 SWAP1 PUSH1 0x0 MSTORE PUSH1 0x20 PUSH1 0x0 KECCAK256 SWAP1 JUMPDEST DUP2 PUSH1 0x0 SWAP1 SLOAD SWAP1 PUSH2 0x100 EXP SWAP1 DIV PUSH20 0xFFFFFFFFFFFFFFFFFFFFFFFFFFFFFFFFFFFFFFFF AND PUSH20 0xFFFFFFFFFFFFFFFFFFFFFFFFFFFFFFFFFFFFFFFF AND DUP2 MSTORE PUSH1 0x20 ADD SWAP1 PUSH1 0x1 ADD SWAP1 DUP1 DUP4 GT PUSH3 0xBC JUMPI JUMPDEST POP POP POP POP POP SWAP1 POP SWAP1 JUMP JUMPDEST PUSH1 0x0 DUP2 CALLER DUP7 DUP7 DUP7 PUSH1 0x40 MLOAD PUSH3 0x126 SWAP1 PUSH3 0x1F9 JUMP JUMPDEST PUSH3 0x136 SWAP6 SWAP5 SWAP4 SWAP3 SWAP2 SWAP1 PUSH3 0x639 JUMP JUMPDEST PUSH1 0x40 MLOAD DUP1 SWAP2 SUB SWAP1 PUSH1 0x0 CREATE DUP1 ISZERO DUP1 ISZERO PUSH3 0x153 JUMPI RETURNDATASIZE PUSH1 0x0 DUP1 RETURNDATACOPY RETURNDATASIZE PUSH1 0x0 REVERT JUMPDEST POP SWAP1 POP PUSH1 0x0 DUP2 SWAP1 DUP1 PUSH1 0x1 DUP2 SLOAD ADD DUP1 DUP3 SSTORE DUP1 SWAP2 POP POP PUSH1 0x1 SWAP1 SUB SWAP1 PUSH1 0x0 MSTORE PUSH1 0x20 PUSH1 0x0 KECCAK256 ADD PUSH1 0x0 SWAP1 SWAP2 SWAP1 SWAP2 SWAP1 SWAP2 PUSH2 0x100 EXP DUP2 SLOAD DUP2 PUSH20 0xFFFFFFFFFFFFFFFFFFFFFFFFFFFFFFFFFFFFFFFF MUL NOT AND SWAP1 DUP4 PUSH20 0xFFFFFFFFFFFFFFFFFFFFFFFFFFFFFFFFFFFFFFFF AND MUL OR SWAP1 SSTORE POP PUSH32 0x7A9C134C6ED9C353773B355C69CBF65E34E3C3820554F5B8E1AFDECDFB40292 DUP2 PUSH1 0x40 MLOAD PUSH3 0x1EA SWAP2 SWAP1 PUSH3 0x6A4 JUMP JUMPDEST PUSH1 0x40 MLOAD DUP1 SWAP2 SUB SWAP1 LOG1 POP POP POP POP POP JUMP JUMPDEST PUSH2 0x1DBB DUP1 PUSH3 0x6C2 DUP4 CODECOPY ADD SWAP1 JUMP JUMPDEST PUSH1 0x0 DUP2 MLOAD SWAP1 POP SWAP2 SWAP1 POP JUMP JUMPDEST PUSH1 0x0 DUP3 DUP3 MSTORE PUSH1 0x20 DUP3 ADD SWAP1 POP SWAP3 SWAP2 POP POP JUMP JUMPDEST PUSH1 0x0 DUP2 SWAP1 POP PUSH1 0x20 DUP3 ADD SWAP1 POP SWAP2 SWAP1 POP JUMP JUMPDEST PUSH1 0x0 PUSH20 0xFFFFFFFFFFFFFFFFFFFFFFFFFFFFFFFFFFFFFFFF DUP3 AND SWAP1 POP SWAP2 SWAP1 POP JUMP JUMPDEST PUSH1 0x0 PUSH3 0x260 DUP3 PUSH3 0x233 JUMP JUMPDEST SWAP1 POP SWAP2 SWAP1 POP JUMP JUMPDEST PUSH3 0x272 DUP2 PUSH3 0x253 JUMP JUMPDEST DUP3 MSTORE POP POP JUMP JUMPDEST PUSH1 0x0 PUSH3 0x286 DUP4 DUP4 PUSH3 0x267 JUMP JUMPDEST PUSH1 0x20 DUP4 ADD SWAP1 POP SWAP3 SWAP2 POP POP JUMP JUMPDEST PUSH1 0x0 PUSH1 0x20 DUP3 ADD SWAP1 POP SWAP2 SWAP1 POP JUMP JUMPDEST PUSH1 0x0 PUSH3 0x2AC DUP3 PUSH3 0x207 JUMP JUMPDEST PUSH3 0x2B8 DUP2 DUP6 PUSH3 0x212 JUMP JUMPDEST SWAP4 POP PUSH3 0x2C5 DUP4 PUSH3 0x223 JUMP JUMPDEST DUP1 PUSH1 0x0 JUMPDEST DUP4 DUP2 LT ISZERO PUSH3 0x2FC JUMPI DUP2 MLOAD PUSH3 0x2E0 DUP9 DUP3 PUSH3 0x278 JUMP JUMPDEST SWAP8 POP PUSH3 0x2ED DUP4 PUSH3 0x292 JUMP JUMPDEST SWAP3 POP POP PUSH1 0x1 DUP2 ADD SWAP1 POP PUSH3 0x2C9 JUMP JUMPDEST POP DUP6 SWAP4 POP POP POP POP SWAP3 SWAP2 POP POP JUMP JUMPDEST PUSH1 0x0 PUSH1 0x20 DUP3 ADD SWAP1 POP DUP2 DUP2 SUB PUSH1 0x0 DUP4 ADD MSTORE PUSH3 0x325 DUP2 DUP5 PUSH3 0x29F JUMP JUMPDEST SWAP1 POP SWAP3 SWAP2 POP POP JUMP JUMPDEST PUSH1 0x0 PUSH1 0x40 MLOAD SWAP1 POP SWAP1 JUMP JUMPDEST PUSH1 0x0 DUP1 REVERT JUMPDEST PUSH1 0x0 DUP1 REVERT JUMPDEST PUSH1 0x0 DUP1 REVERT JUMPDEST PUSH1 0x0 DUP1 REVERT JUMPDEST PUSH1 0x0 PUSH1 0x1F NOT PUSH1 0x1F DUP4 ADD AND SWAP1 POP SWAP2 SWAP1 POP JUMP JUMPDEST PUSH32 0x4E487B7100000000000000000000000000000000000000000000000000000000 PUSH1 0x0 MSTORE PUSH1 0x41 PUSH1 0x4 MSTORE PUSH1 0x24 PUSH1 0x0 REVERT JUMPDEST PUSH3 0x396 DUP3 PUSH3 0x34B JUMP JUMPDEST DUP2 ADD DUP2 DUP2 LT PUSH8 0xFFFFFFFFFFFFFFFF DUP3 GT OR ISZERO PUSH3 0x3B8 JUMPI PUSH3 0x3B7 PUSH3 0x35C JUMP JUMPDEST JUMPDEST DUP1 PUSH1 0x40 MSTORE POP POP POP JUMP JUMPDEST PUSH1 0x0 PUSH3 0x3CD PUSH3 0x32D JUMP JUMPDEST SWAP1 POP PUSH3 0x3DB DUP3 DUP3 PUSH3 0x38B JUMP JUMPDEST SWAP2 SWAP1 POP JUMP JUMPDEST PUSH1 0x0 PUSH8 0xFFFFFFFFFFFFFFFF DUP3 GT ISZERO PUSH3 0x3FE JUMPI PUSH3 0x3FD PUSH3 0x35C JUMP JUMPDEST JUMPDEST PUSH3 0x409 DUP3 PUSH3 0x34B JUMP JUMPDEST SWAP1 POP PUSH1 0x20 DUP2 ADD SWAP1 POP SWAP2 SWAP1 POP JUMP JUMPDEST DUP3 DUP2 DUP4 CALLDATACOPY PUSH1 0x0 DUP4 DUP4 ADD MSTORE POP POP POP JUMP JUMPDEST PUSH1 0x0 PUSH3 0x43C PUSH3 0x436 DUP5 PUSH3 0x3E0 JUMP JUMPDEST PUSH3 0x3C1 JUMP JUMPDEST SWAP1 POP DUP3 DUP2 MSTORE PUSH1 0x20 DUP2 ADD DUP5 DUP5 DUP5 ADD GT ISZERO PUSH3 0x45B JUMPI PUSH3 0x45A PUSH3 0x346 JUMP JUMPDEST JUMPDEST PUSH3 0x468 DUP5 DUP3 DUP6 PUSH3 0x416 JUMP JUMPDEST POP SWAP4 SWAP3 POP POP POP JUMP JUMPDEST PUSH1 0x0 DUP3 PUSH1 0x1F DUP4 ADD SLT PUSH3 0x488 JUMPI PUSH3 0x487 PUSH3 0x341 JUMP JUMPDEST JUMPDEST DUP2 CALLDATALOAD PUSH3 0x49A DUP5 DUP3 PUSH1 0x20 DUP7 ADD PUSH3 0x425 JUMP JUMPDEST SWAP2 POP POP SWAP3 SWAP2 POP POP JUMP JUMPDEST PUSH1 0x0 DUP2 SWAP1 POP SWAP2 SWAP1 POP JUMP JUMPDEST PUSH3 0x4B8 DUP2 PUSH3 0x4A3 JUMP JUMPDEST DUP2 EQ PUSH3 0x4C4 JUMPI PUSH1 0x0 DUP1 REVERT JUMPDEST POP JUMP JUMPDEST PUSH1 0x0 DUP2 CALLDATALOAD SWAP1 POP PUSH3 0x4D8 DUP2 PUSH3 0x4AD JUMP JUMPDEST SWAP3 SWAP2 POP POP JUMP JUMPDEST PUSH1 0x0 DUP1 PUSH1 0x0 DUP1 PUSH1 0x80 DUP6 DUP8 SUB SLT ISZERO PUSH3 0x4FB JUMPI PUSH3 0x4FA PUSH3 0x337 JUMP JUMPDEST JUMPDEST PUSH1 0x0 DUP6 ADD CALLDATALOAD PUSH8 0xFFFFFFFFFFFFFFFF DUP2 GT ISZERO PUSH3 0x51C JUMPI PUSH3 0x51B PUSH3 0x33C JUMP JUMPDEST JUMPDEST PUSH3 0x52A DUP8 DUP3 DUP9 ADD PUSH3 0x470 JUMP JUMPDEST SWAP5 POP POP PUSH1 0x20 DUP6 ADD CALLDATALOAD PUSH8 0xFFFFFFFFFFFFFFFF DUP2 GT ISZERO PUSH3 0x54E JUMPI PUSH3 0x54D PUSH3 0x33C JUMP JUMPDEST JUMPDEST PUSH3 0x55C DUP8 DUP3 DUP9 ADD PUSH3 0x470 JUMP JUMPDEST SWAP4 POP POP PUSH1 0x40 PUSH3 0x56F DUP8 DUP3 DUP9 ADD PUSH3 0x4C7 JUMP JUMPDEST SWAP3 POP POP PUSH1 0x60 PUSH3 0x582 DUP8 DUP3 DUP9 ADD PUSH3 0x4C7 JUMP JUMPDEST SWAP2 POP POP SWAP3 SWAP6 SWAP2 SWAP5 POP SWAP3 POP JUMP JUMPDEST PUSH3 0x599 DUP2 PUSH3 0x4A3 JUMP JUMPDEST DUP3 MSTORE POP POP JUMP JUMPDEST PUSH3 0x5AA DUP2 PUSH3 0x253 JUMP JUMPDEST DUP3 MSTORE POP POP JUMP JUMPDEST PUSH1 0x0 DUP2 MLOAD SWAP1 POP SWAP2 SWAP1 POP JUMP JUMPDEST PUSH1 0x0 DUP3 DUP3 MSTORE PUSH1 0x20 DUP3 ADD SWAP1 POP SWAP3 SWAP2 POP POP JUMP JUMPDEST PUSH1 0x0 JUMPDEST DUP4 DUP2 LT ISZERO PUSH3 0x5EC JUMPI DUP1 DUP3 ADD MLOAD DUP2 DUP5 ADD MSTORE PUSH1 0x20 DUP2 ADD SWAP1 POP PUSH3 0x5CF JUMP JUMPDEST PUSH1 0x0 DUP5 DUP5 ADD MSTORE POP POP POP POP JUMP JUMPDEST PUSH1 0x0 PUSH3 0x605 DUP3 PUSH3 0x5B0 JUMP JUMPDEST PUSH3 0x611 DUP2 DUP6 PUSH3 0x5BB JUMP JUMPDEST SWAP4 POP PUSH3 0x623 DUP2 DUP6 PUSH1 0x20 DUP7 ADD PUSH3 0x5CC JUMP JUMPDEST PUSH3 0x62E DUP2 PUSH3 0x34B JUMP JUMPDEST DUP5 ADD SWAP2 POP POP SWAP3 SWAP2 POP POP JUMP JUMPDEST PUSH1 0x0 PUSH1 0xA0 DUP3 ADD SWAP1 POP PUSH3 0x650 PUSH1 0x0 DUP4 ADD DUP9 PUSH3 0x58E JUMP JUMPDEST PUSH3 0x65F PUSH1 0x20 DUP4 ADD DUP8 PUSH3 0x59F JUMP JUMPDEST DUP2 DUP2 SUB PUSH1 0x40 DUP4 ADD MSTORE PUSH3 0x673 DUP2 DUP7 PUSH3 0x5F8 JUMP JUMPDEST SWAP1 POP DUP2 DUP2 SUB PUSH1 0x60 DUP4 ADD MSTORE PUSH3 0x689 DUP2 DUP6 PUSH3 0x5F8 JUMP JUMPDEST SWAP1 POP PUSH3 0x69A PUSH1 0x80 DUP4 ADD DUP5 PUSH3 0x58E JUMP JUMPDEST SWAP7 SWAP6 POP POP POP POP POP POP JUMP JUMPDEST PUSH1 0x0 PUSH1 0x20 DUP3 ADD SWAP1 POP PUSH3 0x6BB PUSH1 0x0 DUP4 ADD DUP5 PUSH3 0x59F JUMP JUMPDEST SWAP3 SWAP2 POP POP JUMP INVALID PUSH1 0x80 PUSH1 0x40 MSTORE CALLVALUE DUP1 ISZERO PUSH3 0x11 JUMPI PUSH1 0x0 DUP1 REVERT JUMPDEST POP PUSH1 0x40 MLOAD PUSH3 0x1DBB CODESIZE SUB DUP1 PUSH3 0x1DBB DUP4 CODECOPY DUP2 DUP2 ADD PUSH1 0x40 MSTORE DUP2 ADD SWAP1 PUSH3 0x37 SWAP2 SWAP1 PUSH3 0x2E7 JUMP JUMPDEST DUP5 PUSH1 0x4 DUP2 SWAP1 SSTORE POP DUP4 PUSH1 0x0 DUP1 PUSH2 0x100 EXP DUP2 SLOAD DUP2 PUSH20 0xFFFFFFFFFFFFFFFFFFFFFFFFFFFFFFFFFFFFFFFF MUL NOT AND SWAP1 DUP4 PUSH20 0xFFFFFFFFFFFFFFFFFFFFFFFFFFFFFFFFFFFFFFFF AND MUL OR SWAP1 SSTORE POP DUP3 PUSH1 0x1 SWAP1 DUP2 PUSH3 0x8F SWAP2 SWAP1 PUSH3 0x5EE JUMP JUMPDEST POP DUP2 PUSH1 0x2 SWAP1 DUP2 PUSH3 0xA1 SWAP2 SWAP1 PUSH3 0x5EE JUMP JUMPDEST POP DUP1 PUSH1 0x3 DUP2 SWAP1 SSTORE POP POP POP POP POP POP PUSH3 0x6D5 JUMP JUMPDEST PUSH1 0x0 PUSH1 0x40 MLOAD SWAP1 POP SWAP1 JUMP JUMPDEST PUSH1 0x0 DUP1 REVERT JUMPDEST PUSH1 0x0 DUP1 REVERT JUMPDEST PUSH1 0x0 DUP2 SWAP1 POP SWAP2 SWAP1 POP JUMP JUMPDEST PUSH3 0xDD DUP2 PUSH3 0xC8 JUMP JUMPDEST DUP2 EQ PUSH3 0xE9 JUMPI PUSH1 0x0 DUP1 REVERT JUMPDEST POP JUMP JUMPDEST PUSH1 0x0 DUP2 MLOAD SWAP1 POP PUSH3 0xFD DUP2 PUSH3 0xD2 JUMP JUMPDEST SWAP3 SWAP2 POP POP JUMP JUMPDEST PUSH1 0x0 PUSH20 0xFFFFFFFFFFFFFFFFFFFFFFFFFFFFFFFFFFFFFFFF DUP3 AND SWAP1 POP SWAP2 SWAP1 POP JUMP JUMPDEST PUSH1 0x0 PUSH3 0x130 DUP3 PUSH3 0x103 JUMP JUMPDEST SWAP1 POP SWAP2 SWAP1 POP JUMP JUMPDEST PUSH3 0x142 DUP2 PUSH3 0x123 JUMP JUMPDEST DUP2 EQ PUSH3 0x14E JUMPI PUSH1 0x0 DUP1 REVERT JUMPDEST POP JUMP JUMPDEST PUSH1 0x0 DUP2 MLOAD SWAP1 POP PUSH3 0x162 DUP2 PUSH3 0x137 JUMP JUMPDEST SWAP3 SWAP2 POP POP JUMP JUMPDEST PUSH1 0x0 DUP1 REVERT JUMPDEST PUSH1 0x0 DUP1 REVERT JUMPDEST PUSH1 0x0 PUSH1 0x1F NOT PUSH1 0x1F DUP4 ADD AND SWAP1 POP SWAP2 SWAP1 POP JUMP JUMPDEST PUSH32 0x4E487B7100000000000000000000000000000000000000000000000000000000 PUSH1 0x0 MSTORE PUSH1 0x41 PUSH1 0x4 MSTORE PUSH1 0x24 PUSH1 0x0 REVERT JUMPDEST PUSH3 0x1BD DUP3 PUSH3 0x172 JUMP JUMPDEST DUP2 ADD DUP2 DUP2 LT PUSH8 0xFFFFFFFFFFFFFFFF DUP3 GT OR ISZERO PUSH3 0x1DF JUMPI PUSH3 0x1DE PUSH3 0x183 JUMP JUMPDEST JUMPDEST DUP1 PUSH1 0x40 MSTORE POP POP POP JUMP JUMPDEST PUSH1 0x0 PUSH3 0x1F4 PUSH3 0xB4 JUMP JUMPDEST SWAP1 POP PUSH3 0x202 DUP3 DUP3 PUSH3 0x1B2 JUMP JUMPDEST SWAP2 SWAP1 POP JUMP JUMPDEST PUSH1 0x0 PUSH8 0xFFFFFFFFFFFFFFFF DUP3 GT ISZERO PUSH3 0x225 JUMPI PUSH3 0x224 PUSH3 0x183 JUMP JUMPDEST JUMPDEST PUSH3 0x230 DUP3 PUSH3 0x172 JUMP JUMPDEST SWAP1 POP PUSH1 0x20 DUP2 ADD SWAP1 POP SWAP2 SWAP1 POP JUMP JUMPDEST PUSH1 0x0 JUMPDEST DUP4 DUP2 LT ISZERO PUSH3 0x25D JUMPI DUP1 DUP3 ADD MLOAD DUP2 DUP5 ADD MSTORE PUSH1 0x20 DUP2 ADD SWAP1 POP PUSH3 0x240 JUMP JUMPDEST PUSH1 0x0 DUP5 DUP5 ADD MSTORE POP POP POP POP JUMP JUMPDEST PUSH1 0x0 PUSH3 0x280 PUSH3 0x27A DUP5 PUSH3 0x207 JUMP JUMPDEST PUSH3 0x1E8 JUMP JUMPDEST SWAP1 POP DUP3 DUP2 MSTORE PUSH1 0x20 DUP2 ADD DUP5 DUP5 DUP5 ADD GT ISZERO PUSH3 0x29F JUMPI PUSH3 0x29E PUSH3 0x16D JUMP JUMPDEST JUMPDEST PUSH3 0x2AC DUP5 DUP3 DUP6 PUSH3 0x23D JUMP JUMPDEST POP SWAP4 SWAP3 POP POP POP JUMP JUMPDEST PUSH1 0x0 DUP3 PUSH1 0x1F DUP4 ADD SLT PUSH3 0x2CC JUMPI PUSH3 0x2CB PUSH3 0x168 JUMP JUMPDEST JUMPDEST DUP2 MLOAD PUSH3 0x2DE DUP5 DUP3 PUSH1 0x20 DUP7 ADD PUSH3 0x269 JUMP JUMPDEST SWAP2 POP POP SWAP3 SWAP2 POP POP JUMP JUMPDEST PUSH1 0x0 DUP1 PUSH1 0x0 DUP1 PUSH1 0x0 PUSH1 0xA0 DUP7 DUP9 SUB SLT ISZERO PUSH3 0x306 JUMPI PUSH3 0x305 PUSH3 0xBE JUMP JUMPDEST JUMPDEST PUSH1 0x0 PUSH3 0x316 DUP9 DUP3 DUP10 ADD PUSH3 0xEC JUMP JUMPDEST SWAP6 POP POP PUSH1 0x20 PUSH3 0x329 DUP9 DUP3 DUP10 ADD PUSH3 0x151 JUMP JUMPDEST SWAP5 POP POP PUSH1 0x40 DUP7 ADD MLOAD PUSH8 0xFFFFFFFFFFFFFFFF DUP2 GT ISZERO PUSH3 0x34D JUMPI PUSH3 0x34C PUSH3 0xC3 JUMP JUMPDEST JUMPDEST PUSH3 0x35B DUP9 DUP3 DUP10 ADD PUSH3 0x2B4 JUMP JUMPDEST SWAP4 POP POP PUSH1 0x60 DUP7 ADD MLOAD PUSH8 0xFFFFFFFFFFFFFFFF DUP2 GT ISZERO PUSH3 0x37F JUMPI PUSH3 0x37E PUSH3 0xC3 JUMP JUMPDEST JUMPDEST PUSH3 0x38D DUP9 DUP3 DUP10 ADD PUSH3 0x2B4 JUMP JUMPDEST SWAP3 POP POP PUSH1 0x80 PUSH3 0x3A0 DUP9 DUP3 DUP10 ADD PUSH3 0xEC JUMP JUMPDEST SWAP2 POP POP SWAP3 SWAP6 POP SWAP3 SWAP6 SWAP1 SWAP4 POP JUMP JUMPDEST PUSH1 0x0 DUP2 MLOAD SWAP1 POP SWAP2 SWAP1 POP JUMP JUMPDEST PUSH32 0x4E487B7100000000000000000000000000000000000000000000000000000000 PUSH1 0x0 MSTORE PUSH1 0x22 PUSH1 0x4 MSTORE PUSH1 0x24 PUSH1 0x0 REVERT JUMPDEST PUSH1 0x0 PUSH1 0x2 DUP3 DIV SWAP1 POP PUSH1 0x1 DUP3 AND DUP1 PUSH3 0x400 JUMPI PUSH1 0x7F DUP3 AND SWAP2 POP JUMPDEST PUSH1 0x20 DUP3 LT DUP2 SUB PUSH3 0x416 JUMPI PUSH3 0x415 PUSH3 0x3B8 JUMP JUMPDEST JUMPDEST POP SWAP2 SWAP1 POP JUMP JUMPDEST PUSH1 0x0 DUP2 SWAP1 POP DUP2 PUSH1 0x0 MSTORE PUSH1 0x20 PUSH1 0x0 KECCAK256 SWAP1 POP SWAP2 SWAP1 POP JUMP JUMPDEST PUSH1 0x0 PUSH1 0x20 PUSH1 0x1F DUP4 ADD DIV SWAP1 POP SWAP2 SWAP1 POP JUMP JUMPDEST PUSH1 0x0 DUP3 DUP3 SHL SWAP1 POP SWAP3 SWAP2 POP POP JUMP JUMPDEST PUSH1 0x0 PUSH1 0x8 DUP4 MUL PUSH3 0x480 PUSH32 0xFFFFFFFFFFFFFFFFFFFFFFFFFFFFFFFFFFFFFFFFFFFFFFFFFFFFFFFFFFFFFFFF DUP3 PUSH3 0x441 JUMP JUMPDEST PUSH3 0x48C DUP7 DUP4 PUSH3 0x441 JUMP JUMPDEST SWAP6 POP DUP1 NOT DUP5 AND SWAP4 POP DUP1 DUP7 AND DUP5 OR SWAP3 POP POP POP SWAP4 SWAP3 POP POP POP JUMP JUMPDEST PUSH1 0x0 DUP2 SWAP1 POP SWAP2 SWAP1 POP JUMP JUMPDEST PUSH1 0x0 PUSH3 0x4CF PUSH3 0x4C9 PUSH3 0x4C3 DUP5 PUSH3 0xC8 JUMP JUMPDEST PUSH3 0x4A4 JUMP JUMPDEST PUSH3 0xC8 JUMP JUMPDEST SWAP1 POP SWAP2 SWAP1 POP JUMP JUMPDEST PUSH1 0x0 DUP2 SWAP1 POP SWAP2 SWAP1 POP JUMP JUMPDEST PUSH3 0x4EB DUP4 PUSH3 0x4AE JUMP JUMPDEST PUSH3 0x503 PUSH3 0x4FA DUP3 PUSH3 0x4D6 JUMP JUMPDEST DUP5 DUP5 SLOAD PUSH3 0x44E JUMP JUMPDEST DUP3 SSTORE POP POP POP POP JUMP JUMPDEST PUSH1 0x0 SWAP1 JUMP JUMPDEST PUSH3 0x51A PUSH3 0x50B JUMP JUMPDEST PUSH3 0x527 DUP2 DUP5 DUP5 PUSH3 0x4E0 JUMP JUMPDEST POP POP POP JUMP JUMPDEST JUMPDEST DUP2 DUP2 LT ISZERO PUSH3 0x54F JUMPI PUSH3 0x543 PUSH1 0x0 DUP3 PUSH3 0x510 JUMP JUMPDEST PUSH1 0x1 DUP2 ADD SWAP1 POP PUSH3 0x52D JUMP JUMPDEST POP POP JUMP JUMPDEST PUSH1 0x1F DUP3 GT ISZERO PUSH3 0x59E JUMPI PUSH3 0x568 DUP2 PUSH3 0x41C JUMP JUMPDEST PUSH3 0x573 DUP5 PUSH3 0x431 JUMP JUMPDEST DUP2 ADD PUSH1 0x20 DUP6 LT ISZERO PUSH3 0x583 JUMPI DUP2 SWAP1 POP JUMPDEST PUSH3 0x59B PUSH3 0x592 DUP6 PUSH3 0x431 JUMP JUMPDEST DUP4 ADD DUP3 PUSH3 0x52C JUMP JUMPDEST POP POP JUMPDEST POP POP POP JUMP JUMPDEST PUSH1 0x0 DUP3 DUP3 SHR SWAP1 POP SWAP3 SWAP2 POP POP JUMP JUMPDEST PUSH1 0x0 PUSH3 0x5C3 PUSH1 0x0 NOT DUP5 PUSH1 0x8 MUL PUSH3 0x5A3 JUMP JUMPDEST NOT DUP1 DUP4 AND SWAP2 POP POP SWAP3 SWAP2 POP POP JUMP JUMPDEST PUSH1 0x0 PUSH3 0x5DE DUP4 DUP4 PUSH3 0x5B0 JUMP JUMPDEST SWAP2 POP DUP3 PUSH1 0x2 MUL DUP3 OR SWAP1 POP SWAP3 SWAP2 POP POP JUMP JUMPDEST PUSH3 0x5F9 DUP3 PUSH3 0x3AD JUMP JUMPDEST PUSH8 0xFFFFFFFFFFFFFFFF DUP2 GT ISZERO PUSH3 0x615 JUMPI PUSH3 0x614 PUSH3 0x183 JUMP JUMPDEST JUMPDEST PUSH3 0x621 DUP3 SLOAD PUSH3 0x3E7 JUMP JUMPDEST PUSH3 0x62E DUP3 DUP3 DUP6 PUSH3 0x553 JUMP JUMPDEST PUSH1 0x0 PUSH1 0x20 SWAP1 POP PUSH1 0x1F DUP4 GT PUSH1 0x1 DUP2 EQ PUSH3 0x666 JUMPI PUSH1 0x0 DUP5 ISZERO PUSH3 0x651 JUMPI DUP3 DUP8 ADD MLOAD SWAP1 POP JUMPDEST PUSH3 0x65D DUP6 DUP3 PUSH3 0x5D0 JUMP JUMPDEST DUP7 SSTORE POP PUSH3 0x6CD JUMP JUMPDEST PUSH1 0x1F NOT DUP5 AND PUSH3 0x676 DUP7 PUSH3 0x41C JUMP JUMPDEST PUSH1 0x0 JUMPDEST DUP3 DUP2 LT ISZERO PUSH3 0x6A0 JUMPI DUP5 DUP10 ADD MLOAD DUP3 SSTORE PUSH1 0x1 DUP3 ADD SWAP2 POP PUSH1 0x20 DUP6 ADD SWAP5 POP PUSH1 0x20 DUP2 ADD SWAP1 POP PUSH3 0x679 JUMP JUMPDEST DUP7 DUP4 LT ISZERO PUSH3 0x6C0 JUMPI DUP5 DUP10 ADD MLOAD PUSH3 0x6BC PUSH1 0x1F DUP10 AND DUP3 PUSH3 0x5B0 JUMP JUMPDEST DUP4 SSTORE POP JUMPDEST PUSH1 0x1 PUSH1 0x2 DUP9 MUL ADD DUP9 SSTORE POP POP POP JUMPDEST POP POP POP POP POP POP JUMP JUMPDEST PUSH2 0x16D6 DUP1 PUSH3 0x6E5 PUSH1 0x0 CODECOPY PUSH1 0x0 RETURN INVALID PUSH1 0x80 PUSH1 0x40 MSTORE PUSH1 0x4 CALLDATASIZE LT PUSH2 0xF3 JUMPI PUSH1 0x0 CALLDATALOAD PUSH1 0xE0 SHR DUP1 PUSH4 0x82FDE093 GT PUSH2 0x8A JUMPI DUP1 PUSH4 0xD7BB99BA GT PUSH2 0x59 JUMPI DUP1 PUSH4 0xD7BB99BA EQ PUSH2 0x32C JUMPI DUP1 PUSH4 0xD7D1BBDB EQ PUSH2 0x336 JUMPI DUP1 PUSH4 0xE7B668B4 EQ PUSH2 0x35F JUMPI DUP1 PUSH4 0xEF068A7F EQ PUSH2 0x388 JUMPI PUSH2 0xF3 JUMP JUMPDEST DUP1 PUSH4 0x82FDE093 EQ PUSH2 0x282 JUMPI DUP1 PUSH4 0xAAFFADF3 EQ PUSH2 0x2AD JUMPI DUP1 PUSH4 0xC5C4744C EQ PUSH2 0x2D8 JUMPI DUP1 PUSH4 0xC7741265 EQ PUSH2 0x303 JUMPI PUSH2 0xF3 JUMP JUMPDEST DUP1 PUSH4 0x4051DDAC GT PUSH2 0xC6 JUMPI DUP1 PUSH4 0x4051DDAC EQ PUSH2 0x1B6 JUMPI DUP1 PUSH4 0x481C6A75 EQ PUSH2 0x1EA JUMPI DUP1 PUSH4 0x5B18056B EQ PUSH2 0x215 JUMPI DUP1 PUSH4 0x81D12C58 EQ PUSH2 0x240 JUMPI PUSH2 0xF3 JUMP JUMPDEST DUP1 PUSH4 0x724FDA9 EQ PUSH2 0xF8 JUMPI DUP1 PUSH4 0xA144391 EQ PUSH2 0x123 JUMPI DUP1 PUSH4 0x110842CB EQ PUSH2 0x160 JUMPI DUP1 PUSH4 0x3410452A EQ PUSH2 0x18B JUMPI JUMPDEST PUSH1 0x0 DUP1 REVERT JUMPDEST CALLVALUE DUP1 ISZERO PUSH2 0x104 JUMPI PUSH1 0x0 DUP1 REVERT JUMPDEST POP PUSH2 0x10D PUSH2 0x3B3 JUMP JUMPDEST PUSH1 0x40 MLOAD PUSH2 0x11A SWAP2 SWAP1 PUSH2 0xDA0 JUMP JUMPDEST PUSH1 0x40 MLOAD DUP1 SWAP2 SUB SWAP1 RETURN JUMPDEST CALLVALUE DUP1 ISZERO PUSH2 0x12F JUMPI PUSH1 0x0 DUP1 REVERT JUMPDEST POP PUSH2 0x14A PUSH1 0x4 DUP1 CALLDATASIZE SUB DUP2 ADD SWAP1 PUSH2 0x145 SWAP2 SWAP1 PUSH2 0xE34 JUMP JUMPDEST PUSH2 0x441 JUMP JUMPDEST PUSH1 0x40 MLOAD PUSH2 0x157 SWAP2 SWAP1 PUSH2 0xE7C JUMP JUMPDEST PUSH1 0x40 MLOAD DUP1 SWAP2 SUB SWAP1 RETURN JUMPDEST CALLVALUE DUP1 ISZERO PUSH2 0x16C JUMPI PUSH1 0x0 DUP1 REVERT JUMPDEST POP PUSH2 0x175 PUSH2 0x461 JUMP JUMPDEST PUSH1 0x40 MLOAD PUSH2 0x182 SWAP2 SWAP1 PUSH2 0xDA0 JUMP JUMPDEST PUSH1 0x40 MLOAD DUP1 SWAP2 SUB SWAP1 RETURN JUMPDEST CALLVALUE DUP1 ISZERO PUSH2 0x197 JUMPI PUSH1 0x0 DUP1 REVERT JUMPDEST POP PUSH2 0x1A0 PUSH2 0x4EF JUMP JUMPDEST PUSH1 0x40 MLOAD PUSH2 0x1AD SWAP2 SWAP1 PUSH2 0xEB0 JUMP JUMPDEST PUSH1 0x40 MLOAD DUP1 SWAP2 SUB SWAP1 RETURN JUMPDEST CALLVALUE DUP1 ISZERO PUSH2 0x1C2 JUMPI PUSH1 0x0 DUP1 REVERT JUMPDEST POP PUSH2 0x1CB PUSH2 0x4FC JUMP JUMPDEST PUSH1 0x40 MLOAD PUSH2 0x1E1 SWAP11 SWAP10 SWAP9 SWAP8 SWAP7 SWAP6 SWAP5 SWAP4 SWAP3 SWAP2 SWAP1 PUSH2 0xEDA JUMP JUMPDEST PUSH1 0x40 MLOAD DUP1 SWAP2 SUB SWAP1 RETURN JUMPDEST CALLVALUE DUP1 ISZERO PUSH2 0x1F6 JUMPI PUSH1 0x0 DUP1 REVERT JUMPDEST POP PUSH2 0x1FF PUSH2 0x67E JUMP JUMPDEST PUSH1 0x40 MLOAD PUSH2 0x20C SWAP2 SWAP1 PUSH2 0xF84 JUMP JUMPDEST PUSH1 0x40 MLOAD DUP1 SWAP2 SUB SWAP1 RETURN JUMPDEST CALLVALUE DUP1 ISZERO PUSH2 0x221 JUMPI PUSH1 0x0 DUP1 REVERT JUMPDEST POP PUSH2 0x22A PUSH2 0x6A2 JUMP JUMPDEST PUSH1 0x40 MLOAD PUSH2 0x237 SWAP2 SWAP1 PUSH2 0xEB0 JUMP JUMPDEST PUSH1 0x40 MLOAD DUP1 SWAP2 SUB SWAP1 RETURN JUMPDEST CALLVALUE DUP1 ISZERO PUSH2 0x24C JUMPI PUSH1 0x0 DUP1 REVERT JUMPDEST POP PUSH2 0x267 PUSH1 0x4 DUP1 CALLDATASIZE SUB DUP2 ADD SWAP1 PUSH2 0x262 SWAP2 SWAP1 PUSH2 0xFCB JUMP JUMPDEST PUSH2 0x6A8 JUMP JUMPDEST PUSH1 0x40 MLOAD PUSH2 0x279 SWAP7 SWAP6 SWAP5 SWAP4 SWAP3 SWAP2 SWAP1 PUSH2 0x1019 JUMP JUMPDEST PUSH1 0x40 MLOAD DUP1 SWAP2 SUB SWAP1 RETURN JUMPDEST CALLVALUE DUP1 ISZERO PUSH2 0x28E JUMPI PUSH1 0x0 DUP1 REVERT JUMPDEST POP PUSH2 0x297 PUSH2 0x831 JUMP JUMPDEST PUSH1 0x40 MLOAD PUSH2 0x2A4 SWAP2 SWAP1 PUSH2 0xEB0 JUMP JUMPDEST PUSH1 0x40 MLOAD DUP1 SWAP2 SUB SWAP1 RETURN JUMPDEST CALLVALUE DUP1 ISZERO PUSH2 0x2B9 JUMPI PUSH1 0x0 DUP1 REVERT JUMPDEST POP PUSH2 0x2C2 PUSH2 0x837 JUMP JUMPDEST PUSH1 0x40 MLOAD PUSH2 0x2CF SWAP2 SWAP1 PUSH2 0xEB0 JUMP JUMPDEST PUSH1 0x40 MLOAD DUP1 SWAP2 SUB SWAP1 RETURN JUMPDEST CALLVALUE DUP1 ISZERO PUSH2 0x2E4 JUMPI PUSH1 0x0 DUP1 REVERT JUMPDEST POP PUSH2 0x2ED PUSH2 0x83D JUMP JUMPDEST PUSH1 0x40 MLOAD PUSH2 0x2FA SWAP2 SWAP1 PUSH2 0xEB0 JUMP JUMPDEST PUSH1 0x40 MLOAD DUP1 SWAP2 SUB SWAP1 RETURN JUMPDEST CALLVALUE DUP1 ISZERO PUSH2 0x30F JUMPI PUSH1 0x0 DUP1 REVERT JUMPDEST POP PUSH2 0x32A PUSH1 0x4 DUP1 CALLDATASIZE SUB DUP2 ADD SWAP1 PUSH2 0x325 SWAP2 SWAP1 PUSH2 0x11E9 JUMP JUMPDEST PUSH2 0x843 JUMP JUMPDEST STOP JUMPDEST PUSH2 0x334 PUSH2 0x96C JUMP JUMPDEST STOP JUMPDEST CALLVALUE DUP1 ISZERO PUSH2 0x342 JUMPI PUSH1 0x0 DUP1 REVERT JUMPDEST POP PUSH2 0x35D PUSH1 0x4 DUP1 CALLDATASIZE SUB DUP2 ADD SWAP1 PUSH2 0x358 SWAP2 SWAP1 PUSH2 0xFCB JUMP JUMPDEST PUSH2 0xA75 JUMP JUMPDEST STOP JUMPDEST CALLVALUE DUP1 ISZERO PUSH2 0x36B JUMPI PUSH1 0x0 DUP1 REVERT JUMPDEST POP PUSH2 0x386 PUSH1 0x4 DUP1 CALLDATASIZE SUB DUP2 ADD SWAP1 PUSH2 0x381 SWAP2 SWAP1 PUSH2 0xFCB JUMP JUMPDEST PUSH2 0xBC2 JUMP JUMPDEST STOP JUMPDEST CALLVALUE DUP1 ISZERO PUSH2 0x394 JUMPI PUSH1 0x0 DUP1 REVERT JUMPDEST POP PUSH2 0x39D PUSH2 0xD0A JUMP JUMPDEST PUSH1 0x40 MLOAD PUSH2 0x3AA SWAP2 SWAP1 PUSH2 0xEB0 JUMP JUMPDEST PUSH1 0x40 MLOAD DUP1 SWAP2 SUB SWAP1 RETURN JUMPDEST PUSH1 0x1 DUP1 SLOAD PUSH2 0x3C0 SWAP1 PUSH2 0x12B7 JUMP JUMPDEST DUP1 PUSH1 0x1F ADD PUSH1 0x20 DUP1 SWAP2 DIV MUL PUSH1 0x20 ADD PUSH1 0x40 MLOAD SWAP1 DUP2 ADD PUSH1 0x40 MSTORE DUP1 SWAP3 SWAP2 SWAP1 DUP2 DUP2 MSTORE PUSH1 0x20 ADD DUP3 DUP1 SLOAD PUSH2 0x3EC SWAP1 PUSH2 0x12B7 JUMP JUMPDEST DUP1 ISZERO PUSH2 0x439 JUMPI DUP1 PUSH1 0x1F LT PUSH2 0x40E JUMPI PUSH2 0x100 DUP1 DUP4 SLOAD DIV MUL DUP4 MSTORE SWAP2 PUSH1 0x20 ADD SWAP2 PUSH2 0x439 JUMP JUMPDEST DUP3 ADD SWAP2 SWAP1 PUSH1 0x0 MSTORE PUSH1 0x20 PUSH1 0x0 KECCAK256 SWAP1 JUMPDEST DUP2 SLOAD DUP2 MSTORE SWAP1 PUSH1 0x1 ADD SWAP1 PUSH1 0x20 ADD DUP1 DUP4 GT PUSH2 0x41C JUMPI DUP3 SWAP1 SUB PUSH1 0x1F AND DUP3 ADD SWAP2 JUMPDEST POP POP POP POP POP DUP2 JUMP JUMPDEST PUSH1 0x6 PUSH1 0x20 MSTORE DUP1 PUSH1 0x0 MSTORE PUSH1 0x40 PUSH1 0x0 KECCAK256 PUSH1 0x0 SWAP2 POP SLOAD SWAP1 PUSH2 0x100 EXP SWAP1 DIV PUSH1 0xFF AND DUP2 JUMP JUMPDEST PUSH1 0x2 DUP1 SLOAD PUSH2 0x46E SWAP1 PUSH2 0x12B7 JUMP JUMPDEST DUP1 PUSH1 0x1F ADD PUSH1 0x20 DUP1 SWAP2 DIV MUL PUSH1 0x20 ADD PUSH1 0x40 MLOAD SWAP1 DUP2 ADD PUSH1 0x40 MSTORE DUP1 SWAP3 SWAP2 SWAP1 DUP2 DUP2 MSTORE PUSH1 0x20 ADD DUP3 DUP1 SLOAD PUSH2 0x49A SWAP1 PUSH2 0x12B7 JUMP JUMPDEST DUP1 ISZERO PUSH2 0x4E7 JUMPI DUP1 PUSH1 0x1F LT PUSH2 0x4BC JUMPI PUSH2 0x100 DUP1 DUP4 SLOAD DIV MUL DUP4 MSTORE SWAP2 PUSH1 0x20 ADD SWAP2 PUSH2 0x4E7 JUMP JUMPDEST DUP3 ADD SWAP2 SWAP1 PUSH1 0x0 MSTORE PUSH1 0x20 PUSH1 0x0 KECCAK256 SWAP1 JUMPDEST DUP2 SLOAD DUP2 MSTORE SWAP1 PUSH1 0x1 ADD SWAP1 PUSH1 0x20 ADD DUP1 DUP4 GT PUSH2 0x4CA JUMPI DUP3 SWAP1 SUB PUSH1 0x1F AND DUP3 ADD SWAP2 JUMPDEST POP POP POP POP POP DUP2 JUMP JUMPDEST PUSH1 0x0 PUSH1 0x8 DUP1 SLOAD SWAP1 POP SWAP1 POP SWAP1 JUMP JUMPDEST PUSH1 0x60 DUP1 PUSH1 0x0 DUP1 PUSH1 0x0 DUP1 PUSH1 0x0 DUP1 PUSH1 0x0 DUP1 PUSH1 0x1 PUSH1 0x2 PUSH1 0x3 SLOAD PUSH1 0x5 SLOAD PUSH1 0x4 SLOAD PUSH1 0x9 SLOAD SELFBALANCE PUSH1 0x8 DUP1 SLOAD SWAP1 POP PUSH1 0x7 SLOAD PUSH1 0x0 DUP1 SLOAD SWAP1 PUSH2 0x100 EXP SWAP1 DIV PUSH20 0xFFFFFFFFFFFFFFFFFFFFFFFFFFFFFFFFFFFFFFFF AND DUP10 DUP1 SLOAD PUSH2 0x552 SWAP1 PUSH2 0x12B7 JUMP JUMPDEST DUP1 PUSH1 0x1F ADD PUSH1 0x20 DUP1 SWAP2 DIV MUL PUSH1 0x20 ADD PUSH1 0x40 MLOAD SWAP1 DUP2 ADD PUSH1 0x40 MSTORE DUP1 SWAP3 SWAP2 SWAP1 DUP2 DUP2 MSTORE PUSH1 0x20 ADD DUP3 DUP1 SLOAD PUSH2 0x57E SWAP1 PUSH2 0x12B7 JUMP JUMPDEST DUP1 ISZERO PUSH2 0x5CB JUMPI DUP1 PUSH1 0x1F LT PUSH2 0x5A0 JUMPI PUSH2 0x100 DUP1 DUP4 SLOAD DIV MUL DUP4 MSTORE SWAP2 PUSH1 0x20 ADD SWAP2 PUSH2 0x5CB JUMP JUMPDEST DUP3 ADD SWAP2 SWAP1 PUSH1 0x0 MSTORE PUSH1 0x20 PUSH1 0x0 KECCAK256 SWAP1 JUMPDEST DUP2 SLOAD DUP2 MSTORE SWAP1 PUSH1 0x1 ADD SWAP1 PUSH1 0x20 ADD DUP1 DUP4 GT PUSH2 0x5AE JUMPI DUP3 SWAP1 SUB PUSH1 0x1F AND DUP3 ADD SWAP2 JUMPDEST POP POP POP POP POP SWAP10 POP DUP9 DUP1 SLOAD PUSH2 0x5DE SWAP1 PUSH2 0x12B7 JUMP JUMPDEST DUP1 PUSH1 0x1F ADD PUSH1 0x20 DUP1 SWAP2 DIV MUL PUSH1 0x20 ADD PUSH1 0x40 MLOAD SWAP1 DUP2 ADD PUSH1 0x40 MSTORE DUP1 SWAP3 SWAP2 SWAP1 DUP2 DUP2 MSTORE PUSH1 0x20 ADD DUP3 DUP1 SLOAD PUSH2 0x60A SWAP1 PUSH2 0x12B7 JUMP JUMPDEST DUP1 ISZERO PUSH2 0x657 JUMPI DUP1 PUSH1 0x1F LT PUSH2 0x62C JUMPI PUSH2 0x100 DUP1 DUP4 SLOAD DIV MUL DUP4 MSTORE SWAP2 PUSH1 0x20 ADD SWAP2 PUSH2 0x657 JUMP JUMPDEST DUP3 ADD SWAP2 SWAP1 PUSH1 0x0 MSTORE PUSH1 0x20 PUSH1 0x0 KECCAK256 SWAP1 JUMPDEST DUP2 SLOAD DUP2 MSTORE SWAP1 PUSH1 0x1 ADD SWAP1 PUSH1 0x20 ADD DUP1 DUP4 GT PUSH2 0x63A JUMPI DUP3 SWAP1 SUB PUSH1 0x1F AND DUP3 ADD SWAP2 JUMPDEST POP POP POP POP POP SWAP9 POP SWAP10 POP SWAP10 POP SWAP10 POP SWAP10 POP SWAP10 POP SWAP10 POP SWAP10 POP SWAP10 POP SWAP10 POP SWAP10 POP SWAP1 SWAP2 SWAP3 SWAP4 SWAP5 SWAP6 SWAP7 SWAP8 SWAP9 SWAP10 JUMP JUMPDEST PUSH1 0x0 DUP1 SLOAD SWAP1 PUSH2 0x100 EXP SWAP1 DIV PUSH20 0xFFFFFFFFFFFFFFFFFFFFFFFFFFFFFFFFFFFFFFFF AND DUP2 JUMP JUMPDEST PUSH1 0x5 SLOAD DUP2 JUMP JUMPDEST PUSH1 0x8 DUP2 DUP2 SLOAD DUP2 LT PUSH2 0x6B8 JUMPI PUSH1 0x0 DUP1 REVERT JUMPDEST SWAP1 PUSH1 0x0 MSTORE PUSH1 0x20 PUSH1 0x0 KECCAK256 SWAP1 PUSH1 0x6 MUL ADD PUSH1 0x0 SWAP2 POP SWAP1 POP DUP1 PUSH1 0x0 ADD DUP1 SLOAD PUSH2 0x6DB SWAP1 PUSH2 0x12B7 JUMP JUMPDEST DUP1 PUSH1 0x1F ADD PUSH1 0x20 DUP1 SWAP2 DIV MUL PUSH1 0x20 ADD PUSH1 0x40 MLOAD SWAP1 DUP2 ADD PUSH1 0x40 MSTORE DUP1 SWAP3 SWAP2 SWAP1 DUP2 DUP2 MSTORE PUSH1 0x20 ADD DUP3 DUP1 SLOAD PUSH2 0x707 SWAP1 PUSH2 0x12B7 JUMP JUMPDEST DUP1 ISZERO PUSH2 0x754 JUMPI DUP1 PUSH1 0x1F LT PUSH2 0x729 JUMPI PUSH2 0x100 DUP1 DUP4 SLOAD DIV MUL DUP4 MSTORE SWAP2 PUSH1 0x20 ADD SWAP2 PUSH2 0x754 JUMP JUMPDEST DUP3 ADD SWAP2 SWAP1 PUSH1 0x0 MSTORE PUSH1 0x20 PUSH1 0x0 KECCAK256 SWAP1 JUMPDEST DUP2 SLOAD DUP2 MSTORE SWAP1 PUSH1 0x1 ADD SWAP1 PUSH1 0x20 ADD DUP1 DUP4 GT PUSH2 0x737 JUMPI DUP3 SWAP1 SUB PUSH1 0x1F AND DUP3 ADD SWAP2 JUMPDEST POP POP POP POP POP SWAP1 DUP1 PUSH1 0x1 ADD DUP1 SLOAD PUSH2 0x769 SWAP1 PUSH2 0x12B7 JUMP JUMPDEST DUP1 PUSH1 0x1F ADD PUSH1 0x20 DUP1 SWAP2 DIV MUL PUSH1 0x20 ADD PUSH1 0x40 MLOAD SWAP1 DUP2 ADD PUSH1 0x40 MSTORE DUP1 SWAP3 SWAP2 SWAP1 DUP2 DUP2 MSTORE PUSH1 0x20 ADD DUP3 DUP1 SLOAD PUSH2 0x795 SWAP1 PUSH2 0x12B7 JUMP JUMPDEST DUP1 ISZERO PUSH2 0x7E2 JUMPI DUP1 PUSH1 0x1F LT PUSH2 0x7B7 JUMPI PUSH2 0x100 DUP1 DUP4 SLOAD DIV MUL DUP4 MSTORE SWAP2 PUSH1 0x20 ADD SWAP2 PUSH2 0x7E2 JUMP JUMPDEST DUP3 ADD SWAP2 SWAP1 PUSH1 0x0 MSTORE PUSH1 0x20 PUSH1 0x0 KECCAK256 SWAP1 JUMPDEST DUP2 SLOAD DUP2 MSTORE SWAP1 PUSH1 0x1 ADD SWAP1 PUSH1 0x20 ADD DUP1 DUP4 GT PUSH2 0x7C5 JUMPI DUP3 SWAP1 SUB PUSH1 0x1F AND DUP3 ADD SWAP2 JUMPDEST POP POP POP POP POP SWAP1 DUP1 PUSH1 0x2 ADD SLOAD SWAP1 DUP1 PUSH1 0x3 ADD PUSH1 0x0 SWAP1 SLOAD SWAP1 PUSH2 0x100 EXP SWAP1 DIV PUSH20 0xFFFFFFFFFFFFFFFFFFFFFFFFFFFFFFFFFFFFFFFF AND SWAP1 DUP1 PUSH1 0x3 ADD PUSH1 0x14 SWAP1 SLOAD SWAP1 PUSH2 0x100 EXP SWAP1 DIV PUSH1 0xFF AND SWAP1 DUP1 PUSH1 0x4 ADD SLOAD SWAP1 POP DUP7 JUMP JUMPDEST PUSH1 0x7 SLOAD DUP2 JUMP JUMPDEST PUSH1 0x4 SLOAD DUP2 JUMP JUMPDEST PUSH1 0x9 SLOAD DUP2 JUMP JUMPDEST PUSH1 0x0 DUP1 SLOAD SWAP1 PUSH2 0x100 EXP SWAP1 DIV PUSH20 0xFFFFFFFFFFFFFFFFFFFFFFFFFFFFFFFFFFFFFFFF AND PUSH20 0xFFFFFFFFFFFFFFFFFFFFFFFFFFFFFFFFFFFFFFFF AND CALLER PUSH20 0xFFFFFFFFFFFFFFFFFFFFFFFFFFFFFFFFFFFFFFFF AND EQ PUSH2 0x89B JUMPI PUSH1 0x0 DUP1 REVERT JUMPDEST PUSH1 0x3 SLOAD SELFBALANCE LT ISZERO PUSH2 0x8AA JUMPI PUSH1 0x0 DUP1 REVERT JUMPDEST PUSH1 0x0 PUSH1 0x8 PUSH1 0x1 DUP2 PUSH1 0x1 DUP2 SLOAD ADD DUP1 DUP3 SSTORE DUP1 SWAP2 POP POP SUB SWAP1 PUSH1 0x0 MSTORE PUSH1 0x20 PUSH1 0x0 KECCAK256 SWAP1 PUSH1 0x6 MUL ADD SWAP1 POP DUP5 DUP2 PUSH1 0x0 ADD SWAP1 DUP2 PUSH2 0x8DF SWAP2 SWAP1 PUSH2 0x1494 JUMP JUMPDEST POP DUP4 DUP2 PUSH1 0x1 ADD SWAP1 DUP2 PUSH2 0x8F1 SWAP2 SWAP1 PUSH2 0x1494 JUMP JUMPDEST POP DUP3 DUP2 PUSH1 0x2 ADD DUP2 SWAP1 SSTORE POP DUP2 DUP2 PUSH1 0x3 ADD PUSH1 0x0 PUSH2 0x100 EXP DUP2 SLOAD DUP2 PUSH20 0xFFFFFFFFFFFFFFFFFFFFFFFFFFFFFFFFFFFFFFFF MUL NOT AND SWAP1 DUP4 PUSH20 0xFFFFFFFFFFFFFFFFFFFFFFFFFFFFFFFFFFFFFFFF AND MUL OR SWAP1 SSTORE POP PUSH1 0x0 DUP2 PUSH1 0x3 ADD PUSH1 0x14 PUSH2 0x100 EXP DUP2 SLOAD DUP2 PUSH1 0xFF MUL NOT AND SWAP1 DUP4 ISZERO ISZERO MUL OR SWAP1 SSTORE POP PUSH1 0x0 DUP2 PUSH1 0x4 ADD DUP2 SWAP1 SSTORE POP POP POP POP POP POP JUMP JUMPDEST PUSH1 0x0 PUSH1 0x6 PUSH1 0x0 CALLER PUSH20 0xFFFFFFFFFFFFFFFFFFFFFFFFFFFFFFFFFFFFFFFF AND PUSH20 0xFFFFFFFFFFFFFFFFFFFFFFFFFFFFFFFFFFFFFFFF AND DUP2 MSTORE PUSH1 0x20 ADD SWAP1 DUP2 MSTORE PUSH1 0x20 ADD PUSH1 0x0 KECCAK256 PUSH1 0x0 SWAP1 SLOAD SWAP1 PUSH2 0x100 EXP SWAP1 DIV PUSH1 0xFF AND SWAP1 POP DUP1 PUSH2 0xA41 JUMPI PUSH1 0x4 SLOAD CALLVALUE GT PUSH2 0x9D0 JUMPI PUSH1 0x0 DUP1 REVERT JUMPDEST PUSH1 0x1 PUSH1 0x6 PUSH1 0x0 CALLER PUSH20 0xFFFFFFFFFFFFFFFFFFFFFFFFFFFFFFFFFFFFFFFF AND PUSH20 0xFFFFFFFFFFFFFFFFFFFFFFFFFFFFFFFFFFFFFFFF AND DUP2 MSTORE PUSH1 0x20 ADD SWAP1 DUP2 MSTORE PUSH1 0x20 ADD PUSH1 0x0 KECCAK256 PUSH1 0x0 PUSH2 0x100 EXP DUP2 SLOAD DUP2 PUSH1 0xFF MUL NOT AND SWAP1 DUP4 ISZERO ISZERO MUL OR SWAP1 SSTORE POP PUSH1 0x7 PUSH1 0x0 DUP2 SLOAD DUP1 SWAP3 SWAP2 SWAP1 PUSH2 0xA3B SWAP1 PUSH2 0x1595 JUMP JUMPDEST SWAP2 SWAP1 POP SSTORE POP JUMPDEST CALLVALUE PUSH1 0x9 PUSH1 0x0 DUP3 DUP3 SLOAD PUSH2 0xA53 SWAP2 SWAP1 PUSH2 0x15DD JUMP JUMPDEST SWAP3 POP POP DUP2 SWAP1 SSTORE POP PUSH1 0x5 PUSH1 0x0 DUP2 SLOAD DUP1 SWAP3 SWAP2 SWAP1 PUSH2 0xA6D SWAP1 PUSH2 0x1595 JUMP JUMPDEST SWAP2 SWAP1 POP SSTORE POP POP JUMP JUMPDEST PUSH1 0x0 PUSH1 0x8 DUP3 DUP2 SLOAD DUP2 LT PUSH2 0xA8B JUMPI PUSH2 0xA8A PUSH2 0x1611 JUMP JUMPDEST JUMPDEST SWAP1 PUSH1 0x0 MSTORE PUSH1 0x20 PUSH1 0x0 KECCAK256 SWAP1 PUSH1 0x6 MUL ADD SWAP1 POP PUSH1 0x6 PUSH1 0x0 CALLER PUSH20 0xFFFFFFFFFFFFFFFFFFFFFFFFFFFFFFFFFFFFFFFF AND PUSH20 0xFFFFFFFFFFFFFFFFFFFFFFFFFFFFFFFFFFFFFFFF AND DUP2 MSTORE PUSH1 0x20 ADD SWAP1 DUP2 MSTORE PUSH1 0x20 ADD PUSH1 0x0 KECCAK256 PUSH1 0x0 SWAP1 SLOAD SWAP1 PUSH2 0x100 EXP SWAP1 DIV PUSH1 0xFF AND PUSH2 0xAF1 JUMPI PUSH1 0x0 DUP1 REVERT JUMPDEST DUP1 PUSH1 0x5 ADD PUSH1 0x0 CALLER PUSH20 0xFFFFFFFFFFFFFFFFFFFFFFFFFFFFFFFFFFFFFFFF AND PUSH20 0xFFFFFFFFFFFFFFFFFFFFFFFFFFFFFFFFFFFFFFFF AND DUP2 MSTORE PUSH1 0x20 ADD SWAP1 DUP2 MSTORE PUSH1 0x20 ADD PUSH1 0x0 KECCAK256 PUSH1 0x0 SWAP1 SLOAD SWAP1 PUSH2 0x100 EXP SWAP1 DIV PUSH1 0xFF AND ISZERO PUSH2 0xB4A JUMPI PUSH1 0x0 DUP1 REVERT JUMPDEST PUSH1 0x1 DUP2 PUSH1 0x5 ADD PUSH1 0x0 CALLER PUSH20 0xFFFFFFFFFFFFFFFFFFFFFFFFFFFFFFFFFFFFFFFF AND PUSH20 0xFFFFFFFFFFFFFFFFFFFFFFFFFFFFFFFFFFFFFFFF AND DUP2 MSTORE PUSH1 0x20 ADD SWAP1 DUP2 MSTORE PUSH1 0x20 ADD PUSH1 0x0 KECCAK256 PUSH1 0x0 PUSH2 0x100 EXP DUP2 SLOAD DUP2 PUSH1 0xFF MUL NOT AND SWAP1 DUP4 ISZERO ISZERO MUL OR SWAP1 SSTORE POP DUP1 PUSH1 0x4 ADD PUSH1 0x0 DUP2 SLOAD DUP1 SWAP3 SWAP2 SWAP1 PUSH2 0xBB9 SWAP1 PUSH2 0x1595 JUMP JUMPDEST SWAP2 SWAP1 POP SSTORE POP POP POP JUMP JUMPDEST PUSH1 0x0 DUP1 SLOAD SWAP1 PUSH2 0x100 EXP SWAP1 DIV PUSH20 0xFFFFFFFFFFFFFFFFFFFFFFFFFFFFFFFFFFFFFFFF AND PUSH20 0xFFFFFFFFFFFFFFFFFFFFFFFFFFFFFFFFFFFFFFFF AND CALLER PUSH20 0xFFFFFFFFFFFFFFFFFFFFFFFFFFFFFFFFFFFFFFFF AND EQ PUSH2 0xC1A JUMPI PUSH1 0x0 DUP1 REVERT JUMPDEST PUSH1 0x0 PUSH1 0x8 DUP3 DUP2 SLOAD DUP2 LT PUSH2 0xC30 JUMPI PUSH2 0xC2F PUSH2 0x1611 JUMP JUMPDEST JUMPDEST SWAP1 PUSH1 0x0 MSTORE PUSH1 0x20 PUSH1 0x0 KECCAK256 SWAP1 PUSH1 0x6 MUL ADD SWAP1 POP DUP1 PUSH1 0x3 ADD PUSH1 0x14 SWAP1 SLOAD SWAP1 PUSH2 0x100 EXP SWAP1 DIV PUSH1 0xFF AND ISZERO PUSH2 0xC5C JUMPI PUSH1 0x0 DUP1 REVERT JUMPDEST PUSH1 0x2 PUSH1 0x7 SLOAD PUSH2 0xC6B SWAP2 SWAP1 PUSH2 0x166F JUMP JUMPDEST DUP2 PUSH1 0x4 ADD SLOAD GT PUSH2 0xC7A JUMPI PUSH1 0x0 DUP1 REVERT JUMPDEST DUP1 PUSH1 0x3 ADD PUSH1 0x0 SWAP1 SLOAD SWAP1 PUSH2 0x100 EXP SWAP1 DIV PUSH20 0xFFFFFFFFFFFFFFFFFFFFFFFFFFFFFFFFFFFFFFFF AND PUSH20 0xFFFFFFFFFFFFFFFFFFFFFFFFFFFFFFFFFFFFFFFF AND PUSH2 0x8FC DUP3 PUSH1 0x2 ADD SLOAD SWAP1 DUP2 ISZERO MUL SWAP1 PUSH1 0x40 MLOAD PUSH1 0x0 PUSH1 0x40 MLOAD DUP1 DUP4 SUB DUP2 DUP6 DUP9 DUP9 CALL SWAP4 POP POP POP POP ISZERO DUP1 ISZERO PUSH2 0xCE8 JUMPI RETURNDATASIZE PUSH1 0x0 DUP1 RETURNDATACOPY RETURNDATASIZE PUSH1 0x0 REVERT JUMPDEST POP PUSH1 0x1 DUP2 PUSH1 0x3 ADD PUSH1 0x14 PUSH2 0x100 EXP DUP2 SLOAD DUP2 PUSH1 0xFF MUL NOT AND SWAP1 DUP4 ISZERO ISZERO MUL OR SWAP1 SSTORE POP POP POP JUMP JUMPDEST PUSH1 0x3 SLOAD DUP2 JUMP JUMPDEST PUSH1 0x0 DUP2 MLOAD SWAP1 POP SWAP2 SWAP1 POP JUMP JUMPDEST PUSH1 0x0 DUP3 DUP3 MSTORE PUSH1 0x20 DUP3 ADD SWAP1 POP SWAP3 SWAP2 POP POP JUMP JUMPDEST PUSH1 0x0 JUMPDEST DUP4 DUP2 LT ISZERO PUSH2 0xD4A JUMPI DUP1 DUP3 ADD MLOAD DUP2 DUP5 ADD MSTORE PUSH1 0x20 DUP2 ADD SWAP1 POP PUSH2 0xD2F JUMP JUMPDEST PUSH1 0x0 DUP5 DUP5 ADD MSTORE POP POP POP POP JUMP JUMPDEST PUSH1 0x0 PUSH1 0x1F NOT PUSH1 0x1F DUP4 ADD AND SWAP1 POP SWAP2 SWAP1 POP JUMP JUMPDEST PUSH1 0x0 PUSH2 0xD72 DUP3 PUSH2 0xD10 JUMP JUMPDEST PUSH2 0xD7C DUP2 DUP6 PUSH2 0xD1B JUMP JUMPDEST SWAP4 POP PUSH2 0xD8C DUP2 DUP6 PUSH1 0x20 DUP7 ADD PUSH2 0xD2C JUMP JUMPDEST PUSH2 0xD95 DUP2 PUSH2 0xD56 JUMP JUMPDEST DUP5 ADD SWAP2 POP POP SWAP3 SWAP2 POP POP JUMP JUMPDEST PUSH1 0x0 PUSH1 0x20 DUP3 ADD SWAP1 POP DUP2 DUP2 SUB PUSH1 0x0 DUP4 ADD MSTORE PUSH2 0xDBA DUP2 DUP5 PUSH2 0xD67 JUMP JUMPDEST SWAP1 POP SWAP3 SWAP2 POP POP JUMP JUMPDEST PUSH1 0x0 PUSH1 0x40 MLOAD SWAP1 POP SWAP1 JUMP JUMPDEST PUSH1 0x0 DUP1 REVERT JUMPDEST PUSH1 0x0 DUP1 REVERT JUMPDEST PUSH1 0x0 PUSH20 0xFFFFFFFFFFFFFFFFFFFFFFFFFFFFFFFFFFFFFFFF DUP3 AND SWAP1 POP SWAP2 SWAP1 POP JUMP JUMPDEST PUSH1 0x0 PUSH2 0xE01 DUP3 PUSH2 0xDD6 JUMP JUMPDEST SWAP1 POP SWAP2 SWAP1 POP JUMP JUMPDEST PUSH2 0xE11 DUP2 PUSH2 0xDF6 JUMP JUMPDEST DUP2 EQ PUSH2 0xE1C JUMPI PUSH1 0x0 DUP1 REVERT JUMPDEST POP JUMP JUMPDEST PUSH1 0x0 DUP2 CALLDATALOAD SWAP1 POP PUSH2 0xE2E DUP2 PUSH2 0xE08 JUMP JUMPDEST SWAP3 SWAP2 POP POP JUMP JUMPDEST PUSH1 0x0 PUSH1 0x20 DUP3 DUP5 SUB SLT ISZERO PUSH2 0xE4A JUMPI PUSH2 0xE49 PUSH2 0xDCC JUMP JUMPDEST JUMPDEST PUSH1 0x0 PUSH2 0xE58 DUP5 DUP3 DUP6 ADD PUSH2 0xE1F JUMP JUMPDEST SWAP2 POP POP SWAP3 SWAP2 POP POP JUMP JUMPDEST PUSH1 0x0 DUP2 ISZERO ISZERO SWAP1 POP SWAP2 SWAP1 POP JUMP JUMPDEST PUSH2 0xE76 DUP2 PUSH2 0xE61 JUMP JUMPDEST DUP3 MSTORE POP POP JUMP JUMPDEST PUSH1 0x0 PUSH1 0x20 DUP3 ADD SWAP1 POP PUSH2 0xE91 PUSH1 0x0 DUP4 ADD DUP5 PUSH2 0xE6D JUMP JUMPDEST SWAP3 SWAP2 POP POP JUMP JUMPDEST PUSH1 0x0 DUP2 SWAP1 POP SWAP2 SWAP1 POP JUMP JUMPDEST PUSH2 0xEAA DUP2 PUSH2 0xE97 JUMP JUMPDEST DUP3 MSTORE POP POP JUMP JUMPDEST PUSH1 0x0 PUSH1 0x20 DUP3 ADD SWAP1 POP PUSH2 0xEC5 PUSH1 0x0 DUP4 ADD DUP5 PUSH2 0xEA1 JUMP JUMPDEST SWAP3 SWAP2 POP POP JUMP JUMPDEST PUSH2 0xED4 DUP2 PUSH2 0xDF6 JUMP JUMPDEST DUP3 MSTORE POP POP JUMP JUMPDEST PUSH1 0x0 PUSH2 0x140 DUP3 ADD SWAP1 POP DUP2 DUP2 SUB PUSH1 0x0 DUP4 ADD MSTORE PUSH2 0xEF5 DUP2 DUP14 PUSH2 0xD67 JUMP JUMPDEST SWAP1 POP DUP2 DUP2 SUB PUSH1 0x20 DUP4 ADD MSTORE PUSH2 0xF09 DUP2 DUP13 PUSH2 0xD67 JUMP JUMPDEST SWAP1 POP PUSH2 0xF18 PUSH1 0x40 DUP4 ADD DUP12 PUSH2 0xEA1 JUMP JUMPDEST PUSH2 0xF25 PUSH1 0x60 DUP4 ADD DUP11 PUSH2 0xEA1 JUMP JUMPDEST PUSH2 0xF32 PUSH1 0x80 DUP4 ADD DUP10 PUSH2 0xEA1 JUMP JUMPDEST PUSH2 0xF3F PUSH1 0xA0 DUP4 ADD DUP9 PUSH2 0xEA1 JUMP JUMPDEST PUSH2 0xF4C PUSH1 0xC0 DUP4 ADD DUP8 PUSH2 0xEA1 JUMP JUMPDEST PUSH2 0xF59 PUSH1 0xE0 DUP4 ADD DUP7 PUSH2 0xEA1 JUMP JUMPDEST PUSH2 0xF67 PUSH2 0x100 DUP4 ADD DUP6 PUSH2 0xEA1 JUMP JUMPDEST PUSH2 0xF75 PUSH2 0x120 DUP4 ADD DUP5 PUSH2 0xECB JUMP JUMPDEST SWAP12 SWAP11 POP POP POP POP POP POP POP POP POP POP POP JUMP JUMPDEST PUSH1 0x0 PUSH1 0x20 DUP3 ADD SWAP1 POP PUSH2 0xF99 PUSH1 0x0 DUP4 ADD DUP5 PUSH2 0xECB JUMP JUMPDEST SWAP3 SWAP2 POP POP JUMP JUMPDEST PUSH2 0xFA8 DUP2 PUSH2 0xE97 JUMP JUMPDEST DUP2 EQ PUSH2 0xFB3 JUMPI PUSH1 0x0 DUP1 REVERT JUMPDEST POP JUMP JUMPDEST PUSH1 0x0 DUP2 CALLDATALOAD SWAP1 POP PUSH2 0xFC5 DUP2 PUSH2 0xF9F JUMP JUMPDEST SWAP3 SWAP2 POP POP JUMP JUMPDEST PUSH1 0x0 PUSH1 0x20 DUP3 DUP5 SUB SLT ISZERO PUSH2 0xFE1 JUMPI PUSH2 0xFE0 PUSH2 0xDCC JUMP JUMPDEST JUMPDEST PUSH1 0x0 PUSH2 0xFEF DUP5 DUP3 DUP6 ADD PUSH2 0xFB6 JUMP JUMPDEST SWAP2 POP POP SWAP3 SWAP2 POP POP JUMP JUMPDEST PUSH1 0x0 PUSH2 0x1003 DUP3 PUSH2 0xDD6 JUMP JUMPDEST SWAP1 POP SWAP2 SWAP1 POP JUMP JUMPDEST PUSH2 0x1013 DUP2 PUSH2 0xFF8 JUMP JUMPDEST DUP3 MSTORE POP POP JUMP JUMPDEST PUSH1 0x0 PUSH1 0xC0 DUP3 ADD SWAP1 POP DUP2 DUP2 SUB PUSH1 0x0 DUP4 ADD MSTORE PUSH2 0x1033 DUP2 DUP10 PUSH2 0xD67 JUMP JUMPDEST SWAP1 POP DUP2 DUP2 SUB PUSH1 0x20 DUP4 ADD MSTORE PUSH2 0x1047 DUP2 DUP9 PUSH2 0xD67 JUMP JUMPDEST SWAP1 POP PUSH2 0x1056 PUSH1 0x40 DUP4 ADD DUP8 PUSH2 0xEA1 JUMP JUMPDEST PUSH2 0x1063 PUSH1 0x60 DUP4 ADD DUP7 PUSH2 0x100A JUMP JUMPDEST PUSH2 0x1070 PUSH1 0x80 DUP4 ADD DUP6 PUSH2 0xE6D JUMP JUMPDEST PUSH2 0x107D PUSH1 0xA0 DUP4 ADD DUP5 PUSH2 0xEA1 JUMP JUMPDEST SWAP8 SWAP7 POP POP POP POP POP POP POP JUMP JUMPDEST PUSH1 0x0 DUP1 REVERT JUMPDEST PUSH1 0x0 DUP1 REVERT JUMPDEST PUSH32 0x4E487B7100000000000000000000000000000000000000000000000000000000 PUSH1 0x0 MSTORE PUSH1 0x41 PUSH1 0x4 MSTORE PUSH1 0x24 PUSH1 0x0 REVERT JUMPDEST PUSH2 0x10CA DUP3 PUSH2 0xD56 JUMP JUMPDEST DUP2 ADD DUP2 DUP2 LT PUSH8 0xFFFFFFFFFFFFFFFF DUP3 GT OR ISZERO PUSH2 0x10E9 JUMPI PUSH2 0x10E8 PUSH2 0x1092 JUMP JUMPDEST JUMPDEST DUP1 PUSH1 0x40 MSTORE POP POP POP JUMP JUMPDEST PUSH1 0x0 PUSH2 0x10FC PUSH2 0xDC2 JUMP JUMPDEST SWAP1 POP PUSH2 0x1108 DUP3 DUP3 PUSH2 0x10C1 JUMP JUMPDEST SWAP2 SWAP1 POP JUMP JUMPDEST PUSH1 0x0 PUSH8 0xFFFFFFFFFFFFFFFF DUP3 GT ISZERO PUSH2 0x1128 JUMPI PUSH2 0x1127 PUSH2 0x1092 JUMP JUMPDEST JUMPDEST PUSH2 0x1131 DUP3 PUSH2 0xD56 JUMP JUMPDEST SWAP1 POP PUSH1 0x20 DUP2 ADD SWAP1 POP SWAP2 SWAP1 POP JUMP JUMPDEST DUP3 DUP2 DUP4 CALLDATACOPY PUSH1 0x0 DUP4 DUP4 ADD MSTORE POP POP POP JUMP JUMPDEST PUSH1 0x0 PUSH2 0x1160 PUSH2 0x115B DUP5 PUSH2 0x110D JUMP JUMPDEST PUSH2 0x10F2 JUMP JUMPDEST SWAP1 POP DUP3 DUP2 MSTORE PUSH1 0x20 DUP2 ADD DUP5 DUP5 DUP5 ADD GT ISZERO PUSH2 0x117C JUMPI PUSH2 0x117B PUSH2 0x108D JUMP JUMPDEST JUMPDEST PUSH2 0x1187 DUP5 DUP3 DUP6 PUSH2 0x113E JUMP JUMPDEST POP SWAP4 SWAP3 POP POP POP JUMP JUMPDEST PUSH1 0x0 DUP3 PUSH1 0x1F DUP4 ADD SLT PUSH2 0x11A4 JUMPI PUSH2 0x11A3 PUSH2 0x1088 JUMP JUMPDEST JUMPDEST DUP2 CALLDATALOAD PUSH2 0x11B4 DUP5 DUP3 PUSH1 0x20 DUP7 ADD PUSH2 0x114D JUMP JUMPDEST SWAP2 POP POP SWAP3 SWAP2 POP POP JUMP JUMPDEST PUSH2 0x11C6 DUP2 PUSH2 0xFF8 JUMP JUMPDEST DUP2 EQ PUSH2 0x11D1 JUMPI PUSH1 0x0 DUP1 REVERT JUMPDEST POP JUMP JUMPDEST PUSH1 0x0 DUP2 CALLDATALOAD SWAP1 POP PUSH2 0x11E3 DUP2 PUSH2 0x11BD JUMP JUMPDEST SWAP3 SWAP2 POP POP JUMP JUMPDEST PUSH1 0x0 DUP1 PUSH1 0x0 DUP1 PUSH1 0x80 DUP6 DUP8 SUB SLT ISZERO PUSH2 0x1203 JUMPI PUSH2 0x1202 PUSH2 0xDCC JUMP JUMPDEST JUMPDEST PUSH1 0x0 DUP6 ADD CALLDATALOAD PUSH8 0xFFFFFFFFFFFFFFFF DUP2 GT ISZERO PUSH2 0x1221 JUMPI PUSH2 0x1220 PUSH2 0xDD1 JUMP JUMPDEST JUMPDEST PUSH2 0x122D DUP8 DUP3 DUP9 ADD PUSH2 0x118F JUMP JUMPDEST SWAP5 POP POP PUSH1 0x20 DUP6 ADD CALLDATALOAD PUSH8 0xFFFFFFFFFFFFFFFF DUP2 GT ISZERO PUSH2 0x124E JUMPI PUSH2 0x124D PUSH2 0xDD1 JUMP JUMPDEST JUMPDEST PUSH2 0x125A DUP8 DUP3 DUP9 ADD PUSH2 0x118F JUMP JUMPDEST SWAP4 POP POP PUSH1 0x40 PUSH2 0x126B DUP8 DUP3 DUP9 ADD PUSH2 0xFB6 JUMP JUMPDEST SWAP3 POP POP PUSH1 0x60 PUSH2 0x127C DUP8 DUP3 DUP9 ADD PUSH2 0x11D4 JUMP JUMPDEST SWAP2 POP POP SWAP3 SWAP6 SWAP2 SWAP5 POP SWAP3 POP JUMP JUMPDEST PUSH32 0x4E487B7100000000000000000000000000000000000000000000000000000000 PUSH1 0x0 MSTORE PUSH1 0x22 PUSH1 0x4 MSTORE PUSH1 0x24 PUSH1 0x0 REVERT JUMPDEST PUSH1 0x0 PUSH1 0x2 DUP3 DIV SWAP1 POP PUSH1 0x1 DUP3 AND DUP1 PUSH2 0x12CF JUMPI PUSH1 0x7F DUP3 AND SWAP2 POP JUMPDEST PUSH1 0x20 DUP3 LT DUP2 SUB PUSH2 0x12E2 JUMPI PUSH2 0x12E1 PUSH2 0x1288 JUMP JUMPDEST JUMPDEST POP SWAP2 SWAP1 POP JUMP JUMPDEST PUSH1 0x0 DUP2 SWAP1 POP DUP2 PUSH1 0x0 MSTORE PUSH1 0x20 PUSH1 0x0 KECCAK256 SWAP1 POP SWAP2 SWAP1 POP JUMP JUMPDEST PUSH1 0x0 PUSH1 0x20 PUSH1 0x1F DUP4 ADD DIV SWAP1 POP SWAP2 SWAP1 POP JUMP JUMPDEST PUSH1 0x0 DUP3 DUP3 SHL SWAP1 POP SWAP3 SWAP2 POP POP JUMP JUMPDEST PUSH1 0x0 PUSH1 0x8 DUP4 MUL PUSH2 0x134A PUSH32 0xFFFFFFFFFFFFFFFFFFFFFFFFFFFFFFFFFFFFFFFFFFFFFFFFFFFFFFFFFFFFFFFF DUP3 PUSH2 0x130D JUMP JUMPDEST PUSH2 0x1354 DUP7 DUP4 PUSH2 0x130D JUMP JUMPDEST SWAP6 POP DUP1 NOT DUP5 AND SWAP4 POP DUP1 DUP7 AND DUP5 OR SWAP3 POP POP POP SWAP4 SWAP3 POP POP POP JUMP JUMPDEST PUSH1 0x0 DUP2 SWAP1 POP SWAP2 SWAP1 POP JUMP JUMPDEST PUSH1 0x0 PUSH2 0x1391 PUSH2 0x138C PUSH2 0x1387 DUP5 PUSH2 0xE97 JUMP JUMPDEST PUSH2 0x136C JUMP JUMPDEST PUSH2 0xE97 JUMP JUMPDEST SWAP1 POP SWAP2 SWAP1 POP JUMP JUMPDEST PUSH1 0x0 DUP2 SWAP1 POP SWAP2 SWAP1 POP JUMP JUMPDEST PUSH2 0x13AB DUP4 PUSH2 0x1376 JUMP JUMPDEST PUSH2 0x13BF PUSH2 0x13B7 DUP3 PUSH2 0x1398 JUMP JUMPDEST DUP5 DUP5 SLOAD PUSH2 0x131A JUMP JUMPDEST DUP3 SSTORE POP POP POP POP JUMP JUMPDEST PUSH1 0x0 SWAP1 JUMP JUMPDEST PUSH2 0x13D4 PUSH2 0x13C7 JUMP JUMPDEST PUSH2 0x13DF DUP2 DUP5 DUP5 PUSH2 0x13A2 JUMP JUMPDEST POP POP POP JUMP JUMPDEST JUMPDEST DUP2 DUP2 LT ISZERO PUSH2 0x1403 JUMPI PUSH2 0x13F8 PUSH1 0x0 DUP3 PUSH2 0x13CC JUMP JUMPDEST PUSH1 0x1 DUP2 ADD SWAP1 POP PUSH2 0x13E5 JUMP JUMPDEST POP POP JUMP JUMPDEST PUSH1 0x1F DUP3 GT ISZERO PUSH2 0x1448 JUMPI PUSH2 0x1419 DUP2 PUSH2 0x12E8 JUMP JUMPDEST PUSH2 0x1422 DUP5 PUSH2 0x12FD JUMP JUMPDEST DUP2 ADD PUSH1 0x20 DUP6 LT ISZERO PUSH2 0x1431 JUMPI DUP2 SWAP1 POP JUMPDEST PUSH2 0x1445 PUSH2 0x143D DUP6 PUSH2 0x12FD JUMP JUMPDEST DUP4 ADD DUP3 PUSH2 0x13E4 JUMP JUMPDEST POP POP JUMPDEST POP POP POP JUMP JUMPDEST PUSH1 0x0 DUP3 DUP3 SHR SWAP1 POP SWAP3 SWAP2 POP POP JUMP JUMPDEST PUSH1 0x0 PUSH2 0x146B PUSH1 0x0 NOT DUP5 PUSH1 0x8 MUL PUSH2 0x144D JUMP JUMPDEST NOT DUP1 DUP4 AND SWAP2 POP POP SWAP3 SWAP2 POP POP JUMP JUMPDEST PUSH1 0x0 PUSH2 0x1484 DUP4 DUP4 PUSH2 0x145A JUMP JUMPDEST SWAP2 POP DUP3 PUSH1 0x2 MUL DUP3 OR SWAP1 POP SWAP3 SWAP2 POP POP JUMP JUMPDEST PUSH2 0x149D DUP3 PUSH2 0xD10 JUMP JUMPDEST PUSH8 0xFFFFFFFFFFFFFFFF DUP2 GT ISZERO PUSH2 0x14B6 JUMPI PUSH2 0x14B5 PUSH2 0x1092 JUMP JUMPDEST JUMPDEST PUSH2 0x14C0 DUP3 SLOAD PUSH2 0x12B7 JUMP JUMPDEST PUSH2 0x14CB DUP3 DUP3 DUP6 PUSH2 0x1407 JUMP JUMPDEST PUSH1 0x0 PUSH1 0x20 SWAP1 POP PUSH1 0x1F DUP4 GT PUSH1 0x1 DUP2 EQ PUSH2 0x14FE JUMPI PUSH1 0x0 DUP5 ISZERO PUSH2 0x14EC JUMPI DUP3 DUP8 ADD MLOAD SWAP1 POP JUMPDEST PUSH2 0x14F6 DUP6 DUP3 PUSH2 0x1478 JUMP JUMPDEST DUP7 SSTORE POP PUSH2 0x155E JUMP JUMPDEST PUSH1 0x1F NOT DUP5 AND PUSH2 0x150C DUP7 PUSH2 0x12E8 JUMP JUMPDEST PUSH1 0x0 JUMPDEST DUP3 DUP2 LT ISZERO PUSH2 0x1534 JUMPI DUP5 DUP10 ADD MLOAD DUP3 SSTORE PUSH1 0x1 DUP3 ADD SWAP2 POP PUSH1 0x20 DUP6 ADD SWAP5 POP PUSH1 0x20 DUP2 ADD SWAP1 POP PUSH2 0x150F JUMP JUMPDEST DUP7 DUP4 LT ISZERO PUSH2 0x1551 JUMPI DUP5 DUP10 ADD MLOAD PUSH2 0x154D PUSH1 0x1F DUP10 AND DUP3 PUSH2 0x145A JUMP JUMPDEST DUP4 SSTORE POP JUMPDEST PUSH1 0x1 PUSH1 0x2 DUP9 MUL ADD DUP9 SSTORE POP POP POP JUMPDEST POP POP POP POP POP POP JUMP JUMPDEST PUSH32 0x4E487B7100000000000000000000000000000000000000000000000000000000 PUSH1 0x0 MSTORE PUSH1 0x11 PUSH1 0x4 MSTORE PUSH1 0x24 PUSH1 0x0 REVERT JUMPDEST PUSH1 0x0 PUSH2 0x15A0 DUP3 PUSH2 0xE97 JUMP JUMPDEST SWAP2 POP PUSH32 0xFFFFFFFFFFFFFFFFFFFFFFFFFFFFFFFFFFFFFFFFFFFFFFFFFFFFFFFFFFFFFFFF DUP3 SUB PUSH2 0x15D2 JUMPI PUSH2 0x15D1 PUSH2 0x1566 JUMP JUMPDEST JUMPDEST PUSH1 0x1 DUP3 ADD SWAP1 POP SWAP2 SWAP1 POP JUMP JUMPDEST PUSH1 0x0 PUSH2 0x15E8 DUP3 PUSH2 0xE97 JUMP JUMPDEST SWAP2 POP PUSH2 0x15F3 DUP4 PUSH2 0xE97 JUMP JUMPDEST SWAP3 POP DUP3 DUP3 ADD SWAP1 POP DUP1 DUP3 GT ISZERO PUSH2 0x160B JUMPI PUSH2 0x160A PUSH2 0x1566 JUMP JUMPDEST JUMPDEST SWAP3 SWAP2 POP POP JUMP JUMPDEST PUSH32 0x4E487B7100000000000000000000000000000000000000000000000000000000 PUSH1 0x0 MSTORE PUSH1 0x32 PUSH1 0x4 MSTORE PUSH1 0x24 PUSH1 0x0 REVERT JUMPDEST PUSH32 0x4E487B7100000000000000000000000000000000000000000000000000000000 PUSH1 0x0 MSTORE PUSH1 0x12 PUSH1 0x4 MSTORE PUSH1 0x24 PUSH1 0x0 REVERT JUMPDEST PUSH1 0x0 PUSH2 0x167A DUP3 PUSH2 0xE97 JUMP JUMPDEST SWAP2 POP PUSH2 0x1685 DUP4 PUSH2 0xE97 JUMP JUMPDEST SWAP3 POP DUP3 PUSH2 0x1695 JUMPI PUSH2 0x1694 PUSH2 0x1640 JUMP JUMPDEST JUMPDEST DUP3 DUP3 DIV SWAP1 POP SWAP3 SWAP2 POP POP JUMP INVALID LOG2 PUSH5 0x6970667358 0x22 SLT KECCAK256 PUSH8 0x25D42769CA939130 0x27 DUP16 PUSH2 0xE0A1 OR PUSH2 0x36C1 0xF7 0xEA DUP16 PUSH18 0x53B9B569A91449734B3364736F6C63430008 GT STOP CALLER LOG2 PUSH5 0x6970667358 0x22 SLT KECCAK256 MUL DUP6 DUP9 0xDD 0x5D 0x5F DUP16 0xEF PUSH4 0x1F56D837 0x26 0xDD EXTCODESIZE DUP2 DUP4 PUSH3 0x190A5D 0xD8 DUP3 0xC2 0xAC LOG0 PUSH15 0xC8271D8564736F6C63430008110033 "},"gasEstimates":{"creation":{"codeDepositCost":"1878800","executionCost":"1983","totalCost":"1880783"},"external":{"createCampaign(string,string,uint256,uint256)":"infinite","getDeployedCampaigns()":"infinite"}},"methodIdentifiers":{"createCampaign(string,string,uint256,uint256)":"a318f269","getDeployedCampaigns()":"4acb9d4f"}},"storageLayout":{"storage":[{"astId":4,"contract":"Campaign.sol:CampaignFactory","label":"deployedCampaigns","offset":0,"slot":"0","type":"t_array(t_address)dyn_storage"}],"types":{"t_address":{"encoding":"inplace","label":"address","numberOfBytes":"20"},"t_array(t_address)dyn_storage":{"base":"t_address","encoding":"dynamic_array","label":"address[]","numberOfBytes":"32"}}},"userdoc":{"kind":"user","methods":{},"version":1}}