{"abi":[{"inputs":[{"internalType":"uint256","name":"minimum","type":"uint256"},{"internalType":"address","name":"creator","type":"address"},{"internalType":"string","name":"name","type":"string"},{"internalType":"string","name":"description","type":"string"},{"internalType":"uint256","name":"goal","type":"uint256"}],"stateMutability":"nonpayable","type":"constructor"},{"inputs":[{"internalType":"uint256","name":"index","type":"uint256"}],"name":"approveRequest","outputs":[],"stateMutability":"nonpayable","type":"function"},{"inputs":[{"internalType":"address","name":"","type":"address"}],"name":"approvers","outputs":[{"internalType":"bool","name":"","type":"bool"}],"stateMutability":"view","type":"function"},{"inputs":[],"name":"approversCount","outputs":[{"internalType":"uint256","name":"","type":"uint256"}],"stateMutability":"view","type":"function"},{"inputs":[],"name":"campaignDescription","outputs":[{"internalType":"string","name":"","type":"string"}],"stateMutability":"view","type":"function"},{"inputs":[],"name":"campaignGoal","outputs":[{"internalType":"uint256","name":"","type":"uint256"}],"stateMutability":"view","type":"function"},{"inputs":[],"name":"campaignName","outputs":[{"internalType":"string","name":"","type":"string"}],"stateMutability":"view","type":"function"},{"inputs":[],"name":"contribute","outputs":[],"stateMutability":"payable","type":"function"},{"inputs":[],"name":"contributionCount","outputs":[{"internalType":"uint256","name":"","type":"uint256"}],"stateMutability":"view","type":"function"},{"inputs":[{"internalType":"string","name":"name","type":"string"},{"internalType":"string","name":"description","type":"string"},{"internalType":"uint256","name":"value","type":"uint256"},{"internalType":"address payable","name":"recipient","type":"address"}],"name":"createRequest","outputs":[],"stateMutability":"nonpayable","type":"function"},{"inputs":[{"internalType":"uint256","name":"index","type":"uint256"}],"name":"finaliseRequest","outputs":[],"stateMutability":"nonpayable","type":"function"},{"inputs":[],"name":"getRequestsCount","outputs":[{"internalType":"uint256","name":"","type":"uint256"}],"stateMutability":"view","type":"function"},{"inputs":[],"name":"getSummary","outputs":[{"internalType":"string","name":"","type":"string"},{"internalType":"string","name":"","type":"string"},{"internalType":"uint256","name":"","type":"uint256"},{"internalType":"uint256","name":"","type":"uint256"},{"internalType":"uint256","name":"","type":"uint256"},{"internalType":"uint256","name":"","type":"uint256"},{"internalType":"uint256","name":"","type":"uint256"},{"internalType":"uint256","name":"","type":"uint256"},{"internalType":"uint256","name":"","type":"uint256"},{"internalType":"address","name":"","type":"address"}],"stateMutability":"view","type":"function"},{"inputs":[{"internalType":"address","name":"sender","type":"address"},{"internalType":"uint256","name":"index","type":"uint256"}],"name":"hasApproved","outputs":[{"internalType":"bool","name":"","type":"bool"}],"stateMutability":"view","type":"function"},{"inputs":[],"name":"manager","outputs":[{"internalType":"address","name":"","type":"address"}],"stateMutability":"view","type":"function"},{"inputs":[],"name":"minContribution","outputs":[{"internalType":"uint256","name":"","type":"uint256"}],"stateMutability":"view","type":"function"},{"inputs":[{"internalType":"uint256","name":"","type":"uint256"}],"name":"requests","outputs":[{"internalType":"string","name":"name","type":"string"},{"internalType":"string","name":"description","type":"string"},{"internalType":"uint256","name":"value","type":"uint256"},{"internalType":"address payable","name":"recipient","type":"address"},{"internalType":"bool","name":"complete","type":"bool"},{"internalType":"uint256","name":"approvalCount","type":"uint256"}],"stateMutability":"view","type":"function"},{"inputs":[],"name":"totalRaised","outputs":[{"internalType":"uint256","name":"","type":"uint256"}],"stateMutability":"view","type":"function"}],"devdoc":{"kind":"dev","methods":{},"version":1},"evm":{"assembly":"    /* \"Campaign.sol\":602:3874  contract Campaign {... */\n  mstore(0x40, 0x80)\n    /* \"Campaign.sol\":1386:1682  constructor(uint minimum, address creator, string memory name, string memory description, uint goal) {... */\n  callvalue\n  dup1\n  iszero\n  tag_1\n  jumpi\n  0x00\n  dup1\n  revert\ntag_1:\n  pop\n  mload(0x40)\n  sub(codesize, bytecodeSize)\n  dup1\n  bytecodeSize\n  dup4\n  codecopy\n  dup2\n  dup2\n  add\n  0x40\n  mstore\n  dup2\n  add\n  swap1\n  tag_2\n  swap2\n  swap1\n  tag_3\n  jump\t// in\ntag_2:\n    /* \"Campaign.sol\":1515:1522  minimum */\n  dup5\n    /* \"Campaign.sol\":1497:1512  minContribution */\n  0x04\n    /* \"Campaign.sol\":1497:1522  minContribution = minimum */\n  dup2\n  swap1\n  sstore\n  pop\n    /* \"Campaign.sol\":1542:1549  creator */\n  dup4\n    /* \"Campaign.sol\":1532:1539  manager */\n  0x00\n  dup1\n    /* \"Campaign.sol\":1532:1549  manager = creator */\n  0x0100\n  exp\n  dup2\n  sload\n  dup2\n  0xffffffffffffffffffffffffffffffffffffffff\n  mul\n  not\n  and\n  swap1\n  dup4\n  0xffffffffffffffffffffffffffffffffffffffff\n  and\n  mul\n  or\n  swap1\n  sstore\n  pop\n    /* \"Campaign.sol\":1574:1578  name */\n  dup3\n    /* \"Campaign.sol\":1559:1571  campaignName */\n  0x01\n    /* \"Campaign.sol\":1559:1578  campaignName = name */\n  swap1\n  dup2\n  tag_6\n  swap2\n  swap1\n  tag_7\n  jump\t// in\ntag_6:\n  pop\n    /* \"Campaign.sol\":1610:1621  description */\n  dup2\n    /* \"Campaign.sol\":1588:1607  campaignDescription */\n  0x02\n    /* \"Campaign.sol\":1588:1621  campaignDescription = description */\n  swap1\n  dup2\n  tag_8\n  swap2\n  swap1\n  tag_7\n  jump\t// in\ntag_8:\n  pop\n    /* \"Campaign.sol\":1646:1650  goal */\n  dup1\n    /* \"Campaign.sol\":1631:1643  campaignGoal */\n  0x03\n    /* \"Campaign.sol\":1631:1650  campaignGoal = goal */\n  dup2\n  swap1\n  sstore\n  pop\n    /* \"Campaign.sol\":1674:1675  0 */\n  0x00\n    /* \"Campaign.sol\":1660:1671  totalRaised */\n  0x09\n    /* \"Campaign.sol\":1660:1675  totalRaised = 0 */\n  dup2\n  swap1\n  sstore\n  pop\n    /* \"Campaign.sol\":1386:1682  constructor(uint minimum, address creator, string memory name, string memory description, uint goal) {... */\n  pop\n  pop\n  pop\n  pop\n  pop\n    /* \"Campaign.sol\":602:3874  contract Campaign {... */\n  jump(tag_9)\n    /* \"#utility.yul\":7:82   */\ntag_10:\n    /* \"#utility.yul\":40:46   */\n  0x00\n    /* \"#utility.yul\":73:75   */\n  0x40\n    /* \"#utility.yul\":67:76   */\n  mload\n    /* \"#utility.yul\":57:76   */\n  swap1\n  pop\n    /* \"#utility.yul\":7:82   */\n  swap1\n  jump\t// out\n    /* \"#utility.yul\":88:205   */\ntag_11:\n    /* \"#utility.yul\":197:198   */\n  0x00\n    /* \"#utility.yul\":194:195   */\n  dup1\n    /* \"#utility.yul\":187:199   */\n  revert\n    /* \"#utility.yul\":211:328   */\ntag_12:\n    /* \"#utility.yul\":320:321   */\n  0x00\n    /* \"#utility.yul\":317:318   */\n  dup1\n    /* \"#utility.yul\":310:322   */\n  revert\n    /* \"#utility.yul\":334:411   */\ntag_13:\n    /* \"#utility.yul\":371:378   */\n  0x00\n    /* \"#utility.yul\":400:405   */\n  dup2\n    /* \"#utility.yul\":389:405   */\n  swap1\n  pop\n    /* \"#utility.yul\":334:411   */\n  swap2\n  swap1\n  pop\n  jump\t// out\n    /* \"#utility.yul\":417:539   */\ntag_14:\n    /* \"#utility.yul\":490:514   */\n  tag_54\n    /* \"#utility.yul\":508:513   */\n  dup2\n    /* \"#utility.yul\":490:514   */\n  tag_13\n  jump\t// in\ntag_54:\n    /* \"#utility.yul\":483:488   */\n  dup2\n    /* \"#utility.yul\":480:515   */\n  eq\n    /* \"#utility.yul\":470:533   */\n  tag_55\n  jumpi\n    /* \"#utility.yul\":529:530   */\n  0x00\n    /* \"#utility.yul\":526:527   */\n  dup1\n    /* \"#utility.yul\":519:531   */\n  revert\n    /* \"#utility.yul\":470:533   */\ntag_55:\n    /* \"#utility.yul\":417:539   */\n  pop\n  jump\t// out\n    /* \"#utility.yul\":545:688   */\ntag_15:\n    /* \"#utility.yul\":602:607   */\n  0x00\n    /* \"#utility.yul\":633:639   */\n  dup2\n    /* \"#utility.yul\":627:640   */\n  mload\n    /* \"#utility.yul\":618:640   */\n  swap1\n  pop\n    /* \"#utility.yul\":649:682   */\n  tag_57\n    /* \"#utility.yul\":676:681   */\n  dup2\n    /* \"#utility.yul\":649:682   */\n  tag_14\n  jump\t// in\ntag_57:\n    /* \"#utility.yul\":545:688   */\n  swap3\n  swap2\n  pop\n  pop\n  jump\t// out\n    /* \"#utility.yul\":694:820   */\ntag_16:\n    /* \"#utility.yul\":731:738   */\n  0x00\n    /* \"#utility.yul\":771:813   */\n  0xffffffffffffffffffffffffffffffffffffffff\n    /* \"#utility.yul\":764:769   */\n  dup3\n    /* \"#utility.yul\":760:814   */\n  and\n    /* \"#utility.yul\":749:814   */\n  swap1\n  pop\n    /* \"#utility.yul\":694:820   */\n  swap2\n  swap1\n  pop\n  jump\t// out\n    /* \"#utility.yul\":826:922   */\ntag_17:\n    /* \"#utility.yul\":863:870   */\n  0x00\n    /* \"#utility.yul\":892:916   */\n  tag_60\n    /* \"#utility.yul\":910:915   */\n  dup3\n    /* \"#utility.yul\":892:916   */\n  tag_16\n  jump\t// in\ntag_60:\n    /* \"#utility.yul\":881:916   */\n  swap1\n  pop\n    /* \"#utility.yul\":826:922   */\n  swap2\n  swap1\n  pop\n  jump\t// out\n    /* \"#utility.yul\":928:1050   */\ntag_18:\n    /* \"#utility.yul\":1001:1025   */\n  tag_62\n    /* \"#utility.yul\":1019:1024   */\n  dup2\n    /* \"#utility.yul\":1001:1025   */\n  tag_17\n  jump\t// in\ntag_62:\n    /* \"#utility.yul\":994:999   */\n  dup2\n    /* \"#utility.yul\":991:1026   */\n  eq\n    /* \"#utility.yul\":981:1044   */\n  tag_63\n  jumpi\n    /* \"#utility.yul\":1040:1041   */\n  0x00\n    /* \"#utility.yul\":1037:1038   */\n  dup1\n    /* \"#utility.yul\":1030:1042   */\n  revert\n    /* \"#utility.yul\":981:1044   */\ntag_63:\n    /* \"#utility.yul\":928:1050   */\n  pop\n  jump\t// out\n    /* \"#utility.yul\":1056:1199   */\ntag_19:\n    /* \"#utility.yul\":1113:1118   */\n  0x00\n    /* \"#utility.yul\":1144:1150   */\n  dup2\n    /* \"#utility.yul\":1138:1151   */\n  mload\n    /* \"#utility.yul\":1129:1151   */\n  swap1\n  pop\n    /* \"#utility.yul\":1160:1193   */\n  tag_65\n    /* \"#utility.yul\":1187:1192   */\n  dup2\n    /* \"#utility.yul\":1160:1193   */\n  tag_18\n  jump\t// in\ntag_65:\n    /* \"#utility.yul\":1056:1199   */\n  swap3\n  swap2\n  pop\n  pop\n  jump\t// out\n    /* \"#utility.yul\":1205:1322   */\ntag_20:\n    /* \"#utility.yul\":1314:1315   */\n  0x00\n    /* \"#utility.yul\":1311:1312   */\n  dup1\n    /* \"#utility.yul\":1304:1316   */\n  revert\n    /* \"#utility.yul\":1328:1445   */\ntag_21:\n    /* \"#utility.yul\":1437:1438   */\n  0x00\n    /* \"#utility.yul\":1434:1435   */\n  dup1\n    /* \"#utility.yul\":1427:1439   */\n  revert\n    /* \"#utility.yul\":1451:1553   */\ntag_22:\n    /* \"#utility.yul\":1492:1498   */\n  0x00\n    /* \"#utility.yul\":1543:1545   */\n  0x1f\n    /* \"#utility.yul\":1539:1546   */\n  not\n    /* \"#utility.yul\":1534:1536   */\n  0x1f\n    /* \"#utility.yul\":1527:1532   */\n  dup4\n    /* \"#utility.yul\":1523:1537   */\n  add\n    /* \"#utility.yul\":1519:1547   */\n  and\n    /* \"#utility.yul\":1509:1547   */\n  swap1\n  pop\n    /* \"#utility.yul\":1451:1553   */\n  swap2\n  swap1\n  pop\n  jump\t// out\n    /* \"#utility.yul\":1559:1739   */\ntag_23:\n    /* \"#utility.yul\":1607:1684   */\n  0x4e487b7100000000000000000000000000000000000000000000000000000000\n    /* \"#utility.yul\":1604:1605   */\n  0x00\n    /* \"#utility.yul\":1597:1685   */\n  mstore\n    /* \"#utility.yul\":1704:1708   */\n  0x41\n    /* \"#utility.yul\":1701:1702   */\n  0x04\n    /* \"#utility.yul\":1694:1709   */\n  mstore\n    /* \"#utility.yul\":1728:1732   */\n  0x24\n    /* \"#utility.yul\":1725:1726   */\n  0x00\n    /* \"#utility.yul\":1718:1733   */\n  revert\n    /* \"#utility.yul\":1745:2026   */\ntag_24:\n    /* \"#utility.yul\":1828:1855   */\n  tag_71\n    /* \"#utility.yul\":1850:1854   */\n  dup3\n    /* \"#utility.yul\":1828:1855   */\n  tag_22\n  jump\t// in\ntag_71:\n    /* \"#utility.yul\":1820:1826   */\n  dup2\n    /* \"#utility.yul\":1816:1856   */\n  add\n    /* \"#utility.yul\":1958:1964   */\n  dup2\n    /* \"#utility.yul\":1946:1956   */\n  dup2\n    /* \"#utility.yul\":1943:1965   */\n  lt\n    /* \"#utility.yul\":1922:1940   */\n  0xffffffffffffffff\n    /* \"#utility.yul\":1910:1920   */\n  dup3\n    /* \"#utility.yul\":1907:1941   */\n  gt\n    /* \"#utility.yul\":1904:1966   */\n  or\n    /* \"#utility.yul\":1901:1989   */\n  iszero\n  tag_72\n  jumpi\n    /* \"#utility.yul\":1969:1987   */\n  tag_73\n  tag_23\n  jump\t// in\ntag_73:\n    /* \"#utility.yul\":1901:1989   */\ntag_72:\n    /* \"#utility.yul\":2009:2019   */\n  dup1\n    /* \"#utility.yul\":2005:2007   */\n  0x40\n    /* \"#utility.yul\":1998:2020   */\n  mstore\n    /* \"#utility.yul\":1788:2026   */\n  pop\n    /* \"#utility.yul\":1745:2026   */\n  pop\n  pop\n  jump\t// out\n    /* \"#utility.yul\":2032:2161   */\ntag_25:\n    /* \"#utility.yul\":2066:2072   */\n  0x00\n    /* \"#utility.yul\":2093:2113   */\n  tag_75\n  tag_10\n  jump\t// in\ntag_75:\n    /* \"#utility.yul\":2083:2113   */\n  swap1\n  pop\n    /* \"#utility.yul\":2122:2155   */\n  tag_76\n    /* \"#utility.yul\":2150:2154   */\n  dup3\n    /* \"#utility.yul\":2142:2148   */\n  dup3\n    /* \"#utility.yul\":2122:2155   */\n  tag_24\n  jump\t// in\ntag_76:\n    /* \"#utility.yul\":2032:2161   */\n  swap2\n  swap1\n  pop\n  jump\t// out\n    /* \"#utility.yul\":2167:2475   */\ntag_26:\n    /* \"#utility.yul\":2229:2233   */\n  0x00\n    /* \"#utility.yul\":2319:2337   */\n  0xffffffffffffffff\n    /* \"#utility.yul\":2311:2317   */\n  dup3\n    /* \"#utility.yul\":2308:2338   */\n  gt\n    /* \"#utility.yul\":2305:2361   */\n  iszero\n  tag_78\n  jumpi\n    /* \"#utility.yul\":2341:2359   */\n  tag_79\n  tag_23\n  jump\t// in\ntag_79:\n    /* \"#utility.yul\":2305:2361   */\ntag_78:\n    /* \"#utility.yul\":2379:2408   */\n  tag_80\n    /* \"#utility.yul\":2401:2407   */\n  dup3\n    /* \"#utility.yul\":2379:2408   */\n  tag_22\n  jump\t// in\ntag_80:\n    /* \"#utility.yul\":2371:2408   */\n  swap1\n  pop\n    /* \"#utility.yul\":2463:2467   */\n  0x20\n    /* \"#utility.yul\":2457:2461   */\n  dup2\n    /* \"#utility.yul\":2453:2468   */\n  add\n    /* \"#utility.yul\":2445:2468   */\n  swap1\n  pop\n    /* \"#utility.yul\":2167:2475   */\n  swap2\n  swap1\n  pop\n  jump\t// out\n    /* \"#utility.yul\":2481:2727   */\ntag_27:\n    /* \"#utility.yul\":2562:2563   */\n  0x00\n    /* \"#utility.yul\":2572:2685   */\ntag_82:\n    /* \"#utility.yul\":2586:2592   */\n  dup4\n    /* \"#utility.yul\":2583:2584   */\n  dup2\n    /* \"#utility.yul\":2580:2593   */\n  lt\n    /* \"#utility.yul\":2572:2685   */\n  iszero\n  tag_84\n  jumpi\n    /* \"#utility.yul\":2671:2672   */\n  dup1\n    /* \"#utility.yul\":2666:2669   */\n  dup3\n    /* \"#utility.yul\":2662:2673   */\n  add\n    /* \"#utility.yul\":2656:2674   */\n  mload\n    /* \"#utility.yul\":2652:2653   */\n  dup2\n    /* \"#utility.yul\":2647:2650   */\n  dup5\n    /* \"#utility.yul\":2643:2654   */\n  add\n    /* \"#utility.yul\":2636:2675   */\n  mstore\n    /* \"#utility.yul\":2608:2610   */\n  0x20\n    /* \"#utility.yul\":2605:2606   */\n  dup2\n    /* \"#utility.yul\":2601:2611   */\n  add\n    /* \"#utility.yul\":2596:2611   */\n  swap1\n  pop\n    /* \"#utility.yul\":2572:2685   */\n  jump(tag_82)\ntag_84:\n    /* \"#utility.yul\":2719:2720   */\n  0x00\n    /* \"#utility.yul\":2710:2716   */\n  dup5\n    /* \"#utility.yul\":2705:2708   */\n  dup5\n    /* \"#utility.yul\":2701:2717   */\n  add\n    /* \"#utility.yul\":2694:2721   */\n  mstore\n    /* \"#utility.yul\":2543:2727   */\n  pop\n    /* \"#utility.yul\":2481:2727   */\n  pop\n  pop\n  pop\n  jump\t// out\n    /* \"#utility.yul\":2733:3167   */\ntag_28:\n    /* \"#utility.yul\":2822:2827   */\n  0x00\n    /* \"#utility.yul\":2847:2913   */\n  tag_86\n    /* \"#utility.yul\":2863:2912   */\n  tag_87\n    /* \"#utility.yul\":2905:2911   */\n  dup5\n    /* \"#utility.yul\":2863:2912   */\n  tag_26\n  jump\t// in\ntag_87:\n    /* \"#utility.yul\":2847:2913   */\n  tag_25\n  jump\t// in\ntag_86:\n    /* \"#utility.yul\":2838:2913   */\n  swap1\n  pop\n    /* \"#utility.yul\":2936:2942   */\n  dup3\n    /* \"#utility.yul\":2929:2934   */\n  dup2\n    /* \"#utility.yul\":2922:2943   */\n  mstore\n    /* \"#utility.yul\":2974:2978   */\n  0x20\n    /* \"#utility.yul\":2967:2972   */\n  dup2\n    /* \"#utility.yul\":2963:2979   */\n  add\n    /* \"#utility.yul\":3012:3015   */\n  dup5\n    /* \"#utility.yul\":3003:3009   */\n  dup5\n    /* \"#utility.yul\":2998:3001   */\n  dup5\n    /* \"#utility.yul\":2994:3010   */\n  add\n    /* \"#utility.yul\":2991:3016   */\n  gt\n    /* \"#utility.yul\":2988:3100   */\n  iszero\n  tag_88\n  jumpi\n    /* \"#utility.yul\":3019:3098   */\n  tag_89\n  tag_21\n  jump\t// in\ntag_89:\n    /* \"#utility.yul\":2988:3100   */\ntag_88:\n    /* \"#utility.yul\":3109:3161   */\n  tag_90\n    /* \"#utility.yul\":3154:3160   */\n  dup5\n    /* \"#utility.yul\":3149:3152   */\n  dup3\n    /* \"#utility.yul\":3144:3147   */\n  dup6\n    /* \"#utility.yul\":3109:3161   */\n  tag_27\n  jump\t// in\ntag_90:\n    /* \"#utility.yul\":2828:3167   */\n  pop\n    /* \"#utility.yul\":2733:3167   */\n  swap4\n  swap3\n  pop\n  pop\n  pop\n  jump\t// out\n    /* \"#utility.yul\":3187:3542   */\ntag_29:\n    /* \"#utility.yul\":3254:3259   */\n  0x00\n    /* \"#utility.yul\":3303:3306   */\n  dup3\n    /* \"#utility.yul\":3296:3300   */\n  0x1f\n    /* \"#utility.yul\":3288:3294   */\n  dup4\n    /* \"#utility.yul\":3284:3301   */\n  add\n    /* \"#utility.yul\":3280:3307   */\n  slt\n    /* \"#utility.yul\":3270:3392   */\n  tag_92\n  jumpi\n    /* \"#utility.yul\":3311:3390   */\n  tag_93\n  tag_20\n  jump\t// in\ntag_93:\n    /* \"#utility.yul\":3270:3392   */\ntag_92:\n    /* \"#utility.yul\":3421:3427   */\n  dup2\n    /* \"#utility.yul\":3415:3428   */\n  mload\n    /* \"#utility.yul\":3446:3536   */\n  tag_94\n    /* \"#utility.yul\":3532:3535   */\n  dup5\n    /* \"#utility.yul\":3524:3530   */\n  dup3\n    /* \"#utility.yul\":3517:3521   */\n  0x20\n    /* \"#utility.yul\":3509:3515   */\n  dup7\n    /* \"#utility.yul\":3505:3522   */\n  add\n    /* \"#utility.yul\":3446:3536   */\n  tag_28\n  jump\t// in\ntag_94:\n    /* \"#utility.yul\":3437:3536   */\n  swap2\n  pop\n    /* \"#utility.yul\":3260:3542   */\n  pop\n    /* \"#utility.yul\":3187:3542   */\n  swap3\n  swap2\n  pop\n  pop\n  jump\t// out\n    /* \"#utility.yul\":3548:4871   */\ntag_3:\n    /* \"#utility.yul\":3674:3680   */\n  0x00\n    /* \"#utility.yul\":3682:3688   */\n  dup1\n    /* \"#utility.yul\":3690:3696   */\n  0x00\n    /* \"#utility.yul\":3698:3704   */\n  dup1\n    /* \"#utility.yul\":3706:3712   */\n  0x00\n    /* \"#utility.yul\":3755:3758   */\n  0xa0\n    /* \"#utility.yul\":3743:3752   */\n  dup7\n    /* \"#utility.yul\":3734:3741   */\n  dup9\n    /* \"#utility.yul\":3730:3753   */\n  sub\n    /* \"#utility.yul\":3726:3759   */\n  slt\n    /* \"#utility.yul\":3723:3843   */\n  iszero\n  tag_96\n  jumpi\n    /* \"#utility.yul\":3762:3841   */\n  tag_97\n  tag_11\n  jump\t// in\ntag_97:\n    /* \"#utility.yul\":3723:3843   */\ntag_96:\n    /* \"#utility.yul\":3882:3883   */\n  0x00\n    /* \"#utility.yul\":3907:3971   */\n  tag_98\n    /* \"#utility.yul\":3963:3970   */\n  dup9\n    /* \"#utility.yul\":3954:3960   */\n  dup3\n    /* \"#utility.yul\":3943:3952   */\n  dup10\n    /* \"#utility.yul\":3939:3961   */\n  add\n    /* \"#utility.yul\":3907:3971   */\n  tag_15\n  jump\t// in\ntag_98:\n    /* \"#utility.yul\":3897:3971   */\n  swap6\n  pop\n    /* \"#utility.yul\":3853:3981   */\n  pop\n    /* \"#utility.yul\":4020:4022   */\n  0x20\n    /* \"#utility.yul\":4046:4110   */\n  tag_99\n    /* \"#utility.yul\":4102:4109   */\n  dup9\n    /* \"#utility.yul\":4093:4099   */\n  dup3\n    /* \"#utility.yul\":4082:4091   */\n  dup10\n    /* \"#utility.yul\":4078:4100   */\n  add\n    /* \"#utility.yul\":4046:4110   */\n  tag_19\n  jump\t// in\ntag_99:\n    /* \"#utility.yul\":4036:4110   */\n  swap5\n  pop\n    /* \"#utility.yul\":3991:4120   */\n  pop\n    /* \"#utility.yul\":4180:4182   */\n  0x40\n    /* \"#utility.yul\":4169:4178   */\n  dup7\n    /* \"#utility.yul\":4165:4183   */\n  add\n    /* \"#utility.yul\":4159:4184   */\n  mload\n    /* \"#utility.yul\":4211:4229   */\n  0xffffffffffffffff\n    /* \"#utility.yul\":4203:4209   */\n  dup2\n    /* \"#utility.yul\":4200:4230   */\n  gt\n    /* \"#utility.yul\":4197:4314   */\n  iszero\n  tag_100\n  jumpi\n    /* \"#utility.yul\":4233:4312   */\n  tag_101\n  tag_12\n  jump\t// in\ntag_101:\n    /* \"#utility.yul\":4197:4314   */\ntag_100:\n    /* \"#utility.yul\":4338:4412   */\n  tag_102\n    /* \"#utility.yul\":4404:4411   */\n  dup9\n    /* \"#utility.yul\":4395:4401   */\n  dup3\n    /* \"#utility.yul\":4384:4393   */\n  dup10\n    /* \"#utility.yul\":4380:4402   */\n  add\n    /* \"#utility.yul\":4338:4412   */\n  tag_29\n  jump\t// in\ntag_102:\n    /* \"#utility.yul\":4328:4412   */\n  swap4\n  pop\n    /* \"#utility.yul\":4130:4422   */\n  pop\n    /* \"#utility.yul\":4482:4484   */\n  0x60\n    /* \"#utility.yul\":4471:4480   */\n  dup7\n    /* \"#utility.yul\":4467:4485   */\n  add\n    /* \"#utility.yul\":4461:4486   */\n  mload\n    /* \"#utility.yul\":4513:4531   */\n  0xffffffffffffffff\n    /* \"#utility.yul\":4505:4511   */\n  dup2\n    /* \"#utility.yul\":4502:4532   */\n  gt\n    /* \"#utility.yul\":4499:4616   */\n  iszero\n  tag_103\n  jumpi\n    /* \"#utility.yul\":4535:4614   */\n  tag_104\n  tag_12\n  jump\t// in\ntag_104:\n    /* \"#utility.yul\":4499:4616   */\ntag_103:\n    /* \"#utility.yul\":4640:4714   */\n  tag_105\n    /* \"#utility.yul\":4706:4713   */\n  dup9\n    /* \"#utility.yul\":4697:4703   */\n  dup3\n    /* \"#utility.yul\":4686:4695   */\n  dup10\n    /* \"#utility.yul\":4682:4704   */\n  add\n    /* \"#utility.yul\":4640:4714   */\n  tag_29\n  jump\t// in\ntag_105:\n    /* \"#utility.yul\":4630:4714   */\n  swap3\n  pop\n    /* \"#utility.yul\":4432:4724   */\n  pop\n    /* \"#utility.yul\":4763:4766   */\n  0x80\n    /* \"#utility.yul\":4790:4854   */\n  tag_106\n    /* \"#utility.yul\":4846:4853   */\n  dup9\n    /* \"#utility.yul\":4837:4843   */\n  dup3\n    /* \"#utility.yul\":4826:4835   */\n  dup10\n    /* \"#utility.yul\":4822:4844   */\n  add\n    /* \"#utility.yul\":4790:4854   */\n  tag_15\n  jump\t// in\ntag_106:\n    /* \"#utility.yul\":4780:4854   */\n  swap2\n  pop\n    /* \"#utility.yul\":4734:4864   */\n  pop\n    /* \"#utility.yul\":3548:4871   */\n  swap3\n  swap6\n  pop\n  swap3\n  swap6\n  swap1\n  swap4\n  pop\n  jump\t// out\n    /* \"#utility.yul\":4877:4976   */\ntag_30:\n    /* \"#utility.yul\":4929:4935   */\n  0x00\n    /* \"#utility.yul\":4963:4968   */\n  dup2\n    /* \"#utility.yul\":4957:4969   */\n  mload\n    /* \"#utility.yul\":4947:4969   */\n  swap1\n  pop\n    /* \"#utility.yul\":4877:4976   */\n  swap2\n  swap1\n  pop\n  jump\t// out\n    /* \"#utility.yul\":4982:5162   */\ntag_31:\n    /* \"#utility.yul\":5030:5107   */\n  0x4e487b7100000000000000000000000000000000000000000000000000000000\n    /* \"#utility.yul\":5027:5028   */\n  0x00\n    /* \"#utility.yul\":5020:5108   */\n  mstore\n    /* \"#utility.yul\":5127:5131   */\n  0x22\n    /* \"#utility.yul\":5124:5125   */\n  0x04\n    /* \"#utility.yul\":5117:5132   */\n  mstore\n    /* \"#utility.yul\":5151:5155   */\n  0x24\n    /* \"#utility.yul\":5148:5149   */\n  0x00\n    /* \"#utility.yul\":5141:5156   */\n  revert\n    /* \"#utility.yul\":5168:5488   */\ntag_32:\n    /* \"#utility.yul\":5212:5218   */\n  0x00\n    /* \"#utility.yul\":5249:5250   */\n  0x02\n    /* \"#utility.yul\":5243:5247   */\n  dup3\n    /* \"#utility.yul\":5239:5251   */\n  div\n    /* \"#utility.yul\":5229:5251   */\n  swap1\n  pop\n    /* \"#utility.yul\":5296:5297   */\n  0x01\n    /* \"#utility.yul\":5290:5294   */\n  dup3\n    /* \"#utility.yul\":5286:5298   */\n  and\n    /* \"#utility.yul\":5317:5335   */\n  dup1\n    /* \"#utility.yul\":5307:5388   */\n  tag_110\n  jumpi\n    /* \"#utility.yul\":5373:5377   */\n  0x7f\n    /* \"#utility.yul\":5365:5371   */\n  dup3\n    /* \"#utility.yul\":5361:5378   */\n  and\n    /* \"#utility.yul\":5351:5378   */\n  swap2\n  pop\n    /* \"#utility.yul\":5307:5388   */\ntag_110:\n    /* \"#utility.yul\":5435:5437   */\n  0x20\n    /* \"#utility.yul\":5427:5433   */\n  dup3\n    /* \"#utility.yul\":5424:5438   */\n  lt\n    /* \"#utility.yul\":5404:5422   */\n  dup2\n    /* \"#utility.yul\":5401:5439   */\n  sub\n    /* \"#utility.yul\":5398:5482   */\n  tag_111\n  jumpi\n    /* \"#utility.yul\":5454:5472   */\n  tag_112\n  tag_31\n  jump\t// in\ntag_112:\n    /* \"#utility.yul\":5398:5482   */\ntag_111:\n    /* \"#utility.yul\":5219:5488   */\n  pop\n    /* \"#utility.yul\":5168:5488   */\n  swap2\n  swap1\n  pop\n  jump\t// out\n    /* \"#utility.yul\":5494:5635   */\ntag_33:\n    /* \"#utility.yul\":5543:5547   */\n  0x00\n    /* \"#utility.yul\":5566:5569   */\n  dup2\n    /* \"#utility.yul\":5558:5569   */\n  swap1\n  pop\n    /* \"#utility.yul\":5589:5592   */\n  dup2\n    /* \"#utility.yul\":5586:5587   */\n  0x00\n    /* \"#utility.yul\":5579:5593   */\n  mstore\n    /* \"#utility.yul\":5623:5627   */\n  0x20\n    /* \"#utility.yul\":5620:5621   */\n  0x00\n    /* \"#utility.yul\":5610:5628   */\n  keccak256\n    /* \"#utility.yul\":5602:5628   */\n  swap1\n  pop\n    /* \"#utility.yul\":5494:5635   */\n  swap2\n  swap1\n  pop\n  jump\t// out\n    /* \"#utility.yul\":5641:5734   */\ntag_34:\n    /* \"#utility.yul\":5678:5684   */\n  0x00\n    /* \"#utility.yul\":5725:5727   */\n  0x20\n    /* \"#utility.yul\":5720:5722   */\n  0x1f\n    /* \"#utility.yul\":5713:5718   */\n  dup4\n    /* \"#utility.yul\":5709:5723   */\n  add\n    /* \"#utility.yul\":5705:5728   */\n  div\n    /* \"#utility.yul\":5695:5728   */\n  swap1\n  pop\n    /* \"#utility.yul\":5641:5734   */\n  swap2\n  swap1\n  pop\n  jump\t// out\n    /* \"#utility.yul\":5740:5847   */\ntag_35:\n    /* \"#utility.yul\":5784:5792   */\n  0x00\n    /* \"#utility.yul\":5834:5839   */\n  dup3\n    /* \"#utility.yul\":5828:5832   */\n  dup3\n    /* \"#utility.yul\":5824:5840   */\n  shl\n    /* \"#utility.yul\":5803:5840   */\n  swap1\n  pop\n    /* \"#utility.yul\":5740:5847   */\n  swap3\n  swap2\n  pop\n  pop\n  jump\t// out\n    /* \"#utility.yul\":5853:6246   */\ntag_36:\n    /* \"#utility.yul\":5922:5928   */\n  0x00\n    /* \"#utility.yul\":5972:5973   */\n  0x08\n    /* \"#utility.yul\":5960:5970   */\n  dup4\n    /* \"#utility.yul\":5956:5974   */\n  mul\n    /* \"#utility.yul\":5995:6092   */\n  tag_117\n    /* \"#utility.yul\":6025:6091   */\n  0xffffffffffffffffffffffffffffffffffffffffffffffffffffffffffffffff\n    /* \"#utility.yul\":6014:6023   */\n  dup3\n    /* \"#utility.yul\":5995:6092   */\n  tag_35\n  jump\t// in\ntag_117:\n    /* \"#utility.yul\":6113:6152   */\n  tag_118\n    /* \"#utility.yul\":6143:6151   */\n  dup7\n    /* \"#utility.yul\":6132:6141   */\n  dup4\n    /* \"#utility.yul\":6113:6152   */\n  tag_35\n  jump\t// in\ntag_118:\n    /* \"#utility.yul\":6101:6152   */\n  swap6\n  pop\n    /* \"#utility.yul\":6185:6189   */\n  dup1\n    /* \"#utility.yul\":6181:6190   */\n  not\n    /* \"#utility.yul\":6174:6179   */\n  dup5\n    /* \"#utility.yul\":6170:6191   */\n  and\n    /* \"#utility.yul\":6161:6191   */\n  swap4\n  pop\n    /* \"#utility.yul\":6234:6238   */\n  dup1\n    /* \"#utility.yul\":6224:6232   */\n  dup7\n    /* \"#utility.yul\":6220:6239   */\n  and\n    /* \"#utility.yul\":6213:6218   */\n  dup5\n    /* \"#utility.yul\":6210:6240   */\n  or\n    /* \"#utility.yul\":6200:6240   */\n  swap3\n  pop\n    /* \"#utility.yul\":5929:6246   */\n  pop\n  pop\n    /* \"#utility.yul\":5853:6246   */\n  swap4\n  swap3\n  pop\n  pop\n  pop\n  jump\t// out\n    /* \"#utility.yul\":6252:6312   */\ntag_37:\n    /* \"#utility.yul\":6280:6283   */\n  0x00\n    /* \"#utility.yul\":6301:6306   */\n  dup2\n    /* \"#utility.yul\":6294:6306   */\n  swap1\n  pop\n    /* \"#utility.yul\":6252:6312   */\n  swap2\n  swap1\n  pop\n  jump\t// out\n    /* \"#utility.yul\":6318:6460   */\ntag_38:\n    /* \"#utility.yul\":6368:6377   */\n  0x00\n    /* \"#utility.yul\":6401:6454   */\n  tag_121\n    /* \"#utility.yul\":6419:6453   */\n  tag_122\n    /* \"#utility.yul\":6428:6452   */\n  tag_123\n    /* \"#utility.yul\":6446:6451   */\n  dup5\n    /* \"#utility.yul\":6428:6452   */\n  tag_13\n  jump\t// in\ntag_123:\n    /* \"#utility.yul\":6419:6453   */\n  tag_37\n  jump\t// in\ntag_122:\n    /* \"#utility.yul\":6401:6454   */\n  tag_13\n  jump\t// in\ntag_121:\n    /* \"#utility.yul\":6388:6454   */\n  swap1\n  pop\n    /* \"#utility.yul\":6318:6460   */\n  swap2\n  swap1\n  pop\n  jump\t// out\n    /* \"#utility.yul\":6466:6541   */\ntag_39:\n    /* \"#utility.yul\":6509:6512   */\n  0x00\n    /* \"#utility.yul\":6530:6535   */\n  dup2\n    /* \"#utility.yul\":6523:6535   */\n  swap1\n  pop\n    /* \"#utility.yul\":6466:6541   */\n  swap2\n  swap1\n  pop\n  jump\t// out\n    /* \"#utility.yul\":6547:6816   */\ntag_40:\n    /* \"#utility.yul\":6657:6696   */\n  tag_126\n    /* \"#utility.yul\":6688:6695   */\n  dup4\n    /* \"#utility.yul\":6657:6696   */\n  tag_38\n  jump\t// in\ntag_126:\n    /* \"#utility.yul\":6718:6809   */\n  tag_127\n    /* \"#utility.yul\":6767:6808   */\n  tag_128\n    /* \"#utility.yul\":6791:6807   */\n  dup3\n    /* \"#utility.yul\":6767:6808   */\n  tag_39\n  jump\t// in\ntag_128:\n    /* \"#utility.yul\":6759:6765   */\n  dup5\n    /* \"#utility.yul\":6752:6756   */\n  dup5\n    /* \"#utility.yul\":6746:6757   */\n  sload\n    /* \"#utility.yul\":6718:6809   */\n  tag_36\n  jump\t// in\ntag_127:\n    /* \"#utility.yul\":6712:6716   */\n  dup3\n    /* \"#utility.yul\":6705:6810   */\n  sstore\n    /* \"#utility.yul\":6623:6816   */\n  pop\n    /* \"#utility.yul\":6547:6816   */\n  pop\n  pop\n  pop\n  jump\t// out\n    /* \"#utility.yul\":6822:6895   */\ntag_41:\n    /* \"#utility.yul\":6867:6870   */\n  0x00\n    /* \"#utility.yul\":6822:6895   */\n  swap1\n  jump\t// out\n    /* \"#utility.yul\":6901:7090   */\ntag_42:\n    /* \"#utility.yul\":6978:7010   */\n  tag_131\n  tag_41\n  jump\t// in\ntag_131:\n    /* \"#utility.yul\":7019:7084   */\n  tag_132\n    /* \"#utility.yul\":7077:7083   */\n  dup2\n    /* \"#utility.yul\":7069:7075   */\n  dup5\n    /* \"#utility.yul\":7063:7067   */\n  dup5\n    /* \"#utility.yul\":7019:7084   */\n  tag_40\n  jump\t// in\ntag_132:\n    /* \"#utility.yul\":6954:7090   */\n  pop\n    /* \"#utility.yul\":6901:7090   */\n  pop\n  pop\n  jump\t// out\n    /* \"#utility.yul\":7096:7282   */\ntag_43:\n    /* \"#utility.yul\":7156:7276   */\ntag_134:\n    /* \"#utility.yul\":7173:7176   */\n  dup2\n    /* \"#utility.yul\":7166:7171   */\n  dup2\n    /* \"#utility.yul\":7163:7177   */\n  lt\n    /* \"#utility.yul\":7156:7276   */\n  iszero\n  tag_136\n  jumpi\n    /* \"#utility.yul\":7227:7266   */\n  tag_137\n    /* \"#utility.yul\":7264:7265   */\n  0x00\n    /* \"#utility.yul\":7257:7262   */\n  dup3\n    /* \"#utility.yul\":7227:7266   */\n  tag_42\n  jump\t// in\ntag_137:\n    /* \"#utility.yul\":7200:7201   */\n  0x01\n    /* \"#utility.yul\":7193:7198   */\n  dup2\n    /* \"#utility.yul\":7189:7202   */\n  add\n    /* \"#utility.yul\":7180:7202   */\n  swap1\n  pop\n    /* \"#utility.yul\":7156:7276   */\n  jump(tag_134)\ntag_136:\n    /* \"#utility.yul\":7096:7282   */\n  pop\n  pop\n  jump\t// out\n    /* \"#utility.yul\":7288:7831   */\ntag_44:\n    /* \"#utility.yul\":7389:7391   */\n  0x1f\n    /* \"#utility.yul\":7384:7387   */\n  dup3\n    /* \"#utility.yul\":7381:7392   */\n  gt\n    /* \"#utility.yul\":7378:7824   */\n  iszero\n  tag_139\n  jumpi\n    /* \"#utility.yul\":7423:7461   */\n  tag_140\n    /* \"#utility.yul\":7455:7460   */\n  dup2\n    /* \"#utility.yul\":7423:7461   */\n  tag_33\n  jump\t// in\ntag_140:\n    /* \"#utility.yul\":7507:7536   */\n  tag_141\n    /* \"#utility.yul\":7525:7535   */\n  dup5\n    /* \"#utility.yul\":7507:7536   */\n  tag_34\n  jump\t// in\ntag_141:\n    /* \"#utility.yul\":7497:7505   */\n  dup2\n    /* \"#utility.yul\":7493:7537   */\n  add\n    /* \"#utility.yul\":7690:7692   */\n  0x20\n    /* \"#utility.yul\":7678:7688   */\n  dup6\n    /* \"#utility.yul\":7675:7693   */\n  lt\n    /* \"#utility.yul\":7672:7721   */\n  iszero\n  tag_142\n  jumpi\n    /* \"#utility.yul\":7711:7719   */\n  dup2\n    /* \"#utility.yul\":7696:7719   */\n  swap1\n  pop\n    /* \"#utility.yul\":7672:7721   */\ntag_142:\n    /* \"#utility.yul\":7734:7814   */\n  tag_143\n    /* \"#utility.yul\":7790:7812   */\n  tag_144\n    /* \"#utility.yul\":7808:7811   */\n  dup6\n    /* \"#utility.yul\":7790:7812   */\n  tag_34\n  jump\t// in\ntag_144:\n    /* \"#utility.yul\":7780:7788   */\n  dup4\n    /* \"#utility.yul\":7776:7813   */\n  add\n    /* \"#utility.yul\":7763:7774   */\n  dup3\n    /* \"#utility.yul\":7734:7814   */\n  tag_43\n  jump\t// in\ntag_143:\n    /* \"#utility.yul\":7393:7824   */\n  pop\n  pop\n    /* \"#utility.yul\":7378:7824   */\ntag_139:\n    /* \"#utility.yul\":7288:7831   */\n  pop\n  pop\n  pop\n  jump\t// out\n    /* \"#utility.yul\":7837:7954   */\ntag_45:\n    /* \"#utility.yul\":7891:7899   */\n  0x00\n    /* \"#utility.yul\":7941:7946   */\n  dup3\n    /* \"#utility.yul\":7935:7939   */\n  dup3\n    /* \"#utility.yul\":7931:7947   */\n  shr\n    /* \"#utility.yul\":7910:7947   */\n  swap1\n  pop\n    /* \"#utility.yul\":7837:7954   */\n  swap3\n  swap2\n  pop\n  pop\n  jump\t// out\n    /* \"#utility.yul\":7960:8129   */\ntag_46:\n    /* \"#utility.yul\":8004:8010   */\n  0x00\n    /* \"#utility.yul\":8037:8088   */\n  tag_147\n    /* \"#utility.yul\":8085:8086   */\n  0x00\n    /* \"#utility.yul\":8081:8087   */\n  not\n    /* \"#utility.yul\":8073:8078   */\n  dup5\n    /* \"#utility.yul\":8070:8071   */\n  0x08\n    /* \"#utility.yul\":8066:8079   */\n  mul\n    /* \"#utility.yul\":8037:8088   */\n  tag_45\n  jump\t// in\ntag_147:\n    /* \"#utility.yul\":8033:8089   */\n  not\n    /* \"#utility.yul\":8118:8122   */\n  dup1\n    /* \"#utility.yul\":8112:8116   */\n  dup4\n    /* \"#utility.yul\":8108:8123   */\n  and\n    /* \"#utility.yul\":8098:8123   */\n  swap2\n  pop\n    /* \"#utility.yul\":8011:8129   */\n  pop\n    /* \"#utility.yul\":7960:8129   */\n  swap3\n  swap2\n  pop\n  pop\n  jump\t// out\n    /* \"#utility.yul\":8134:8429   */\ntag_47:\n    /* \"#utility.yul\":8210:8214   */\n  0x00\n    /* \"#utility.yul\":8356:8385   */\n  tag_149\n    /* \"#utility.yul\":8381:8384   */\n  dup4\n    /* \"#utility.yul\":8375:8379   */\n  dup4\n    /* \"#utility.yul\":8356:8385   */\n  tag_46\n  jump\t// in\ntag_149:\n    /* \"#utility.yul\":8348:8385   */\n  swap2\n  pop\n    /* \"#utility.yul\":8418:8421   */\n  dup3\n    /* \"#utility.yul\":8415:8416   */\n  0x02\n    /* \"#utility.yul\":8411:8422   */\n  mul\n    /* \"#utility.yul\":8405:8409   */\n  dup3\n    /* \"#utility.yul\":8402:8423   */\n  or\n    /* \"#utility.yul\":8394:8423   */\n  swap1\n  pop\n    /* \"#utility.yul\":8134:8429   */\n  swap3\n  swap2\n  pop\n  pop\n  jump\t// out\n    /* \"#utility.yul\":8434:9829   */\ntag_7:\n    /* \"#utility.yul\":8551:8588   */\n  tag_151\n    /* \"#utility.yul\":8584:8587   */\n  dup3\n    /* \"#utility.yul\":8551:8588   */\n  tag_30\n  jump\t// in\ntag_151:\n    /* \"#utility.yul\":8653:8671   */\n  0xffffffffffffffff\n    /* \"#utility.yul\":8645:8651   */\n  dup2\n    /* \"#utility.yul\":8642:8672   */\n  gt\n    /* \"#utility.yul\":8639:8695   */\n  iszero\n  tag_152\n  jumpi\n    /* \"#utility.yul\":8675:8693   */\n  tag_153\n  tag_23\n  jump\t// in\ntag_153:\n    /* \"#utility.yul\":8639:8695   */\ntag_152:\n    /* \"#utility.yul\":8719:8757   */\n  tag_154\n    /* \"#utility.yul\":8751:8755   */\n  dup3\n    /* \"#utility.yul\":8745:8756   */\n  sload\n    /* \"#utility.yul\":8719:8757   */\n  tag_32\n  jump\t// in\ntag_154:\n    /* \"#utility.yul\":8804:8871   */\n  tag_155\n    /* \"#utility.yul\":8864:8870   */\n  dup3\n    /* \"#utility.yul\":8856:8862   */\n  dup3\n    /* \"#utility.yul\":8850:8854   */\n  dup6\n    /* \"#utility.yul\":8804:8871   */\n  tag_44\n  jump\t// in\ntag_155:\n    /* \"#utility.yul\":8898:8899   */\n  0x00\n    /* \"#utility.yul\":8922:8926   */\n  0x20\n    /* \"#utility.yul\":8909:8926   */\n  swap1\n  pop\n    /* \"#utility.yul\":8954:8956   */\n  0x1f\n    /* \"#utility.yul\":8946:8952   */\n  dup4\n    /* \"#utility.yul\":8943:8957   */\n  gt\n    /* \"#utility.yul\":8971:8972   */\n  0x01\n    /* \"#utility.yul\":8966:9584   */\n  dup2\n  eq\n  tag_157\n  jumpi\n    /* \"#utility.yul\":9628:9629   */\n  0x00\n    /* \"#utility.yul\":9645:9651   */\n  dup5\n    /* \"#utility.yul\":9642:9719   */\n  iszero\n  tag_158\n  jumpi\n    /* \"#utility.yul\":9694:9703   */\n  dup3\n    /* \"#utility.yul\":9689:9692   */\n  dup8\n    /* \"#utility.yul\":9685:9704   */\n  add\n    /* \"#utility.yul\":9679:9705   */\n  mload\n    /* \"#utility.yul\":9670:9705   */\n  swap1\n  pop\n    /* \"#utility.yul\":9642:9719   */\ntag_158:\n    /* \"#utility.yul\":9745:9812   */\n  tag_159\n    /* \"#utility.yul\":9805:9811   */\n  dup6\n    /* \"#utility.yul\":9798:9803   */\n  dup3\n    /* \"#utility.yul\":9745:9812   */\n  tag_47\n  jump\t// in\ntag_159:\n    /* \"#utility.yul\":9739:9743   */\n  dup7\n    /* \"#utility.yul\":9732:9813   */\n  sstore\n    /* \"#utility.yul\":9601:9823   */\n  pop\n    /* \"#utility.yul\":8936:9823   */\n  jump(tag_156)\n    /* \"#utility.yul\":8966:9584   */\ntag_157:\n    /* \"#utility.yul\":9018:9022   */\n  0x1f\n    /* \"#utility.yul\":9014:9023   */\n  not\n    /* \"#utility.yul\":9006:9012   */\n  dup5\n    /* \"#utility.yul\":9002:9024   */\n  and\n    /* \"#utility.yul\":9052:9089   */\n  tag_160\n    /* \"#utility.yul\":9084:9088   */\n  dup7\n    /* \"#utility.yul\":9052:9089   */\n  tag_33\n  jump\t// in\ntag_160:\n    /* \"#utility.yul\":9111:9112   */\n  0x00\n    /* \"#utility.yul\":9125:9333   */\ntag_161:\n    /* \"#utility.yul\":9139:9146   */\n  dup3\n    /* \"#utility.yul\":9136:9137   */\n  dup2\n    /* \"#utility.yul\":9133:9147   */\n  lt\n    /* \"#utility.yul\":9125:9333   */\n  iszero\n  tag_163\n  jumpi\n    /* \"#utility.yul\":9218:9227   */\n  dup5\n    /* \"#utility.yul\":9213:9216   */\n  dup10\n    /* \"#utility.yul\":9209:9228   */\n  add\n    /* \"#utility.yul\":9203:9229   */\n  mload\n    /* \"#utility.yul\":9195:9201   */\n  dup3\n    /* \"#utility.yul\":9188:9230   */\n  sstore\n    /* \"#utility.yul\":9269:9270   */\n  0x01\n    /* \"#utility.yul\":9261:9267   */\n  dup3\n    /* \"#utility.yul\":9257:9271   */\n  add\n    /* \"#utility.yul\":9247:9271   */\n  swap2\n  pop\n    /* \"#utility.yul\":9316:9318   */\n  0x20\n    /* \"#utility.yul\":9305:9314   */\n  dup6\n    /* \"#utility.yul\":9301:9319   */\n  add\n    /* \"#utility.yul\":9288:9319   */\n  swap5\n  pop\n    /* \"#utility.yul\":9162:9166   */\n  0x20\n    /* \"#utility.yul\":9159:9160   */\n  dup2\n    /* \"#utility.yul\":9155:9167   */\n  add\n    /* \"#utility.yul\":9150:9167   */\n  swap1\n  pop\n    /* \"#utility.yul\":9125:9333   */\n  jump(tag_161)\ntag_163:\n    /* \"#utility.yul\":9361:9367   */\n  dup7\n    /* \"#utility.yul\":9352:9359   */\n  dup4\n    /* \"#utility.yul\":9349:9368   */\n  lt\n    /* \"#utility.yul\":9346:9525   */\n  iszero\n  tag_164\n  jumpi\n    /* \"#utility.yul\":9419:9428   */\n  dup5\n    /* \"#utility.yul\":9414:9417   */\n  dup10\n    /* \"#utility.yul\":9410:9429   */\n  add\n    /* \"#utility.yul\":9404:9430   */\n  mload\n    /* \"#utility.yul\":9462:9510   */\n  tag_165\n    /* \"#utility.yul\":9504:9508   */\n  0x1f\n    /* \"#utility.yul\":9496:9502   */\n  dup10\n    /* \"#utility.yul\":9492:9509   */\n  and\n    /* \"#utility.yul\":9481:9490   */\n  dup3\n    /* \"#utility.yul\":9462:9510   */\n  tag_46\n  jump\t// in\ntag_165:\n    /* \"#utility.yul\":9454:9460   */\n  dup4\n    /* \"#utility.yul\":9447:9511   */\n  sstore\n    /* \"#utility.yul\":9369:9525   */\n  pop\n    /* \"#utility.yul\":9346:9525   */\ntag_164:\n    /* \"#utility.yul\":9571:9572   */\n  0x01\n    /* \"#utility.yul\":9567:9568   */\n  0x02\n    /* \"#utility.yul\":9559:9565   */\n  dup9\n    /* \"#utility.yul\":9555:9569   */\n  mul\n    /* \"#utility.yul\":9551:9573   */\n  add\n    /* \"#utility.yul\":9545:9549   */\n  dup9\n    /* \"#utility.yul\":9538:9574   */\n  sstore\n    /* \"#utility.yul\":8973:9584   */\n  pop\n  pop\n  pop\n    /* \"#utility.yul\":8936:9823   */\ntag_156:\n  pop\n    /* \"#utility.yul\":8526:9829   */\n  pop\n  pop\n  pop\n    /* \"#utility.yul\":8434:9829   */\n  pop\n  pop\n  jump\t// out\n    /* \"Campaign.sol\":602:3874  contract Campaign {... */\ntag_9:\n  dataSize(sub_0)\n  dup1\n  dataOffset(sub_0)\n  0x00\n  codecopy\n  0x00\n  return\nstop\n\nsub_0: assembly {\n        /* \"Campaign.sol\":602:3874  contract Campaign {... */\n      mstore(0x40, 0x80)\n      jumpi(tag_1, lt(calldatasize, 0x04))\n      shr(0xe0, calldataload(0x00))\n      dup1\n      0x81d12c58\n      gt\n      tag_19\n      jumpi\n      dup1\n      0xc7741265\n      gt\n      tag_20\n      jumpi\n      dup1\n      0xc7741265\n      eq\n      tag_14\n      jumpi\n      dup1\n      0xd7bb99ba\n      eq\n      tag_15\n      jumpi\n      dup1\n      0xd7d1bbdb\n      eq\n      tag_16\n      jumpi\n      dup1\n      0xe7b668b4\n      eq\n      tag_17\n      jumpi\n      dup1\n      0xef068a7f\n      eq\n      tag_18\n      jumpi\n      jump(tag_1)\n    tag_20:\n      dup1\n      0x81d12c58\n      eq\n      tag_10\n      jumpi\n      dup1\n      0x82fde093\n      eq\n      tag_11\n      jumpi\n      dup1\n      0xaaffadf3\n      eq\n      tag_12\n      jumpi\n      dup1\n      0xc5c4744c\n      eq\n      tag_13\n      jumpi\n      jump(tag_1)\n    tag_19:\n      dup1\n      0x3410452a\n      gt\n      tag_21\n      jumpi\n      dup1\n      0x3410452a\n      eq\n      tag_6\n      jumpi\n      dup1\n      0x4051ddac\n      eq\n      tag_7\n      jumpi\n      dup1\n      0x481c6a75\n      eq\n      tag_8\n      jumpi\n      dup1\n      0x5b18056b\n      eq\n      tag_9\n      jumpi\n      jump(tag_1)\n    tag_21:\n      dup1\n      0x0724fda9\n      eq\n      tag_2\n      jumpi\n      dup1\n      0x0a144391\n      eq\n      tag_3\n      jumpi\n      dup1\n      0x110842cb\n      eq\n      tag_4\n      jumpi\n      dup1\n      0x1c189d18\n      eq\n      tag_5\n      jumpi\n    tag_1:\n      0x00\n      dup1\n      revert\n        /* \"Campaign.sol\":918:944  string public campaignName */\n    tag_2:\n      callvalue\n      dup1\n      iszero\n      tag_22\n      jumpi\n      0x00\n      dup1\n      revert\n    tag_22:\n      pop\n      tag_23\n      tag_24\n      jump\t// in\n    tag_23:\n      mload(0x40)\n      tag_25\n      swap2\n      swap1\n      tag_26\n      jump\t// in\n    tag_25:\n      mload(0x40)\n      dup1\n      swap2\n      sub\n      swap1\n      return\n        /* \"Campaign.sol\":1087:1128  mapping(address => bool) public approvers */\n    tag_3:\n      callvalue\n      dup1\n      iszero\n      tag_27\n      jumpi\n      0x00\n      dup1\n      revert\n    tag_27:\n      pop\n      tag_28\n      0x04\n      dup1\n      calldatasize\n      sub\n      dup2\n      add\n      swap1\n      tag_29\n      swap2\n      swap1\n      tag_30\n      jump\t// in\n    tag_29:\n      tag_31\n      jump\t// in\n    tag_28:\n      mload(0x40)\n      tag_32\n      swap2\n      swap1\n      tag_33\n      jump\t// in\n    tag_32:\n      mload(0x40)\n      dup1\n      swap2\n      sub\n      swap1\n      return\n        /* \"Campaign.sol\":950:983  string public campaignDescription */\n    tag_4:\n      callvalue\n      dup1\n      iszero\n      tag_34\n      jumpi\n      0x00\n      dup1\n      revert\n    tag_34:\n      pop\n      tag_35\n      tag_36\n      jump\t// in\n    tag_35:\n      mload(0x40)\n      tag_37\n      swap2\n      swap1\n      tag_26\n      jump\t// in\n    tag_37:\n      mload(0x40)\n      dup1\n      swap2\n      sub\n      swap1\n      return\n        /* \"Campaign.sol\":2877:3008  function hasApproved(address sender, uint index) public view returns(bool) {... */\n    tag_5:\n      callvalue\n      dup1\n      iszero\n      tag_38\n      jumpi\n      0x00\n      dup1\n      revert\n    tag_38:\n      pop\n      tag_39\n      0x04\n      dup1\n      calldatasize\n      sub\n      dup2\n      add\n      swap1\n      tag_40\n      swap2\n      swap1\n      tag_41\n      jump\t// in\n    tag_40:\n      tag_42\n      jump\t// in\n    tag_39:\n      mload(0x40)\n      tag_43\n      swap2\n      swap1\n      tag_33\n      jump\t// in\n    tag_43:\n      mload(0x40)\n      dup1\n      swap2\n      sub\n      swap1\n      return\n        /* \"Campaign.sol\":3778:3872  function getRequestsCount() public view returns (uint) {... */\n    tag_6:\n      callvalue\n      dup1\n      iszero\n      tag_44\n      jumpi\n      0x00\n      dup1\n      revert\n    tag_44:\n      pop\n      tag_45\n      tag_46\n      jump\t// in\n    tag_45:\n      mload(0x40)\n      tag_47\n      swap2\n      swap1\n      tag_48\n      jump\t// in\n    tag_47:\n      mload(0x40)\n      dup1\n      swap2\n      sub\n      swap1\n      return\n        /* \"Campaign.sol\":3317:3772  function getSummary() public view returns (... */\n    tag_7:\n      callvalue\n      dup1\n      iszero\n      tag_49\n      jumpi\n      0x00\n      dup1\n      revert\n    tag_49:\n      pop\n      tag_50\n      tag_51\n      jump\t// in\n    tag_50:\n      mload(0x40)\n      tag_52\n      swap11\n      swap10\n      swap9\n      swap8\n      swap7\n      swap6\n      swap5\n      swap4\n      swap3\n      swap2\n      swap1\n      tag_53\n      jump\t// in\n    tag_52:\n      mload(0x40)\n      dup1\n      swap2\n      sub\n      swap1\n      return\n        /* \"Campaign.sol\":890:912  address public manager */\n    tag_8:\n      callvalue\n      dup1\n      iszero\n      tag_54\n      jumpi\n      0x00\n      dup1\n      revert\n    tag_54:\n      pop\n      tag_55\n      tag_56\n      jump\t// in\n    tag_55:\n      mload(0x40)\n      tag_57\n      swap2\n      swap1\n      tag_58\n      jump\t// in\n    tag_57:\n      mload(0x40)\n      dup1\n      swap2\n      sub\n      swap1\n      return\n        /* \"Campaign.sol\":1052:1081  uint public contributionCount */\n    tag_9:\n      callvalue\n      dup1\n      iszero\n      tag_59\n      jumpi\n      0x00\n      dup1\n      revert\n    tag_59:\n      pop\n      tag_60\n      tag_61\n      jump\t// in\n    tag_60:\n      mload(0x40)\n      tag_62\n      swap2\n      swap1\n      tag_48\n      jump\t// in\n    tag_62:\n      mload(0x40)\n      dup1\n      swap2\n      sub\n      swap1\n      return\n        /* \"Campaign.sol\":1166:1191  Request[] public requests */\n    tag_10:\n      callvalue\n      dup1\n      iszero\n      tag_63\n      jumpi\n      0x00\n      dup1\n      revert\n    tag_63:\n      pop\n      tag_64\n      0x04\n      dup1\n      calldatasize\n      sub\n      dup2\n      add\n      swap1\n      tag_65\n      swap2\n      swap1\n      tag_66\n      jump\t// in\n    tag_65:\n      tag_67\n      jump\t// in\n    tag_64:\n      mload(0x40)\n      tag_68\n      swap7\n      swap6\n      swap5\n      swap4\n      swap3\n      swap2\n      swap1\n      tag_69\n      jump\t// in\n    tag_68:\n      mload(0x40)\n      dup1\n      swap2\n      sub\n      swap1\n      return\n        /* \"Campaign.sol\":1134:1160  uint public approversCount */\n    tag_11:\n      callvalue\n      dup1\n      iszero\n      tag_70\n      jumpi\n      0x00\n      dup1\n      revert\n    tag_70:\n      pop\n      tag_71\n      tag_72\n      jump\t// in\n    tag_71:\n      mload(0x40)\n      tag_73\n      swap2\n      swap1\n      tag_48\n      jump\t// in\n    tag_73:\n      mload(0x40)\n      dup1\n      swap2\n      sub\n      swap1\n      return\n        /* \"Campaign.sol\":1019:1046  uint public minContribution */\n    tag_12:\n      callvalue\n      dup1\n      iszero\n      tag_74\n      jumpi\n      0x00\n      dup1\n      revert\n    tag_74:\n      pop\n      tag_75\n      tag_76\n      jump\t// in\n    tag_75:\n      mload(0x40)\n      tag_77\n      swap2\n      swap1\n      tag_48\n      jump\t// in\n    tag_77:\n      mload(0x40)\n      dup1\n      swap2\n      sub\n      swap1\n      return\n        /* \"Campaign.sol\":1197:1220  uint public totalRaised */\n    tag_13:\n      callvalue\n      dup1\n      iszero\n      tag_78\n      jumpi\n      0x00\n      dup1\n      revert\n    tag_78:\n      pop\n      tag_79\n      tag_80\n      jump\t// in\n    tag_79:\n      mload(0x40)\n      tag_81\n      swap2\n      swap1\n      tag_48\n      jump\t// in\n    tag_81:\n      mload(0x40)\n      dup1\n      swap2\n      sub\n      swap1\n      return\n        /* \"Campaign.sol\":2010:2595  function createRequest(string memory name, string memory description, uint value, address payable recipient)... */\n    tag_14:\n      callvalue\n      dup1\n      iszero\n      tag_82\n      jumpi\n      0x00\n      dup1\n      revert\n    tag_82:\n      pop\n      tag_83\n      0x04\n      dup1\n      calldatasize\n      sub\n      dup2\n      add\n      swap1\n      tag_84\n      swap2\n      swap1\n      tag_85\n      jump\t// in\n    tag_84:\n      tag_86\n      jump\t// in\n    tag_83:\n      stop\n        /* \"Campaign.sol\":1688:2004  function contribute() public payable {... */\n    tag_15:\n      tag_87\n      tag_88\n      jump\t// in\n    tag_87:\n      stop\n        /* \"Campaign.sol\":2601:2871  function approveRequest(uint index) public {... */\n    tag_16:\n      callvalue\n      dup1\n      iszero\n      tag_89\n      jumpi\n      0x00\n      dup1\n      revert\n    tag_89:\n      pop\n      tag_90\n      0x04\n      dup1\n      calldatasize\n      sub\n      dup2\n      add\n      swap1\n      tag_91\n      swap2\n      swap1\n      tag_66\n      jump\t// in\n    tag_91:\n      tag_92\n      jump\t// in\n    tag_90:\n      stop\n        /* \"Campaign.sol\":3014:3311  function finaliseRequest(uint index) public restricted {... */\n    tag_17:\n      callvalue\n      dup1\n      iszero\n      tag_93\n      jumpi\n      0x00\n      dup1\n      revert\n    tag_93:\n      pop\n      tag_94\n      0x04\n      dup1\n      calldatasize\n      sub\n      dup2\n      add\n      swap1\n      tag_95\n      swap2\n      swap1\n      tag_66\n      jump\t// in\n    tag_95:\n      tag_96\n      jump\t// in\n    tag_94:\n      stop\n        /* \"Campaign.sol\":989:1013  uint public campaignGoal */\n    tag_18:\n      callvalue\n      dup1\n      iszero\n      tag_97\n      jumpi\n      0x00\n      dup1\n      revert\n    tag_97:\n      pop\n      tag_98\n      tag_99\n      jump\t// in\n    tag_98:\n      mload(0x40)\n      tag_100\n      swap2\n      swap1\n      tag_48\n      jump\t// in\n    tag_100:\n      mload(0x40)\n      dup1\n      swap2\n      sub\n      swap1\n      return\n        /* \"Campaign.sol\":918:944  string public campaignName */\n    tag_24:\n      0x01\n      dup1\n      sload\n      tag_101\n      swap1\n      tag_102\n      jump\t// in\n    tag_101:\n      dup1\n      0x1f\n      add\n      0x20\n      dup1\n      swap2\n      div\n      mul\n      0x20\n      add\n      mload(0x40)\n      swap1\n      dup2\n      add\n      0x40\n      mstore\n      dup1\n      swap3\n      swap2\n      swap1\n      dup2\n      dup2\n      mstore\n      0x20\n      add\n      dup3\n      dup1\n      sload\n      tag_103\n      swap1\n      tag_102\n      jump\t// in\n    tag_103:\n      dup1\n      iszero\n      tag_104\n      jumpi\n      dup1\n      0x1f\n      lt\n      tag_105\n      jumpi\n      0x0100\n      dup1\n      dup4\n      sload\n      div\n      mul\n      dup4\n      mstore\n      swap2\n      0x20\n      add\n      swap2\n      jump(tag_104)\n    tag_105:\n      dup3\n      add\n      swap2\n      swap1\n      0x00\n      mstore\n      keccak256(0x00, 0x20)\n      swap1\n    tag_106:\n      dup2\n      sload\n      dup2\n      mstore\n      swap1\n      0x01\n      add\n      swap1\n      0x20\n      add\n      dup1\n      dup4\n      gt\n      tag_106\n      jumpi\n      dup3\n      swap1\n      sub\n      0x1f\n      and\n      dup3\n      add\n      swap2\n    tag_104:\n      pop\n      pop\n      pop\n      pop\n      pop\n      dup2\n      jump\t// out\n        /* \"Campaign.sol\":1087:1128  mapping(address => bool) public approvers */\n    tag_31:\n      mstore(0x20, 0x06)\n      dup1\n      0x00\n      mstore\n      keccak256(0x00, 0x40)\n      0x00\n      swap2\n      pop\n      sload\n      swap1\n      0x0100\n      exp\n      swap1\n      div\n      0xff\n      and\n      dup2\n      jump\t// out\n        /* \"Campaign.sol\":950:983  string public campaignDescription */\n    tag_36:\n      0x02\n      dup1\n      sload\n      tag_107\n      swap1\n      tag_102\n      jump\t// in\n    tag_107:\n      dup1\n      0x1f\n      add\n      0x20\n      dup1\n      swap2\n      div\n      mul\n      0x20\n      add\n      mload(0x40)\n      swap1\n      dup2\n      add\n      0x40\n      mstore\n      dup1\n      swap3\n      swap2\n      swap1\n      dup2\n      dup2\n      mstore\n      0x20\n      add\n      dup3\n      dup1\n      sload\n      tag_108\n      swap1\n      tag_102\n      jump\t// in\n    tag_108:\n      dup1\n      iszero\n      tag_109\n      jumpi\n      dup1\n      0x1f\n      lt\n      tag_110\n      jumpi\n      0x0100\n      dup1\n      dup4\n      sload\n      div\n      mul\n      dup4\n      mstore\n      swap2\n      0x20\n      add\n      swap2\n      jump(tag_109)\n    tag_110:\n      dup3\n      add\n      swap2\n      swap1\n      0x00\n      mstore\n      keccak256(0x00, 0x20)\n      swap1\n    tag_111:\n      dup2\n      sload\n      dup2\n      mstore\n      swap1\n      0x01\n      add\n      swap1\n      0x20\n      add\n      dup1\n      dup4\n      gt\n      tag_111\n      jumpi\n      dup3\n      swap1\n      sub\n      0x1f\n      and\n      dup3\n      add\n      swap2\n    tag_109:\n      pop\n      pop\n      pop\n      pop\n      pop\n      dup2\n      jump\t// out\n        /* \"Campaign.sol\":2877:3008  function hasApproved(address sender, uint index) public view returns(bool) {... */\n    tag_42:\n        /* \"Campaign.sol\":2946:2950  bool */\n      0x00\n        /* \"Campaign.sol\":2968:2976  requests */\n      0x08\n        /* \"Campaign.sol\":2977:2982  index */\n      dup3\n        /* \"Campaign.sol\":2968:2983  requests[index] */\n      dup2\n      sload\n      dup2\n      lt\n      tag_113\n      jumpi\n      tag_114\n      tag_115\n      jump\t// in\n    tag_114:\n    tag_113:\n      swap1\n      0x00\n      mstore\n      keccak256(0x00, 0x20)\n      swap1\n      0x06\n      mul\n      add\n        /* \"Campaign.sol\":2968:2993  requests[index].approvals */\n      0x05\n      add\n        /* \"Campaign.sol\":2968:3001  requests[index].approvals[sender] */\n      0x00\n        /* \"Campaign.sol\":2994:3000  sender */\n      dup5\n        /* \"Campaign.sol\":2968:3001  requests[index].approvals[sender] */\n      0xffffffffffffffffffffffffffffffffffffffff\n      and\n      0xffffffffffffffffffffffffffffffffffffffff\n      and\n      dup2\n      mstore\n      0x20\n      add\n      swap1\n      dup2\n      mstore\n      0x20\n      add\n      0x00\n      keccak256\n      0x00\n      swap1\n      sload\n      swap1\n      0x0100\n      exp\n      swap1\n      div\n      0xff\n      and\n        /* \"Campaign.sol\":2961:3001  return requests[index].approvals[sender] */\n      swap1\n      pop\n        /* \"Campaign.sol\":2877:3008  function hasApproved(address sender, uint index) public view returns(bool) {... */\n      swap3\n      swap2\n      pop\n      pop\n      jump\t// out\n        /* \"Campaign.sol\":3778:3872  function getRequestsCount() public view returns (uint) {... */\n    tag_46:\n        /* \"Campaign.sol\":3827:3831  uint */\n      0x00\n        /* \"Campaign.sol\":3850:3858  requests */\n      0x08\n        /* \"Campaign.sol\":3850:3865  requests.length */\n      dup1\n      sload\n      swap1\n      pop\n        /* \"Campaign.sol\":3843:3865  return requests.length */\n      swap1\n      pop\n        /* \"Campaign.sol\":3778:3872  function getRequestsCount() public view returns (uint) {... */\n      swap1\n      jump\t// out\n        /* \"Campaign.sol\":3317:3772  function getSummary() public view returns (... */\n    tag_51:\n        /* \"Campaign.sol\":3369:3382  string memory */\n      0x60\n        /* \"Campaign.sol\":3384:3397  string memory */\n      dup1\n        /* \"Campaign.sol\":3399:3403  uint */\n      0x00\n        /* \"Campaign.sol\":3405:3409  uint */\n      dup1\n        /* \"Campaign.sol\":3411:3415  uint */\n      0x00\n        /* \"Campaign.sol\":3417:3421  uint */\n      dup1\n        /* \"Campaign.sol\":3423:3427  uint */\n      0x00\n        /* \"Campaign.sol\":3429:3433  uint */\n      dup1\n        /* \"Campaign.sol\":3435:3439  uint */\n      0x00\n        /* \"Campaign.sol\":3441:3448  address */\n      dup1\n        /* \"Campaign.sol\":3486:3498  campaignName */\n      0x01\n        /* \"Campaign.sol\":3512:3531  campaignDescription */\n      0x02\n        /* \"Campaign.sol\":3545:3557  campaignGoal */\n      sload(0x03)\n        /* \"Campaign.sol\":3571:3588  contributionCount */\n      sload(0x05)\n        /* \"Campaign.sol\":3602:3617  minContribution */\n      sload(0x04)\n        /* \"Campaign.sol\":3631:3642  totalRaised */\n      sload(0x09)\n        /* \"Campaign.sol\":3656:3677  address(this).balance */\n      selfbalance\n        /* \"Campaign.sol\":3691:3699  requests */\n      0x08\n        /* \"Campaign.sol\":3691:3706  requests.length */\n      dup1\n      sload\n      swap1\n      pop\n        /* \"Campaign.sol\":3720:3734  approversCount */\n      sload(0x07)\n        /* \"Campaign.sol\":3748:3755  manager */\n      0x00\n      dup1\n      sload\n      swap1\n      0x0100\n      exp\n      swap1\n      div\n      0xffffffffffffffffffffffffffffffffffffffff\n      and\n        /* \"Campaign.sol\":3465:3765  return (... */\n      dup10\n      dup1\n      sload\n      tag_119\n      swap1\n      tag_102\n      jump\t// in\n    tag_119:\n      dup1\n      0x1f\n      add\n      0x20\n      dup1\n      swap2\n      div\n      mul\n      0x20\n      add\n      mload(0x40)\n      swap1\n      dup2\n      add\n      0x40\n      mstore\n      dup1\n      swap3\n      swap2\n      swap1\n      dup2\n      dup2\n      mstore\n      0x20\n      add\n      dup3\n      dup1\n      sload\n      tag_120\n      swap1\n      tag_102\n      jump\t// in\n    tag_120:\n      dup1\n      iszero\n      tag_121\n      jumpi\n      dup1\n      0x1f\n      lt\n      tag_122\n      jumpi\n      0x0100\n      dup1\n      dup4\n      sload\n      div\n      mul\n      dup4\n      mstore\n      swap2\n      0x20\n      add\n      swap2\n      jump(tag_121)\n    tag_122:\n      dup3\n      add\n      swap2\n      swap1\n      0x00\n      mstore\n      keccak256(0x00, 0x20)\n      swap1\n    tag_123:\n      dup2\n      sload\n      dup2\n      mstore\n      swap1\n      0x01\n      add\n      swap1\n      0x20\n      add\n      dup1\n      dup4\n      gt\n      tag_123\n      jumpi\n      dup3\n      swap1\n      sub\n      0x1f\n      and\n      dup3\n      add\n      swap2\n    tag_121:\n      pop\n      pop\n      pop\n      pop\n      pop\n      swap10\n      pop\n      dup9\n      dup1\n      sload\n      tag_124\n      swap1\n      tag_102\n      jump\t// in\n    tag_124:\n      dup1\n      0x1f\n      add\n      0x20\n      dup1\n      swap2\n      div\n      mul\n      0x20\n      add\n      mload(0x40)\n      swap1\n      dup2\n      add\n      0x40\n      mstore\n      dup1\n      swap3\n      swap2\n      swap1\n      dup2\n      dup2\n      mstore\n      0x20\n      add\n      dup3\n      dup1\n      sload\n      tag_125\n      swap1\n      tag_102\n      jump\t// in\n    tag_125:\n      dup1\n      iszero\n      tag_126\n      jumpi\n      dup1\n      0x1f\n      lt\n      tag_127\n      jumpi\n      0x0100\n      dup1\n      dup4\n      sload\n      div\n      mul\n      dup4\n      mstore\n      swap2\n      0x20\n      add\n      swap2\n      jump(tag_126)\n    tag_127:\n      dup3\n      add\n      swap2\n      swap1\n      0x00\n      mstore\n      keccak256(0x00, 0x20)\n      swap1\n    tag_128:\n      dup2\n      sload\n      dup2\n      mstore\n      swap1\n      0x01\n      add\n      swap1\n      0x20\n      add\n      dup1\n      dup4\n      gt\n      tag_128\n      jumpi\n      dup3\n      swap1\n      sub\n      0x1f\n      and\n      dup3\n      add\n      swap2\n    tag_126:\n      pop\n      pop\n      pop\n      pop\n      pop\n      swap9\n      pop\n      swap10\n      pop\n      swap10\n      pop\n      swap10\n      pop\n      swap10\n      pop\n      swap10\n      pop\n      swap10\n      pop\n      swap10\n      pop\n      swap10\n      pop\n      swap10\n      pop\n      swap10\n      pop\n        /* \"Campaign.sol\":3317:3772  function getSummary() public view returns (... */\n      swap1\n      swap2\n      swap3\n      swap4\n      swap5\n      swap6\n      swap7\n      swap8\n      swap9\n      swap10\n      jump\t// out\n        /* \"Campaign.sol\":890:912  address public manager */\n    tag_56:\n      0x00\n      dup1\n      sload\n      swap1\n      0x0100\n      exp\n      swap1\n      div\n      0xffffffffffffffffffffffffffffffffffffffff\n      and\n      dup2\n      jump\t// out\n        /* \"Campaign.sol\":1052:1081  uint public contributionCount */\n    tag_61:\n      sload(0x05)\n      dup2\n      jump\t// out\n        /* \"Campaign.sol\":1166:1191  Request[] public requests */\n    tag_67:\n      0x08\n      dup2\n      dup2\n      sload\n      dup2\n      lt\n      tag_129\n      jumpi\n      0x00\n      dup1\n      revert\n    tag_129:\n      swap1\n      0x00\n      mstore\n      keccak256(0x00, 0x20)\n      swap1\n      0x06\n      mul\n      add\n      0x00\n      swap2\n      pop\n      swap1\n      pop\n      dup1\n      0x00\n      add\n      dup1\n      sload\n      tag_131\n      swap1\n      tag_102\n      jump\t// in\n    tag_131:\n      dup1\n      0x1f\n      add\n      0x20\n      dup1\n      swap2\n      div\n      mul\n      0x20\n      add\n      mload(0x40)\n      swap1\n      dup2\n      add\n      0x40\n      mstore\n      dup1\n      swap3\n      swap2\n      swap1\n      dup2\n      dup2\n      mstore\n      0x20\n      add\n      dup3\n      dup1\n      sload\n      tag_132\n      swap1\n      tag_102\n      jump\t// in\n    tag_132:\n      dup1\n      iszero\n      tag_133\n      jumpi\n      dup1\n      0x1f\n      lt\n      tag_134\n      jumpi\n      0x0100\n      dup1\n      dup4\n      sload\n      div\n      mul\n      dup4\n      mstore\n      swap2\n      0x20\n      add\n      swap2\n      jump(tag_133)\n    tag_134:\n      dup3\n      add\n      swap2\n      swap1\n      0x00\n      mstore\n      keccak256(0x00, 0x20)\n      swap1\n    tag_135:\n      dup2\n      sload\n      dup2\n      mstore\n      swap1\n      0x01\n      add\n      swap1\n      0x20\n      add\n      dup1\n      dup4\n      gt\n      tag_135\n      jumpi\n      dup3\n      swap1\n      sub\n      0x1f\n      and\n      dup3\n      add\n      swap2\n    tag_133:\n      pop\n      pop\n      pop\n      pop\n      pop\n      swap1\n      dup1\n      0x01\n      add\n      dup1\n      sload\n      tag_136\n      swap1\n      tag_102\n      jump\t// in\n    tag_136:\n      dup1\n      0x1f\n      add\n      0x20\n      dup1\n      swap2\n      div\n      mul\n      0x20\n      add\n      mload(0x40)\n      swap1\n      dup2\n      add\n      0x40\n      mstore\n      dup1\n      swap3\n      swap2\n      swap1\n      dup2\n      dup2\n      mstore\n      0x20\n      add\n      dup3\n      dup1\n      sload\n      tag_137\n      swap1\n      tag_102\n      jump\t// in\n    tag_137:\n      dup1\n      iszero\n      tag_138\n      jumpi\n      dup1\n      0x1f\n      lt\n      tag_139\n      jumpi\n      0x0100\n      dup1\n      dup4\n      sload\n      div\n      mul\n      dup4\n      mstore\n      swap2\n      0x20\n      add\n      swap2\n      jump(tag_138)\n    tag_139:\n      dup3\n      add\n      swap2\n      swap1\n      0x00\n      mstore\n      keccak256(0x00, 0x20)\n      swap1\n    tag_140:\n      dup2\n      sload\n      dup2\n      mstore\n      swap1\n      0x01\n      add\n      swap1\n      0x20\n      add\n      dup1\n      dup4\n      gt\n      tag_140\n      jumpi\n      dup3\n      swap1\n      sub\n      0x1f\n      and\n      dup3\n      add\n      swap2\n    tag_138:\n      pop\n      pop\n      pop\n      pop\n      pop\n      swap1\n      dup1\n      0x02\n      add\n      sload\n      swap1\n      dup1\n      0x03\n      add\n      0x00\n      swap1\n      sload\n      swap1\n      0x0100\n      exp\n      swap1\n      div\n      0xffffffffffffffffffffffffffffffffffffffff\n      and\n      swap1\n      dup1\n      0x03\n      add\n      0x14\n      swap1\n      sload\n      swap1\n      0x0100\n      exp\n      swap1\n      div\n      0xff\n      and\n      swap1\n      dup1\n      0x04\n      add\n      sload\n      swap1\n      pop\n      dup7\n      jump\t// out\n        /* \"Campaign.sol\":1134:1160  uint public approversCount */\n    tag_72:\n      sload(0x07)\n      dup2\n      jump\t// out\n        /* \"Campaign.sol\":1019:1046  uint public minContribution */\n    tag_76:\n      sload(0x04)\n      dup2\n      jump\t// out\n        /* \"Campaign.sol\":1197:1220  uint public totalRaised */\n    tag_80:\n      sload(0x09)\n      dup2\n      jump\t// out\n        /* \"Campaign.sol\":2010:2595  function createRequest(string memory name, string memory description, uint value, address payable recipient)... */\n    tag_86:\n        /* \"Campaign.sol\":1350:1357  manager */\n      0x00\n      dup1\n      sload\n      swap1\n      0x0100\n      exp\n      swap1\n      div\n      0xffffffffffffffffffffffffffffffffffffffff\n      and\n        /* \"Campaign.sol\":1336:1357  msg.sender == manager */\n      0xffffffffffffffffffffffffffffffffffffffff\n      and\n        /* \"Campaign.sol\":1336:1346  msg.sender */\n      caller\n        /* \"Campaign.sol\":1336:1357  msg.sender == manager */\n      0xffffffffffffffffffffffffffffffffffffffff\n      and\n      eq\n        /* \"Campaign.sol\":1328:1358  require(msg.sender == manager) */\n      tag_142\n      jumpi\n      0x00\n      dup1\n      revert\n    tag_142:\n        /* \"Campaign.sol\":2263:2275  campaignGoal */\n      sload(0x03)\n        /* \"Campaign.sol\":2238:2259  address(this).balance */\n      selfbalance\n        /* \"Campaign.sol\":2238:2275  address(this).balance >= campaignGoal */\n      lt\n      iszero\n        /* \"Campaign.sol\":2230:2276  require(address(this).balance >= campaignGoal) */\n      tag_144\n      jumpi\n      0x00\n      dup1\n      revert\n    tag_144:\n        /* \"Campaign.sol\":2290:2316  Request storage newRequest */\n      0x00\n        /* \"Campaign.sol\":2319:2327  requests */\n      0x08\n        /* \"Campaign.sol\":2319:2334  requests.push() */\n      0x01\n      dup2\n      0x01\n      dup2\n      sload\n      add\n      dup1\n      dup3\n      sstore\n      dup1\n      swap2\n      pop\n      pop\n      sub\n      swap1\n      0x00\n      mstore\n      keccak256(0x00, 0x20)\n      swap1\n      0x06\n      mul\n      add\n        /* \"Campaign.sol\":2290:2334  Request storage newRequest = requests.push() */\n      swap1\n      pop\n        /* \"Campaign.sol\":2367:2371  name */\n      dup5\n        /* \"Campaign.sol\":2349:2359  newRequest */\n      dup2\n        /* \"Campaign.sol\":2349:2364  newRequest.name */\n      0x00\n      add\n        /* \"Campaign.sol\":2349:2371  newRequest.name = name */\n      swap1\n      dup2\n      tag_146\n      swap2\n      swap1\n      tag_147\n      jump\t// in\n    tag_146:\n      pop\n        /* \"Campaign.sol\":2410:2421  description */\n      dup4\n        /* \"Campaign.sol\":2385:2395  newRequest */\n      dup2\n        /* \"Campaign.sol\":2385:2407  newRequest.description */\n      0x01\n      add\n        /* \"Campaign.sol\":2385:2421  newRequest.description = description */\n      swap1\n      dup2\n      tag_148\n      swap2\n      swap1\n      tag_147\n      jump\t// in\n    tag_148:\n      pop\n        /* \"Campaign.sol\":2454:2459  value */\n      dup3\n        /* \"Campaign.sol\":2435:2445  newRequest */\n      dup2\n        /* \"Campaign.sol\":2435:2451  newRequest.value */\n      0x02\n      add\n        /* \"Campaign.sol\":2435:2459  newRequest.value = value */\n      dup2\n      swap1\n      sstore\n      pop\n        /* \"Campaign.sol\":2496:2505  recipient */\n      dup2\n        /* \"Campaign.sol\":2473:2483  newRequest */\n      dup2\n        /* \"Campaign.sol\":2473:2493  newRequest.recipient */\n      0x03\n      add\n      0x00\n        /* \"Campaign.sol\":2473:2505  newRequest.recipient = recipient */\n      0x0100\n      exp\n      dup2\n      sload\n      dup2\n      0xffffffffffffffffffffffffffffffffffffffff\n      mul\n      not\n      and\n      swap1\n      dup4\n      0xffffffffffffffffffffffffffffffffffffffff\n      and\n      mul\n      or\n      swap1\n      sstore\n      pop\n        /* \"Campaign.sol\":2541:2546  false */\n      0x00\n        /* \"Campaign.sol\":2519:2529  newRequest */\n      dup2\n        /* \"Campaign.sol\":2519:2538  newRequest.complete */\n      0x03\n      add\n      0x14\n        /* \"Campaign.sol\":2519:2546  newRequest.complete = false */\n      0x0100\n      exp\n      dup2\n      sload\n      dup2\n      0xff\n      mul\n      not\n      and\n      swap1\n      dup4\n      iszero\n      iszero\n      mul\n      or\n      swap1\n      sstore\n      pop\n        /* \"Campaign.sol\":2587:2588  0 */\n      0x00\n        /* \"Campaign.sol\":2560:2570  newRequest */\n      dup2\n        /* \"Campaign.sol\":2560:2584  newRequest.approvalCount */\n      0x04\n      add\n        /* \"Campaign.sol\":2560:2588  newRequest.approvalCount = 0 */\n      dup2\n      swap1\n      sstore\n      pop\n        /* \"Campaign.sol\":2145:2595  {... */\n      pop\n        /* \"Campaign.sol\":2010:2595  function createRequest(string memory name, string memory description, uint value, address payable recipient)... */\n      pop\n      pop\n      pop\n      pop\n      jump\t// out\n        /* \"Campaign.sol\":1688:2004  function contribute() public payable {... */\n    tag_88:\n        /* \"Campaign.sol\":1735:1750  bool isApprover */\n      0x00\n        /* \"Campaign.sol\":1753:1762  approvers */\n      0x06\n        /* \"Campaign.sol\":1753:1774  approvers[msg.sender] */\n      0x00\n        /* \"Campaign.sol\":1763:1773  msg.sender */\n      caller\n        /* \"Campaign.sol\":1753:1774  approvers[msg.sender] */\n      0xffffffffffffffffffffffffffffffffffffffff\n      and\n      0xffffffffffffffffffffffffffffffffffffffff\n      and\n      dup2\n      mstore\n      0x20\n      add\n      swap1\n      dup2\n      mstore\n      0x20\n      add\n      0x00\n      keccak256\n      0x00\n      swap1\n      sload\n      swap1\n      0x0100\n      exp\n      swap1\n      div\n      0xff\n      and\n        /* \"Campaign.sol\":1735:1774  bool isApprover = approvers[msg.sender] */\n      swap1\n      pop\n        /* \"Campaign.sol\":1790:1800  isApprover */\n      dup1\n        /* \"Campaign.sol\":1785:1935  if (!isApprover) {... */\n      tag_150\n      jumpi\n        /* \"Campaign.sol\":1836:1851  minContribution */\n      sload(0x04)\n        /* \"Campaign.sol\":1824:1833  msg.value */\n      callvalue\n        /* \"Campaign.sol\":1824:1851  msg.value > minContribution */\n      gt\n        /* \"Campaign.sol\":1816:1852  require(msg.value > minContribution) */\n      tag_151\n      jumpi\n      0x00\n      dup1\n      revert\n    tag_151:\n        /* \"Campaign.sol\":1890:1894  true */\n      0x01\n        /* \"Campaign.sol\":1866:1875  approvers */\n      0x06\n        /* \"Campaign.sol\":1866:1887  approvers[msg.sender] */\n      0x00\n        /* \"Campaign.sol\":1876:1886  msg.sender */\n      caller\n        /* \"Campaign.sol\":1866:1887  approvers[msg.sender] */\n      0xffffffffffffffffffffffffffffffffffffffff\n      and\n      0xffffffffffffffffffffffffffffffffffffffff\n      and\n      dup2\n      mstore\n      0x20\n      add\n      swap1\n      dup2\n      mstore\n      0x20\n      add\n      0x00\n      keccak256\n      0x00\n        /* \"Campaign.sol\":1866:1894  approvers[msg.sender] = true */\n      0x0100\n      exp\n      dup2\n      sload\n      dup2\n      0xff\n      mul\n      not\n      and\n      swap1\n      dup4\n      iszero\n      iszero\n      mul\n      or\n      swap1\n      sstore\n      pop\n        /* \"Campaign.sol\":1908:1922  approversCount */\n      0x07\n      0x00\n        /* \"Campaign.sol\":1908:1924  approversCount++ */\n      dup2\n      sload\n      dup1\n      swap3\n      swap2\n      swap1\n      tag_152\n      swap1\n      tag_153\n      jump\t// in\n    tag_152:\n      swap2\n      swap1\n      pop\n      sstore\n      pop\n        /* \"Campaign.sol\":1785:1935  if (!isApprover) {... */\n    tag_150:\n        /* \"Campaign.sol\":1959:1968  msg.value */\n      callvalue\n        /* \"Campaign.sol\":1944:1955  totalRaised */\n      0x09\n      0x00\n        /* \"Campaign.sol\":1944:1968  totalRaised += msg.value */\n      dup3\n      dup3\n      sload\n      tag_154\n      swap2\n      swap1\n      tag_155\n      jump\t// in\n    tag_154:\n      swap3\n      pop\n      pop\n      dup2\n      swap1\n      sstore\n      pop\n        /* \"Campaign.sol\":1978:1995  contributionCount */\n      0x05\n      0x00\n        /* \"Campaign.sol\":1978:1997  contributionCount++ */\n      dup2\n      sload\n      dup1\n      swap3\n      swap2\n      swap1\n      tag_156\n      swap1\n      tag_153\n      jump\t// in\n    tag_156:\n      swap2\n      swap1\n      pop\n      sstore\n      pop\n        /* \"Campaign.sol\":1725:2004  {... */\n      pop\n        /* \"Campaign.sol\":1688:2004  function contribute() public payable {... */\n      jump\t// out\n        /* \"Campaign.sol\":2601:2871  function approveRequest(uint index) public {... */\n    tag_92:\n        /* \"Campaign.sol\":2654:2677  Request storage request */\n      0x00\n        /* \"Campaign.sol\":2680:2688  requests */\n      0x08\n        /* \"Campaign.sol\":2689:2694  index */\n      dup3\n        /* \"Campaign.sol\":2680:2695  requests[index] */\n      dup2\n      sload\n      dup2\n      lt\n      tag_158\n      jumpi\n      tag_159\n      tag_115\n      jump\t// in\n    tag_159:\n    tag_158:\n      swap1\n      0x00\n      mstore\n      keccak256(0x00, 0x20)\n      swap1\n      0x06\n      mul\n      add\n        /* \"Campaign.sol\":2654:2695  Request storage request = requests[index] */\n      swap1\n      pop\n        /* \"Campaign.sol\":2713:2722  approvers */\n      0x06\n        /* \"Campaign.sol\":2713:2734  approvers[msg.sender] */\n      0x00\n        /* \"Campaign.sol\":2723:2733  msg.sender */\n      caller\n        /* \"Campaign.sol\":2713:2734  approvers[msg.sender] */\n      0xffffffffffffffffffffffffffffffffffffffff\n      and\n      0xffffffffffffffffffffffffffffffffffffffff\n      and\n      dup2\n      mstore\n      0x20\n      add\n      swap1\n      dup2\n      mstore\n      0x20\n      add\n      0x00\n      keccak256\n      0x00\n      swap1\n      sload\n      swap1\n      0x0100\n      exp\n      swap1\n      div\n      0xff\n      and\n        /* \"Campaign.sol\":2705:2735  require(approvers[msg.sender]) */\n      tag_161\n      jumpi\n      0x00\n      dup1\n      revert\n    tag_161:\n        /* \"Campaign.sol\":2754:2761  request */\n      dup1\n        /* \"Campaign.sol\":2754:2771  request.approvals */\n      0x05\n      add\n        /* \"Campaign.sol\":2754:2783  request.approvals[msg.sender] */\n      0x00\n        /* \"Campaign.sol\":2772:2782  msg.sender */\n      caller\n        /* \"Campaign.sol\":2754:2783  request.approvals[msg.sender] */\n      0xffffffffffffffffffffffffffffffffffffffff\n      and\n      0xffffffffffffffffffffffffffffffffffffffff\n      and\n      dup2\n      mstore\n      0x20\n      add\n      swap1\n      dup2\n      mstore\n      0x20\n      add\n      0x00\n      keccak256\n      0x00\n      swap1\n      sload\n      swap1\n      0x0100\n      exp\n      swap1\n      div\n      0xff\n      and\n        /* \"Campaign.sol\":2753:2783  !request.approvals[msg.sender] */\n      iszero\n        /* \"Campaign.sol\":2745:2784  require(!request.approvals[msg.sender]) */\n      tag_162\n      jumpi\n      0x00\n      dup1\n      revert\n    tag_162:\n        /* \"Campaign.sol\":2827:2831  true */\n      0x01\n        /* \"Campaign.sol\":2795:2802  request */\n      dup2\n        /* \"Campaign.sol\":2795:2812  request.approvals */\n      0x05\n      add\n        /* \"Campaign.sol\":2795:2824  request.approvals[msg.sender] */\n      0x00\n        /* \"Campaign.sol\":2813:2823  msg.sender */\n      caller\n        /* \"Campaign.sol\":2795:2824  request.approvals[msg.sender] */\n      0xffffffffffffffffffffffffffffffffffffffff\n      and\n      0xffffffffffffffffffffffffffffffffffffffff\n      and\n      dup2\n      mstore\n      0x20\n      add\n      swap1\n      dup2\n      mstore\n      0x20\n      add\n      0x00\n      keccak256\n      0x00\n        /* \"Campaign.sol\":2795:2831  request.approvals[msg.sender] = true */\n      0x0100\n      exp\n      dup2\n      sload\n      dup2\n      0xff\n      mul\n      not\n      and\n      swap1\n      dup4\n      iszero\n      iszero\n      mul\n      or\n      swap1\n      sstore\n      pop\n        /* \"Campaign.sol\":2841:2848  request */\n      dup1\n        /* \"Campaign.sol\":2841:2862  request.approvalCount */\n      0x04\n      add\n      0x00\n        /* \"Campaign.sol\":2841:2864  request.approvalCount++ */\n      dup2\n      sload\n      dup1\n      swap3\n      swap2\n      swap1\n      tag_163\n      swap1\n      tag_153\n      jump\t// in\n    tag_163:\n      swap2\n      swap1\n      pop\n      sstore\n      pop\n        /* \"Campaign.sol\":2644:2871  {... */\n      pop\n        /* \"Campaign.sol\":2601:2871  function approveRequest(uint index) public {... */\n      pop\n      jump\t// out\n        /* \"Campaign.sol\":3014:3311  function finaliseRequest(uint index) public restricted {... */\n    tag_96:\n        /* \"Campaign.sol\":1350:1357  manager */\n      0x00\n      dup1\n      sload\n      swap1\n      0x0100\n      exp\n      swap1\n      div\n      0xffffffffffffffffffffffffffffffffffffffff\n      and\n        /* \"Campaign.sol\":1336:1357  msg.sender == manager */\n      0xffffffffffffffffffffffffffffffffffffffff\n      and\n        /* \"Campaign.sol\":1336:1346  msg.sender */\n      caller\n        /* \"Campaign.sol\":1336:1357  msg.sender == manager */\n      0xffffffffffffffffffffffffffffffffffffffff\n      and\n      eq\n        /* \"Campaign.sol\":1328:1358  require(msg.sender == manager) */\n      tag_165\n      jumpi\n      0x00\n      dup1\n      revert\n    tag_165:\n        /* \"Campaign.sol\":3079:3102  Request storage request */\n      0x00\n        /* \"Campaign.sol\":3105:3113  requests */\n      0x08\n        /* \"Campaign.sol\":3114:3119  index */\n      dup3\n        /* \"Campaign.sol\":3105:3120  requests[index] */\n      dup2\n      sload\n      dup2\n      lt\n      tag_167\n      jumpi\n      tag_168\n      tag_115\n      jump\t// in\n    tag_168:\n    tag_167:\n      swap1\n      0x00\n      mstore\n      keccak256(0x00, 0x20)\n      swap1\n      0x06\n      mul\n      add\n        /* \"Campaign.sol\":3079:3120  Request storage request = requests[index] */\n      swap1\n      pop\n        /* \"Campaign.sol\":3139:3146  request */\n      dup1\n        /* \"Campaign.sol\":3139:3155  request.complete */\n      0x03\n      add\n      0x14\n      swap1\n      sload\n      swap1\n      0x0100\n      exp\n      swap1\n      div\n      0xff\n      and\n        /* \"Campaign.sol\":3138:3155  !request.complete */\n      iszero\n        /* \"Campaign.sol\":3130:3156  require(!request.complete) */\n      tag_170\n      jumpi\n      0x00\n      dup1\n      revert\n    tag_170:\n        /* \"Campaign.sol\":3216:3217  2 */\n      0x02\n        /* \"Campaign.sol\":3199:3213  approversCount */\n      sload(0x07)\n        /* \"Campaign.sol\":3199:3217  approversCount / 2 */\n      tag_171\n      swap2\n      swap1\n      tag_172\n      jump\t// in\n    tag_171:\n        /* \"Campaign.sol\":3174:3181  request */\n      dup2\n        /* \"Campaign.sol\":3174:3195  request.approvalCount */\n      0x04\n      add\n      sload\n        /* \"Campaign.sol\":3174:3218  request.approvalCount > (approversCount / 2) */\n      gt\n        /* \"Campaign.sol\":3166:3219  require(request.approvalCount > (approversCount / 2)) */\n      tag_173\n      jumpi\n      0x00\n      dup1\n      revert\n    tag_173:\n        /* \"Campaign.sol\":3230:3237  request */\n      dup1\n        /* \"Campaign.sol\":3230:3247  request.recipient */\n      0x03\n      add\n      0x00\n      swap1\n      sload\n      swap1\n      0x0100\n      exp\n      swap1\n      div\n      0xffffffffffffffffffffffffffffffffffffffff\n      and\n        /* \"Campaign.sol\":3230:3256  request.recipient.transfer */\n      0xffffffffffffffffffffffffffffffffffffffff\n      and\n        /* \"Campaign.sol\":3230:3271  request.recipient.transfer(request.value) */\n      0x08fc\n        /* \"Campaign.sol\":3257:3264  request */\n      dup3\n        /* \"Campaign.sol\":3257:3270  request.value */\n      0x02\n      add\n      sload\n        /* \"Campaign.sol\":3230:3271  request.recipient.transfer(request.value) */\n      swap1\n      dup2\n      iszero\n      mul\n      swap1\n      mload(0x40)\n      0x00\n      mload(0x40)\n      dup1\n      dup4\n      sub\n      dup2\n      dup6\n      dup9\n      dup9\n      call\n      swap4\n      pop\n      pop\n      pop\n      pop\n      iszero\n      dup1\n      iszero\n      tag_175\n      jumpi\n      returndatasize\n      0x00\n      dup1\n      returndatacopy\n      revert(0x00, returndatasize)\n    tag_175:\n      pop\n        /* \"Campaign.sol\":3300:3304  true */\n      0x01\n        /* \"Campaign.sol\":3281:3288  request */\n      dup2\n        /* \"Campaign.sol\":3281:3297  request.complete */\n      0x03\n      add\n      0x14\n        /* \"Campaign.sol\":3281:3304  request.complete = true */\n      0x0100\n      exp\n      dup2\n      sload\n      dup2\n      0xff\n      mul\n      not\n      and\n      swap1\n      dup4\n      iszero\n      iszero\n      mul\n      or\n      swap1\n      sstore\n      pop\n        /* \"Campaign.sol\":3069:3311  {... */\n      pop\n        /* \"Campaign.sol\":3014:3311  function finaliseRequest(uint index) public restricted {... */\n      pop\n      jump\t// out\n        /* \"Campaign.sol\":989:1013  uint public campaignGoal */\n    tag_99:\n      sload(0x03)\n      dup2\n      jump\t// out\n        /* \"#utility.yul\":7:106   */\n    tag_176:\n        /* \"#utility.yul\":59:65   */\n      0x00\n        /* \"#utility.yul\":93:98   */\n      dup2\n        /* \"#utility.yul\":87:99   */\n      mload\n        /* \"#utility.yul\":77:99   */\n      swap1\n      pop\n        /* \"#utility.yul\":7:106   */\n      swap2\n      swap1\n      pop\n      jump\t// out\n        /* \"#utility.yul\":112:281   */\n    tag_177:\n        /* \"#utility.yul\":196:207   */\n      0x00\n        /* \"#utility.yul\":230:236   */\n      dup3\n        /* \"#utility.yul\":225:228   */\n      dup3\n        /* \"#utility.yul\":218:237   */\n      mstore\n        /* \"#utility.yul\":270:274   */\n      0x20\n        /* \"#utility.yul\":265:268   */\n      dup3\n        /* \"#utility.yul\":261:275   */\n      add\n        /* \"#utility.yul\":246:275   */\n      swap1\n      pop\n        /* \"#utility.yul\":112:281   */\n      swap3\n      swap2\n      pop\n      pop\n      jump\t// out\n        /* \"#utility.yul\":287:533   */\n    tag_178:\n        /* \"#utility.yul\":368:369   */\n      0x00\n        /* \"#utility.yul\":378:491   */\n    tag_230:\n        /* \"#utility.yul\":392:398   */\n      dup4\n        /* \"#utility.yul\":389:390   */\n      dup2\n        /* \"#utility.yul\":386:399   */\n      lt\n        /* \"#utility.yul\":378:491   */\n      iszero\n      tag_232\n      jumpi\n        /* \"#utility.yul\":477:478   */\n      dup1\n        /* \"#utility.yul\":472:475   */\n      dup3\n        /* \"#utility.yul\":468:479   */\n      add\n        /* \"#utility.yul\":462:480   */\n      mload\n        /* \"#utility.yul\":458:459   */\n      dup2\n        /* \"#utility.yul\":453:456   */\n      dup5\n        /* \"#utility.yul\":449:460   */\n      add\n        /* \"#utility.yul\":442:481   */\n      mstore\n        /* \"#utility.yul\":414:416   */\n      0x20\n        /* \"#utility.yul\":411:412   */\n      dup2\n        /* \"#utility.yul\":407:417   */\n      add\n        /* \"#utility.yul\":402:417   */\n      swap1\n      pop\n        /* \"#utility.yul\":378:491   */\n      jump(tag_230)\n    tag_232:\n        /* \"#utility.yul\":525:526   */\n      0x00\n        /* \"#utility.yul\":516:522   */\n      dup5\n        /* \"#utility.yul\":511:514   */\n      dup5\n        /* \"#utility.yul\":507:523   */\n      add\n        /* \"#utility.yul\":500:527   */\n      mstore\n        /* \"#utility.yul\":349:533   */\n      pop\n        /* \"#utility.yul\":287:533   */\n      pop\n      pop\n      pop\n      jump\t// out\n        /* \"#utility.yul\":539:641   */\n    tag_179:\n        /* \"#utility.yul\":580:586   */\n      0x00\n        /* \"#utility.yul\":631:633   */\n      0x1f\n        /* \"#utility.yul\":627:634   */\n      not\n        /* \"#utility.yul\":622:624   */\n      0x1f\n        /* \"#utility.yul\":615:620   */\n      dup4\n        /* \"#utility.yul\":611:625   */\n      add\n        /* \"#utility.yul\":607:635   */\n      and\n        /* \"#utility.yul\":597:635   */\n      swap1\n      pop\n        /* \"#utility.yul\":539:641   */\n      swap2\n      swap1\n      pop\n      jump\t// out\n        /* \"#utility.yul\":647:1024   */\n    tag_180:\n        /* \"#utility.yul\":735:738   */\n      0x00\n        /* \"#utility.yul\":763:802   */\n      tag_235\n        /* \"#utility.yul\":796:801   */\n      dup3\n        /* \"#utility.yul\":763:802   */\n      tag_176\n      jump\t// in\n    tag_235:\n        /* \"#utility.yul\":818:889   */\n      tag_236\n        /* \"#utility.yul\":882:888   */\n      dup2\n        /* \"#utility.yul\":877:880   */\n      dup6\n        /* \"#utility.yul\":818:889   */\n      tag_177\n      jump\t// in\n    tag_236:\n        /* \"#utility.yul\":811:889   */\n      swap4\n      pop\n        /* \"#utility.yul\":898:963   */\n      tag_237\n        /* \"#utility.yul\":956:962   */\n      dup2\n        /* \"#utility.yul\":951:954   */\n      dup6\n        /* \"#utility.yul\":944:948   */\n      0x20\n        /* \"#utility.yul\":937:942   */\n      dup7\n        /* \"#utility.yul\":933:949   */\n      add\n        /* \"#utility.yul\":898:963   */\n      tag_178\n      jump\t// in\n    tag_237:\n        /* \"#utility.yul\":988:1017   */\n      tag_238\n        /* \"#utility.yul\":1010:1016   */\n      dup2\n        /* \"#utility.yul\":988:1017   */\n      tag_179\n      jump\t// in\n    tag_238:\n        /* \"#utility.yul\":983:986   */\n      dup5\n        /* \"#utility.yul\":979:1018   */\n      add\n        /* \"#utility.yul\":972:1018   */\n      swap2\n      pop\n        /* \"#utility.yul\":739:1024   */\n      pop\n        /* \"#utility.yul\":647:1024   */\n      swap3\n      swap2\n      pop\n      pop\n      jump\t// out\n        /* \"#utility.yul\":1030:1343   */\n    tag_26:\n        /* \"#utility.yul\":1143:1147   */\n      0x00\n        /* \"#utility.yul\":1181:1183   */\n      0x20\n        /* \"#utility.yul\":1170:1179   */\n      dup3\n        /* \"#utility.yul\":1166:1184   */\n      add\n        /* \"#utility.yul\":1158:1184   */\n      swap1\n      pop\n        /* \"#utility.yul\":1230:1239   */\n      dup2\n        /* \"#utility.yul\":1224:1228   */\n      dup2\n        /* \"#utility.yul\":1220:1240   */\n      sub\n        /* \"#utility.yul\":1216:1217   */\n      0x00\n        /* \"#utility.yul\":1205:1214   */\n      dup4\n        /* \"#utility.yul\":1201:1218   */\n      add\n        /* \"#utility.yul\":1194:1241   */\n      mstore\n        /* \"#utility.yul\":1258:1336   */\n      tag_240\n        /* \"#utility.yul\":1331:1335   */\n      dup2\n        /* \"#utility.yul\":1322:1328   */\n      dup5\n        /* \"#utility.yul\":1258:1336   */\n      tag_180\n      jump\t// in\n    tag_240:\n        /* \"#utility.yul\":1250:1336   */\n      swap1\n      pop\n        /* \"#utility.yul\":1030:1343   */\n      swap3\n      swap2\n      pop\n      pop\n      jump\t// out\n        /* \"#utility.yul\":1349:1424   */\n    tag_181:\n        /* \"#utility.yul\":1382:1388   */\n      0x00\n        /* \"#utility.yul\":1415:1417   */\n      0x40\n        /* \"#utility.yul\":1409:1418   */\n      mload\n        /* \"#utility.yul\":1399:1418   */\n      swap1\n      pop\n        /* \"#utility.yul\":1349:1424   */\n      swap1\n      jump\t// out\n        /* \"#utility.yul\":1430:1547   */\n    tag_182:\n        /* \"#utility.yul\":1539:1540   */\n      0x00\n        /* \"#utility.yul\":1536:1537   */\n      dup1\n        /* \"#utility.yul\":1529:1541   */\n      revert\n        /* \"#utility.yul\":1553:1670   */\n    tag_183:\n        /* \"#utility.yul\":1662:1663   */\n      0x00\n        /* \"#utility.yul\":1659:1660   */\n      dup1\n        /* \"#utility.yul\":1652:1664   */\n      revert\n        /* \"#utility.yul\":1676:1802   */\n    tag_184:\n        /* \"#utility.yul\":1713:1720   */\n      0x00\n        /* \"#utility.yul\":1753:1795   */\n      0xffffffffffffffffffffffffffffffffffffffff\n        /* \"#utility.yul\":1746:1751   */\n      dup3\n        /* \"#utility.yul\":1742:1796   */\n      and\n        /* \"#utility.yul\":1731:1796   */\n      swap1\n      pop\n        /* \"#utility.yul\":1676:1802   */\n      swap2\n      swap1\n      pop\n      jump\t// out\n        /* \"#utility.yul\":1808:1904   */\n    tag_185:\n        /* \"#utility.yul\":1845:1852   */\n      0x00\n        /* \"#utility.yul\":1874:1898   */\n      tag_246\n        /* \"#utility.yul\":1892:1897   */\n      dup3\n        /* \"#utility.yul\":1874:1898   */\n      tag_184\n      jump\t// in\n    tag_246:\n        /* \"#utility.yul\":1863:1898   */\n      swap1\n      pop\n        /* \"#utility.yul\":1808:1904   */\n      swap2\n      swap1\n      pop\n      jump\t// out\n        /* \"#utility.yul\":1910:2032   */\n    tag_186:\n        /* \"#utility.yul\":1983:2007   */\n      tag_248\n        /* \"#utility.yul\":2001:2006   */\n      dup2\n        /* \"#utility.yul\":1983:2007   */\n      tag_185\n      jump\t// in\n    tag_248:\n        /* \"#utility.yul\":1976:1981   */\n      dup2\n        /* \"#utility.yul\":1973:2008   */\n      eq\n        /* \"#utility.yul\":1963:2026   */\n      tag_249\n      jumpi\n        /* \"#utility.yul\":2022:2023   */\n      0x00\n        /* \"#utility.yul\":2019:2020   */\n      dup1\n        /* \"#utility.yul\":2012:2024   */\n      revert\n        /* \"#utility.yul\":1963:2026   */\n    tag_249:\n        /* \"#utility.yul\":1910:2032   */\n      pop\n      jump\t// out\n        /* \"#utility.yul\":2038:2177   */\n    tag_187:\n        /* \"#utility.yul\":2084:2089   */\n      0x00\n        /* \"#utility.yul\":2122:2128   */\n      dup2\n        /* \"#utility.yul\":2109:2129   */\n      calldataload\n        /* \"#utility.yul\":2100:2129   */\n      swap1\n      pop\n        /* \"#utility.yul\":2138:2171   */\n      tag_251\n        /* \"#utility.yul\":2165:2170   */\n      dup2\n        /* \"#utility.yul\":2138:2171   */\n      tag_186\n      jump\t// in\n    tag_251:\n        /* \"#utility.yul\":2038:2177   */\n      swap3\n      swap2\n      pop\n      pop\n      jump\t// out\n        /* \"#utility.yul\":2183:2512   */\n    tag_30:\n        /* \"#utility.yul\":2242:2248   */\n      0x00\n        /* \"#utility.yul\":2291:2293   */\n      0x20\n        /* \"#utility.yul\":2279:2288   */\n      dup3\n        /* \"#utility.yul\":2270:2277   */\n      dup5\n        /* \"#utility.yul\":2266:2289   */\n      sub\n        /* \"#utility.yul\":2262:2294   */\n      slt\n        /* \"#utility.yul\":2259:2378   */\n      iszero\n      tag_253\n      jumpi\n        /* \"#utility.yul\":2297:2376   */\n      tag_254\n      tag_182\n      jump\t// in\n    tag_254:\n        /* \"#utility.yul\":2259:2378   */\n    tag_253:\n        /* \"#utility.yul\":2417:2418   */\n      0x00\n        /* \"#utility.yul\":2442:2495   */\n      tag_255\n        /* \"#utility.yul\":2487:2494   */\n      dup5\n        /* \"#utility.yul\":2478:2484   */\n      dup3\n        /* \"#utility.yul\":2467:2476   */\n      dup6\n        /* \"#utility.yul\":2463:2485   */\n      add\n        /* \"#utility.yul\":2442:2495   */\n      tag_187\n      jump\t// in\n    tag_255:\n        /* \"#utility.yul\":2432:2495   */\n      swap2\n      pop\n        /* \"#utility.yul\":2388:2505   */\n      pop\n        /* \"#utility.yul\":2183:2512   */\n      swap3\n      swap2\n      pop\n      pop\n      jump\t// out\n        /* \"#utility.yul\":2518:2608   */\n    tag_188:\n        /* \"#utility.yul\":2552:2559   */\n      0x00\n        /* \"#utility.yul\":2595:2600   */\n      dup2\n        /* \"#utility.yul\":2588:2601   */\n      iszero\n        /* \"#utility.yul\":2581:2602   */\n      iszero\n        /* \"#utility.yul\":2570:2602   */\n      swap1\n      pop\n        /* \"#utility.yul\":2518:2608   */\n      swap2\n      swap1\n      pop\n      jump\t// out\n        /* \"#utility.yul\":2614:2723   */\n    tag_189:\n        /* \"#utility.yul\":2695:2716   */\n      tag_258\n        /* \"#utility.yul\":2710:2715   */\n      dup2\n        /* \"#utility.yul\":2695:2716   */\n      tag_188\n      jump\t// in\n    tag_258:\n        /* \"#utility.yul\":2690:2693   */\n      dup3\n        /* \"#utility.yul\":2683:2717   */\n      mstore\n        /* \"#utility.yul\":2614:2723   */\n      pop\n      pop\n      jump\t// out\n        /* \"#utility.yul\":2729:2939   */\n    tag_33:\n        /* \"#utility.yul\":2816:2820   */\n      0x00\n        /* \"#utility.yul\":2854:2856   */\n      0x20\n        /* \"#utility.yul\":2843:2852   */\n      dup3\n        /* \"#utility.yul\":2839:2857   */\n      add\n        /* \"#utility.yul\":2831:2857   */\n      swap1\n      pop\n        /* \"#utility.yul\":2867:2932   */\n      tag_260\n        /* \"#utility.yul\":2929:2930   */\n      0x00\n        /* \"#utility.yul\":2918:2927   */\n      dup4\n        /* \"#utility.yul\":2914:2931   */\n      add\n        /* \"#utility.yul\":2905:2911   */\n      dup5\n        /* \"#utility.yul\":2867:2932   */\n      tag_189\n      jump\t// in\n    tag_260:\n        /* \"#utility.yul\":2729:2939   */\n      swap3\n      swap2\n      pop\n      pop\n      jump\t// out\n        /* \"#utility.yul\":2945:3022   */\n    tag_190:\n        /* \"#utility.yul\":2982:2989   */\n      0x00\n        /* \"#utility.yul\":3011:3016   */\n      dup2\n        /* \"#utility.yul\":3000:3016   */\n      swap1\n      pop\n        /* \"#utility.yul\":2945:3022   */\n      swap2\n      swap1\n      pop\n      jump\t// out\n        /* \"#utility.yul\":3028:3150   */\n    tag_191:\n        /* \"#utility.yul\":3101:3125   */\n      tag_263\n        /* \"#utility.yul\":3119:3124   */\n      dup2\n        /* \"#utility.yul\":3101:3125   */\n      tag_190\n      jump\t// in\n    tag_263:\n        /* \"#utility.yul\":3094:3099   */\n      dup2\n        /* \"#utility.yul\":3091:3126   */\n      eq\n        /* \"#utility.yul\":3081:3144   */\n      tag_264\n      jumpi\n        /* \"#utility.yul\":3140:3141   */\n      0x00\n        /* \"#utility.yul\":3137:3138   */\n      dup1\n        /* \"#utility.yul\":3130:3142   */\n      revert\n        /* \"#utility.yul\":3081:3144   */\n    tag_264:\n        /* \"#utility.yul\":3028:3150   */\n      pop\n      jump\t// out\n        /* \"#utility.yul\":3156:3295   */\n    tag_192:\n        /* \"#utility.yul\":3202:3207   */\n      0x00\n        /* \"#utility.yul\":3240:3246   */\n      dup2\n        /* \"#utility.yul\":3227:3247   */\n      calldataload\n        /* \"#utility.yul\":3218:3247   */\n      swap1\n      pop\n        /* \"#utility.yul\":3256:3289   */\n      tag_266\n        /* \"#utility.yul\":3283:3288   */\n      dup2\n        /* \"#utility.yul\":3256:3289   */\n      tag_191\n      jump\t// in\n    tag_266:\n        /* \"#utility.yul\":3156:3295   */\n      swap3\n      swap2\n      pop\n      pop\n      jump\t// out\n        /* \"#utility.yul\":3301:3775   */\n    tag_41:\n        /* \"#utility.yul\":3369:3375   */\n      0x00\n        /* \"#utility.yul\":3377:3383   */\n      dup1\n        /* \"#utility.yul\":3426:3428   */\n      0x40\n        /* \"#utility.yul\":3414:3423   */\n      dup4\n        /* \"#utility.yul\":3405:3412   */\n      dup6\n        /* \"#utility.yul\":3401:3424   */\n      sub\n        /* \"#utility.yul\":3397:3429   */\n      slt\n        /* \"#utility.yul\":3394:3513   */\n      iszero\n      tag_268\n      jumpi\n        /* \"#utility.yul\":3432:3511   */\n      tag_269\n      tag_182\n      jump\t// in\n    tag_269:\n        /* \"#utility.yul\":3394:3513   */\n    tag_268:\n        /* \"#utility.yul\":3552:3553   */\n      0x00\n        /* \"#utility.yul\":3577:3630   */\n      tag_270\n        /* \"#utility.yul\":3622:3629   */\n      dup6\n        /* \"#utility.yul\":3613:3619   */\n      dup3\n        /* \"#utility.yul\":3602:3611   */\n      dup7\n        /* \"#utility.yul\":3598:3620   */\n      add\n        /* \"#utility.yul\":3577:3630   */\n      tag_187\n      jump\t// in\n    tag_270:\n        /* \"#utility.yul\":3567:3630   */\n      swap3\n      pop\n        /* \"#utility.yul\":3523:3640   */\n      pop\n        /* \"#utility.yul\":3679:3681   */\n      0x20\n        /* \"#utility.yul\":3705:3758   */\n      tag_271\n        /* \"#utility.yul\":3750:3757   */\n      dup6\n        /* \"#utility.yul\":3741:3747   */\n      dup3\n        /* \"#utility.yul\":3730:3739   */\n      dup7\n        /* \"#utility.yul\":3726:3748   */\n      add\n        /* \"#utility.yul\":3705:3758   */\n      tag_192\n      jump\t// in\n    tag_271:\n        /* \"#utility.yul\":3695:3758   */\n      swap2\n      pop\n        /* \"#utility.yul\":3650:3768   */\n      pop\n        /* \"#utility.yul\":3301:3775   */\n      swap3\n      pop\n      swap3\n      swap1\n      pop\n      jump\t// out\n        /* \"#utility.yul\":3781:3899   */\n    tag_193:\n        /* \"#utility.yul\":3868:3892   */\n      tag_273\n        /* \"#utility.yul\":3886:3891   */\n      dup2\n        /* \"#utility.yul\":3868:3892   */\n      tag_190\n      jump\t// in\n    tag_273:\n        /* \"#utility.yul\":3863:3866   */\n      dup3\n        /* \"#utility.yul\":3856:3893   */\n      mstore\n        /* \"#utility.yul\":3781:3899   */\n      pop\n      pop\n      jump\t// out\n        /* \"#utility.yul\":3905:4127   */\n    tag_48:\n        /* \"#utility.yul\":3998:4002   */\n      0x00\n        /* \"#utility.yul\":4036:4038   */\n      0x20\n        /* \"#utility.yul\":4025:4034   */\n      dup3\n        /* \"#utility.yul\":4021:4039   */\n      add\n        /* \"#utility.yul\":4013:4039   */\n      swap1\n      pop\n        /* \"#utility.yul\":4049:4120   */\n      tag_275\n        /* \"#utility.yul\":4117:4118   */\n      0x00\n        /* \"#utility.yul\":4106:4115   */\n      dup4\n        /* \"#utility.yul\":4102:4119   */\n      add\n        /* \"#utility.yul\":4093:4099   */\n      dup5\n        /* \"#utility.yul\":4049:4120   */\n      tag_193\n      jump\t// in\n    tag_275:\n        /* \"#utility.yul\":3905:4127   */\n      swap3\n      swap2\n      pop\n      pop\n      jump\t// out\n        /* \"#utility.yul\":4133:4251   */\n    tag_194:\n        /* \"#utility.yul\":4220:4244   */\n      tag_277\n        /* \"#utility.yul\":4238:4243   */\n      dup2\n        /* \"#utility.yul\":4220:4244   */\n      tag_185\n      jump\t// in\n    tag_277:\n        /* \"#utility.yul\":4215:4218   */\n      dup3\n        /* \"#utility.yul\":4208:4245   */\n      mstore\n        /* \"#utility.yul\":4133:4251   */\n      pop\n      pop\n      jump\t// out\n        /* \"#utility.yul\":4257:5658   */\n    tag_53:\n        /* \"#utility.yul\":4642:4646   */\n      0x00\n        /* \"#utility.yul\":4680:4683   */\n      0x0140\n        /* \"#utility.yul\":4669:4678   */\n      dup3\n        /* \"#utility.yul\":4665:4684   */\n      add\n        /* \"#utility.yul\":4657:4684   */\n      swap1\n      pop\n        /* \"#utility.yul\":4730:4739   */\n      dup2\n        /* \"#utility.yul\":4724:4728   */\n      dup2\n        /* \"#utility.yul\":4720:4740   */\n      sub\n        /* \"#utility.yul\":4716:4717   */\n      0x00\n        /* \"#utility.yul\":4705:4714   */\n      dup4\n        /* \"#utility.yul\":4701:4718   */\n      add\n        /* \"#utility.yul\":4694:4741   */\n      mstore\n        /* \"#utility.yul\":4758:4836   */\n      tag_279\n        /* \"#utility.yul\":4831:4835   */\n      dup2\n        /* \"#utility.yul\":4822:4828   */\n      dup14\n        /* \"#utility.yul\":4758:4836   */\n      tag_180\n      jump\t// in\n    tag_279:\n        /* \"#utility.yul\":4750:4836   */\n      swap1\n      pop\n        /* \"#utility.yul\":4883:4892   */\n      dup2\n        /* \"#utility.yul\":4877:4881   */\n      dup2\n        /* \"#utility.yul\":4873:4893   */\n      sub\n        /* \"#utility.yul\":4868:4870   */\n      0x20\n        /* \"#utility.yul\":4857:4866   */\n      dup4\n        /* \"#utility.yul\":4853:4871   */\n      add\n        /* \"#utility.yul\":4846:4894   */\n      mstore\n        /* \"#utility.yul\":4911:4989   */\n      tag_280\n        /* \"#utility.yul\":4984:4988   */\n      dup2\n        /* \"#utility.yul\":4975:4981   */\n      dup13\n        /* \"#utility.yul\":4911:4989   */\n      tag_180\n      jump\t// in\n    tag_280:\n        /* \"#utility.yul\":4903:4989   */\n      swap1\n      pop\n        /* \"#utility.yul\":4999:5071   */\n      tag_281\n        /* \"#utility.yul\":5067:5069   */\n      0x40\n        /* \"#utility.yul\":5056:5065   */\n      dup4\n        /* \"#utility.yul\":5052:5070   */\n      add\n        /* \"#utility.yul\":5043:5049   */\n      dup12\n        /* \"#utility.yul\":4999:5071   */\n      tag_193\n      jump\t// in\n    tag_281:\n        /* \"#utility.yul\":5081:5153   */\n      tag_282\n        /* \"#utility.yul\":5149:5151   */\n      0x60\n        /* \"#utility.yul\":5138:5147   */\n      dup4\n        /* \"#utility.yul\":5134:5152   */\n      add\n        /* \"#utility.yul\":5125:5131   */\n      dup11\n        /* \"#utility.yul\":5081:5153   */\n      tag_193\n      jump\t// in\n    tag_282:\n        /* \"#utility.yul\":5163:5236   */\n      tag_283\n        /* \"#utility.yul\":5231:5234   */\n      0x80\n        /* \"#utility.yul\":5220:5229   */\n      dup4\n        /* \"#utility.yul\":5216:5235   */\n      add\n        /* \"#utility.yul\":5207:5213   */\n      dup10\n        /* \"#utility.yul\":5163:5236   */\n      tag_193\n      jump\t// in\n    tag_283:\n        /* \"#utility.yul\":5246:5319   */\n      tag_284\n        /* \"#utility.yul\":5314:5317   */\n      0xa0\n        /* \"#utility.yul\":5303:5312   */\n      dup4\n        /* \"#utility.yul\":5299:5318   */\n      add\n        /* \"#utility.yul\":5290:5296   */\n      dup9\n        /* \"#utility.yul\":5246:5319   */\n      tag_193\n      jump\t// in\n    tag_284:\n        /* \"#utility.yul\":5329:5402   */\n      tag_285\n        /* \"#utility.yul\":5397:5400   */\n      0xc0\n        /* \"#utility.yul\":5386:5395   */\n      dup4\n        /* \"#utility.yul\":5382:5401   */\n      add\n        /* \"#utility.yul\":5373:5379   */\n      dup8\n        /* \"#utility.yul\":5329:5402   */\n      tag_193\n      jump\t// in\n    tag_285:\n        /* \"#utility.yul\":5412:5485   */\n      tag_286\n        /* \"#utility.yul\":5480:5483   */\n      0xe0\n        /* \"#utility.yul\":5469:5478   */\n      dup4\n        /* \"#utility.yul\":5465:5484   */\n      add\n        /* \"#utility.yul\":5456:5462   */\n      dup7\n        /* \"#utility.yul\":5412:5485   */\n      tag_193\n      jump\t// in\n    tag_286:\n        /* \"#utility.yul\":5495:5568   */\n      tag_287\n        /* \"#utility.yul\":5563:5566   */\n      0x0100\n        /* \"#utility.yul\":5552:5561   */\n      dup4\n        /* \"#utility.yul\":5548:5567   */\n      add\n        /* \"#utility.yul\":5539:5545   */\n      dup6\n        /* \"#utility.yul\":5495:5568   */\n      tag_193\n      jump\t// in\n    tag_287:\n        /* \"#utility.yul\":5578:5651   */\n      tag_288\n        /* \"#utility.yul\":5646:5649   */\n      0x0120\n        /* \"#utility.yul\":5635:5644   */\n      dup4\n        /* \"#utility.yul\":5631:5650   */\n      add\n        /* \"#utility.yul\":5622:5628   */\n      dup5\n        /* \"#utility.yul\":5578:5651   */\n      tag_194\n      jump\t// in\n    tag_288:\n        /* \"#utility.yul\":4257:5658   */\n      swap12\n      swap11\n      pop\n      pop\n      pop\n      pop\n      pop\n      pop\n      pop\n      pop\n      pop\n      pop\n      pop\n      jump\t// out\n        /* \"#utility.yul\":5664:5886   */\n    tag_58:\n        /* \"#utility.yul\":5757:5761   */\n      0x00\n        /* \"#utility.yul\":5795:5797   */\n      0x20\n        /* \"#utility.yul\":5784:5793   */\n      dup3\n        /* \"#utility.yul\":5780:5798   */\n      add\n        /* \"#utility.yul\":5772:5798   */\n      swap1\n      pop\n        /* \"#utility.yul\":5808:5879   */\n      tag_290\n        /* \"#utility.yul\":5876:5877   */\n      0x00\n        /* \"#utility.yul\":5865:5874   */\n      dup4\n        /* \"#utility.yul\":5861:5878   */\n      add\n        /* \"#utility.yul\":5852:5858   */\n      dup5\n        /* \"#utility.yul\":5808:5879   */\n      tag_194\n      jump\t// in\n    tag_290:\n        /* \"#utility.yul\":5664:5886   */\n      swap3\n      swap2\n      pop\n      pop\n      jump\t// out\n        /* \"#utility.yul\":5892:6221   */\n    tag_66:\n        /* \"#utility.yul\":5951:5957   */\n      0x00\n        /* \"#utility.yul\":6000:6002   */\n      0x20\n        /* \"#utility.yul\":5988:5997   */\n      dup3\n        /* \"#utility.yul\":5979:5986   */\n      dup5\n        /* \"#utility.yul\":5975:5998   */\n      sub\n        /* \"#utility.yul\":5971:6003   */\n      slt\n        /* \"#utility.yul\":5968:6087   */\n      iszero\n      tag_292\n      jumpi\n        /* \"#utility.yul\":6006:6085   */\n      tag_293\n      tag_182\n      jump\t// in\n    tag_293:\n        /* \"#utility.yul\":5968:6087   */\n    tag_292:\n        /* \"#utility.yul\":6126:6127   */\n      0x00\n        /* \"#utility.yul\":6151:6204   */\n      tag_294\n        /* \"#utility.yul\":6196:6203   */\n      dup5\n        /* \"#utility.yul\":6187:6193   */\n      dup3\n        /* \"#utility.yul\":6176:6185   */\n      dup6\n        /* \"#utility.yul\":6172:6194   */\n      add\n        /* \"#utility.yul\":6151:6204   */\n      tag_192\n      jump\t// in\n    tag_294:\n        /* \"#utility.yul\":6141:6204   */\n      swap2\n      pop\n        /* \"#utility.yul\":6097:6214   */\n      pop\n        /* \"#utility.yul\":5892:6221   */\n      swap3\n      swap2\n      pop\n      pop\n      jump\t// out\n        /* \"#utility.yul\":6227:6331   */\n    tag_195:\n        /* \"#utility.yul\":6272:6279   */\n      0x00\n        /* \"#utility.yul\":6301:6325   */\n      tag_296\n        /* \"#utility.yul\":6319:6324   */\n      dup3\n        /* \"#utility.yul\":6301:6325   */\n      tag_184\n      jump\t// in\n    tag_296:\n        /* \"#utility.yul\":6290:6325   */\n      swap1\n      pop\n        /* \"#utility.yul\":6227:6331   */\n      swap2\n      swap1\n      pop\n      jump\t// out\n        /* \"#utility.yul\":6337:6479   */\n    tag_196:\n        /* \"#utility.yul\":6440:6472   */\n      tag_298\n        /* \"#utility.yul\":6466:6471   */\n      dup2\n        /* \"#utility.yul\":6440:6472   */\n      tag_195\n      jump\t// in\n    tag_298:\n        /* \"#utility.yul\":6435:6438   */\n      dup3\n        /* \"#utility.yul\":6428:6473   */\n      mstore\n        /* \"#utility.yul\":6337:6479   */\n      pop\n      pop\n      jump\t// out\n        /* \"#utility.yul\":6485:7462   */\n    tag_69:\n        /* \"#utility.yul\":6768:6772   */\n      0x00\n        /* \"#utility.yul\":6806:6809   */\n      0xc0\n        /* \"#utility.yul\":6795:6804   */\n      dup3\n        /* \"#utility.yul\":6791:6810   */\n      add\n        /* \"#utility.yul\":6783:6810   */\n      swap1\n      pop\n        /* \"#utility.yul\":6856:6865   */\n      dup2\n        /* \"#utility.yul\":6850:6854   */\n      dup2\n        /* \"#utility.yul\":6846:6866   */\n      sub\n        /* \"#utility.yul\":6842:6843   */\n      0x00\n        /* \"#utility.yul\":6831:6840   */\n      dup4\n        /* \"#utility.yul\":6827:6844   */\n      add\n        /* \"#utility.yul\":6820:6867   */\n      mstore\n        /* \"#utility.yul\":6884:6962   */\n      tag_300\n        /* \"#utility.yul\":6957:6961   */\n      dup2\n        /* \"#utility.yul\":6948:6954   */\n      dup10\n        /* \"#utility.yul\":6884:6962   */\n      tag_180\n      jump\t// in\n    tag_300:\n        /* \"#utility.yul\":6876:6962   */\n      swap1\n      pop\n        /* \"#utility.yul\":7009:7018   */\n      dup2\n        /* \"#utility.yul\":7003:7007   */\n      dup2\n        /* \"#utility.yul\":6999:7019   */\n      sub\n        /* \"#utility.yul\":6994:6996   */\n      0x20\n        /* \"#utility.yul\":6983:6992   */\n      dup4\n        /* \"#utility.yul\":6979:6997   */\n      add\n        /* \"#utility.yul\":6972:7020   */\n      mstore\n        /* \"#utility.yul\":7037:7115   */\n      tag_301\n        /* \"#utility.yul\":7110:7114   */\n      dup2\n        /* \"#utility.yul\":7101:7107   */\n      dup9\n        /* \"#utility.yul\":7037:7115   */\n      tag_180\n      jump\t// in\n    tag_301:\n        /* \"#utility.yul\":7029:7115   */\n      swap1\n      pop\n        /* \"#utility.yul\":7125:7197   */\n      tag_302\n        /* \"#utility.yul\":7193:7195   */\n      0x40\n        /* \"#utility.yul\":7182:7191   */\n      dup4\n        /* \"#utility.yul\":7178:7196   */\n      add\n        /* \"#utility.yul\":7169:7175   */\n      dup8\n        /* \"#utility.yul\":7125:7197   */\n      tag_193\n      jump\t// in\n    tag_302:\n        /* \"#utility.yul\":7207:7295   */\n      tag_303\n        /* \"#utility.yul\":7291:7293   */\n      0x60\n        /* \"#utility.yul\":7280:7289   */\n      dup4\n        /* \"#utility.yul\":7276:7294   */\n      add\n        /* \"#utility.yul\":7267:7273   */\n      dup7\n        /* \"#utility.yul\":7207:7295   */\n      tag_196\n      jump\t// in\n    tag_303:\n        /* \"#utility.yul\":7305:7372   */\n      tag_304\n        /* \"#utility.yul\":7367:7370   */\n      0x80\n        /* \"#utility.yul\":7356:7365   */\n      dup4\n        /* \"#utility.yul\":7352:7371   */\n      add\n        /* \"#utility.yul\":7343:7349   */\n      dup6\n        /* \"#utility.yul\":7305:7372   */\n      tag_189\n      jump\t// in\n    tag_304:\n        /* \"#utility.yul\":7382:7455   */\n      tag_305\n        /* \"#utility.yul\":7450:7453   */\n      0xa0\n        /* \"#utility.yul\":7439:7448   */\n      dup4\n        /* \"#utility.yul\":7435:7454   */\n      add\n        /* \"#utility.yul\":7426:7432   */\n      dup5\n        /* \"#utility.yul\":7382:7455   */\n      tag_193\n      jump\t// in\n    tag_305:\n        /* \"#utility.yul\":6485:7462   */\n      swap8\n      swap7\n      pop\n      pop\n      pop\n      pop\n      pop\n      pop\n      pop\n      jump\t// out\n        /* \"#utility.yul\":7468:7585   */\n    tag_197:\n        /* \"#utility.yul\":7577:7578   */\n      0x00\n        /* \"#utility.yul\":7574:7575   */\n      dup1\n        /* \"#utility.yul\":7567:7579   */\n      revert\n        /* \"#utility.yul\":7591:7708   */\n    tag_198:\n        /* \"#utility.yul\":7700:7701   */\n      0x00\n        /* \"#utility.yul\":7697:7698   */\n      dup1\n        /* \"#utility.yul\":7690:7702   */\n      revert\n        /* \"#utility.yul\":7714:7894   */\n    tag_199:\n        /* \"#utility.yul\":7762:7839   */\n      0x4e487b7100000000000000000000000000000000000000000000000000000000\n        /* \"#utility.yul\":7759:7760   */\n      0x00\n        /* \"#utility.yul\":7752:7840   */\n      mstore\n        /* \"#utility.yul\":7859:7863   */\n      0x41\n        /* \"#utility.yul\":7856:7857   */\n      0x04\n        /* \"#utility.yul\":7849:7864   */\n      mstore\n        /* \"#utility.yul\":7883:7887   */\n      0x24\n        /* \"#utility.yul\":7880:7881   */\n      0x00\n        /* \"#utility.yul\":7873:7888   */\n      revert\n        /* \"#utility.yul\":7900:8181   */\n    tag_200:\n        /* \"#utility.yul\":7983:8010   */\n      tag_310\n        /* \"#utility.yul\":8005:8009   */\n      dup3\n        /* \"#utility.yul\":7983:8010   */\n      tag_179\n      jump\t// in\n    tag_310:\n        /* \"#utility.yul\":7975:7981   */\n      dup2\n        /* \"#utility.yul\":7971:8011   */\n      add\n        /* \"#utility.yul\":8113:8119   */\n      dup2\n        /* \"#utility.yul\":8101:8111   */\n      dup2\n        /* \"#utility.yul\":8098:8120   */\n      lt\n        /* \"#utility.yul\":8077:8095   */\n      0xffffffffffffffff\n        /* \"#utility.yul\":8065:8075   */\n      dup3\n        /* \"#utility.yul\":8062:8096   */\n      gt\n        /* \"#utility.yul\":8059:8121   */\n      or\n        /* \"#utility.yul\":8056:8144   */\n      iszero\n      tag_311\n      jumpi\n        /* \"#utility.yul\":8124:8142   */\n      tag_312\n      tag_199\n      jump\t// in\n    tag_312:\n        /* \"#utility.yul\":8056:8144   */\n    tag_311:\n        /* \"#utility.yul\":8164:8174   */\n      dup1\n        /* \"#utility.yul\":8160:8162   */\n      0x40\n        /* \"#utility.yul\":8153:8175   */\n      mstore\n        /* \"#utility.yul\":7943:8181   */\n      pop\n        /* \"#utility.yul\":7900:8181   */\n      pop\n      pop\n      jump\t// out\n        /* \"#utility.yul\":8187:8316   */\n    tag_201:\n        /* \"#utility.yul\":8221:8227   */\n      0x00\n        /* \"#utility.yul\":8248:8268   */\n      tag_314\n      tag_181\n      jump\t// in\n    tag_314:\n        /* \"#utility.yul\":8238:8268   */\n      swap1\n      pop\n        /* \"#utility.yul\":8277:8310   */\n      tag_315\n        /* \"#utility.yul\":8305:8309   */\n      dup3\n        /* \"#utility.yul\":8297:8303   */\n      dup3\n        /* \"#utility.yul\":8277:8310   */\n      tag_200\n      jump\t// in\n    tag_315:\n        /* \"#utility.yul\":8187:8316   */\n      swap2\n      swap1\n      pop\n      jump\t// out\n        /* \"#utility.yul\":8322:8630   */\n    tag_202:\n        /* \"#utility.yul\":8384:8388   */\n      0x00\n        /* \"#utility.yul\":8474:8492   */\n      0xffffffffffffffff\n        /* \"#utility.yul\":8466:8472   */\n      dup3\n        /* \"#utility.yul\":8463:8493   */\n      gt\n        /* \"#utility.yul\":8460:8516   */\n      iszero\n      tag_317\n      jumpi\n        /* \"#utility.yul\":8496:8514   */\n      tag_318\n      tag_199\n      jump\t// in\n    tag_318:\n        /* \"#utility.yul\":8460:8516   */\n    tag_317:\n        /* \"#utility.yul\":8534:8563   */\n      tag_319\n        /* \"#utility.yul\":8556:8562   */\n      dup3\n        /* \"#utility.yul\":8534:8563   */\n      tag_179\n      jump\t// in\n    tag_319:\n        /* \"#utility.yul\":8526:8563   */\n      swap1\n      pop\n        /* \"#utility.yul\":8618:8622   */\n      0x20\n        /* \"#utility.yul\":8612:8616   */\n      dup2\n        /* \"#utility.yul\":8608:8623   */\n      add\n        /* \"#utility.yul\":8600:8623   */\n      swap1\n      pop\n        /* \"#utility.yul\":8322:8630   */\n      swap2\n      swap1\n      pop\n      jump\t// out\n        /* \"#utility.yul\":8636:8782   */\n    tag_203:\n        /* \"#utility.yul\":8733:8739   */\n      dup3\n        /* \"#utility.yul\":8728:8731   */\n      dup2\n        /* \"#utility.yul\":8723:8726   */\n      dup4\n        /* \"#utility.yul\":8710:8740   */\n      calldatacopy\n        /* \"#utility.yul\":8774:8775   */\n      0x00\n        /* \"#utility.yul\":8765:8771   */\n      dup4\n        /* \"#utility.yul\":8760:8763   */\n      dup4\n        /* \"#utility.yul\":8756:8772   */\n      add\n        /* \"#utility.yul\":8749:8776   */\n      mstore\n        /* \"#utility.yul\":8636:8782   */\n      pop\n      pop\n      pop\n      jump\t// out\n        /* \"#utility.yul\":8788:9213   */\n    tag_204:\n        /* \"#utility.yul\":8866:8871   */\n      0x00\n        /* \"#utility.yul\":8891:8957   */\n      tag_322\n        /* \"#utility.yul\":8907:8956   */\n      tag_323\n        /* \"#utility.yul\":8949:8955   */\n      dup5\n        /* \"#utility.yul\":8907:8956   */\n      tag_202\n      jump\t// in\n    tag_323:\n        /* \"#utility.yul\":8891:8957   */\n      tag_201\n      jump\t// in\n    tag_322:\n        /* \"#utility.yul\":8882:8957   */\n      swap1\n      pop\n        /* \"#utility.yul\":8980:8986   */\n      dup3\n        /* \"#utility.yul\":8973:8978   */\n      dup2\n        /* \"#utility.yul\":8966:8987   */\n      mstore\n        /* \"#utility.yul\":9018:9022   */\n      0x20\n        /* \"#utility.yul\":9011:9016   */\n      dup2\n        /* \"#utility.yul\":9007:9023   */\n      add\n        /* \"#utility.yul\":9056:9059   */\n      dup5\n        /* \"#utility.yul\":9047:9053   */\n      dup5\n        /* \"#utility.yul\":9042:9045   */\n      dup5\n        /* \"#utility.yul\":9038:9054   */\n      add\n        /* \"#utility.yul\":9035:9060   */\n      gt\n        /* \"#utility.yul\":9032:9144   */\n      iszero\n      tag_324\n      jumpi\n        /* \"#utility.yul\":9063:9142   */\n      tag_325\n      tag_198\n      jump\t// in\n    tag_325:\n        /* \"#utility.yul\":9032:9144   */\n    tag_324:\n        /* \"#utility.yul\":9153:9207   */\n      tag_326\n        /* \"#utility.yul\":9200:9206   */\n      dup5\n        /* \"#utility.yul\":9195:9198   */\n      dup3\n        /* \"#utility.yul\":9190:9193   */\n      dup6\n        /* \"#utility.yul\":9153:9207   */\n      tag_203\n      jump\t// in\n    tag_326:\n        /* \"#utility.yul\":8872:9213   */\n      pop\n        /* \"#utility.yul\":8788:9213   */\n      swap4\n      swap3\n      pop\n      pop\n      pop\n      jump\t// out\n        /* \"#utility.yul\":9233:9573   */\n    tag_205:\n        /* \"#utility.yul\":9289:9294   */\n      0x00\n        /* \"#utility.yul\":9338:9341   */\n      dup3\n        /* \"#utility.yul\":9331:9335   */\n      0x1f\n        /* \"#utility.yul\":9323:9329   */\n      dup4\n        /* \"#utility.yul\":9319:9336   */\n      add\n        /* \"#utility.yul\":9315:9342   */\n      slt\n        /* \"#utility.yul\":9305:9427   */\n      tag_328\n      jumpi\n        /* \"#utility.yul\":9346:9425   */\n      tag_329\n      tag_197\n      jump\t// in\n    tag_329:\n        /* \"#utility.yul\":9305:9427   */\n    tag_328:\n        /* \"#utility.yul\":9463:9469   */\n      dup2\n        /* \"#utility.yul\":9450:9470   */\n      calldataload\n        /* \"#utility.yul\":9488:9567   */\n      tag_330\n        /* \"#utility.yul\":9563:9566   */\n      dup5\n        /* \"#utility.yul\":9555:9561   */\n      dup3\n        /* \"#utility.yul\":9548:9552   */\n      0x20\n        /* \"#utility.yul\":9540:9546   */\n      dup7\n        /* \"#utility.yul\":9536:9553   */\n      add\n        /* \"#utility.yul\":9488:9567   */\n      tag_204\n      jump\t// in\n    tag_330:\n        /* \"#utility.yul\":9479:9567   */\n      swap2\n      pop\n        /* \"#utility.yul\":9295:9573   */\n      pop\n        /* \"#utility.yul\":9233:9573   */\n      swap3\n      swap2\n      pop\n      pop\n      jump\t// out\n        /* \"#utility.yul\":9579:9717   */\n    tag_206:\n        /* \"#utility.yul\":9660:9692   */\n      tag_332\n        /* \"#utility.yul\":9686:9691   */\n      dup2\n        /* \"#utility.yul\":9660:9692   */\n      tag_195\n      jump\t// in\n    tag_332:\n        /* \"#utility.yul\":9653:9658   */\n      dup2\n        /* \"#utility.yul\":9650:9693   */\n      eq\n        /* \"#utility.yul\":9640:9711   */\n      tag_333\n      jumpi\n        /* \"#utility.yul\":9707:9708   */\n      0x00\n        /* \"#utility.yul\":9704:9705   */\n      dup1\n        /* \"#utility.yul\":9697:9709   */\n      revert\n        /* \"#utility.yul\":9640:9711   */\n    tag_333:\n        /* \"#utility.yul\":9579:9717   */\n      pop\n      jump\t// out\n        /* \"#utility.yul\":9723:9878   */\n    tag_207:\n        /* \"#utility.yul\":9777:9782   */\n      0x00\n        /* \"#utility.yul\":9815:9821   */\n      dup2\n        /* \"#utility.yul\":9802:9822   */\n      calldataload\n        /* \"#utility.yul\":9793:9822   */\n      swap1\n      pop\n        /* \"#utility.yul\":9831:9872   */\n      tag_335\n        /* \"#utility.yul\":9866:9871   */\n      dup2\n        /* \"#utility.yul\":9831:9872   */\n      tag_206\n      jump\t// in\n    tag_335:\n        /* \"#utility.yul\":9723:9878   */\n      swap3\n      swap2\n      pop\n      pop\n      jump\t// out\n        /* \"#utility.yul\":9884:11025   */\n    tag_85:\n        /* \"#utility.yul\":9998:10004   */\n      0x00\n        /* \"#utility.yul\":10006:10012   */\n      dup1\n        /* \"#utility.yul\":10014:10020   */\n      0x00\n        /* \"#utility.yul\":10022:10028   */\n      dup1\n        /* \"#utility.yul\":10071:10074   */\n      0x80\n        /* \"#utility.yul\":10059:10068   */\n      dup6\n        /* \"#utility.yul\":10050:10057   */\n      dup8\n        /* \"#utility.yul\":10046:10069   */\n      sub\n        /* \"#utility.yul\":10042:10075   */\n      slt\n        /* \"#utility.yul\":10039:10159   */\n      iszero\n      tag_337\n      jumpi\n        /* \"#utility.yul\":10078:10157   */\n      tag_338\n      tag_182\n      jump\t// in\n    tag_338:\n        /* \"#utility.yul\":10039:10159   */\n    tag_337:\n        /* \"#utility.yul\":10226:10227   */\n      0x00\n        /* \"#utility.yul\":10215:10224   */\n      dup6\n        /* \"#utility.yul\":10211:10228   */\n      add\n        /* \"#utility.yul\":10198:10229   */\n      calldataload\n        /* \"#utility.yul\":10256:10274   */\n      0xffffffffffffffff\n        /* \"#utility.yul\":10248:10254   */\n      dup2\n        /* \"#utility.yul\":10245:10275   */\n      gt\n        /* \"#utility.yul\":10242:10359   */\n      iszero\n      tag_339\n      jumpi\n        /* \"#utility.yul\":10278:10357   */\n      tag_340\n      tag_183\n      jump\t// in\n    tag_340:\n        /* \"#utility.yul\":10242:10359   */\n    tag_339:\n        /* \"#utility.yul\":10383:10446   */\n      tag_341\n        /* \"#utility.yul\":10438:10445   */\n      dup8\n        /* \"#utility.yul\":10429:10435   */\n      dup3\n        /* \"#utility.yul\":10418:10427   */\n      dup9\n        /* \"#utility.yul\":10414:10436   */\n      add\n        /* \"#utility.yul\":10383:10446   */\n      tag_205\n      jump\t// in\n    tag_341:\n        /* \"#utility.yul\":10373:10446   */\n      swap5\n      pop\n        /* \"#utility.yul\":10169:10456   */\n      pop\n        /* \"#utility.yul\":10523:10525   */\n      0x20\n        /* \"#utility.yul\":10512:10521   */\n      dup6\n        /* \"#utility.yul\":10508:10526   */\n      add\n        /* \"#utility.yul\":10495:10527   */\n      calldataload\n        /* \"#utility.yul\":10554:10572   */\n      0xffffffffffffffff\n        /* \"#utility.yul\":10546:10552   */\n      dup2\n        /* \"#utility.yul\":10543:10573   */\n      gt\n        /* \"#utility.yul\":10540:10657   */\n      iszero\n      tag_342\n      jumpi\n        /* \"#utility.yul\":10576:10655   */\n      tag_343\n      tag_183\n      jump\t// in\n    tag_343:\n        /* \"#utility.yul\":10540:10657   */\n    tag_342:\n        /* \"#utility.yul\":10681:10744   */\n      tag_344\n        /* \"#utility.yul\":10736:10743   */\n      dup8\n        /* \"#utility.yul\":10727:10733   */\n      dup3\n        /* \"#utility.yul\":10716:10725   */\n      dup9\n        /* \"#utility.yul\":10712:10734   */\n      add\n        /* \"#utility.yul\":10681:10744   */\n      tag_205\n      jump\t// in\n    tag_344:\n        /* \"#utility.yul\":10671:10744   */\n      swap4\n      pop\n        /* \"#utility.yul\":10466:10754   */\n      pop\n        /* \"#utility.yul\":10793:10795   */\n      0x40\n        /* \"#utility.yul\":10819:10872   */\n      tag_345\n        /* \"#utility.yul\":10864:10871   */\n      dup8\n        /* \"#utility.yul\":10855:10861   */\n      dup3\n        /* \"#utility.yul\":10844:10853   */\n      dup9\n        /* \"#utility.yul\":10840:10862   */\n      add\n        /* \"#utility.yul\":10819:10872   */\n      tag_192\n      jump\t// in\n    tag_345:\n        /* \"#utility.yul\":10809:10872   */\n      swap3\n      pop\n        /* \"#utility.yul\":10764:10882   */\n      pop\n        /* \"#utility.yul\":10921:10923   */\n      0x60\n        /* \"#utility.yul\":10947:11008   */\n      tag_346\n        /* \"#utility.yul\":11000:11007   */\n      dup8\n        /* \"#utility.yul\":10991:10997   */\n      dup3\n        /* \"#utility.yul\":10980:10989   */\n      dup9\n        /* \"#utility.yul\":10976:10998   */\n      add\n        /* \"#utility.yul\":10947:11008   */\n      tag_207\n      jump\t// in\n    tag_346:\n        /* \"#utility.yul\":10937:11008   */\n      swap2\n      pop\n        /* \"#utility.yul\":10892:11018   */\n      pop\n        /* \"#utility.yul\":9884:11025   */\n      swap3\n      swap6\n      swap2\n      swap5\n      pop\n      swap3\n      pop\n      jump\t// out\n        /* \"#utility.yul\":11031:11211   */\n    tag_208:\n        /* \"#utility.yul\":11079:11156   */\n      0x4e487b7100000000000000000000000000000000000000000000000000000000\n        /* \"#utility.yul\":11076:11077   */\n      0x00\n        /* \"#utility.yul\":11069:11157   */\n      mstore\n        /* \"#utility.yul\":11176:11180   */\n      0x22\n        /* \"#utility.yul\":11173:11174   */\n      0x04\n        /* \"#utility.yul\":11166:11181   */\n      mstore\n        /* \"#utility.yul\":11200:11204   */\n      0x24\n        /* \"#utility.yul\":11197:11198   */\n      0x00\n        /* \"#utility.yul\":11190:11205   */\n      revert\n        /* \"#utility.yul\":11217:11537   */\n    tag_102:\n        /* \"#utility.yul\":11261:11267   */\n      0x00\n        /* \"#utility.yul\":11298:11299   */\n      0x02\n        /* \"#utility.yul\":11292:11296   */\n      dup3\n        /* \"#utility.yul\":11288:11300   */\n      div\n        /* \"#utility.yul\":11278:11300   */\n      swap1\n      pop\n        /* \"#utility.yul\":11345:11346   */\n      0x01\n        /* \"#utility.yul\":11339:11343   */\n      dup3\n        /* \"#utility.yul\":11335:11347   */\n      and\n        /* \"#utility.yul\":11366:11384   */\n      dup1\n        /* \"#utility.yul\":11356:11437   */\n      tag_349\n      jumpi\n        /* \"#utility.yul\":11422:11426   */\n      0x7f\n        /* \"#utility.yul\":11414:11420   */\n      dup3\n        /* \"#utility.yul\":11410:11427   */\n      and\n        /* \"#utility.yul\":11400:11427   */\n      swap2\n      pop\n        /* \"#utility.yul\":11356:11437   */\n    tag_349:\n        /* \"#utility.yul\":11484:11486   */\n      0x20\n        /* \"#utility.yul\":11476:11482   */\n      dup3\n        /* \"#utility.yul\":11473:11487   */\n      lt\n        /* \"#utility.yul\":11453:11471   */\n      dup2\n        /* \"#utility.yul\":11450:11488   */\n      sub\n        /* \"#utility.yul\":11447:11531   */\n      tag_350\n      jumpi\n        /* \"#utility.yul\":11503:11521   */\n      tag_351\n      tag_208\n      jump\t// in\n    tag_351:\n        /* \"#utility.yul\":11447:11531   */\n    tag_350:\n        /* \"#utility.yul\":11268:11537   */\n      pop\n        /* \"#utility.yul\":11217:11537   */\n      swap2\n      swap1\n      pop\n      jump\t// out\n        /* \"#utility.yul\":11543:11723   */\n    tag_115:\n        /* \"#utility.yul\":11591:11668   */\n      0x4e487b7100000000000000000000000000000000000000000000000000000000\n        /* \"#utility.yul\":11588:11589   */\n      0x00\n        /* \"#utility.yul\":11581:11669   */\n      mstore\n        /* \"#utility.yul\":11688:11692   */\n      0x32\n        /* \"#utility.yul\":11685:11686   */\n      0x04\n        /* \"#utility.yul\":11678:11693   */\n      mstore\n        /* \"#utility.yul\":11712:11716   */\n      0x24\n        /* \"#utility.yul\":11709:11710   */\n      0x00\n        /* \"#utility.yul\":11702:11717   */\n      revert\n        /* \"#utility.yul\":11729:11870   */\n    tag_209:\n        /* \"#utility.yul\":11778:11782   */\n      0x00\n        /* \"#utility.yul\":11801:11804   */\n      dup2\n        /* \"#utility.yul\":11793:11804   */\n      swap1\n      pop\n        /* \"#utility.yul\":11824:11827   */\n      dup2\n        /* \"#utility.yul\":11821:11822   */\n      0x00\n        /* \"#utility.yul\":11814:11828   */\n      mstore\n        /* \"#utility.yul\":11858:11862   */\n      0x20\n        /* \"#utility.yul\":11855:11856   */\n      0x00\n        /* \"#utility.yul\":11845:11863   */\n      keccak256\n        /* \"#utility.yul\":11837:11863   */\n      swap1\n      pop\n        /* \"#utility.yul\":11729:11870   */\n      swap2\n      swap1\n      pop\n      jump\t// out\n        /* \"#utility.yul\":11876:11969   */\n    tag_210:\n        /* \"#utility.yul\":11913:11919   */\n      0x00\n        /* \"#utility.yul\":11960:11962   */\n      0x20\n        /* \"#utility.yul\":11955:11957   */\n      0x1f\n        /* \"#utility.yul\":11948:11953   */\n      dup4\n        /* \"#utility.yul\":11944:11958   */\n      add\n        /* \"#utility.yul\":11940:11963   */\n      div\n        /* \"#utility.yul\":11930:11963   */\n      swap1\n      pop\n        /* \"#utility.yul\":11876:11969   */\n      swap2\n      swap1\n      pop\n      jump\t// out\n        /* \"#utility.yul\":11975:12082   */\n    tag_211:\n        /* \"#utility.yul\":12019:12027   */\n      0x00\n        /* \"#utility.yul\":12069:12074   */\n      dup3\n        /* \"#utility.yul\":12063:12067   */\n      dup3\n        /* \"#utility.yul\":12059:12075   */\n      shl\n        /* \"#utility.yul\":12038:12075   */\n      swap1\n      pop\n        /* \"#utility.yul\":11975:12082   */\n      swap3\n      swap2\n      pop\n      pop\n      jump\t// out\n        /* \"#utility.yul\":12088:12481   */\n    tag_212:\n        /* \"#utility.yul\":12157:12163   */\n      0x00\n        /* \"#utility.yul\":12207:12208   */\n      0x08\n        /* \"#utility.yul\":12195:12205   */\n      dup4\n        /* \"#utility.yul\":12191:12209   */\n      mul\n        /* \"#utility.yul\":12230:12327   */\n      tag_357\n        /* \"#utility.yul\":12260:12326   */\n      0xffffffffffffffffffffffffffffffffffffffffffffffffffffffffffffffff\n        /* \"#utility.yul\":12249:12258   */\n      dup3\n        /* \"#utility.yul\":12230:12327   */\n      tag_211\n      jump\t// in\n    tag_357:\n        /* \"#utility.yul\":12348:12387   */\n      tag_358\n        /* \"#utility.yul\":12378:12386   */\n      dup7\n        /* \"#utility.yul\":12367:12376   */\n      dup4\n        /* \"#utility.yul\":12348:12387   */\n      tag_211\n      jump\t// in\n    tag_358:\n        /* \"#utility.yul\":12336:12387   */\n      swap6\n      pop\n        /* \"#utility.yul\":12420:12424   */\n      dup1\n        /* \"#utility.yul\":12416:12425   */\n      not\n        /* \"#utility.yul\":12409:12414   */\n      dup5\n        /* \"#utility.yul\":12405:12426   */\n      and\n        /* \"#utility.yul\":12396:12426   */\n      swap4\n      pop\n        /* \"#utility.yul\":12469:12473   */\n      dup1\n        /* \"#utility.yul\":12459:12467   */\n      dup7\n        /* \"#utility.yul\":12455:12474   */\n      and\n        /* \"#utility.yul\":12448:12453   */\n      dup5\n        /* \"#utility.yul\":12445:12475   */\n      or\n        /* \"#utility.yul\":12435:12475   */\n      swap3\n      pop\n        /* \"#utility.yul\":12164:12481   */\n      pop\n      pop\n        /* \"#utility.yul\":12088:12481   */\n      swap4\n      swap3\n      pop\n      pop\n      pop\n      jump\t// out\n        /* \"#utility.yul\":12487:12547   */\n    tag_213:\n        /* \"#utility.yul\":12515:12518   */\n      0x00\n        /* \"#utility.yul\":12536:12541   */\n      dup2\n        /* \"#utility.yul\":12529:12541   */\n      swap1\n      pop\n        /* \"#utility.yul\":12487:12547   */\n      swap2\n      swap1\n      pop\n      jump\t// out\n        /* \"#utility.yul\":12553:12695   */\n    tag_214:\n        /* \"#utility.yul\":12603:12612   */\n      0x00\n        /* \"#utility.yul\":12636:12689   */\n      tag_361\n        /* \"#utility.yul\":12654:12688   */\n      tag_362\n        /* \"#utility.yul\":12663:12687   */\n      tag_363\n        /* \"#utility.yul\":12681:12686   */\n      dup5\n        /* \"#utility.yul\":12663:12687   */\n      tag_190\n      jump\t// in\n    tag_363:\n        /* \"#utility.yul\":12654:12688   */\n      tag_213\n      jump\t// in\n    tag_362:\n        /* \"#utility.yul\":12636:12689   */\n      tag_190\n      jump\t// in\n    tag_361:\n        /* \"#utility.yul\":12623:12689   */\n      swap1\n      pop\n        /* \"#utility.yul\":12553:12695   */\n      swap2\n      swap1\n      pop\n      jump\t// out\n        /* \"#utility.yul\":12701:12776   */\n    tag_215:\n        /* \"#utility.yul\":12744:12747   */\n      0x00\n        /* \"#utility.yul\":12765:12770   */\n      dup2\n        /* \"#utility.yul\":12758:12770   */\n      swap1\n      pop\n        /* \"#utility.yul\":12701:12776   */\n      swap2\n      swap1\n      pop\n      jump\t// out\n        /* \"#utility.yul\":12782:13051   */\n    tag_216:\n        /* \"#utility.yul\":12892:12931   */\n      tag_366\n        /* \"#utility.yul\":12923:12930   */\n      dup4\n        /* \"#utility.yul\":12892:12931   */\n      tag_214\n      jump\t// in\n    tag_366:\n        /* \"#utility.yul\":12953:13044   */\n      tag_367\n        /* \"#utility.yul\":13002:13043   */\n      tag_368\n        /* \"#utility.yul\":13026:13042   */\n      dup3\n        /* \"#utility.yul\":13002:13043   */\n      tag_215\n      jump\t// in\n    tag_368:\n        /* \"#utility.yul\":12994:13000   */\n      dup5\n        /* \"#utility.yul\":12987:12991   */\n      dup5\n        /* \"#utility.yul\":12981:12992   */\n      sload\n        /* \"#utility.yul\":12953:13044   */\n      tag_212\n      jump\t// in\n    tag_367:\n        /* \"#utility.yul\":12947:12951   */\n      dup3\n        /* \"#utility.yul\":12940:13045   */\n      sstore\n        /* \"#utility.yul\":12858:13051   */\n      pop\n        /* \"#utility.yul\":12782:13051   */\n      pop\n      pop\n      pop\n      jump\t// out\n        /* \"#utility.yul\":13057:13130   */\n    tag_217:\n        /* \"#utility.yul\":13102:13105   */\n      0x00\n        /* \"#utility.yul\":13057:13130   */\n      swap1\n      jump\t// out\n        /* \"#utility.yul\":13136:13325   */\n    tag_218:\n        /* \"#utility.yul\":13213:13245   */\n      tag_371\n      tag_217\n      jump\t// in\n    tag_371:\n        /* \"#utility.yul\":13254:13319   */\n      tag_372\n        /* \"#utility.yul\":13312:13318   */\n      dup2\n        /* \"#utility.yul\":13304:13310   */\n      dup5\n        /* \"#utility.yul\":13298:13302   */\n      dup5\n        /* \"#utility.yul\":13254:13319   */\n      tag_216\n      jump\t// in\n    tag_372:\n        /* \"#utility.yul\":13189:13325   */\n      pop\n        /* \"#utility.yul\":13136:13325   */\n      pop\n      pop\n      jump\t// out\n        /* \"#utility.yul\":13331:13517   */\n    tag_219:\n        /* \"#utility.yul\":13391:13511   */\n    tag_374:\n        /* \"#utility.yul\":13408:13411   */\n      dup2\n        /* \"#utility.yul\":13401:13406   */\n      dup2\n        /* \"#utility.yul\":13398:13412   */\n      lt\n        /* \"#utility.yul\":13391:13511   */\n      iszero\n      tag_376\n      jumpi\n        /* \"#utility.yul\":13462:13501   */\n      tag_377\n        /* \"#utility.yul\":13499:13500   */\n      0x00\n        /* \"#utility.yul\":13492:13497   */\n      dup3\n        /* \"#utility.yul\":13462:13501   */\n      tag_218\n      jump\t// in\n    tag_377:\n        /* \"#utility.yul\":13435:13436   */\n      0x01\n        /* \"#utility.yul\":13428:13433   */\n      dup2\n        /* \"#utility.yul\":13424:13437   */\n      add\n        /* \"#utility.yul\":13415:13437   */\n      swap1\n      pop\n        /* \"#utility.yul\":13391:13511   */\n      jump(tag_374)\n    tag_376:\n        /* \"#utility.yul\":13331:13517   */\n      pop\n      pop\n      jump\t// out\n        /* \"#utility.yul\":13523:14066   */\n    tag_220:\n        /* \"#utility.yul\":13624:13626   */\n      0x1f\n        /* \"#utility.yul\":13619:13622   */\n      dup3\n        /* \"#utility.yul\":13616:13627   */\n      gt\n        /* \"#utility.yul\":13613:14059   */\n      iszero\n      tag_379\n      jumpi\n        /* \"#utility.yul\":13658:13696   */\n      tag_380\n        /* \"#utility.yul\":13690:13695   */\n      dup2\n        /* \"#utility.yul\":13658:13696   */\n      tag_209\n      jump\t// in\n    tag_380:\n        /* \"#utility.yul\":13742:13771   */\n      tag_381\n        /* \"#utility.yul\":13760:13770   */\n      dup5\n        /* \"#utility.yul\":13742:13771   */\n      tag_210\n      jump\t// in\n    tag_381:\n        /* \"#utility.yul\":13732:13740   */\n      dup2\n        /* \"#utility.yul\":13728:13772   */\n      add\n        /* \"#utility.yul\":13925:13927   */\n      0x20\n        /* \"#utility.yul\":13913:13923   */\n      dup6\n        /* \"#utility.yul\":13910:13928   */\n      lt\n        /* \"#utility.yul\":13907:13956   */\n      iszero\n      tag_382\n      jumpi\n        /* \"#utility.yul\":13946:13954   */\n      dup2\n        /* \"#utility.yul\":13931:13954   */\n      swap1\n      pop\n        /* \"#utility.yul\":13907:13956   */\n    tag_382:\n        /* \"#utility.yul\":13969:14049   */\n      tag_383\n        /* \"#utility.yul\":14025:14047   */\n      tag_384\n        /* \"#utility.yul\":14043:14046   */\n      dup6\n        /* \"#utility.yul\":14025:14047   */\n      tag_210\n      jump\t// in\n    tag_384:\n        /* \"#utility.yul\":14015:14023   */\n      dup4\n        /* \"#utility.yul\":14011:14048   */\n      add\n        /* \"#utility.yul\":13998:14009   */\n      dup3\n        /* \"#utility.yul\":13969:14049   */\n      tag_219\n      jump\t// in\n    tag_383:\n        /* \"#utility.yul\":13628:14059   */\n      pop\n      pop\n        /* \"#utility.yul\":13613:14059   */\n    tag_379:\n        /* \"#utility.yul\":13523:14066   */\n      pop\n      pop\n      pop\n      jump\t// out\n        /* \"#utility.yul\":14072:14189   */\n    tag_221:\n        /* \"#utility.yul\":14126:14134   */\n      0x00\n        /* \"#utility.yul\":14176:14181   */\n      dup3\n        /* \"#utility.yul\":14170:14174   */\n      dup3\n        /* \"#utility.yul\":14166:14182   */\n      shr\n        /* \"#utility.yul\":14145:14182   */\n      swap1\n      pop\n        /* \"#utility.yul\":14072:14189   */\n      swap3\n      swap2\n      pop\n      pop\n      jump\t// out\n        /* \"#utility.yul\":14195:14364   */\n    tag_222:\n        /* \"#utility.yul\":14239:14245   */\n      0x00\n        /* \"#utility.yul\":14272:14323   */\n      tag_387\n        /* \"#utility.yul\":14320:14321   */\n      0x00\n        /* \"#utility.yul\":14316:14322   */\n      not\n        /* \"#utility.yul\":14308:14313   */\n      dup5\n        /* \"#utility.yul\":14305:14306   */\n      0x08\n        /* \"#utility.yul\":14301:14314   */\n      mul\n        /* \"#utility.yul\":14272:14323   */\n      tag_221\n      jump\t// in\n    tag_387:\n        /* \"#utility.yul\":14268:14324   */\n      not\n        /* \"#utility.yul\":14353:14357   */\n      dup1\n        /* \"#utility.yul\":14347:14351   */\n      dup4\n        /* \"#utility.yul\":14343:14358   */\n      and\n        /* \"#utility.yul\":14333:14358   */\n      swap2\n      pop\n        /* \"#utility.yul\":14246:14364   */\n      pop\n        /* \"#utility.yul\":14195:14364   */\n      swap3\n      swap2\n      pop\n      pop\n      jump\t// out\n        /* \"#utility.yul\":14369:14664   */\n    tag_223:\n        /* \"#utility.yul\":14445:14449   */\n      0x00\n        /* \"#utility.yul\":14591:14620   */\n      tag_389\n        /* \"#utility.yul\":14616:14619   */\n      dup4\n        /* \"#utility.yul\":14610:14614   */\n      dup4\n        /* \"#utility.yul\":14591:14620   */\n      tag_222\n      jump\t// in\n    tag_389:\n        /* \"#utility.yul\":14583:14620   */\n      swap2\n      pop\n        /* \"#utility.yul\":14653:14656   */\n      dup3\n        /* \"#utility.yul\":14650:14651   */\n      0x02\n        /* \"#utility.yul\":14646:14657   */\n      mul\n        /* \"#utility.yul\":14640:14644   */\n      dup3\n        /* \"#utility.yul\":14637:14658   */\n      or\n        /* \"#utility.yul\":14629:14658   */\n      swap1\n      pop\n        /* \"#utility.yul\":14369:14664   */\n      swap3\n      swap2\n      pop\n      pop\n      jump\t// out\n        /* \"#utility.yul\":14669:16064   */\n    tag_147:\n        /* \"#utility.yul\":14786:14823   */\n      tag_391\n        /* \"#utility.yul\":14819:14822   */\n      dup3\n        /* \"#utility.yul\":14786:14823   */\n      tag_176\n      jump\t// in\n    tag_391:\n        /* \"#utility.yul\":14888:14906   */\n      0xffffffffffffffff\n        /* \"#utility.yul\":14880:14886   */\n      dup2\n        /* \"#utility.yul\":14877:14907   */\n      gt\n        /* \"#utility.yul\":14874:14930   */\n      iszero\n      tag_392\n      jumpi\n        /* \"#utility.yul\":14910:14928   */\n      tag_393\n      tag_199\n      jump\t// in\n    tag_393:\n        /* \"#utility.yul\":14874:14930   */\n    tag_392:\n        /* \"#utility.yul\":14954:14992   */\n      tag_394\n        /* \"#utility.yul\":14986:14990   */\n      dup3\n        /* \"#utility.yul\":14980:14991   */\n      sload\n        /* \"#utility.yul\":14954:14992   */\n      tag_102\n      jump\t// in\n    tag_394:\n        /* \"#utility.yul\":15039:15106   */\n      tag_395\n        /* \"#utility.yul\":15099:15105   */\n      dup3\n        /* \"#utility.yul\":15091:15097   */\n      dup3\n        /* \"#utility.yul\":15085:15089   */\n      dup6\n        /* \"#utility.yul\":15039:15106   */\n      tag_220\n      jump\t// in\n    tag_395:\n        /* \"#utility.yul\":15133:15134   */\n      0x00\n        /* \"#utility.yul\":15157:15161   */\n      0x20\n        /* \"#utility.yul\":15144:15161   */\n      swap1\n      pop\n        /* \"#utility.yul\":15189:15191   */\n      0x1f\n        /* \"#utility.yul\":15181:15187   */\n      dup4\n        /* \"#utility.yul\":15178:15192   */\n      gt\n        /* \"#utility.yul\":15206:15207   */\n      0x01\n        /* \"#utility.yul\":15201:15819   */\n      dup2\n      eq\n      tag_397\n      jumpi\n        /* \"#utility.yul\":15863:15864   */\n      0x00\n        /* \"#utility.yul\":15880:15886   */\n      dup5\n        /* \"#utility.yul\":15877:15954   */\n      iszero\n      tag_398\n      jumpi\n        /* \"#utility.yul\":15929:15938   */\n      dup3\n        /* \"#utility.yul\":15924:15927   */\n      dup8\n        /* \"#utility.yul\":15920:15939   */\n      add\n        /* \"#utility.yul\":15914:15940   */\n      mload\n        /* \"#utility.yul\":15905:15940   */\n      swap1\n      pop\n        /* \"#utility.yul\":15877:15954   */\n    tag_398:\n        /* \"#utility.yul\":15980:16047   */\n      tag_399\n        /* \"#utility.yul\":16040:16046   */\n      dup6\n        /* \"#utility.yul\":16033:16038   */\n      dup3\n        /* \"#utility.yul\":15980:16047   */\n      tag_223\n      jump\t// in\n    tag_399:\n        /* \"#utility.yul\":15974:15978   */\n      dup7\n        /* \"#utility.yul\":15967:16048   */\n      sstore\n        /* \"#utility.yul\":15836:16058   */\n      pop\n        /* \"#utility.yul\":15171:16058   */\n      jump(tag_396)\n        /* \"#utility.yul\":15201:15819   */\n    tag_397:\n        /* \"#utility.yul\":15253:15257   */\n      0x1f\n        /* \"#utility.yul\":15249:15258   */\n      not\n        /* \"#utility.yul\":15241:15247   */\n      dup5\n        /* \"#utility.yul\":15237:15259   */\n      and\n        /* \"#utility.yul\":15287:15324   */\n      tag_400\n        /* \"#utility.yul\":15319:15323   */\n      dup7\n        /* \"#utility.yul\":15287:15324   */\n      tag_209\n      jump\t// in\n    tag_400:\n        /* \"#utility.yul\":15346:15347   */\n      0x00\n        /* \"#utility.yul\":15360:15568   */\n    tag_401:\n        /* \"#utility.yul\":15374:15381   */\n      dup3\n        /* \"#utility.yul\":15371:15372   */\n      dup2\n        /* \"#utility.yul\":15368:15382   */\n      lt\n        /* \"#utility.yul\":15360:15568   */\n      iszero\n      tag_403\n      jumpi\n        /* \"#utility.yul\":15453:15462   */\n      dup5\n        /* \"#utility.yul\":15448:15451   */\n      dup10\n        /* \"#utility.yul\":15444:15463   */\n      add\n        /* \"#utility.yul\":15438:15464   */\n      mload\n        /* \"#utility.yul\":15430:15436   */\n      dup3\n        /* \"#utility.yul\":15423:15465   */\n      sstore\n        /* \"#utility.yul\":15504:15505   */\n      0x01\n        /* \"#utility.yul\":15496:15502   */\n      dup3\n        /* \"#utility.yul\":15492:15506   */\n      add\n        /* \"#utility.yul\":15482:15506   */\n      swap2\n      pop\n        /* \"#utility.yul\":15551:15553   */\n      0x20\n        /* \"#utility.yul\":15540:15549   */\n      dup6\n        /* \"#utility.yul\":15536:15554   */\n      add\n        /* \"#utility.yul\":15523:15554   */\n      swap5\n      pop\n        /* \"#utility.yul\":15397:15401   */\n      0x20\n        /* \"#utility.yul\":15394:15395   */\n      dup2\n        /* \"#utility.yul\":15390:15402   */\n      add\n        /* \"#utility.yul\":15385:15402   */\n      swap1\n      pop\n        /* \"#utility.yul\":15360:15568   */\n      jump(tag_401)\n    tag_403:\n        /* \"#utility.yul\":15596:15602   */\n      dup7\n        /* \"#utility.yul\":15587:15594   */\n      dup4\n        /* \"#utility.yul\":15584:15603   */\n      lt\n        /* \"#utility.yul\":15581:15760   */\n      iszero\n      tag_404\n      jumpi\n        /* \"#utility.yul\":15654:15663   */\n      dup5\n        /* \"#utility.yul\":15649:15652   */\n      dup10\n        /* \"#utility.yul\":15645:15664   */\n      add\n        /* \"#utility.yul\":15639:15665   */\n      mload\n        /* \"#utility.yul\":15697:15745   */\n      tag_405\n        /* \"#utility.yul\":15739:15743   */\n      0x1f\n        /* \"#utility.yul\":15731:15737   */\n      dup10\n        /* \"#utility.yul\":15727:15744   */\n      and\n        /* \"#utility.yul\":15716:15725   */\n      dup3\n        /* \"#utility.yul\":15697:15745   */\n      tag_222\n      jump\t// in\n    tag_405:\n        /* \"#utility.yul\":15689:15695   */\n      dup4\n        /* \"#utility.yul\":15682:15746   */\n      sstore\n        /* \"#utility.yul\":15604:15760   */\n      pop\n        /* \"#utility.yul\":15581:15760   */\n    tag_404:\n        /* \"#utility.yul\":15806:15807   */\n      0x01\n        /* \"#utility.yul\":15802:15803   */\n      0x02\n        /* \"#utility.yul\":15794:15800   */\n      dup9\n        /* \"#utility.yul\":15790:15804   */\n      mul\n        /* \"#utility.yul\":15786:15808   */\n      add\n        /* \"#utility.yul\":15780:15784   */\n      dup9\n        /* \"#utility.yul\":15773:15809   */\n      sstore\n        /* \"#utility.yul\":15208:15819   */\n      pop\n      pop\n      pop\n        /* \"#utility.yul\":15171:16058   */\n    tag_396:\n      pop\n        /* \"#utility.yul\":14761:16064   */\n      pop\n      pop\n      pop\n        /* \"#utility.yul\":14669:16064   */\n      pop\n      pop\n      jump\t// out\n        /* \"#utility.yul\":16070:16250   */\n    tag_224:\n        /* \"#utility.yul\":16118:16195   */\n      0x4e487b7100000000000000000000000000000000000000000000000000000000\n        /* \"#utility.yul\":16115:16116   */\n      0x00\n        /* \"#utility.yul\":16108:16196   */\n      mstore\n        /* \"#utility.yul\":16215:16219   */\n      0x11\n        /* \"#utility.yul\":16212:16213   */\n      0x04\n        /* \"#utility.yul\":16205:16220   */\n      mstore\n        /* \"#utility.yul\":16239:16243   */\n      0x24\n        /* \"#utility.yul\":16236:16237   */\n      0x00\n        /* \"#utility.yul\":16229:16244   */\n      revert\n        /* \"#utility.yul\":16256:16489   */\n    tag_153:\n        /* \"#utility.yul\":16295:16298   */\n      0x00\n        /* \"#utility.yul\":16318:16342   */\n      tag_408\n        /* \"#utility.yul\":16336:16341   */\n      dup3\n        /* \"#utility.yul\":16318:16342   */\n      tag_190\n      jump\t// in\n    tag_408:\n        /* \"#utility.yul\":16309:16342   */\n      swap2\n      pop\n        /* \"#utility.yul\":16364:16430   */\n      0xffffffffffffffffffffffffffffffffffffffffffffffffffffffffffffffff\n        /* \"#utility.yul\":16357:16362   */\n      dup3\n        /* \"#utility.yul\":16354:16431   */\n      sub\n        /* \"#utility.yul\":16351:16454   */\n      tag_409\n      jumpi\n        /* \"#utility.yul\":16434:16452   */\n      tag_410\n      tag_224\n      jump\t// in\n    tag_410:\n        /* \"#utility.yul\":16351:16454   */\n    tag_409:\n        /* \"#utility.yul\":16481:16482   */\n      0x01\n        /* \"#utility.yul\":16474:16479   */\n      dup3\n        /* \"#utility.yul\":16470:16483   */\n      add\n        /* \"#utility.yul\":16463:16483   */\n      swap1\n      pop\n        /* \"#utility.yul\":16256:16489   */\n      swap2\n      swap1\n      pop\n      jump\t// out\n        /* \"#utility.yul\":16495:16686   */\n    tag_155:\n        /* \"#utility.yul\":16535:16538   */\n      0x00\n        /* \"#utility.yul\":16554:16574   */\n      tag_412\n        /* \"#utility.yul\":16572:16573   */\n      dup3\n        /* \"#utility.yul\":16554:16574   */\n      tag_190\n      jump\t// in\n    tag_412:\n        /* \"#utility.yul\":16549:16574   */\n      swap2\n      pop\n        /* \"#utility.yul\":16588:16608   */\n      tag_413\n        /* \"#utility.yul\":16606:16607   */\n      dup4\n        /* \"#utility.yul\":16588:16608   */\n      tag_190\n      jump\t// in\n    tag_413:\n        /* \"#utility.yul\":16583:16608   */\n      swap3\n      pop\n        /* \"#utility.yul\":16631:16632   */\n      dup3\n        /* \"#utility.yul\":16628:16629   */\n      dup3\n        /* \"#utility.yul\":16624:16633   */\n      add\n        /* \"#utility.yul\":16617:16633   */\n      swap1\n      pop\n        /* \"#utility.yul\":16652:16655   */\n      dup1\n        /* \"#utility.yul\":16649:16650   */\n      dup3\n        /* \"#utility.yul\":16646:16656   */\n      gt\n        /* \"#utility.yul\":16643:16679   */\n      iszero\n      tag_414\n      jumpi\n        /* \"#utility.yul\":16659:16677   */\n      tag_415\n      tag_224\n      jump\t// in\n    tag_415:\n        /* \"#utility.yul\":16643:16679   */\n    tag_414:\n        /* \"#utility.yul\":16495:16686   */\n      swap3\n      swap2\n      pop\n      pop\n      jump\t// out\n        /* \"#utility.yul\":16692:16872   */\n    tag_225:\n        /* \"#utility.yul\":16740:16817   */\n      0x4e487b7100000000000000000000000000000000000000000000000000000000\n        /* \"#utility.yul\":16737:16738   */\n      0x00\n        /* \"#utility.yul\":16730:16818   */\n      mstore\n        /* \"#utility.yul\":16837:16841   */\n      0x12\n        /* \"#utility.yul\":16834:16835   */\n      0x04\n        /* \"#utility.yul\":16827:16842   */\n      mstore\n        /* \"#utility.yul\":16861:16865   */\n      0x24\n        /* \"#utility.yul\":16858:16859   */\n      0x00\n        /* \"#utility.yul\":16851:16866   */\n      revert\n        /* \"#utility.yul\":16878:17063   */\n    tag_172:\n        /* \"#utility.yul\":16918:16919   */\n      0x00\n        /* \"#utility.yul\":16935:16955   */\n      tag_418\n        /* \"#utility.yul\":16953:16954   */\n      dup3\n        /* \"#utility.yul\":16935:16955   */\n      tag_190\n      jump\t// in\n    tag_418:\n        /* \"#utility.yul\":16930:16955   */\n      swap2\n      pop\n        /* \"#utility.yul\":16969:16989   */\n      tag_419\n        /* \"#utility.yul\":16987:16988   */\n      dup4\n        /* \"#utility.yul\":16969:16989   */\n      tag_190\n      jump\t// in\n    tag_419:\n        /* \"#utility.yul\":16964:16989   */\n      swap3\n      pop\n        /* \"#utility.yul\":17008:17009   */\n      dup3\n        /* \"#utility.yul\":16998:17033   */\n      tag_420\n      jumpi\n        /* \"#utility.yul\":17013:17031   */\n      tag_421\n      tag_225\n      jump\t// in\n    tag_421:\n        /* \"#utility.yul\":16998:17033   */\n    tag_420:\n        /* \"#utility.yul\":17055:17056   */\n      dup3\n        /* \"#utility.yul\":17052:17053   */\n      dup3\n        /* \"#utility.yul\":17048:17057   */\n      div\n        /* \"#utility.yul\":17043:17057   */\n      swap1\n      pop\n        /* \"#utility.yul\":16878:17063   */\n      swap3\n      swap2\n      pop\n      pop\n      jump\t// out\n\n    auxdata: 0xa2646970667358221220e8d2ceb13cc65cb24c4efb958f9e0e6e1be872a881437f8fb38bc7d13cba64e864736f6c63430008110033\n}\n","bytecode":{"linkReferences":{},"object":"60806040523480156200001157600080fd5b5060405162001ec538038062001ec58339818101604052810190620000379190620002ef565b84600481905550836000806101000a81548173ffffffffffffffffffffffffffffffffffffffff021916908373ffffffffffffffffffffffffffffffffffffffff16021790555082600190816200008f9190620005f6565b508160029081620000a19190620005f6565b508060038190555060006009819055505050505050620006dd565b6000604051905090565b600080fd5b600080fd5b6000819050919050565b620000e581620000d0565b8114620000f157600080fd5b50565b6000815190506200010581620000da565b92915050565b600073ffffffffffffffffffffffffffffffffffffffff82169050919050565b600062000138826200010b565b9050919050565b6200014a816200012b565b81146200015657600080fd5b50565b6000815190506200016a816200013f565b92915050565b600080fd5b600080fd5b6000601f19601f8301169050919050565b7f4e487b7100000000000000000000000000000000000000000000000000000000600052604160045260246000fd5b620001c5826200017a565b810181811067ffffffffffffffff82111715620001e757620001e66200018b565b5b80604052505050565b6000620001fc620000bc565b90506200020a8282620001ba565b919050565b600067ffffffffffffffff8211156200022d576200022c6200018b565b5b62000238826200017a565b9050602081019050919050565b60005b838110156200026557808201518184015260208101905062000248565b60008484015250505050565b60006200028862000282846200020f565b620001f0565b905082815260208101848484011115620002a757620002a662000175565b5b620002b484828562000245565b509392505050565b600082601f830112620002d457620002d362000170565b5b8151620002e684826020860162000271565b91505092915050565b600080600080600060a086880312156200030e576200030d620000c6565b5b60006200031e88828901620000f4565b9550506020620003318882890162000159565b945050604086015167ffffffffffffffff811115620003555762000354620000cb565b5b6200036388828901620002bc565b935050606086015167ffffffffffffffff811115620003875762000386620000cb565b5b6200039588828901620002bc565b9250506080620003a888828901620000f4565b9150509295509295909350565b600081519050919050565b7f4e487b7100000000000000000000000000000000000000000000000000000000600052602260045260246000fd5b600060028204905060018216806200040857607f821691505b6020821081036200041e576200041d620003c0565b5b50919050565b60008190508160005260206000209050919050565b60006020601f8301049050919050565b600082821b905092915050565b600060088302620004887fffffffffffffffffffffffffffffffffffffffffffffffffffffffffffffffff8262000449565b62000494868362000449565b95508019841693508086168417925050509392505050565b6000819050919050565b6000620004d7620004d1620004cb84620000d0565b620004ac565b620000d0565b9050919050565b6000819050919050565b620004f383620004b6565b6200050b6200050282620004de565b84845462000456565b825550505050565b600090565b6200052262000513565b6200052f818484620004e8565b505050565b5b8181101562000557576200054b60008262000518565b60018101905062000535565b5050565b601f821115620005a657620005708162000424565b6200057b8462000439565b810160208510156200058b578190505b620005a36200059a8562000439565b83018262000534565b50505b505050565b600082821c905092915050565b6000620005cb60001984600802620005ab565b1980831691505092915050565b6000620005e68383620005b8565b9150826002028217905092915050565b6200060182620003b5565b67ffffffffffffffff8111156200061d576200061c6200018b565b5b620006298254620003ef565b620006368282856200055b565b600060209050601f8311600181146200066e576000841562000659578287015190505b620006658582620005d8565b865550620006d5565b601f1984166200067e8662000424565b60005b82811015620006a85784890151825560018201915060208501945060208101905062000681565b86831015620006c85784890151620006c4601f891682620005b8565b8355505b6001600288020188555050505b505050505050565b6117d880620006ed6000396000f3fe6080604052600436106100fe5760003560e01c806381d12c5811610095578063c774126511610064578063c77412651461034b578063d7bb99ba14610374578063d7d1bbdb1461037e578063e7b668b4146103a7578063ef068a7f146103d0576100fe565b806381d12c581461028857806382fde093146102ca578063aaffadf3146102f5578063c5c4744c14610320576100fe565b80633410452a116100d15780633410452a146101d35780634051ddac146101fe578063481c6a75146102325780635b18056b1461025d576100fe565b80630724fda9146101035780630a1443911461012e578063110842cb1461016b5780631c189d1814610196575b600080fd5b34801561010f57600080fd5b506101186103fb565b6040516101259190610e62565b60405180910390f35b34801561013a57600080fd5b5061015560048036038101906101509190610ef6565b610489565b6040516101629190610f3e565b60405180910390f35b34801561017757600080fd5b506101806104a9565b60405161018d9190610e62565b60405180910390f35b3480156101a257600080fd5b506101bd60048036038101906101b89190610f8f565b610537565b6040516101ca9190610f3e565b60405180910390f35b3480156101df57600080fd5b506101e86105b1565b6040516101f59190610fde565b60405180910390f35b34801561020a57600080fd5b506102136105be565b6040516102299a99989796959493929190611008565b60405180910390f35b34801561023e57600080fd5b50610247610740565b60405161025491906110b2565b60405180910390f35b34801561026957600080fd5b50610272610764565b60405161027f9190610fde565b60405180910390f35b34801561029457600080fd5b506102af60048036038101906102aa91906110cd565b61076a565b6040516102c19695949392919061111b565b60405180910390f35b3480156102d657600080fd5b506102df6108f3565b6040516102ec9190610fde565b60405180910390f35b34801561030157600080fd5b5061030a6108f9565b6040516103179190610fde565b60405180910390f35b34801561032c57600080fd5b506103356108ff565b6040516103429190610fde565b60405180910390f35b34801561035757600080fd5b50610372600480360381019061036d91906112eb565b610905565b005b61037c610a2e565b005b34801561038a57600080fd5b506103a560048036038101906103a091906110cd565b610b37565b005b3480156103b357600080fd5b506103ce60048036038101906103c991906110cd565b610c84565b005b3480156103dc57600080fd5b506103e5610dcc565b6040516103f29190610fde565b60405180910390f35b60018054610408906113b9565b80601f0160208091040260200160405190810160405280929190818152602001828054610434906113b9565b80156104815780601f1061045657610100808354040283529160200191610481565b820191906000526020600020905b81548152906001019060200180831161046457829003601f168201915b505050505081565b60066020528060005260406000206000915054906101000a900460ff1681565b600280546104b6906113b9565b80601f01602080910402602001604051908101604052809291908181526020018280546104e2906113b9565b801561052f5780601f106105045761010080835404028352916020019161052f565b820191906000526020600020905b81548152906001019060200180831161051257829003601f168201915b505050505081565b60006008828154811061054d5761054c6113ea565b5b906000526020600020906006020160050160008473ffffffffffffffffffffffffffffffffffffffff1673ffffffffffffffffffffffffffffffffffffffff16815260200190815260200160002060009054906101000a900460ff16905092915050565b6000600880549050905090565b606080600080600080600080600080600160026003546005546004546009544760088054905060075460008054906101000a900473ffffffffffffffffffffffffffffffffffffffff16898054610614906113b9565b80601f0160208091040260200160405190810160405280929190818152602001828054610640906113b9565b801561068d5780601f106106625761010080835404028352916020019161068d565b820191906000526020600020905b81548152906001019060200180831161067057829003601f168201915b505050505099508880546106a0906113b9565b80601f01602080910402602001604051908101604052809291908181526020018280546106cc906113b9565b80156107195780601f106106ee57610100808354040283529160200191610719565b820191906000526020600020905b8154815290600101906020018083116106fc57829003601f168201915b50505050509850995099509950995099509950995099509950995090919293949596979899565b60008054906101000a900473ffffffffffffffffffffffffffffffffffffffff1681565b60055481565b6008818154811061077a57600080fd5b906000526020600020906006020160009150905080600001805461079d906113b9565b80601f01602080910402602001604051908101604052809291908181526020018280546107c9906113b9565b80156108165780601f106107eb57610100808354040283529160200191610816565b820191906000526020600020905b8154815290600101906020018083116107f957829003601f168201915b50505050509080600101805461082b906113b9565b80601f0160208091040260200160405190810160405280929190818152602001828054610857906113b9565b80156108a45780601f10610879576101008083540402835291602001916108a4565b820191906000526020600020905b81548152906001019060200180831161088757829003601f168201915b5050505050908060020154908060030160009054906101000a900473ffffffffffffffffffffffffffffffffffffffff16908060030160149054906101000a900460ff16908060040154905086565b60075481565b60045481565b60095481565b60008054906101000a900473ffffffffffffffffffffffffffffffffffffffff1673ffffffffffffffffffffffffffffffffffffffff163373ffffffffffffffffffffffffffffffffffffffff161461095d57600080fd5b60035447101561096c57600080fd5b600060086001816001815401808255809150500390600052602060002090600602019050848160000190816109a191906115c5565b50838160010190816109b391906115c5565b50828160020181905550818160030160006101000a81548173ffffffffffffffffffffffffffffffffffffffff021916908373ffffffffffffffffffffffffffffffffffffffff16021790555060008160030160146101000a81548160ff021916908315150217905550600081600401819055505050505050565b6000600660003373ffffffffffffffffffffffffffffffffffffffff1673ffffffffffffffffffffffffffffffffffffffff16815260200190815260200160002060009054906101000a900460ff16905080610b03576004543411610a9257600080fd5b6001600660003373ffffffffffffffffffffffffffffffffffffffff1673ffffffffffffffffffffffffffffffffffffffff16815260200190815260200160002060006101000a81548160ff02191690831515021790555060076000815480929190610afd906116c6565b91905055505b3460096000828254610b15919061170e565b9250508190555060056000815480929190610b2f906116c6565b919050555050565b600060088281548110610b4d57610b4c6113ea565b5b90600052602060002090600602019050600660003373ffffffffffffffffffffffffffffffffffffffff1673ffffffffffffffffffffffffffffffffffffffff16815260200190815260200160002060009054906101000a900460ff16610bb357600080fd5b8060050160003373ffffffffffffffffffffffffffffffffffffffff1673ffffffffffffffffffffffffffffffffffffffff16815260200190815260200160002060009054906101000a900460ff1615610c0c57600080fd5b60018160050160003373ffffffffffffffffffffffffffffffffffffffff1673ffffffffffffffffffffffffffffffffffffffff16815260200190815260200160002060006101000a81548160ff021916908315150217905550806004016000815480929190610c7b906116c6565b91905055505050565b60008054906101000a900473ffffffffffffffffffffffffffffffffffffffff1673ffffffffffffffffffffffffffffffffffffffff163373ffffffffffffffffffffffffffffffffffffffff1614610cdc57600080fd5b600060088281548110610cf257610cf16113ea565b5b906000526020600020906006020190508060030160149054906101000a900460ff1615610d1e57600080fd5b6002600754610d2d9190611771565b816004015411610d3c57600080fd5b8060030160009054906101000a900473ffffffffffffffffffffffffffffffffffffffff1673ffffffffffffffffffffffffffffffffffffffff166108fc82600201549081150290604051600060405180830381858888f19350505050158015610daa573d6000803e3d6000fd5b5060018160030160146101000a81548160ff0219169083151502179055505050565b60035481565b600081519050919050565b600082825260208201905092915050565b60005b83811015610e0c578082015181840152602081019050610df1565b60008484015250505050565b6000601f19601f8301169050919050565b6000610e3482610dd2565b610e3e8185610ddd565b9350610e4e818560208601610dee565b610e5781610e18565b840191505092915050565b60006020820190508181036000830152610e7c8184610e29565b905092915050565b6000604051905090565b600080fd5b600080fd5b600073ffffffffffffffffffffffffffffffffffffffff82169050919050565b6000610ec382610e98565b9050919050565b610ed381610eb8565b8114610ede57600080fd5b50565b600081359050610ef081610eca565b92915050565b600060208284031215610f0c57610f0b610e8e565b5b6000610f1a84828501610ee1565b91505092915050565b60008115159050919050565b610f3881610f23565b82525050565b6000602082019050610f536000830184610f2f565b92915050565b6000819050919050565b610f6c81610f59565b8114610f7757600080fd5b50565b600081359050610f8981610f63565b92915050565b60008060408385031215610fa657610fa5610e8e565b5b6000610fb485828601610ee1565b9250506020610fc585828601610f7a565b9150509250929050565b610fd881610f59565b82525050565b6000602082019050610ff36000830184610fcf565b92915050565b61100281610eb8565b82525050565b6000610140820190508181036000830152611023818d610e29565b90508181036020830152611037818c610e29565b9050611046604083018b610fcf565b611053606083018a610fcf565b6110606080830189610fcf565b61106d60a0830188610fcf565b61107a60c0830187610fcf565b61108760e0830186610fcf565b611095610100830185610fcf565b6110a3610120830184610ff9565b9b9a5050505050505050505050565b60006020820190506110c76000830184610ff9565b92915050565b6000602082840312156110e3576110e2610e8e565b5b60006110f184828501610f7a565b91505092915050565b600061110582610e98565b9050919050565b611115816110fa565b82525050565b600060c08201905081810360008301526111358189610e29565b905081810360208301526111498188610e29565b90506111586040830187610fcf565b611165606083018661110c565b6111726080830185610f2f565b61117f60a0830184610fcf565b979650505050505050565b600080fd5b600080fd5b7f4e487b7100000000000000000000000000000000000000000000000000000000600052604160045260246000fd5b6111cc82610e18565b810181811067ffffffffffffffff821117156111eb576111ea611194565b5b80604052505050565b60006111fe610e84565b905061120a82826111c3565b919050565b600067ffffffffffffffff82111561122a57611229611194565b5b61123382610e18565b9050602081019050919050565b82818337600083830152505050565b600061126261125d8461120f565b6111f4565b90508281526020810184848401111561127e5761127d61118f565b5b611289848285611240565b509392505050565b600082601f8301126112a6576112a561118a565b5b81356112b684826020860161124f565b91505092915050565b6112c8816110fa565b81146112d357600080fd5b50565b6000813590506112e5816112bf565b92915050565b6000806000806080858703121561130557611304610e8e565b5b600085013567ffffffffffffffff81111561132357611322610e93565b5b61132f87828801611291565b945050602085013567ffffffffffffffff8111156113505761134f610e93565b5b61135c87828801611291565b935050604061136d87828801610f7a565b925050606061137e878288016112d6565b91505092959194509250565b7f4e487b7100000000000000000000000000000000000000000000000000000000600052602260045260246000fd5b600060028204905060018216806113d157607f821691505b6020821081036113e4576113e361138a565b5b50919050565b7f4e487b7100000000000000000000000000000000000000000000000000000000600052603260045260246000fd5b60008190508160005260206000209050919050565b60006020601f8301049050919050565b600082821b905092915050565b60006008830261147b7fffffffffffffffffffffffffffffffffffffffffffffffffffffffffffffffff8261143e565b611485868361143e565b95508019841693508086168417925050509392505050565b6000819050919050565b60006114c26114bd6114b884610f59565b61149d565b610f59565b9050919050565b6000819050919050565b6114dc836114a7565b6114f06114e8826114c9565b84845461144b565b825550505050565b600090565b6115056114f8565b6115108184846114d3565b505050565b5b81811015611534576115296000826114fd565b600181019050611516565b5050565b601f8211156115795761154a81611419565b6115538461142e565b81016020851015611562578190505b61157661156e8561142e565b830182611515565b50505b505050565b600082821c905092915050565b600061159c6000198460080261157e565b1980831691505092915050565b60006115b5838361158b565b9150826002028217905092915050565b6115ce82610dd2565b67ffffffffffffffff8111156115e7576115e6611194565b5b6115f182546113b9565b6115fc828285611538565b600060209050601f83116001811461162f576000841561161d578287015190505b61162785826115a9565b86555061168f565b601f19841661163d86611419565b60005b8281101561166557848901518255600182019150602085019450602081019050611640565b86831015611682578489015161167e601f89168261158b565b8355505b6001600288020188555050505b505050505050565b7f4e487b7100000000000000000000000000000000000000000000000000000000600052601160045260246000fd5b60006116d182610f59565b91507fffffffffffffffffffffffffffffffffffffffffffffffffffffffffffffffff820361170357611702611697565b5b600182019050919050565b600061171982610f59565b915061172483610f59565b925082820190508082111561173c5761173b611697565b5b92915050565b7f4e487b7100000000000000000000000000000000000000000000000000000000600052601260045260246000fd5b600061177c82610f59565b915061178783610f59565b92508261179757611796611742565b5b82820490509291505056fea2646970667358221220e8d2ceb13cc65cb24c4efb958f9e0e6e1be872a881437f8fb38bc7d13cba64e864736f6c63430008110033","opcodes":"PUSH1 0x80 PUSH1 0x40 MSTORE CALLVALUE DUP1 ISZERO PUSH3 0x11 JUMPI PUSH1 0x0 DUP1 REVERT JUMPDEST POP PUSH1 0x40 MLOAD PUSH3 0x1EC5 CODESIZE SUB DUP1 PUSH3 0x1EC5 DUP4 CODECOPY DUP2 DUP2 ADD PUSH1 0x40 MSTORE DUP2 ADD SWAP1 PUSH3 0x37 SWAP2 SWAP1 PUSH3 0x2EF JUMP JUMPDEST DUP5 PUSH1 0x4 DUP2 SWAP1 SSTORE POP DUP4 PUSH1 0x0 DUP1 PUSH2 0x100 EXP DUP2 SLOAD DUP2 PUSH20 0xFFFFFFFFFFFFFFFFFFFFFFFFFFFFFFFFFFFFFFFF MUL NOT AND SWAP1 DUP4 PUSH20 0xFFFFFFFFFFFFFFFFFFFFFFFFFFFFFFFFFFFFFFFF AND MUL OR SWAP1 SSTORE POP DUP3 PUSH1 0x1 SWAP1 DUP2 PUSH3 0x8F SWAP2 SWAP1 PUSH3 0x5F6 JUMP JUMPDEST POP DUP2 PUSH1 0x2 SWAP1 DUP2 PUSH3 0xA1 SWAP2 SWAP1 PUSH3 0x5F6 JUMP JUMPDEST POP DUP1 PUSH1 0x3 DUP2 SWAP1 SSTORE POP PUSH1 0x0 PUSH1 0x9 DUP2 SWAP1 SSTORE POP POP POP POP POP POP PUSH3 0x6DD JUMP JUMPDEST PUSH1 0x0 PUSH1 0x40 MLOAD SWAP1 POP SWAP1 JUMP JUMPDEST PUSH1 0x0 DUP1 REVERT JUMPDEST PUSH1 0x0 DUP1 REVERT JUMPDEST PUSH1 0x0 DUP2 SWAP1 POP SWAP2 SWAP1 POP JUMP JUMPDEST PUSH3 0xE5 DUP2 PUSH3 0xD0 JUMP JUMPDEST DUP2 EQ PUSH3 0xF1 JUMPI PUSH1 0x0 DUP1 REVERT JUMPDEST POP JUMP JUMPDEST PUSH1 0x0 DUP2 MLOAD SWAP1 POP PUSH3 0x105 DUP2 PUSH3 0xDA JUMP JUMPDEST SWAP3 SWAP2 POP POP JUMP JUMPDEST PUSH1 0x0 PUSH20 0xFFFFFFFFFFFFFFFFFFFFFFFFFFFFFFFFFFFFFFFF DUP3 AND SWAP1 POP SWAP2 SWAP1 POP JUMP JUMPDEST PUSH1 0x0 PUSH3 0x138 DUP3 PUSH3 0x10B JUMP JUMPDEST SWAP1 POP SWAP2 SWAP1 POP JUMP JUMPDEST PUSH3 0x14A DUP2 PUSH3 0x12B JUMP JUMPDEST DUP2 EQ PUSH3 0x156 JUMPI PUSH1 0x0 DUP1 REVERT JUMPDEST POP JUMP JUMPDEST PUSH1 0x0 DUP2 MLOAD SWAP1 POP PUSH3 0x16A DUP2 PUSH3 0x13F JUMP JUMPDEST SWAP3 SWAP2 POP POP JUMP JUMPDEST PUSH1 0x0 DUP1 REVERT JUMPDEST PUSH1 0x0 DUP1 REVERT JUMPDEST PUSH1 0x0 PUSH1 0x1F NOT PUSH1 0x1F DUP4 ADD AND SWAP1 POP SWAP2 SWAP1 POP JUMP JUMPDEST PUSH32 0x4E487B7100000000000000000000000000000000000000000000000000000000 PUSH1 0x0 MSTORE PUSH1 0x41 PUSH1 0x4 MSTORE PUSH1 0x24 PUSH1 0x0 REVERT JUMPDEST PUSH3 0x1C5 DUP3 PUSH3 0x17A JUMP JUMPDEST DUP2 ADD DUP2 DUP2 LT PUSH8 0xFFFFFFFFFFFFFFFF DUP3 GT OR ISZERO PUSH3 0x1E7 JUMPI PUSH3 0x1E6 PUSH3 0x18B JUMP JUMPDEST JUMPDEST DUP1 PUSH1 0x40 MSTORE POP POP POP JUMP JUMPDEST PUSH1 0x0 PUSH3 0x1FC PUSH3 0xBC JUMP JUMPDEST SWAP1 POP PUSH3 0x20A DUP3 DUP3 PUSH3 0x1BA JUMP JUMPDEST SWAP2 SWAP1 POP JUMP JUMPDEST PUSH1 0x0 PUSH8 0xFFFFFFFFFFFFFFFF DUP3 GT ISZERO PUSH3 0x22D JUMPI PUSH3 0x22C PUSH3 0x18B JUMP JUMPDEST JUMPDEST PUSH3 0x238 DUP3 PUSH3 0x17A JUMP JUMPDEST SWAP1 POP PUSH1 0x20 DUP2 ADD SWAP1 POP SWAP2 SWAP1 POP JUMP JUMPDEST PUSH1 0x0 JUMPDEST DUP4 DUP2 LT ISZERO PUSH3 0x265 JUMPI DUP1 DUP3 ADD MLOAD DUP2 DUP5 ADD MSTORE PUSH1 0x20 DUP2 ADD SWAP1 POP PUSH3 0x248 JUMP JUMPDEST PUSH1 0x0 DUP5 DUP5 ADD MSTORE POP POP POP POP JUMP JUMPDEST PUSH1 0x0 PUSH3 0x288 PUSH3 0x282 DUP5 PUSH3 0x20F JUMP JUMPDEST PUSH3 0x1F0 JUMP JUMPDEST SWAP1 POP DUP3 DUP2 MSTORE PUSH1 0x20 DUP2 ADD DUP5 DUP5 DUP5 ADD GT ISZERO PUSH3 0x2A7 JUMPI PUSH3 0x2A6 PUSH3 0x175 JUMP JUMPDEST JUMPDEST PUSH3 0x2B4 DUP5 DUP3 DUP6 PUSH3 0x245 JUMP JUMPDEST POP SWAP4 SWAP3 POP POP POP JUMP JUMPDEST PUSH1 0x0 DUP3 PUSH1 0x1F DUP4 ADD SLT PUSH3 0x2D4 JUMPI PUSH3 0x2D3 PUSH3 0x170 JUMP JUMPDEST JUMPDEST DUP2 MLOAD PUSH3 0x2E6 DUP5 DUP3 PUSH1 0x20 DUP7 ADD PUSH3 0x271 JUMP JUMPDEST SWAP2 POP POP SWAP3 SWAP2 POP POP JUMP JUMPDEST PUSH1 0x0 DUP1 PUSH1 0x0 DUP1 PUSH1 0x0 PUSH1 0xA0 DUP7 DUP9 SUB SLT ISZERO PUSH3 0x30E JUMPI PUSH3 0x30D PUSH3 0xC6 JUMP JUMPDEST JUMPDEST PUSH1 0x0 PUSH3 0x31E DUP9 DUP3 DUP10 ADD PUSH3 0xF4 JUMP JUMPDEST SWAP6 POP POP PUSH1 0x20 PUSH3 0x331 DUP9 DUP3 DUP10 ADD PUSH3 0x159 JUMP JUMPDEST SWAP5 POP POP PUSH1 0x40 DUP7 ADD MLOAD PUSH8 0xFFFFFFFFFFFFFFFF DUP2 GT ISZERO PUSH3 0x355 JUMPI PUSH3 0x354 PUSH3 0xCB JUMP JUMPDEST JUMPDEST PUSH3 0x363 DUP9 DUP3 DUP10 ADD PUSH3 0x2BC JUMP JUMPDEST SWAP4 POP POP PUSH1 0x60 DUP7 ADD MLOAD PUSH8 0xFFFFFFFFFFFFFFFF DUP2 GT ISZERO PUSH3 0x387 JUMPI PUSH3 0x386 PUSH3 0xCB JUMP JUMPDEST JUMPDEST PUSH3 0x395 DUP9 DUP3 DUP10 ADD PUSH3 0x2BC JUMP JUMPDEST SWAP3 POP POP PUSH1 0x80 PUSH3 0x3A8 DUP9 DUP3 DUP10 ADD PUSH3 0xF4 JUMP JUMPDEST SWAP2 POP POP SWAP3 SWAP6 POP SWAP3 SWAP6 SWAP1 SWAP4 POP JUMP JUMPDEST PUSH1 0x0 DUP2 MLOAD SWAP1 POP SWAP2 SWAP1 POP JUMP JUMPDEST PUSH32 0x4E487B7100000000000000000000000000000000000000000000000000000000 PUSH1 0x0 MSTORE PUSH1 0x22 PUSH1 0x4 MSTORE PUSH1 0x24 PUSH1 0x0 REVERT JUMPDEST PUSH1 0x0 PUSH1 0x2 DUP3 DIV SWAP1 POP PUSH1 0x1 DUP3 AND DUP1 PUSH3 0x408 JUMPI PUSH1 0x7F DUP3 AND SWAP2 POP JUMPDEST PUSH1 0x20 DUP3 LT DUP2 SUB PUSH3 0x41E JUMPI PUSH3 0x41D PUSH3 0x3C0 JUMP JUMPDEST JUMPDEST POP SWAP2 SWAP1 POP JUMP JUMPDEST PUSH1 0x0 DUP2 SWAP1 POP DUP2 PUSH1 0x0 MSTORE PUSH1 0x20 PUSH1 0x0 KECCAK256 SWAP1 POP SWAP2 SWAP1 POP JUMP JUMPDEST PUSH1 0x0 PUSH1 0x20 PUSH1 0x1F DUP4 ADD DIV SWAP1 POP SWAP2 SWAP1 POP JUMP JUMPDEST PUSH1 0x0 DUP3 DUP3 SHL SWAP1 POP SWAP3 SWAP2 POP POP JUMP JUMPDEST PUSH1 0x0 PUSH1 0x8 DUP4 MUL PUSH3 0x488 PUSH32 0xFFFFFFFFFFFFFFFFFFFFFFFFFFFFFFFFFFFFFFFFFFFFFFFFFFFFFFFFFFFFFFFF DUP3 PUSH3 0x449 JUMP JUMPDEST PUSH3 0x494 DUP7 DUP4 PUSH3 0x449 JUMP JUMPDEST SWAP6 POP DUP1 NOT DUP5 AND SWAP4 POP DUP1 DUP7 AND DUP5 OR SWAP3 POP POP POP SWAP4 SWAP3 POP POP POP JUMP JUMPDEST PUSH1 0x0 DUP2 SWAP1 POP SWAP2 SWAP1 POP JUMP JUMPDEST PUSH1 0x0 PUSH3 0x4D7 PUSH3 0x4D1 PUSH3 0x4CB DUP5 PUSH3 0xD0 JUMP JUMPDEST PUSH3 0x4AC JUMP JUMPDEST PUSH3 0xD0 JUMP JUMPDEST SWAP1 POP SWAP2 SWAP1 POP JUMP JUMPDEST PUSH1 0x0 DUP2 SWAP1 POP SWAP2 SWAP1 POP JUMP JUMPDEST PUSH3 0x4F3 DUP4 PUSH3 0x4B6 JUMP JUMPDEST PUSH3 0x50B PUSH3 0x502 DUP3 PUSH3 0x4DE JUMP JUMPDEST DUP5 DUP5 SLOAD PUSH3 0x456 JUMP JUMPDEST DUP3 SSTORE POP POP POP POP JUMP JUMPDEST PUSH1 0x0 SWAP1 JUMP JUMPDEST PUSH3 0x522 PUSH3 0x513 JUMP JUMPDEST PUSH3 0x52F DUP2 DUP5 DUP5 PUSH3 0x4E8 JUMP JUMPDEST POP POP POP JUMP JUMPDEST JUMPDEST DUP2 DUP2 LT ISZERO PUSH3 0x557 JUMPI PUSH3 0x54B PUSH1 0x0 DUP3 PUSH3 0x518 JUMP JUMPDEST PUSH1 0x1 DUP2 ADD SWAP1 POP PUSH3 0x535 JUMP JUMPDEST POP POP JUMP JUMPDEST PUSH1 0x1F DUP3 GT ISZERO PUSH3 0x5A6 JUMPI PUSH3 0x570 DUP2 PUSH3 0x424 JUMP JUMPDEST PUSH3 0x57B DUP5 PUSH3 0x439 JUMP JUMPDEST DUP2 ADD PUSH1 0x20 DUP6 LT ISZERO PUSH3 0x58B JUMPI DUP2 SWAP1 POP JUMPDEST PUSH3 0x5A3 PUSH3 0x59A DUP6 PUSH3 0x439 JUMP JUMPDEST DUP4 ADD DUP3 PUSH3 0x534 JUMP JUMPDEST POP POP JUMPDEST POP POP POP JUMP JUMPDEST PUSH1 0x0 DUP3 DUP3 SHR SWAP1 POP SWAP3 SWAP2 POP POP JUMP JUMPDEST PUSH1 0x0 PUSH3 0x5CB PUSH1 0x0 NOT DUP5 PUSH1 0x8 MUL PUSH3 0x5AB JUMP JUMPDEST NOT DUP1 DUP4 AND SWAP2 POP POP SWAP3 SWAP2 POP POP JUMP JUMPDEST PUSH1 0x0 PUSH3 0x5E6 DUP4 DUP4 PUSH3 0x5B8 JUMP JUMPDEST SWAP2 POP DUP3 PUSH1 0x2 MUL DUP3 OR SWAP1 POP SWAP3 SWAP2 POP POP JUMP JUMPDEST PUSH3 0x601 DUP3 PUSH3 0x3B5 JUMP JUMPDEST PUSH8 0xFFFFFFFFFFFFFFFF DUP2 GT ISZERO PUSH3 0x61D JUMPI PUSH3 0x61C PUSH3 0x18B JUMP JUMPDEST JUMPDEST PUSH3 0x629 DUP3 SLOAD PUSH3 0x3EF JUMP JUMPDEST PUSH3 0x636 DUP3 DUP3 DUP6 PUSH3 0x55B JUMP JUMPDEST PUSH1 0x0 PUSH1 0x20 SWAP1 POP PUSH1 0x1F DUP4 GT PUSH1 0x1 DUP2 EQ PUSH3 0x66E JUMPI PUSH1 0x0 DUP5 ISZERO PUSH3 0x659 JUMPI DUP3 DUP8 ADD MLOAD SWAP1 POP JUMPDEST PUSH3 0x665 DUP6 DUP3 PUSH3 0x5D8 JUMP JUMPDEST DUP7 SSTORE POP PUSH3 0x6D5 JUMP JUMPDEST PUSH1 0x1F NOT DUP5 AND PUSH3 0x67E DUP7 PUSH3 0x424 JUMP JUMPDEST PUSH1 0x0 JUMPDEST DUP3 DUP2 LT ISZERO PUSH3 0x6A8 JUMPI DUP5 DUP10 ADD MLOAD DUP3 SSTORE PUSH1 0x1 DUP3 ADD SWAP2 POP PUSH1 0x20 DUP6 ADD SWAP5 POP PUSH1 0x20 DUP2 ADD SWAP1 POP PUSH3 0x681 JUMP JUMPDEST DUP7 DUP4 LT ISZERO PUSH3 0x6C8 JUMPI DUP5 DUP10 ADD MLOAD PUSH3 0x6C4 PUSH1 0x1F DUP10 AND DUP3 PUSH3 0x5B8 JUMP JUMPDEST DUP4 SSTORE POP JUMPDEST PUSH1 0x1 PUSH1 0x2 DUP9 MUL ADD DUP9 SSTORE POP POP POP JUMPDEST POP POP POP POP POP POP JUMP JUMPDEST PUSH2 0x17D8 DUP1 PUSH3 0x6ED PUSH1 0x0 CODECOPY PUSH1 0x0 RETURN INVALID PUSH1 0x80 PUSH1 0x40 MSTORE PUSH1 0x4 CALLDATASIZE LT PUSH2 0xFE JUMPI PUSH1 0x0 CALLDATALOAD PUSH1 0xE0 SHR DUP1 PUSH4 0x81D12C58 GT PUSH2 0x95 JUMPI DUP1 PUSH4 0xC7741265 GT PUSH2 0x64 JUMPI DUP1 PUSH4 0xC7741265 EQ PUSH2 0x34B JUMPI DUP1 PUSH4 0xD7BB99BA EQ PUSH2 0x374 JUMPI DUP1 PUSH4 0xD7D1BBDB EQ PUSH2 0x37E JUMPI DUP1 PUSH4 0xE7B668B4 EQ PUSH2 0x3A7 JUMPI DUP1 PUSH4 0xEF068A7F EQ PUSH2 0x3D0 JUMPI PUSH2 0xFE JUMP JUMPDEST DUP1 PUSH4 0x81D12C58 EQ PUSH2 0x288 JUMPI DUP1 PUSH4 0x82FDE093 EQ PUSH2 0x2CA JUMPI DUP1 PUSH4 0xAAFFADF3 EQ PUSH2 0x2F5 JUMPI DUP1 PUSH4 0xC5C4744C EQ PUSH2 0x320 JUMPI PUSH2 0xFE JUMP JUMPDEST DUP1 PUSH4 0x3410452A GT PUSH2 0xD1 JUMPI DUP1 PUSH4 0x3410452A EQ PUSH2 0x1D3 JUMPI DUP1 PUSH4 0x4051DDAC EQ PUSH2 0x1FE JUMPI DUP1 PUSH4 0x481C6A75 EQ PUSH2 0x232 JUMPI DUP1 PUSH4 0x5B18056B EQ PUSH2 0x25D JUMPI PUSH2 0xFE JUMP JUMPDEST DUP1 PUSH4 0x724FDA9 EQ PUSH2 0x103 JUMPI DUP1 PUSH4 0xA144391 EQ PUSH2 0x12E JUMPI DUP1 PUSH4 0x110842CB EQ PUSH2 0x16B JUMPI DUP1 PUSH4 0x1C189D18 EQ PUSH2 0x196 JUMPI JUMPDEST PUSH1 0x0 DUP1 REVERT JUMPDEST CALLVALUE DUP1 ISZERO PUSH2 0x10F JUMPI PUSH1 0x0 DUP1 REVERT JUMPDEST POP PUSH2 0x118 PUSH2 0x3FB JUMP JUMPDEST PUSH1 0x40 MLOAD PUSH2 0x125 SWAP2 SWAP1 PUSH2 0xE62 JUMP JUMPDEST PUSH1 0x40 MLOAD DUP1 SWAP2 SUB SWAP1 RETURN JUMPDEST CALLVALUE DUP1 ISZERO PUSH2 0x13A JUMPI PUSH1 0x0 DUP1 REVERT JUMPDEST POP PUSH2 0x155 PUSH1 0x4 DUP1 CALLDATASIZE SUB DUP2 ADD SWAP1 PUSH2 0x150 SWAP2 SWAP1 PUSH2 0xEF6 JUMP JUMPDEST PUSH2 0x489 JUMP JUMPDEST PUSH1 0x40 MLOAD PUSH2 0x162 SWAP2 SWAP1 PUSH2 0xF3E JUMP JUMPDEST PUSH1 0x40 MLOAD DUP1 SWAP2 SUB SWAP1 RETURN JUMPDEST CALLVALUE DUP1 ISZERO PUSH2 0x177 JUMPI PUSH1 0x0 DUP1 REVERT JUMPDEST POP PUSH2 0x180 PUSH2 0x4A9 JUMP JUMPDEST PUSH1 0x40 MLOAD PUSH2 0x18D SWAP2 SWAP1 PUSH2 0xE62 JUMP JUMPDEST PUSH1 0x40 MLOAD DUP1 SWAP2 SUB SWAP1 RETURN JUMPDEST CALLVALUE DUP1 ISZERO PUSH2 0x1A2 JUMPI PUSH1 0x0 DUP1 REVERT JUMPDEST POP PUSH2 0x1BD PUSH1 0x4 DUP1 CALLDATASIZE SUB DUP2 ADD SWAP1 PUSH2 0x1B8 SWAP2 SWAP1 PUSH2 0xF8F JUMP JUMPDEST PUSH2 0x537 JUMP JUMPDEST PUSH1 0x40 MLOAD PUSH2 0x1CA SWAP2 SWAP1 PUSH2 0xF3E JUMP JUMPDEST PUSH1 0x40 MLOAD DUP1 SWAP2 SUB SWAP1 RETURN JUMPDEST CALLVALUE DUP1 ISZERO PUSH2 0x1DF JUMPI PUSH1 0x0 DUP1 REVERT JUMPDEST POP PUSH2 0x1E8 PUSH2 0x5B1 JUMP JUMPDEST PUSH1 0x40 MLOAD PUSH2 0x1F5 SWAP2 SWAP1 PUSH2 0xFDE JUMP JUMPDEST PUSH1 0x40 MLOAD DUP1 SWAP2 SUB SWAP1 RETURN JUMPDEST CALLVALUE DUP1 ISZERO PUSH2 0x20A JUMPI PUSH1 0x0 DUP1 REVERT JUMPDEST POP PUSH2 0x213 PUSH2 0x5BE JUMP JUMPDEST PUSH1 0x40 MLOAD PUSH2 0x229 SWAP11 SWAP10 SWAP9 SWAP8 SWAP7 SWAP6 SWAP5 SWAP4 SWAP3 SWAP2 SWAP1 PUSH2 0x1008 JUMP JUMPDEST PUSH1 0x40 MLOAD DUP1 SWAP2 SUB SWAP1 RETURN JUMPDEST CALLVALUE DUP1 ISZERO PUSH2 0x23E JUMPI PUSH1 0x0 DUP1 REVERT JUMPDEST POP PUSH2 0x247 PUSH2 0x740 JUMP JUMPDEST PUSH1 0x40 MLOAD PUSH2 0x254 SWAP2 SWAP1 PUSH2 0x10B2 JUMP JUMPDEST PUSH1 0x40 MLOAD DUP1 SWAP2 SUB SWAP1 RETURN JUMPDEST CALLVALUE DUP1 ISZERO PUSH2 0x269 JUMPI PUSH1 0x0 DUP1 REVERT JUMPDEST POP PUSH2 0x272 PUSH2 0x764 JUMP JUMPDEST PUSH1 0x40 MLOAD PUSH2 0x27F SWAP2 SWAP1 PUSH2 0xFDE JUMP JUMPDEST PUSH1 0x40 MLOAD DUP1 SWAP2 SUB SWAP1 RETURN JUMPDEST CALLVALUE DUP1 ISZERO PUSH2 0x294 JUMPI PUSH1 0x0 DUP1 REVERT JUMPDEST POP PUSH2 0x2AF PUSH1 0x4 DUP1 CALLDATASIZE SUB DUP2 ADD SWAP1 PUSH2 0x2AA SWAP2 SWAP1 PUSH2 0x10CD JUMP JUMPDEST PUSH2 0x76A JUMP JUMPDEST PUSH1 0x40 MLOAD PUSH2 0x2C1 SWAP7 SWAP6 SWAP5 SWAP4 SWAP3 SWAP2 SWAP1 PUSH2 0x111B JUMP JUMPDEST PUSH1 0x40 MLOAD DUP1 SWAP2 SUB SWAP1 RETURN JUMPDEST CALLVALUE DUP1 ISZERO PUSH2 0x2D6 JUMPI PUSH1 0x0 DUP1 REVERT JUMPDEST POP PUSH2 0x2DF PUSH2 0x8F3 JUMP JUMPDEST PUSH1 0x40 MLOAD PUSH2 0x2EC SWAP2 SWAP1 PUSH2 0xFDE JUMP JUMPDEST PUSH1 0x40 MLOAD DUP1 SWAP2 SUB SWAP1 RETURN JUMPDEST CALLVALUE DUP1 ISZERO PUSH2 0x301 JUMPI PUSH1 0x0 DUP1 REVERT JUMPDEST POP PUSH2 0x30A PUSH2 0x8F9 JUMP JUMPDEST PUSH1 0x40 MLOAD PUSH2 0x317 SWAP2 SWAP1 PUSH2 0xFDE JUMP JUMPDEST PUSH1 0x40 MLOAD DUP1 SWAP2 SUB SWAP1 RETURN JUMPDEST CALLVALUE DUP1 ISZERO PUSH2 0x32C JUMPI PUSH1 0x0 DUP1 REVERT JUMPDEST POP PUSH2 0x335 PUSH2 0x8FF JUMP JUMPDEST PUSH1 0x40 MLOAD PUSH2 0x342 SWAP2 SWAP1 PUSH2 0xFDE JUMP JUMPDEST PUSH1 0x40 MLOAD DUP1 SWAP2 SUB SWAP1 RETURN JUMPDEST CALLVALUE DUP1 ISZERO PUSH2 0x357 JUMPI PUSH1 0x0 DUP1 REVERT JUMPDEST POP PUSH2 0x372 PUSH1 0x4 DUP1 CALLDATASIZE SUB DUP2 ADD SWAP1 PUSH2 0x36D SWAP2 SWAP1 PUSH2 0x12EB JUMP JUMPDEST PUSH2 0x905 JUMP JUMPDEST STOP JUMPDEST PUSH2 0x37C PUSH2 0xA2E JUMP JUMPDEST STOP JUMPDEST CALLVALUE DUP1 ISZERO PUSH2 0x38A JUMPI PUSH1 0x0 DUP1 REVERT JUMPDEST POP PUSH2 0x3A5 PUSH1 0x4 DUP1 CALLDATASIZE SUB DUP2 ADD SWAP1 PUSH2 0x3A0 SWAP2 SWAP1 PUSH2 0x10CD JUMP JUMPDEST PUSH2 0xB37 JUMP JUMPDEST STOP JUMPDEST CALLVALUE DUP1 ISZERO PUSH2 0x3B3 JUMPI PUSH1 0x0 DUP1 REVERT JUMPDEST POP PUSH2 0x3CE PUSH1 0x4 DUP1 CALLDATASIZE SUB DUP2 ADD SWAP1 PUSH2 0x3C9 SWAP2 SWAP1 PUSH2 0x10CD JUMP JUMPDEST PUSH2 0xC84 JUMP JUMPDEST STOP JUMPDEST CALLVALUE DUP1 ISZERO PUSH2 0x3DC JUMPI PUSH1 0x0 DUP1 REVERT JUMPDEST POP PUSH2 0x3E5 PUSH2 0xDCC JUMP JUMPDEST PUSH1 0x40 MLOAD PUSH2 0x3F2 SWAP2 SWAP1 PUSH2 0xFDE JUMP JUMPDEST PUSH1 0x40 MLOAD DUP1 SWAP2 SUB SWAP1 RETURN JUMPDEST PUSH1 0x1 DUP1 SLOAD PUSH2 0x408 SWAP1 PUSH2 0x13B9 JUMP JUMPDEST DUP1 PUSH1 0x1F ADD PUSH1 0x20 DUP1 SWAP2 DIV MUL PUSH1 0x20 ADD PUSH1 0x40 MLOAD SWAP1 DUP2 ADD PUSH1 0x40 MSTORE DUP1 SWAP3 SWAP2 SWAP1 DUP2 DUP2 MSTORE PUSH1 0x20 ADD DUP3 DUP1 SLOAD PUSH2 0x434 SWAP1 PUSH2 0x13B9 JUMP JUMPDEST DUP1 ISZERO PUSH2 0x481 JUMPI DUP1 PUSH1 0x1F LT PUSH2 0x456 JUMPI PUSH2 0x100 DUP1 DUP4 SLOAD DIV MUL DUP4 MSTORE SWAP2 PUSH1 0x20 ADD SWAP2 PUSH2 0x481 JUMP JUMPDEST DUP3 ADD SWAP2 SWAP1 PUSH1 0x0 MSTORE PUSH1 0x20 PUSH1 0x0 KECCAK256 SWAP1 JUMPDEST DUP2 SLOAD DUP2 MSTORE SWAP1 PUSH1 0x1 ADD SWAP1 PUSH1 0x20 ADD DUP1 DUP4 GT PUSH2 0x464 JUMPI DUP3 SWAP1 SUB PUSH1 0x1F AND DUP3 ADD SWAP2 JUMPDEST POP POP POP POP POP DUP2 JUMP JUMPDEST PUSH1 0x6 PUSH1 0x20 MSTORE DUP1 PUSH1 0x0 MSTORE PUSH1 0x40 PUSH1 0x0 KECCAK256 PUSH1 0x0 SWAP2 POP SLOAD SWAP1 PUSH2 0x100 EXP SWAP1 DIV PUSH1 0xFF AND DUP2 JUMP JUMPDEST PUSH1 0x2 DUP1 SLOAD PUSH2 0x4B6 SWAP1 PUSH2 0x13B9 JUMP JUMPDEST DUP1 PUSH1 0x1F ADD PUSH1 0x20 DUP1 SWAP2 DIV MUL PUSH1 0x20 ADD PUSH1 0x40 MLOAD SWAP1 DUP2 ADD PUSH1 0x40 MSTORE DUP1 SWAP3 SWAP2 SWAP1 DUP2 DUP2 MSTORE PUSH1 0x20 ADD DUP3 DUP1 SLOAD PUSH2 0x4E2 SWAP1 PUSH2 0x13B9 JUMP JUMPDEST DUP1 ISZERO PUSH2 0x52F JUMPI DUP1 PUSH1 0x1F LT PUSH2 0x504 JUMPI PUSH2 0x100 DUP1 DUP4 SLOAD DIV MUL DUP4 MSTORE SWAP2 PUSH1 0x20 ADD SWAP2 PUSH2 0x52F JUMP JUMPDEST DUP3 ADD SWAP2 SWAP1 PUSH1 0x0 MSTORE PUSH1 0x20 PUSH1 0x0 KECCAK256 SWAP1 JUMPDEST DUP2 SLOAD DUP2 MSTORE SWAP1 PUSH1 0x1 ADD SWAP1 PUSH1 0x20 ADD DUP1 DUP4 GT PUSH2 0x512 JUMPI DUP3 SWAP1 SUB PUSH1 0x1F AND DUP3 ADD SWAP2 JUMPDEST POP POP POP POP POP DUP2 JUMP JUMPDEST PUSH1 0x0 PUSH1 0x8 DUP3 DUP2 SLOAD DUP2 LT PUSH2 0x54D JUMPI PUSH2 0x54C PUSH2 0x13EA JUMP JUMPDEST JUMPDEST SWAP1 PUSH1 0x0 MSTORE PUSH1 0x20 PUSH1 0x0 KECCAK256 SWAP1 PUSH1 0x6 MUL ADD PUSH1 0x5 ADD PUSH1 0x0 DUP5 PUSH20 0xFFFFFFFFFFFFFFFFFFFFFFFFFFFFFFFFFFFFFFFF AND PUSH20 0xFFFFFFFFFFFFFFFFFFFFFFFFFFFFFFFFFFFFFFFF AND DUP2 MSTORE PUSH1 0x20 ADD SWAP1 DUP2 MSTORE PUSH1 0x20 ADD PUSH1 0x0 KECCAK256 PUSH1 0x0 SWAP1 SLOAD SWAP1 PUSH2 0x100 EXP SWAP1 DIV PUSH1 0xFF AND SWAP1 POP SWAP3 SWAP2 POP POP JUMP JUMPDEST PUSH1 0x0 PUSH1 0x8 DUP1 SLOAD SWAP1 POP SWAP1 POP SWAP1 JUMP JUMPDEST PUSH1 0x60 DUP1 PUSH1 0x0 DUP1 PUSH1 0x0 DUP1 PUSH1 0x0 DUP1 PUSH1 0x0 DUP1 PUSH1 0x1 PUSH1 0x2 PUSH1 0x3 SLOAD PUSH1 0x5 SLOAD PUSH1 0x4 SLOAD PUSH1 0x9 SLOAD SELFBALANCE PUSH1 0x8 DUP1 SLOAD SWAP1 POP PUSH1 0x7 SLOAD PUSH1 0x0 DUP1 SLOAD SWAP1 PUSH2 0x100 EXP SWAP1 DIV PUSH20 0xFFFFFFFFFFFFFFFFFFFFFFFFFFFFFFFFFFFFFFFF AND DUP10 DUP1 SLOAD PUSH2 0x614 SWAP1 PUSH2 0x13B9 JUMP JUMPDEST DUP1 PUSH1 0x1F ADD PUSH1 0x20 DUP1 SWAP2 DIV MUL PUSH1 0x20 ADD PUSH1 0x40 MLOAD SWAP1 DUP2 ADD PUSH1 0x40 MSTORE DUP1 SWAP3 SWAP2 SWAP1 DUP2 DUP2 MSTORE PUSH1 0x20 ADD DUP3 DUP1 SLOAD PUSH2 0x640 SWAP1 PUSH2 0x13B9 JUMP JUMPDEST DUP1 ISZERO PUSH2 0x68D JUMPI DUP1 PUSH1 0x1F LT PUSH2 0x662 JUMPI PUSH2 0x100 DUP1 DUP4 SLOAD DIV MUL DUP4 MSTORE SWAP2 PUSH1 0x20 ADD SWAP2 PUSH2 0x68D JUMP JUMPDEST DUP3 ADD SWAP2 SWAP1 PUSH1 0x0 MSTORE PUSH1 0x20 PUSH1 0x0 KECCAK256 SWAP1 JUMPDEST DUP2 SLOAD DUP2 MSTORE SWAP1 PUSH1 0x1 ADD SWAP1 PUSH1 0x20 ADD DUP1 DUP4 GT PUSH2 0x670 JUMPI DUP3 SWAP1 SUB PUSH1 0x1F AND DUP3 ADD SWAP2 JUMPDEST POP POP POP POP POP SWAP10 POP DUP9 DUP1 SLOAD PUSH2 0x6A0 SWAP1 PUSH2 0x13B9 JUMP JUMPDEST DUP1 PUSH1 0x1F ADD PUSH1 0x20 DUP1 SWAP2 DIV MUL PUSH1 0x20 ADD PUSH1 0x40 MLOAD SWAP1 DUP2 ADD PUSH1 0x40 MSTORE DUP1 SWAP3 SWAP2 SWAP1 DUP2 DUP2 MSTORE PUSH1 0x20 ADD DUP3 DUP1 SLOAD PUSH2 0x6CC SWAP1 PUSH2 0x13B9 JUMP JUMPDEST DUP1 ISZERO PUSH2 0x719 JUMPI DUP1 PUSH1 0x1F LT PUSH2 0x6EE JUMPI PUSH2 0x100 DUP1 DUP4 SLOAD DIV MUL DUP4 MSTORE SWAP2 PUSH1 0x20 ADD SWAP2 PUSH2 0x719 JUMP JUMPDEST DUP3 ADD SWAP2 SWAP1 PUSH1 0x0 MSTORE PUSH1 0x20 PUSH1 0x0 KECCAK256 SWAP1 JUMPDEST DUP2 SLOAD DUP2 MSTORE SWAP1 PUSH1 0x1 ADD SWAP1 PUSH1 0x20 ADD DUP1 DUP4 GT PUSH2 0x6FC JUMPI DUP3 SWAP1 SUB PUSH1 0x1F AND DUP3 ADD SWAP2 JUMPDEST POP POP POP POP POP SWAP9 POP SWAP10 POP SWAP10 POP SWAP10 POP SWAP10 POP SWAP10 POP SWAP10 POP SWAP10 POP SWAP10 POP SWAP10 POP SWAP10 POP SWAP1 SWAP2 SWAP3 SWAP4 SWAP5 SWAP6 SWAP7 SWAP8 SWAP9 SWAP10 JUMP JUMPDEST PUSH1 0x0 DUP1 SLOAD SWAP1 PUSH2 0x100 EXP SWAP1 DIV PUSH20 0xFFFFFFFFFFFFFFFFFFFFFFFFFFFFFFFFFFFFFFFF AND DUP2 JUMP JUMPDEST PUSH1 0x5 SLOAD DUP2 JUMP JUMPDEST PUSH1 0x8 DUP2 DUP2 SLOAD DUP2 LT PUSH2 0x77A JUMPI PUSH1 0x0 DUP1 REVERT JUMPDEST SWAP1 PUSH1 0x0 MSTORE PUSH1 0x20 PUSH1 0x0 KECCAK256 SWAP1 PUSH1 0x6 MUL ADD PUSH1 0x0 SWAP2 POP SWAP1 POP DUP1 PUSH1 0x0 ADD DUP1 SLOAD PUSH2 0x79D SWAP1 PUSH2 0x13B9 JUMP JUMPDEST DUP1 PUSH1 0x1F ADD PUSH1 0x20 DUP1 SWAP2 DIV MUL PUSH1 0x20 ADD PUSH1 0x40 MLOAD SWAP1 DUP2 ADD PUSH1 0x40 MSTORE DUP1 SWAP3 SWAP2 SWAP1 DUP2 DUP2 MSTORE PUSH1 0x20 ADD DUP3 DUP1 SLOAD PUSH2 0x7C9 SWAP1 PUSH2 0x13B9 JUMP JUMPDEST DUP1 ISZERO PUSH2 0x816 JUMPI DUP1 PUSH1 0x1F LT PUSH2 0x7EB JUMPI PUSH2 0x100 DUP1 DUP4 SLOAD DIV MUL DUP4 MSTORE SWAP2 PUSH1 0x20 ADD SWAP2 PUSH2 0x816 JUMP JUMPDEST DUP3 ADD SWAP2 SWAP1 PUSH1 0x0 MSTORE PUSH1 0x20 PUSH1 0x0 KECCAK256 SWAP1 JUMPDEST DUP2 SLOAD DUP2 MSTORE SWAP1 PUSH1 0x1 ADD SWAP1 PUSH1 0x20 ADD DUP1 DUP4 GT PUSH2 0x7F9 JUMPI DUP3 SWAP1 SUB PUSH1 0x1F AND DUP3 ADD SWAP2 JUMPDEST POP POP POP POP POP SWAP1 DUP1 PUSH1 0x1 ADD DUP1 SLOAD PUSH2 0x82B SWAP1 PUSH2 0x13B9 JUMP JUMPDEST DUP1 PUSH1 0x1F ADD PUSH1 0x20 DUP1 SWAP2 DIV MUL PUSH1 0x20 ADD PUSH1 0x40 MLOAD SWAP1 DUP2 ADD PUSH1 0x40 MSTORE DUP1 SWAP3 SWAP2 SWAP1 DUP2 DUP2 MSTORE PUSH1 0x20 ADD DUP3 DUP1 SLOAD PUSH2 0x857 SWAP1 PUSH2 0x13B9 JUMP JUMPDEST DUP1 ISZERO PUSH2 0x8A4 JUMPI DUP1 PUSH1 0x1F LT PUSH2 0x879 JUMPI PUSH2 0x100 DUP1 DUP4 SLOAD DIV MUL DUP4 MSTORE SWAP2 PUSH1 0x20 ADD SWAP2 PUSH2 0x8A4 JUMP JUMPDEST DUP3 ADD SWAP2 SWAP1 PUSH1 0x0 MSTORE PUSH1 0x20 PUSH1 0x0 KECCAK256 SWAP1 JUMPDEST DUP2 SLOAD DUP2 MSTORE SWAP1 PUSH1 0x1 ADD SWAP1 PUSH1 0x20 ADD DUP1 DUP4 GT PUSH2 0x887 JUMPI DUP3 SWAP1 SUB PUSH1 0x1F AND DUP3 ADD SWAP2 JUMPDEST POP POP POP POP POP SWAP1 DUP1 PUSH1 0x2 ADD SLOAD SWAP1 DUP1 PUSH1 0x3 ADD PUSH1 0x0 SWAP1 SLOAD SWAP1 PUSH2 0x100 EXP SWAP1 DIV PUSH20 0xFFFFFFFFFFFFFFFFFFFFFFFFFFFFFFFFFFFFFFFF AND SWAP1 DUP1 PUSH1 0x3 ADD PUSH1 0x14 SWAP1 SLOAD SWAP1 PUSH2 0x100 EXP SWAP1 DIV PUSH1 0xFF AND SWAP1 DUP1 PUSH1 0x4 ADD SLOAD SWAP1 POP DUP7 JUMP JUMPDEST PUSH1 0x7 SLOAD DUP2 JUMP JUMPDEST PUSH1 0x4 SLOAD DUP2 JUMP JUMPDEST PUSH1 0x9 SLOAD DUP2 JUMP JUMPDEST PUSH1 0x0 DUP1 SLOAD SWAP1 PUSH2 0x100 EXP SWAP1 DIV PUSH20 0xFFFFFFFFFFFFFFFFFFFFFFFFFFFFFFFFFFFFFFFF AND PUSH20 0xFFFFFFFFFFFFFFFFFFFFFFFFFFFFFFFFFFFFFFFF AND CALLER PUSH20 0xFFFFFFFFFFFFFFFFFFFFFFFFFFFFFFFFFFFFFFFF AND EQ PUSH2 0x95D JUMPI PUSH1 0x0 DUP1 REVERT JUMPDEST PUSH1 0x3 SLOAD SELFBALANCE LT ISZERO PUSH2 0x96C JUMPI PUSH1 0x0 DUP1 REVERT JUMPDEST PUSH1 0x0 PUSH1 0x8 PUSH1 0x1 DUP2 PUSH1 0x1 DUP2 SLOAD ADD DUP1 DUP3 SSTORE DUP1 SWAP2 POP POP SUB SWAP1 PUSH1 0x0 MSTORE PUSH1 0x20 PUSH1 0x0 KECCAK256 SWAP1 PUSH1 0x6 MUL ADD SWAP1 POP DUP5 DUP2 PUSH1 0x0 ADD SWAP1 DUP2 PUSH2 0x9A1 SWAP2 SWAP1 PUSH2 0x15C5 JUMP JUMPDEST POP DUP4 DUP2 PUSH1 0x1 ADD SWAP1 DUP2 PUSH2 0x9B3 SWAP2 SWAP1 PUSH2 0x15C5 JUMP JUMPDEST POP DUP3 DUP2 PUSH1 0x2 ADD DUP2 SWAP1 SSTORE POP DUP2 DUP2 PUSH1 0x3 ADD PUSH1 0x0 PUSH2 0x100 EXP DUP2 SLOAD DUP2 PUSH20 0xFFFFFFFFFFFFFFFFFFFFFFFFFFFFFFFFFFFFFFFF MUL NOT AND SWAP1 DUP4 PUSH20 0xFFFFFFFFFFFFFFFFFFFFFFFFFFFFFFFFFFFFFFFF AND MUL OR SWAP1 SSTORE POP PUSH1 0x0 DUP2 PUSH1 0x3 ADD PUSH1 0x14 PUSH2 0x100 EXP DUP2 SLOAD DUP2 PUSH1 0xFF MUL NOT AND SWAP1 DUP4 ISZERO ISZERO MUL OR SWAP1 SSTORE POP PUSH1 0x0 DUP2 PUSH1 0x4 ADD DUP2 SWAP1 SSTORE POP POP POP POP POP POP JUMP JUMPDEST PUSH1 0x0 PUSH1 0x6 PUSH1 0x0 CALLER PUSH20 0xFFFFFFFFFFFFFFFFFFFFFFFFFFFFFFFFFFFFFFFF AND PUSH20 0xFFFFFFFFFFFFFFFFFFFFFFFFFFFFFFFFFFFFFFFF AND DUP2 MSTORE PUSH1 0x20 ADD SWAP1 DUP2 MSTORE PUSH1 0x20 ADD PUSH1 0x0 KECCAK256 PUSH1 0x0 SWAP1 SLOAD SWAP1 PUSH2 0x100 EXP SWAP1 DIV PUSH1 0xFF AND SWAP1 POP DUP1 PUSH2 0xB03 JUMPI PUSH1 0x4 SLOAD CALLVALUE GT PUSH2 0xA92 JUMPI PUSH1 0x0 DUP1 REVERT JUMPDEST PUSH1 0x1 PUSH1 0x6 PUSH1 0x0 CALLER PUSH20 0xFFFFFFFFFFFFFFFFFFFFFFFFFFFFFFFFFFFFFFFF AND PUSH20 0xFFFFFFFFFFFFFFFFFFFFFFFFFFFFFFFFFFFFFFFF AND DUP2 MSTORE PUSH1 0x20 ADD SWAP1 DUP2 MSTORE PUSH1 0x20 ADD PUSH1 0x0 KECCAK256 PUSH1 0x0 PUSH2 0x100 EXP DUP2 SLOAD DUP2 PUSH1 0xFF MUL NOT AND SWAP1 DUP4 ISZERO ISZERO MUL OR SWAP1 SSTORE POP PUSH1 0x7 PUSH1 0x0 DUP2 SLOAD DUP1 SWAP3 SWAP2 SWAP1 PUSH2 0xAFD SWAP1 PUSH2 0x16C6 JUMP JUMPDEST SWAP2 SWAP1 POP SSTORE POP JUMPDEST CALLVALUE PUSH1 0x9 PUSH1 0x0 DUP3 DUP3 SLOAD PUSH2 0xB15 SWAP2 SWAP1 PUSH2 0x170E JUMP JUMPDEST SWAP3 POP POP DUP2 SWAP1 SSTORE POP PUSH1 0x5 PUSH1 0x0 DUP2 SLOAD DUP1 SWAP3 SWAP2 SWAP1 PUSH2 0xB2F SWAP1 PUSH2 0x16C6 JUMP JUMPDEST SWAP2 SWAP1 POP SSTORE POP POP JUMP JUMPDEST PUSH1 0x0 PUSH1 0x8 DUP3 DUP2 SLOAD DUP2 LT PUSH2 0xB4D JUMPI PUSH2 0xB4C PUSH2 0x13EA JUMP JUMPDEST JUMPDEST SWAP1 PUSH1 0x0 MSTORE PUSH1 0x20 PUSH1 0x0 KECCAK256 SWAP1 PUSH1 0x6 MUL ADD SWAP1 POP PUSH1 0x6 PUSH1 0x0 CALLER PUSH20 0xFFFFFFFFFFFFFFFFFFFFFFFFFFFFFFFFFFFFFFFF AND PUSH20 0xFFFFFFFFFFFFFFFFFFFFFFFFFFFFFFFFFFFFFFFF AND DUP2 MSTORE PUSH1 0x20 ADD SWAP1 DUP2 MSTORE PUSH1 0x20 ADD PUSH1 0x0 KECCAK256 PUSH1 0x0 SWAP1 SLOAD SWAP1 PUSH2 0x100 EXP SWAP1 DIV PUSH1 0xFF AND PUSH2 0xBB3 JUMPI PUSH1 0x0 DUP1 REVERT JUMPDEST DUP1 PUSH1 0x5 ADD PUSH1 0x0 CALLER PUSH20 0xFFFFFFFFFFFFFFFFFFFFFFFFFFFFFFFFFFFFFFFF AND PUSH20 0xFFFFFFFFFFFFFFFFFFFFFFFFFFFFFFFFFFFFFFFF AND DUP2 MSTORE PUSH1 0x20 ADD SWAP1 DUP2 MSTORE PUSH1 0x20 ADD PUSH1 0x0 KECCAK256 PUSH1 0x0 SWAP1 SLOAD SWAP1 PUSH2 0x100 EXP SWAP1 DIV PUSH1 0xFF AND ISZERO PUSH2 0xC0C JUMPI PUSH1 0x0 DUP1 REVERT JUMPDEST PUSH1 0x1 DUP2 PUSH1 0x5 ADD PUSH1 0x0 CALLER PUSH20 0xFFFFFFFFFFFFFFFFFFFFFFFFFFFFFFFFFFFFFFFF AND PUSH20 0xFFFFFFFFFFFFFFFFFFFFFFFFFFFFFFFFFFFFFFFF AND DUP2 MSTORE PUSH1 0x20 ADD SWAP1 DUP2 MSTORE PUSH1 0x20 ADD PUSH1 0x0 KECCAK256 PUSH1 0x0 PUSH2 0x100 EXP DUP2 SLOAD DUP2 PUSH1 0xFF MUL NOT AND SWAP1 DUP4 ISZERO ISZERO MUL OR SWAP1 SSTORE POP DUP1 PUSH1 0x4 ADD PUSH1 0x0 DUP2 SLOAD DUP1 SWAP3 SWAP2 SWAP1 PUSH2 0xC7B SWAP1 PUSH2 0x16C6 JUMP JUMPDEST SWAP2 SWAP1 POP SSTORE POP POP POP JUMP JUMPDEST PUSH1 0x0 DUP1 SLOAD SWAP1 PUSH2 0x100 EXP SWAP1 DIV PUSH20 0xFFFFFFFFFFFFFFFFFFFFFFFFFFFFFFFFFFFFFFFF AND PUSH20 0xFFFFFFFFFFFFFFFFFFFFFFFFFFFFFFFFFFFFFFFF AND CALLER PUSH20 0xFFFFFFFFFFFFFFFFFFFFFFFFFFFFFFFFFFFFFFFF AND EQ PUSH2 0xCDC JUMPI PUSH1 0x0 DUP1 REVERT JUMPDEST PUSH1 0x0 PUSH1 0x8 DUP3 DUP2 SLOAD DUP2 LT PUSH2 0xCF2 JUMPI PUSH2 0xCF1 PUSH2 0x13EA JUMP JUMPDEST JUMPDEST SWAP1 PUSH1 0x0 MSTORE PUSH1 0x20 PUSH1 0x0 KECCAK256 SWAP1 PUSH1 0x6 MUL ADD SWAP1 POP DUP1 PUSH1 0x3 ADD PUSH1 0x14 SWAP1 SLOAD SWAP1 PUSH2 0x100 EXP SWAP1 DIV PUSH1 0xFF AND ISZERO PUSH2 0xD1E JUMPI PUSH1 0x0 DUP1 REVERT JUMPDEST PUSH1 0x2 PUSH1 0x7 SLOAD PUSH2 0xD2D SWAP2 SWAP1 PUSH2 0x1771 JUMP JUMPDEST DUP2 PUSH1 0x4 ADD SLOAD GT PUSH2 0xD3C JUMPI PUSH1 0x0 DUP1 REVERT JUMPDEST DUP1 PUSH1 0x3 ADD PUSH1 0x0 SWAP1 SLOAD SWAP1 PUSH2 0x100 EXP SWAP1 DIV PUSH20 0xFFFFFFFFFFFFFFFFFFFFFFFFFFFFFFFFFFFFFFFF AND PUSH20 0xFFFFFFFFFFFFFFFFFFFFFFFFFFFFFFFFFFFFFFFF AND PUSH2 0x8FC DUP3 PUSH1 0x2 ADD SLOAD SWAP1 DUP2 ISZERO MUL SWAP1 PUSH1 0x40 MLOAD PUSH1 0x0 PUSH1 0x40 MLOAD DUP1 DUP4 SUB DUP2 DUP6 DUP9 DUP9 CALL SWAP4 POP POP POP POP ISZERO DUP1 ISZERO PUSH2 0xDAA JUMPI RETURNDATASIZE PUSH1 0x0 DUP1 RETURNDATACOPY RETURNDATASIZE PUSH1 0x0 REVERT JUMPDEST POP PUSH1 0x1 DUP2 PUSH1 0x3 ADD PUSH1 0x14 PUSH2 0x100 EXP DUP2 SLOAD DUP2 PUSH1 0xFF MUL NOT AND SWAP1 DUP4 ISZERO ISZERO MUL OR SWAP1 SSTORE POP POP POP JUMP JUMPDEST PUSH1 0x3 SLOAD DUP2 JUMP JUMPDEST PUSH1 0x0 DUP2 MLOAD SWAP1 POP SWAP2 SWAP1 POP JUMP JUMPDEST PUSH1 0x0 DUP3 DUP3 MSTORE PUSH1 0x20 DUP3 ADD SWAP1 POP SWAP3 SWAP2 POP POP JUMP JUMPDEST PUSH1 0x0 JUMPDEST DUP4 DUP2 LT ISZERO PUSH2 0xE0C JUMPI DUP1 DUP3 ADD MLOAD DUP2 DUP5 ADD MSTORE PUSH1 0x20 DUP2 ADD SWAP1 POP PUSH2 0xDF1 JUMP JUMPDEST PUSH1 0x0 DUP5 DUP5 ADD MSTORE POP POP POP POP JUMP JUMPDEST PUSH1 0x0 PUSH1 0x1F NOT PUSH1 0x1F DUP4 ADD AND SWAP1 POP SWAP2 SWAP1 POP JUMP JUMPDEST PUSH1 0x0 PUSH2 0xE34 DUP3 PUSH2 0xDD2 JUMP JUMPDEST PUSH2 0xE3E DUP2 DUP6 PUSH2 0xDDD JUMP JUMPDEST SWAP4 POP PUSH2 0xE4E DUP2 DUP6 PUSH1 0x20 DUP7 ADD PUSH2 0xDEE JUMP JUMPDEST PUSH2 0xE57 DUP2 PUSH2 0xE18 JUMP JUMPDEST DUP5 ADD SWAP2 POP POP SWAP3 SWAP2 POP POP JUMP JUMPDEST PUSH1 0x0 PUSH1 0x20 DUP3 ADD SWAP1 POP DUP2 DUP2 SUB PUSH1 0x0 DUP4 ADD MSTORE PUSH2 0xE7C DUP2 DUP5 PUSH2 0xE29 JUMP JUMPDEST SWAP1 POP SWAP3 SWAP2 POP POP JUMP JUMPDEST PUSH1 0x0 PUSH1 0x40 MLOAD SWAP1 POP SWAP1 JUMP JUMPDEST PUSH1 0x0 DUP1 REVERT JUMPDEST PUSH1 0x0 DUP1 REVERT JUMPDEST PUSH1 0x0 PUSH20 0xFFFFFFFFFFFFFFFFFFFFFFFFFFFFFFFFFFFFFFFF DUP3 AND SWAP1 POP SWAP2 SWAP1 POP JUMP JUMPDEST PUSH1 0x0 PUSH2 0xEC3 DUP3 PUSH2 0xE98 JUMP JUMPDEST SWAP1 POP SWAP2 SWAP1 POP JUMP JUMPDEST PUSH2 0xED3 DUP2 PUSH2 0xEB8 JUMP JUMPDEST DUP2 EQ PUSH2 0xEDE JUMPI PUSH1 0x0 DUP1 REVERT JUMPDEST POP JUMP JUMPDEST PUSH1 0x0 DUP2 CALLDATALOAD SWAP1 POP PUSH2 0xEF0 DUP2 PUSH2 0xECA JUMP JUMPDEST SWAP3 SWAP2 POP POP JUMP JUMPDEST PUSH1 0x0 PUSH1 0x20 DUP3 DUP5 SUB SLT ISZERO PUSH2 0xF0C JUMPI PUSH2 0xF0B PUSH2 0xE8E JUMP JUMPDEST JUMPDEST PUSH1 0x0 PUSH2 0xF1A DUP5 DUP3 DUP6 ADD PUSH2 0xEE1 JUMP JUMPDEST SWAP2 POP POP SWAP3 SWAP2 POP POP JUMP JUMPDEST PUSH1 0x0 DUP2 ISZERO ISZERO SWAP1 POP SWAP2 SWAP1 POP JUMP JUMPDEST PUSH2 0xF38 DUP2 PUSH2 0xF23 JUMP JUMPDEST DUP3 MSTORE POP POP JUMP JUMPDEST PUSH1 0x0 PUSH1 0x20 DUP3 ADD SWAP1 POP PUSH2 0xF53 PUSH1 0x0 DUP4 ADD DUP5 PUSH2 0xF2F JUMP JUMPDEST SWAP3 SWAP2 POP POP JUMP JUMPDEST PUSH1 0x0 DUP2 SWAP1 POP SWAP2 SWAP1 POP JUMP JUMPDEST PUSH2 0xF6C DUP2 PUSH2 0xF59 JUMP JUMPDEST DUP2 EQ PUSH2 0xF77 JUMPI PUSH1 0x0 DUP1 REVERT JUMPDEST POP JUMP JUMPDEST PUSH1 0x0 DUP2 CALLDATALOAD SWAP1 POP PUSH2 0xF89 DUP2 PUSH2 0xF63 JUMP JUMPDEST SWAP3 SWAP2 POP POP JUMP JUMPDEST PUSH1 0x0 DUP1 PUSH1 0x40 DUP4 DUP6 SUB SLT ISZERO PUSH2 0xFA6 JUMPI PUSH2 0xFA5 PUSH2 0xE8E JUMP JUMPDEST JUMPDEST PUSH1 0x0 PUSH2 0xFB4 DUP6 DUP3 DUP7 ADD PUSH2 0xEE1 JUMP JUMPDEST SWAP3 POP POP PUSH1 0x20 PUSH2 0xFC5 DUP6 DUP3 DUP7 ADD PUSH2 0xF7A JUMP JUMPDEST SWAP2 POP POP SWAP3 POP SWAP3 SWAP1 POP JUMP JUMPDEST PUSH2 0xFD8 DUP2 PUSH2 0xF59 JUMP JUMPDEST DUP3 MSTORE POP POP JUMP JUMPDEST PUSH1 0x0 PUSH1 0x20 DUP3 ADD SWAP1 POP PUSH2 0xFF3 PUSH1 0x0 DUP4 ADD DUP5 PUSH2 0xFCF JUMP JUMPDEST SWAP3 SWAP2 POP POP JUMP JUMPDEST PUSH2 0x1002 DUP2 PUSH2 0xEB8 JUMP JUMPDEST DUP3 MSTORE POP POP JUMP JUMPDEST PUSH1 0x0 PUSH2 0x140 DUP3 ADD SWAP1 POP DUP2 DUP2 SUB PUSH1 0x0 DUP4 ADD MSTORE PUSH2 0x1023 DUP2 DUP14 PUSH2 0xE29 JUMP JUMPDEST SWAP1 POP DUP2 DUP2 SUB PUSH1 0x20 DUP4 ADD MSTORE PUSH2 0x1037 DUP2 DUP13 PUSH2 0xE29 JUMP JUMPDEST SWAP1 POP PUSH2 0x1046 PUSH1 0x40 DUP4 ADD DUP12 PUSH2 0xFCF JUMP JUMPDEST PUSH2 0x1053 PUSH1 0x60 DUP4 ADD DUP11 PUSH2 0xFCF JUMP JUMPDEST PUSH2 0x1060 PUSH1 0x80 DUP4 ADD DUP10 PUSH2 0xFCF JUMP JUMPDEST PUSH2 0x106D PUSH1 0xA0 DUP4 ADD DUP9 PUSH2 0xFCF JUMP JUMPDEST PUSH2 0x107A PUSH1 0xC0 DUP4 ADD DUP8 PUSH2 0xFCF JUMP JUMPDEST PUSH2 0x1087 PUSH1 0xE0 DUP4 ADD DUP7 PUSH2 0xFCF JUMP JUMPDEST PUSH2 0x1095 PUSH2 0x100 DUP4 ADD DUP6 PUSH2 0xFCF JUMP JUMPDEST PUSH2 0x10A3 PUSH2 0x120 DUP4 ADD DUP5 PUSH2 0xFF9 JUMP JUMPDEST SWAP12 SWAP11 POP POP POP POP POP POP POP POP POP POP POP JUMP JUMPDEST PUSH1 0x0 PUSH1 0x20 DUP3 ADD SWAP1 POP PUSH2 0x10C7 PUSH1 0x0 DUP4 ADD DUP5 PUSH2 0xFF9 JUMP JUMPDEST SWAP3 SWAP2 POP POP JUMP JUMPDEST PUSH1 0x0 PUSH1 0x20 DUP3 DUP5 SUB SLT ISZERO PUSH2 0x10E3 JUMPI PUSH2 0x10E2 PUSH2 0xE8E JUMP JUMPDEST JUMPDEST PUSH1 0x0 PUSH2 0x10F1 DUP5 DUP3 DUP6 ADD PUSH2 0xF7A JUMP JUMPDEST SWAP2 POP POP SWAP3 SWAP2 POP POP JUMP JUMPDEST PUSH1 0x0 PUSH2 0x1105 DUP3 PUSH2 0xE98 JUMP JUMPDEST SWAP1 POP SWAP2 SWAP1 POP JUMP JUMPDEST PUSH2 0x1115 DUP2 PUSH2 0x10FA JUMP JUMPDEST DUP3 MSTORE POP POP JUMP JUMPDEST PUSH1 0x0 PUSH1 0xC0 DUP3 ADD SWAP1 POP DUP2 DUP2 SUB PUSH1 0x0 DUP4 ADD MSTORE PUSH2 0x1135 DUP2 DUP10 PUSH2 0xE29 JUMP JUMPDEST SWAP1 POP DUP2 DUP2 SUB PUSH1 0x20 DUP4 ADD MSTORE PUSH2 0x1149 DUP2 DUP9 PUSH2 0xE29 JUMP JUMPDEST SWAP1 POP PUSH2 0x1158 PUSH1 0x40 DUP4 ADD DUP8 PUSH2 0xFCF JUMP JUMPDEST PUSH2 0x1165 PUSH1 0x60 DUP4 ADD DUP7 PUSH2 0x110C JUMP JUMPDEST PUSH2 0x1172 PUSH1 0x80 DUP4 ADD DUP6 PUSH2 0xF2F JUMP JUMPDEST PUSH2 0x117F PUSH1 0xA0 DUP4 ADD DUP5 PUSH2 0xFCF JUMP JUMPDEST SWAP8 SWAP7 POP POP POP POP POP POP POP JUMP JUMPDEST PUSH1 0x0 DUP1 REVERT JUMPDEST PUSH1 0x0 DUP1 REVERT JUMPDEST PUSH32 0x4E487B7100000000000000000000000000000000000000000000000000000000 PUSH1 0x0 MSTORE PUSH1 0x41 PUSH1 0x4 MSTORE PUSH1 0x24 PUSH1 0x0 REVERT JUMPDEST PUSH2 0x11CC DUP3 PUSH2 0xE18 JUMP JUMPDEST DUP2 ADD DUP2 DUP2 LT PUSH8 0xFFFFFFFFFFFFFFFF DUP3 GT OR ISZERO PUSH2 0x11EB JUMPI PUSH2 0x11EA PUSH2 0x1194 JUMP JUMPDEST JUMPDEST DUP1 PUSH1 0x40 MSTORE POP POP POP JUMP JUMPDEST PUSH1 0x0 PUSH2 0x11FE PUSH2 0xE84 JUMP JUMPDEST SWAP1 POP PUSH2 0x120A DUP3 DUP3 PUSH2 0x11C3 JUMP JUMPDEST SWAP2 SWAP1 POP JUMP JUMPDEST PUSH1 0x0 PUSH8 0xFFFFFFFFFFFFFFFF DUP3 GT ISZERO PUSH2 0x122A JUMPI PUSH2 0x1229 PUSH2 0x1194 JUMP JUMPDEST JUMPDEST PUSH2 0x1233 DUP3 PUSH2 0xE18 JUMP JUMPDEST SWAP1 POP PUSH1 0x20 DUP2 ADD SWAP1 POP SWAP2 SWAP1 POP JUMP JUMPDEST DUP3 DUP2 DUP4 CALLDATACOPY PUSH1 0x0 DUP4 DUP4 ADD MSTORE POP POP POP JUMP JUMPDEST PUSH1 0x0 PUSH2 0x1262 PUSH2 0x125D DUP5 PUSH2 0x120F JUMP JUMPDEST PUSH2 0x11F4 JUMP JUMPDEST SWAP1 POP DUP3 DUP2 MSTORE PUSH1 0x20 DUP2 ADD DUP5 DUP5 DUP5 ADD GT ISZERO PUSH2 0x127E JUMPI PUSH2 0x127D PUSH2 0x118F JUMP JUMPDEST JUMPDEST PUSH2 0x1289 DUP5 DUP3 DUP6 PUSH2 0x1240 JUMP JUMPDEST POP SWAP4 SWAP3 POP POP POP JUMP JUMPDEST PUSH1 0x0 DUP3 PUSH1 0x1F DUP4 ADD SLT PUSH2 0x12A6 JUMPI PUSH2 0x12A5 PUSH2 0x118A JUMP JUMPDEST JUMPDEST DUP2 CALLDATALOAD PUSH2 0x12B6 DUP5 DUP3 PUSH1 0x20 DUP7 ADD PUSH2 0x124F JUMP JUMPDEST SWAP2 POP POP SWAP3 SWAP2 POP POP JUMP JUMPDEST PUSH2 0x12C8 DUP2 PUSH2 0x10FA JUMP JUMPDEST DUP2 EQ PUSH2 0x12D3 JUMPI PUSH1 0x0 DUP1 REVERT JUMPDEST POP JUMP JUMPDEST PUSH1 0x0 DUP2 CALLDATALOAD SWAP1 POP PUSH2 0x12E5 DUP2 PUSH2 0x12BF JUMP JUMPDEST SWAP3 SWAP2 POP POP JUMP JUMPDEST PUSH1 0x0 DUP1 PUSH1 0x0 DUP1 PUSH1 0x80 DUP6 DUP8 SUB SLT ISZERO PUSH2 0x1305 JUMPI PUSH2 0x1304 PUSH2 0xE8E JUMP JUMPDEST JUMPDEST PUSH1 0x0 DUP6 ADD CALLDATALOAD PUSH8 0xFFFFFFFFFFFFFFFF DUP2 GT ISZERO PUSH2 0x1323 JUMPI PUSH2 0x1322 PUSH2 0xE93 JUMP JUMPDEST JUMPDEST PUSH2 0x132F DUP8 DUP3 DUP9 ADD PUSH2 0x1291 JUMP JUMPDEST SWAP5 POP POP PUSH1 0x20 DUP6 ADD CALLDATALOAD PUSH8 0xFFFFFFFFFFFFFFFF DUP2 GT ISZERO PUSH2 0x1350 JUMPI PUSH2 0x134F PUSH2 0xE93 JUMP JUMPDEST JUMPDEST PUSH2 0x135C DUP8 DUP3 DUP9 ADD PUSH2 0x1291 JUMP JUMPDEST SWAP4 POP POP PUSH1 0x40 PUSH2 0x136D DUP8 DUP3 DUP9 ADD PUSH2 0xF7A JUMP JUMPDEST SWAP3 POP POP PUSH1 0x60 PUSH2 0x137E DUP8 DUP3 DUP9 ADD PUSH2 0x12D6 JUMP JUMPDEST SWAP2 POP POP SWAP3 SWAP6 SWAP2 SWAP5 POP SWAP3 POP JUMP JUMPDEST PUSH32 0x4E487B7100000000000000000000000000000000000000000000000000000000 PUSH1 0x0 MSTORE PUSH1 0x22 PUSH1 0x4 MSTORE PUSH1 0x24 PUSH1 0x0 REVERT JUMPDEST PUSH1 0x0 PUSH1 0x2 DUP3 DIV SWAP1 POP PUSH1 0x1 DUP3 AND DUP1 PUSH2 0x13D1 JUMPI PUSH1 0x7F DUP3 AND SWAP2 POP JUMPDEST PUSH1 0x20 DUP3 LT DUP2 SUB PUSH2 0x13E4 JUMPI PUSH2 0x13E3 PUSH2 0x138A JUMP JUMPDEST JUMPDEST POP SWAP2 SWAP1 POP JUMP JUMPDEST PUSH32 0x4E487B7100000000000000000000000000000000000000000000000000000000 PUSH1 0x0 MSTORE PUSH1 0x32 PUSH1 0x4 MSTORE PUSH1 0x24 PUSH1 0x0 REVERT JUMPDEST PUSH1 0x0 DUP2 SWAP1 POP DUP2 PUSH1 0x0 MSTORE PUSH1 0x20 PUSH1 0x0 KECCAK256 SWAP1 POP SWAP2 SWAP1 POP JUMP JUMPDEST PUSH1 0x0 PUSH1 0x20 PUSH1 0x1F DUP4 ADD DIV SWAP1 POP SWAP2 SWAP1 POP JUMP JUMPDEST PUSH1 0x0 DUP3 DUP3 SHL SWAP1 POP SWAP3 SWAP2 POP POP JUMP JUMPDEST PUSH1 0x0 PUSH1 0x8 DUP4 MUL PUSH2 0x147B PUSH32 0xFFFFFFFFFFFFFFFFFFFFFFFFFFFFFFFFFFFFFFFFFFFFFFFFFFFFFFFFFFFFFFFF DUP3 PUSH2 0x143E JUMP JUMPDEST PUSH2 0x1485 DUP7 DUP4 PUSH2 0x143E JUMP JUMPDEST SWAP6 POP DUP1 NOT DUP5 AND SWAP4 POP DUP1 DUP7 AND DUP5 OR SWAP3 POP POP POP SWAP4 SWAP3 POP POP POP JUMP JUMPDEST PUSH1 0x0 DUP2 SWAP1 POP SWAP2 SWAP1 POP JUMP JUMPDEST PUSH1 0x0 PUSH2 0x14C2 PUSH2 0x14BD PUSH2 0x14B8 DUP5 PUSH2 0xF59 JUMP JUMPDEST PUSH2 0x149D JUMP JUMPDEST PUSH2 0xF59 JUMP JUMPDEST SWAP1 POP SWAP2 SWAP1 POP JUMP JUMPDEST PUSH1 0x0 DUP2 SWAP1 POP SWAP2 SWAP1 POP JUMP JUMPDEST PUSH2 0x14DC DUP4 PUSH2 0x14A7 JUMP JUMPDEST PUSH2 0x14F0 PUSH2 0x14E8 DUP3 PUSH2 0x14C9 JUMP JUMPDEST DUP5 DUP5 SLOAD PUSH2 0x144B JUMP JUMPDEST DUP3 SSTORE POP POP POP POP JUMP JUMPDEST PUSH1 0x0 SWAP1 JUMP JUMPDEST PUSH2 0x1505 PUSH2 0x14F8 JUMP JUMPDEST PUSH2 0x1510 DUP2 DUP5 DUP5 PUSH2 0x14D3 JUMP JUMPDEST POP POP POP JUMP JUMPDEST JUMPDEST DUP2 DUP2 LT ISZERO PUSH2 0x1534 JUMPI PUSH2 0x1529 PUSH1 0x0 DUP3 PUSH2 0x14FD JUMP JUMPDEST PUSH1 0x1 DUP2 ADD SWAP1 POP PUSH2 0x1516 JUMP JUMPDEST POP POP JUMP JUMPDEST PUSH1 0x1F DUP3 GT ISZERO PUSH2 0x1579 JUMPI PUSH2 0x154A DUP2 PUSH2 0x1419 JUMP JUMPDEST PUSH2 0x1553 DUP5 PUSH2 0x142E JUMP JUMPDEST DUP2 ADD PUSH1 0x20 DUP6 LT ISZERO PUSH2 0x1562 JUMPI DUP2 SWAP1 POP JUMPDEST PUSH2 0x1576 PUSH2 0x156E DUP6 PUSH2 0x142E JUMP JUMPDEST DUP4 ADD DUP3 PUSH2 0x1515 JUMP JUMPDEST POP POP JUMPDEST POP POP POP JUMP JUMPDEST PUSH1 0x0 DUP3 DUP3 SHR SWAP1 POP SWAP3 SWAP2 POP POP JUMP JUMPDEST PUSH1 0x0 PUSH2 0x159C PUSH1 0x0 NOT DUP5 PUSH1 0x8 MUL PUSH2 0x157E JUMP JUMPDEST NOT DUP1 DUP4 AND SWAP2 POP POP SWAP3 SWAP2 POP POP JUMP JUMPDEST PUSH1 0x0 PUSH2 0x15B5 DUP4 DUP4 PUSH2 0x158B JUMP JUMPDEST SWAP2 POP DUP3 PUSH1 0x2 MUL DUP3 OR SWAP1 POP SWAP3 SWAP2 POP POP JUMP JUMPDEST PUSH2 0x15CE DUP3 PUSH2 0xDD2 JUMP JUMPDEST PUSH8 0xFFFFFFFFFFFFFFFF DUP2 GT ISZERO PUSH2 0x15E7 JUMPI PUSH2 0x15E6 PUSH2 0x1194 JUMP JUMPDEST JUMPDEST PUSH2 0x15F1 DUP3 SLOAD PUSH2 0x13B9 JUMP JUMPDEST PUSH2 0x15FC DUP3 DUP3 DUP6 PUSH2 0x1538 JUMP JUMPDEST PUSH1 0x0 PUSH1 0x20 SWAP1 POP PUSH1 0x1F DUP4 GT PUSH1 0x1 DUP2 EQ PUSH2 0x162F JUMPI PUSH1 0x0 DUP5 ISZERO PUSH2 0x161D JUMPI DUP3 DUP8 ADD MLOAD SWAP1 POP JUMPDEST PUSH2 0x1627 DUP6 DUP3 PUSH2 0x15A9 JUMP JUMPDEST DUP7 SSTORE POP PUSH2 0x168F JUMP JUMPDEST PUSH1 0x1F NOT DUP5 AND PUSH2 0x163D DUP7 PUSH2 0x1419 JUMP JUMPDEST PUSH1 0x0 JUMPDEST DUP3 DUP2 LT ISZERO PUSH2 0x1665 JUMPI DUP5 DUP10 ADD MLOAD DUP3 SSTORE PUSH1 0x1 DUP3 ADD SWAP2 POP PUSH1 0x20 DUP6 ADD SWAP5 POP PUSH1 0x20 DUP2 ADD SWAP1 POP PUSH2 0x1640 JUMP JUMPDEST DUP7 DUP4 LT ISZERO PUSH2 0x1682 JUMPI DUP5 DUP10 ADD MLOAD PUSH2 0x167E PUSH1 0x1F DUP10 AND DUP3 PUSH2 0x158B JUMP JUMPDEST DUP4 SSTORE POP JUMPDEST PUSH1 0x1 PUSH1 0x2 DUP9 MUL ADD DUP9 SSTORE POP POP POP JUMPDEST POP POP POP POP POP POP JUMP JUMPDEST PUSH32 0x4E487B7100000000000000000000000000000000000000000000000000000000 PUSH1 0x0 MSTORE PUSH1 0x11 PUSH1 0x4 MSTORE PUSH1 0x24 PUSH1 0x0 REVERT JUMPDEST PUSH1 0x0 PUSH2 0x16D1 DUP3 PUSH2 0xF59 JUMP JUMPDEST SWAP2 POP PUSH32 0xFFFFFFFFFFFFFFFFFFFFFFFFFFFFFFFFFFFFFFFFFFFFFFFFFFFFFFFFFFFFFFFF DUP3 SUB PUSH2 0x1703 JUMPI PUSH2 0x1702 PUSH2 0x1697 JUMP JUMPDEST JUMPDEST PUSH1 0x1 DUP3 ADD SWAP1 POP SWAP2 SWAP1 POP JUMP JUMPDEST PUSH1 0x0 PUSH2 0x1719 DUP3 PUSH2 0xF59 JUMP JUMPDEST SWAP2 POP PUSH2 0x1724 DUP4 PUSH2 0xF59 JUMP JUMPDEST SWAP3 POP DUP3 DUP3 ADD SWAP1 POP DUP1 DUP3 GT ISZERO PUSH2 0x173C JUMPI PUSH2 0x173B PUSH2 0x1697 JUMP JUMPDEST JUMPDEST SWAP3 SWAP2 POP POP JUMP JUMPDEST PUSH32 0x4E487B7100000000000000000000000000000000000000000000000000000000 PUSH1 0x0 MSTORE PUSH1 0x12 PUSH1 0x4 MSTORE PUSH1 0x24 PUSH1 0x0 REVERT JUMPDEST PUSH1 0x0 PUSH2 0x177C DUP3 PUSH2 0xF59 JUMP JUMPDEST SWAP2 POP PUSH2 0x1787 DUP4 PUSH2 0xF59 JUMP JUMPDEST SWAP3 POP DUP3 PUSH2 0x1797 JUMPI PUSH2 0x1796 PUSH2 0x1742 JUMP JUMPDEST JUMPDEST DUP3 DUP3 DIV SWAP1 POP SWAP3 SWAP2 POP POP JUMP INVALID LOG2 PUSH5 0x6970667358 0x22 SLT KECCAK256 0xE8 0xD2 0xCE 0xB1 EXTCODECOPY 0xC6 0x5C 0xB2 0x4C 0x4E 0xFB SWAP6 DUP16 SWAP15 0xE PUSH15 0x1BE872A881437F8FB38BC7D13CBA64 0xE8 PUSH5 0x736F6C6343 STOP ADDMOD GT STOP CALLER "},"gasEstimates":{"creation":{"codeDepositCost":"1220800","executionCost":"infinite","totalCost":"infinite"},"external":{"approveRequest(uint256)":"infinite","approvers(address)":"2891","approversCount()":"2474","campaignDescription()":"infinite","campaignGoal()":"2539","campaignName()":"infinite","contribute()":"infinite","contributionCount()":"2518","createRequest(string,string,uint256,address)":"infinite","finaliseRequest(uint256)":"infinite","getRequestsCount()":"2468","getSummary()":"infinite","hasApproved(address,uint256)":"5343","manager()":"2578","minContribution()":"2496","requests(uint256)":"infinite","totalRaised()":"2518"}},"methodIdentifiers":{"approveRequest(uint256)":"d7d1bbdb","approvers(address)":"0a144391","approversCount()":"82fde093","campaignDescription()":"110842cb","campaignGoal()":"ef068a7f","campaignName()":"0724fda9","contribute()":"d7bb99ba","contributionCount()":"5b18056b","createRequest(string,string,uint256,address)":"c7741265","finaliseRequest(uint256)":"e7b668b4","getRequestsCount()":"3410452a","getSummary()":"4051ddac","hasApproved(address,uint256)":"1c189d18","manager()":"481c6a75","minContribution()":"aaffadf3","requests(uint256)":"81d12c58","totalRaised()":"c5c4744c"}},"storageLayout":{"storage":[{"astId":79,"contract":"Campaign.sol:Campaign","label":"manager","offset":0,"slot":"0","type":"t_address"},{"astId":81,"contract":"Campaign.sol:Campaign","label":"campaignName","offset":0,"slot":"1","type":"t_string_storage"},{"astId":83,"contract":"Campaign.sol:Campaign","label":"campaignDescription","offset":0,"slot":"2","type":"t_string_storage"},{"astId":85,"contract":"Campaign.sol:Campaign","label":"campaignGoal","offset":0,"slot":"3","type":"t_uint256"},{"astId":87,"contract":"Campaign.sol:Campaign","label":"minContribution","offset":0,"slot":"4","type":"t_uint256"},{"astId":89,"contract":"Campaign.sol:Campaign","label":"contributionCount","offset":0,"slot":"5","type":"t_uint256"},{"astId":93,"contract":"Campaign.sol:Campaign","label":"approvers","offset":0,"slot":"6","type":"t_mapping(t_address,t_bool)"},{"astId":95,"contract":"Campaign.sol:Campaign","label":"approversCount","offset":0,"slot":"7","type":"t_uint256"},{"astId":99,"contract":"Campaign.sol:Campaign","label":"requests","offset":0,"slot":"8","type":"t_array(t_struct(Request)77_storage)dyn_storage"},{"astId":101,"contract":"Campaign.sol:Campaign","label":"totalRaised","offset":0,"slot":"9","type":"t_uint256"}],"types":{"t_address":{"encoding":"inplace","label":"address","numberOfBytes":"20"},"t_address_payable":{"encoding":"inplace","label":"address payable","numberOfBytes":"20"},"t_array(t_struct(Request)77_storage)dyn_storage":{"base":"t_struct(Request)77_storage","encoding":"dynamic_array","label":"struct Campaign.Request[]","numberOfBytes":"32"},"t_bool":{"encoding":"inplace","label":"bool","numberOfBytes":"1"},"t_mapping(t_address,t_bool)":{"encoding":"mapping","key":"t_address","label":"mapping(address => bool)","numberOfBytes":"32","value":"t_bool"},"t_string_storage":{"encoding":"bytes","label":"string","numberOfBytes":"32"},"t_struct(Request)77_storage":{"encoding":"inplace","label":"struct Campaign.Request","members":[{"astId":62,"contract":"Campaign.sol:Campaign","label":"name","offset":0,"slot":"0","type":"t_string_storage"},{"astId":64,"contract":"Campaign.sol:Campaign","label":"description","offset":0,"slot":"1","type":"t_string_storage"},{"astId":66,"contract":"Campaign.sol:Campaign","label":"value","offset":0,"slot":"2","type":"t_uint256"},{"astId":68,"contract":"Campaign.sol:Campaign","label":"recipient","offset":0,"slot":"3","type":"t_address_payable"},{"astId":70,"contract":"Campaign.sol:Campaign","label":"complete","offset":20,"slot":"3","type":"t_bool"},{"astId":72,"contract":"Campaign.sol:Campaign","label":"approvalCount","offset":0,"slot":"4","type":"t_uint256"},{"astId":76,"contract":"Campaign.sol:Campaign","label":"approvals","offset":0,"slot":"5","type":"t_mapping(t_address,t_bool)"}],"numberOfBytes":"192"},"t_uint256":{"encoding":"inplace","label":"uint256","numberOfBytes":"32"}}},"userdoc":{"kind":"user","methods":{},"version":1}}